:107000000C942A380C9484390C9445380C944538E7
:107010000C9445380C9445380C9445380C944538FC
:107020000C9445380C9445380C9445380C944538EC
:107030000C9445380C9445380C9445380C944538DC
:107040000C9445380C9445380C9445380C944538CC
:107050000C94453811241FBECFE5D8E0DEBFCDBF6C
:1070600010E0A0E6B0E0E6E7FEE702C005900D9272
:10707000A23FB107D9F711E0A2EFB0E001C01D9225
:10708000A73AB107E1F70C9490380C9400380895B2
:107090000895AC0120E030E006C080EA9FE001974F
:1070A000F1F72F5F3F4F24173507B9F70895E1999E
:1070B000FECFF7E0660F771F881F991FFA95D1F76B
:1070C00083E0FB0180935700E89507B600FCFDCFF5
:1070D000A0E01BC02A2F3327F901E75FFE4F508144
:1070E00041E0260F371FAF5FEA2FFF27E75FFE4F14
:1070F00080819927982F8827850F911D0C01F90110
:1071000040935700E8951124AF5FA03819F785E048
:10711000FB0180935700E89507B600FCFDCF08956A
:10712000CFE5D8E0DEBFCDBF1ABAD49A11BA17BAEC
:1071300014BA919A909A81E090E00E944938819B1C
:1071400063C089B39927EC01C071D07084FD23C05E
:10715000A0E0B0E00E94273F802D813049F4E19902
:10716000FECF80E0A0E0B0E0082E0E942F3F13C0C9
:107170009198899A81E090E00E944938809B0BC0E9
:107180008998919AFE0184918F3F29F0E091F20055
:10719000F091F30009951092F8006DE970E08BE82A
:1071A00090E00E94783C8FE099E30E94853C80E665
:1071B00090E00E94233D81E690E00E94233D8AE713
:1071C00090E00E94233D0E94C23CF89481E08BBF76
:1071D00082E08BBF78940E94363C0E94833DDC9A0B
:1071E00084E690E00E944938DC9884E690E00E94B2
:1071F0004938DC9A84E690E00E944938DC9880E2C5
:1072000093E00E944938EBCFDC9A84EF91E00E9432
:107210004938DC9884E690E00E944938F5CF1F9306
:10722000DC01F8948091F9008230C9F58091FC006E
:10723000482F552740FF1EC020E030E0FD01E20F3F
:10724000F31F8081F901E75BFE4F80832F5F3F4F83
:107250002034310599F7CA01019762E070E00E947D
:10726000003F882777FD8095982F0E94573810920D
:10727000F80012C020E030E0FD01E20FF31F808132
:10728000F901E75FFE4F80832F5F3F4F20343105C8
:1072900099F781E08093F8001092F90032C01C91B8
:1072A0001093F900123029F4FD0181818093FC00D4
:1072B00028C0113031F58091F800882351F0609199
:1072C000FC0066956093FC007727882799270E9429
:1072D000573868E08FE20E94673C61E08FE20E94CD
:1072E000673C61E080E00E94673C1BBF1BBE789456
:1072F00081E180935700E895E091F200F091F3006E
:10730000099578941F9108951F920F920FB60F92CE
:1073100011242F933F934F935F936F937F938F939A
:107320009F93AF93BF93EF93FF930E945D3DFF91B7
:10733000EF91BF91AF919F918F917F916F915F91ED
:107340004F913F912F910F900FBE0F901F90189566
:1073500087E280938A0185E28093890190E290938D
:107360008B0110928C0128E030E030938E01209345
:107370008D0183E28093960181E280939501909341
:1073800097011092980130939A01209399010895E2
:10739000089568E08BE20E94673C63E188E20E9406
:1073A000673C68E08FE20E94673C62E18CE20E94E9
:1073B000673C61E08FE20E94673C68E083E30E94E3
:1073C000673C61E180E30E94673C65E083E20E94E4
:1073D000673C08950F931F93CF93DF93EC012885AB
:1073E000398512161306DCF58E819F81821793076B
:1073F0001CF568E083E20E94673C00E010E00FC0EB
:107400008A859B85E80FF91F608181E20E94673CB5
:107410008E819F8101969F838E830F5F1F4FEE8128
:10742000FF8188859985083011051CF4E817F90754
:107430003CF3E817F90724F061E087E20E94673C1B
:107440008B81813031F465E089810E94673C1B8229
:1074500006C061E089810E94673C81E08B83DF91F7
:10746000CF911F910F910895CF93DF93CDB7DEB7E2
:1074700024970FB6F894DEBF0FBECDBFDC01FC0130
:107480002281338110929C0110929B0181E08093B4
:107490009801832F99278230E1F0833031F18130D8
:1074A00009F050C0E0910501F09106018081992713
:1074B00090939E0180939D01F093A001E0939F0122
:1074C000FD018681978180349105E1F588E090E0A7
:1074D00021C0FD018681978190939E0180939D013B
:1074E000809107019091080129C0E22F8091F60058
:1074F0009091F700222399F0FF27EE0FFF1FE80F6E
:10750000F91F0190F081E02DF093A001E0939F011D
:107510008081992790939E0180939D0113C094E0F0
:10752000998383E08A8389E08B839C8384E090E065
:1075300090939E0180939D01CE0101969093A001AE
:1075400080939F0185E991E00E94EA3924960FB665
:10755000F894DEBF0FBECDBFDF91CF910895CF93DA
:10756000DF9382E20E944E3CC82FDD27C5FF1AC080
:1075700068E083E20E94673CC6FF10C020919B0137
:1075800030919C0180919D0190919E0128173907AF
:107590002CF485E991E00E94EA3904C061E087E2B9
:1075A0000E94673CDF91CF9108958AE00E944E3C93
:1075B00080FF03C00E94AF3A08958AE20E944E3CC9
:1075C00082E30E944E3C8AE30E944E3C08958EE086
:1075D0000E944E3C08951F93CF93DF9388E00E9452
:1075E0004E3C182F86EB90E00E94753CC12FDD27A2
:1075F000C6FF1CC060E085E00E94673C60E884E054
:107600000E94673C60E080E20E94673C68E083E2A1
:107610000E94673C61E087E20E94673C62E085E08F
:107620000E94673C82EC90E00E94753CC4FF04C05D
:1076300060EC89E00E94673C17FF04C060ED89E0C0
:107640000E94673CC3FF04C08AEC90E00E94753C36
:10765000DF91CF911F910895AF92BF92CF92DF92A9
:10766000EF92FF920F931F93CF93DF93CDB7DEB7C7
:1076700028970FB6F894DEBF0FBECDBF86E20E94FA
:107680004E3C86FF78C08E010F5F1F4F580159E0B6
:10769000C52ED12CCC0EDD1E809189010E944E3C5E
:1076A000F80181938F017501EC15FD05A9F768E0DC
:1076B00087E20E94673C68E083E20E94673C80E2C8
:1076C0000E944E3C8F77682F80E20E94673C898140
:1076D00099279C01207630702032310579F12034D1
:1076E000310591F1232BC1F58F719070892B79F5BC
:1076F000F5018181863051F0873018F48530C9F466
:1077000009C0893079F08B30A1F410C0C5010E9406
:10771000343A2AC060E480E20E94673C6B81605882
:1077200084E020C0C5010E94C9391EC065E083E223
:1077300019C080ED90E00E94753C0EC065E971E0D3
:10774000C5010E94483803C0C5010E94473885E939
:1077500091E00E94EA3908C080E20E944E3C8058C5
:10776000682F80E20E94673CF70180818823D1F472
:1077700065E083E215C020919D0130919E018091CA
:10778000990190919A018217930764F410929E01D7
:1077900010929D0168E083E20E94673C61E087E20D
:1077A0000E94673C28960FB6F894DEBF0FBECDBF8F
:1077B000DF91CF911F910F91FF90EF90DF90CF90CD
:1077C000BF90AF900895CF92DF92EF92FF920F9308
:1077D0001F93CF93DF93CDB7DEB7C054D0400FB621
:1077E000F894DEBF0FBECDBF8CE00E944E3C9927BF
:1077F00080FF03C00E942C3B29C081FF27C08EE27E
:107800000E944E3C8DE20E944E3C89838E010F5FA8
:107810001F4F68016FE3E62EF12CE00EF11E0F5FA3
:107820001F4F0E94423CF80180830E151F05B9F7D7
:10783000E091FA00F091FB00C601099568E08FE243
:107840000E94673C61E08FE20E94673CC05CDF4FB2
:107850000FB6F894DEBF0FBECDBFDF91CF911F9161
:107860000F91FF90EF90DF90CF90089585B78260E1
:1078700085BF8BB780648BBF88EF81BB82B3886381
:1078800082BB089582B398E1892782BB0000000083
:1078900082B3892782BB83B3992708959FEF94BB56
:1078A00085BB82B398E6892782BB82B3892782BBD6
:1078B000000014BA0E94423C9927089585BB82B308
:1078C00098E2892782BB82B3892782BB089585BB52
:1078D0008FEF84BB82B398E6892782BB82B3892766
:1078E00082BB862F0E945E3C08950E94E43D08956D
:1078F000909306018093050170930801609307013E
:107900001092F5001092F40008959093FB0080937C
:10791000FA000895EF92FF921F93CF93DF937C01BB
:10792000C091F400D091F500209711F011E012C041
:1079300085E090E00E94073EFC019093F500809363
:10794000F400F182E08212821482138210E012C0ED
:107950001F5FEC018B819C810097D1F785E090E05F
:107960000E94073EFC019C838B83F182E08212839C
:1079700014821382812F9927DF91CF911F91FF905D
:10798000EF900895EF92FF920F931F93CF93DF93A1
:10799000E091F400F091F50080E090E00380F48144
:1079A000E02D01963097D1F7880F991F0E94073E6E
:1079B0009093F7008093F6000091F4001091F50089
:1079C000E801E880F9808A81C82FDD27CC0FDD1F10
:1079D0008091F6009091F700C80FD91FF7018081C0
:1079E00099270E94073E9983888320E030E017C0E2
:1079F000E801EA81FF27EE0FFF1F8091F6009091CA
:107A0000F700E80FF91F0190F081E02DE20FF31F5E
:107A1000D701A20FB31F8C9180832F5F3F4FF701D7
:107A200080819927281739071CF3E8018B819C81F5
:107A3000009711F08C01C4CFDF91CF911F910F916E
:107A4000FF90EF900895CF93DF93EC01FC0101903C
:107A50000020E9F7E81BF90BCF01880F991F0E945E
:107A6000073E9C01FE0101900020E9F7EC1BFD0B95
:107A7000EE0FFF1FDC01EC9383E0F901818340E00E
:107A800050E009C0FE01E40FF51F80818C93FD01D9
:107A900011824F5F5F4F1296FE0101900020E9F7BF
:107AA0003197EC1BFD0B4E175F0760F3C9010E9475
:107AB0008A3C9927DF91CF9108951F9386E00E9419
:107AC0004E3C992786FF03C00E94E33B0EC082FF15
:107AD00003C00E94D53A09C081FF03C00E94EB3A5F
:107AE00004C084FF02C00E94E73A87E00E944E3C37
:107AF000182F60E087E00E94673C612F87E00E94BA
:107B0000673C1F9108950E94A83961E080E00E94BF
:107B1000673C80E00E944E3C80FDFBCF62E081E04C
:107B20000E94673C60E18FE00E94673C60E884E06F
:107B30000E94673C60E480E20E94673C68E083E268
:107B40000E94673C69E087E20E94673C6FE08DE03D
:107B50000E94673C6FE08BE00E94673C60E589E033
:107B60000E94673C66ED87E00E94673C62E085E02A
:107B70000E94673C6CEC80E00E94673C089580ECBA
:107B80008BB988E18AB986E880BD10BC8AE189B9E1
:107B90008CB15F99FDCF08955D9BFECF8CB90895A0
:107BA0008CB1992708958A3310F4805301C087550A
:107BB0006A3310F4605301C067556F708295807FFF
:107BC000682B862F99270895FC0104C05D9BFECF8A
:107BD00031968CB980818823C9F70895982F9295A2
:107BE0009F708F709A3020F45D9BFECF905D03C034
:107BF0005D9BFECF995A9CB98A3020F45D9BFECFE5
:107C0000805D03C05D9BFECF895A8CB90895CF93E8
:107C1000DF93AC01029710F442E050E0A091A5017F
:107C2000B091A601FD01C0E0D0E020E030E020C02E
:107C3000808191818417950769F4828193812097CF
:107C400019F09B838A8304C09093A6018093A501B9
:107C5000CF0132C04817590738F42115310519F002
:107C60008217930708F49C01EF010280F381E02D55
:107C70003097F1F62115310589F1C901841B950B67
:107C8000049708F4A901E0E0F0E026C08D919C91F2
:107C9000119782179307E9F44817590779F4ED0112
:107CA0008A819B81309719F09383828304C09093DB
:107CB000A6018093A501CD01029649C0841B950BB6
:107CC000FD01E80FF91F4193519302978D939C9307
:107CD0003AC0FD01A281B3811097C1F68091A30142
:107CE0009091A401892B41F48091ED009091EE00D8
:107CF0009093A4018093A3012091EF003091F000B4
:107D00002115310541F42DB73EB78091EB009091DC
:107D1000EC00281B390BE091A301F091A4012E1B6C
:107D20003F0B2417350788F0CA0102962817390738
:107D300060F0CF01840F951F02969093A401809369
:107D4000A30141935193CF0102C080E090E0DF9105
:107D5000CF910895CF93DF93009709F44EC0EC01C3
:107D600022971B821A82A091A501B091A6011097BB
:107D700011F140E050E001C0DC01AC17BD0700F19B
:107D8000BB83AA83FE0121913191E20FF31FEA1711
:107D9000FB0771F42E5F3F4F8D919C911197820FDD
:107DA000931F99838883FD01828193819B838A83BA
:107DB0004115510559F4D093A601C093A5011DC0EA
:107DC000FD0182819381AD010097B1F6FA01D38361
:107DD000C28321913191E20FF31FEC17FD0769F483
:107DE0002E5F3F4F88819981820F931FFA01918303
:107DF00080838A819B8193838283DF91CF910895D1
:107E000097FB092E07260AD077FD04D00CD006D0A8
:107E100000201AF4709561957F4F0895F6F79095BC
:107E200081959F4F0895AA1BBB1B51E107C0AA1F54
:107E3000BB1FA617B70710F0A61BB70B881F991F0B
:107E40005A95A9F780959095BC01CD010895E199C7
:107E5000FECFBFBBAEBBE09A11960DB20895E1997B
:107E6000FECFBFBBAEBB0DBA11960FB6F894E29A27
:067E7000E19A0FBE089527
:107E76000055534270726F6720456D626564646594
:107E86006450726F6A656374730075736270726FA3
:107E96006742617365204D6F646500120110010031
:107EA6000000088117620C00000102000109021996
:107EB60000010100A01A09040000010000000007EB
:107EC600050202400000616C74206576656E740DD3
:107ED6000A0072657365740D0A00656F700D0A00FD
:107EE600756E737570706F72746564207374616EED
:107EF60064617264207265710A0D002000A701009A
:027F0600000079
:040000030000700089
:00000001FF
