:107000000C942A380C942E390C9445380C9445383D
:107010000C9445380C9445380C9445380C944538FC
:107020000C9445380C9445380C9445380C944538EC
:107030000C9445380C9445380C9445380C944538DC
:107040000C9445380C9445380C9445380C944538CC
:107050000C94453811241FBECFE5D8E0DEBFCDBF6C
:1070600010E0A0E6B0E0E6EEF8E702C005900D9271
:10707000AE3AB107D9F711E0AEEAB0E001C01D9217
:10708000AC35B107E1F70C94B8380C94003808958A
:1070900008950895AC0120E030E0E0EAFFE005C08B
:1070A000CF010197F1F72F5F3F4F24173507C4F346
:1070B00008951F931FB7F894E199FECFF7E0660F8C
:1070C000771F881F991FFA95D1F783E0FB01809302
:1070D0005700E89507B600FCFDCFAB01A2ECB0E08D
:1070E00031E02C91FD0181819927982F8827820F0B
:1070F000911D0C01FA0130935700E8951124129666
:107100004E5F5F4FF1E0A234BF0759F785E0FB0106
:1071100080935700E89507B600FCFDCF81E180938E
:107120005700E8951FBF1F9108958091B1008823F3
:1071300051F06091B50066956093B5007727882778
:1071400099270E94593868E08FE20E947A3B61E0FB
:107150008FE20E947A3B61E080E00E947A3B81E00E
:107160008BBF1BBEE091AE00F091AF000995089572
:10717000CFE5D8E0DEBFCDBFA0E0B0E00E946B3C21
:10718000802DE0E0F0E0E491EF3F11F00E949538AF
:10719000F89481E08BBF82E08BBF789488EC90E01C
:1071A0000E944A380E94FB3B60E670E080E890E075
:1071B0000E948B3B85EE98E30E94943B0E94493BE2
:1071C0000E94BF3B1092B100FFCFFC018091B20042
:1071D0008230A1F52091B500822F992780FF1FC032
:1071E0001092B100213019F41092B00007C001973D
:1071F00062E070E00E94443C6093B000DF01E2E096
:10720000F1E08D91819381E0E234F807D1F760914C
:10721000B0007727882799270E9459380CC081E051
:107220008093B100DF01E2ECF0E08D91819381E089
:10723000E230F807D1F71092B20008958081809370
:10724000B200823021F481818093B50008958130AD
:1072500021F40E9495381092B20008951F920F9267
:107260000FB60F9211242F933F934F935F936F9319
:107270007F938F939F93AF93BF93EF93FF930E945E
:10728000993BFF91EF91BF91AF919F918F917F912A
:107290006F915F914F913F912F910F900FBE0F9083
:1072A0001F90189587E28093430185E28093420105
:1072B00090E2909344011092450128E030E0309331
:1072C00047012093460183E280934F0181E280933E
:1072D0004E0190935001109251013093530120932D
:1072E00052010895089568E08BE20E947A3B61E1C3
:1072F00088E20E947A3B68E08FE20E947A3B62E17A
:107300008CE20E947A3B61E08FE20E947A3B65E06A
:1073100083E20E947A3B08950F931F93CF93DF93EC
:10732000EC012885398512161306DCF58E819F81C4
:10733000821793071CF568E083E20E947A3B00E025
:1073400010E00FC08A859B85E80FF91F608181E2FC
:107350000E947A3B8E819F8101969F838E830F5F6F
:107360001F4FEE81FF8188859985083011051CF437
:10737000E817F9073CF3E817F90724F061E087E222
:107380000E947A3B8B81813031F465E089810E94D3
:107390007A3B1B8206C061E089810E947A3B81E0D2
:1073A0008B83DF91CF911F910F910895DC01FC0138
:1073B0009381109255011092540181E08093510104
:1073C000913019F0923059F51BC0E091BE00F09158
:1073D000BF00808199279093570180935601F093C5
:1073E0005901E0935801FD01868197818034910510
:1073F000B1F488E090E090935701809356010FC05C
:10740000FD01868197819093570180935601809169
:10741000C0009091C10090935901809358018EE46F
:1074200091E00E948C390895CF93DF9382E20E940D
:10743000613BC82FDD27C5FF1AC068E083E20E94C8
:107440007A3BC6FF10C020915401309155018091C4
:10745000560190915701281739072CF48EE491E0DA
:107460000E948C3904C061E087E20E947A3BDF9180
:10747000CF91089588E00E94613B08958AE00E94C0
:10748000613B80FF03C00E94143A08958AE20E9483
:10749000613B82E30E94613B8AE30E94613B089565
:1074A0008EE00E94613B08950F931F93CF93DF936B
:1074B000CDB7DEB728970FB6F894DEBF0FBECDBFAD
:1074C00086E20E94613B86FF79C08E010F5F1F4FED
:1074D000809142010E94613BF80181938F01CE01AE
:1074E0000996E817F907A1F78E010F5F1F4F68E0B3
:1074F00087E20E947A3B68E083E20E947A3B80E266
:107500000E94613B8F77682F80E20E947A3B8981DD
:1075100099279C012076307020323105B1F120345A
:107520003105B9F1232BD9F58F719070892B19F59D
:10753000F8018181863051F0873018F48530B1F43C
:1075400009C0893079F08B3089F426C0C8010E94C7
:10755000D6392DC060E480E20E947A3B6B8160588E
:1075600084E023C0C8010E94733921C082E990E001
:107570000E94883B14C06EE471E0C8010E94473845
:107580008EE491E00E948C3912C0C8010E944938F3
:1075900003C0C8010E94483865E083E206C080E26B
:1075A0000E94613B8058682F80E20E947A3BF8017C
:1075B00080818823D1F465E083E215C020915601D3
:1075C0003091570180915201909153018217930796
:1075D00064F4109257011092560168E083E20E9411
:1075E0007A3B61E087E20E947A3B28960FB6F894D6
:1075F000DEBF0FBECDBFDF91CF911F910F910895D8
:107600000F931F93CF93DF93CDB7DEB7C054D04015
:107610000FB6F894DEBF0FBECDBF8CE00E94613B79
:10762000992780FF03C00E94543A27C081FF25C0DC
:107630008EE20E94613B8DE20E94613B89838E0154
:107640000F5F1F4F0F5F1F4F0E94553BF801808354
:10765000CE01805C9F4F08171907A1F7E091B30096
:10766000F091B400CE010196099568E08FE20E9486
:107670007A3B61E08FE20E947A3BC05CDF4F0FB63D
:10768000F894DEBF0FBECDBFDF91CF911F910F9158
:10769000089585B7826085BF8BB780648BBF88EF04
:1076A00081BB82B3886382BB089582B398E1892746
:1076B00082BB0000000082B3892782BB83B3992775
:1076C00008959FEF94BB85BB82B398E6892782BB60
:1076D00082B3892782BB000014BA0E94553B9927C8
:1076E000089585BB82B398E2892782BB82B389273C
:1076F00082BB089585BB8FEF84BB82B398E6892750
:1077000082BB82B3892782BB862F0E94713B08957A
:107710000E94213C08959093BF008093BE00709317
:10772000C1006093C00008959093B4008093B300AB
:1077300008951F9386E00E94613B992786FF03C04E
:107740000E94003B0EC082FF03C00E943E3A09C067
:1077500081FF03C00E943A3A04C084FF02C00E9425
:10776000503A87E00E94613B182F60E087E00E945A
:107770007A3B612F87E00E947A3B1F9108950E9417
:10778000523961E080E00E947A3B80E00E94613BD8
:1077900080FDFBCF60E881E00E947A3B60E18FE0F2
:1077A0000E947A3B60E884E00E947A3B60E480E2D9
:1077B0000E947A3B68E083E20E947A3B69E087E2BC
:1077C0000E947A3B6FE08DE00E947A3B6FE08BE095
:1077D0000E947A3B60E589E00E947A3B66ED87E093
:1077E0000E947A3B62E085E00E947A3B6CEC80E08C
:1077F0000E947A3B089580EC8BB988E98AB986E8C3
:1078000080BD10BC8AE189B98CB15F99FDCF089524
:107810005D9BFECF8CB908955F9BFECF8CB19927FD
:1078200008958A3310F4805301C087556A3310F4E9
:10783000605301C067558295807F6F70862B9927B2
:107840000895FC0104C05D9BFECF31968CB9808108
:107850008823C9F70895982F92959F708F709A305A
:1078600020F45D9BFECF905D03C05D9BFECF995AD7
:107870009CB98A3020F45D9BFECF805D03C05D9B88
:10788000FECF895A8CB9089597FB092E07260AD096
:1078900077FD04D00CD006D000201AF470956195C5
:1078A0007F4F0895F6F7909581959F4F0895AA1BF5
:1078B000BB1B51E107C0AA1FBB1FA617B70710F0DB
:1078C000A61BB70B881F991F5A95A9F7809590950D
:1078D000BC01CD010895E199FECFBFBBAEBBE09ADC
:0678E00011960DB208959F
:1078E60009022000010100A01A090400000200009C
:1078F600000007058102800000070502020008005B
:1079060012011001000000088117620C000000003F
:107916000001756E737570706F7274656420737490
:0E792600616E64617264207265710A0D00006A
:040000030000700089
:00000001FF
