:107000000C942A380C9447390C9447380C94473820
:107010000C9447380C9447380C9447380C944738F4
:107020000C9447380C9447380C9447380C944738E4
:107030000C9447380C9447380C9447380C944738D4
:107040000C9447380C9447380C9447380C944738C4
:107050000C94473811241FBECFE5D8E0DEBFCDBF6A
:1070600010E0A0E6B0E0ECE4F9E702C005900D9274
:10707000A63AB107D9F711E0A6EAB0E001C01D9227
:10708000A435B107E1F70E94BF380C94A53C0C94DD
:107090000038089508950895AC0120E030E006C05E
:1070A00080EA9FE00197F1F72F5F3F4F24173507E4
:1070B000BCF308951F931FB7F894E199FECFF7E052
:1070C000660F771F881F991FFA95D1F783E0FB01A0
:1070D00080935700E89507B600FCFDCFAAEBB0E01F
:1070E000AB013C9121E0FD0181819927982F8827F0
:1070F000830F911D0C01FA0120935700E89511248C
:1071000012964E5F5F4FF1E0AA33BF0751F785E05B
:10711000FB0180935700E89507B600FCFDCF81E1A5
:1071200080935700E8951FBF1F91089580E0A0E06D
:10713000B0E0082E0E94993C8091A900882351F06C
:107140006091AD0066956093AD00772788279927F9
:107150000E945A3868E08FE20E949F3B61E08FE214
:107160000E949F3B61E080E00E949F3B81E08BBFDB
:107170001BBEE091A600F091A70009950895CFE508
:10718000D8E0DEBFCDBFA0E0B0E00E94913C902DE2
:10719000F89481E08BBF82E08BBF7894992311F43F
:1071A0000E94963888EC90E00E944C3860E670E0CF
:1071B00089E790E00E94B03B87EE98E30E94B93BDC
:1071C0000E946E3B0E94E43B1092A900FFCFCF9338
:1071D000DF93EC018091AA00823049F0853009F4F8
:1071E00053C0813009F041C00E9496384DC02091B3
:1071F000AD00822F992780FF25C01092A900213071
:1072000019F41092A80007C0019762E070E00E9494
:107210006A3C6093A80020E030E0F901E650FF4F9F
:10722000DE01A20FB31F8C9180832F5F3F4F20346C
:10723000310599F76091A8007727882799270E9440
:107240005A3820C081E08093A90020E030E0F901A5
:10725000E654FF4FDE01A20FB31F8C9180832F5F96
:107260003F4F2034310599F70DC088818093AA00E3
:10727000823021F489818093AD0006C0813021F4F1
:107280000E9496381092AA00DF91CF9108951F9224
:107290000F920FB60F9211242F933F934F935F934A
:1072A0006F937F938F939F93AF93BF93EF93FF93CE
:1072B0000E94BE3BFF91EF91BF91AF919F918F9143
:1072C0007F916F915F914F913F912F910F900FBEE2
:1072D0000F901F90189587E280933B0185E2809381
:1072E0003A0190E290933C0110923D0128E030E099
:1072F00030933F0120933E0183E28093470181E276
:1073000080934601909348011092490130934B01BC
:1073100020934A010895089568E08FE20E949F3B00
:1073200062E18CE20E949F3B61E08FE20E949F3B02
:1073300008950F931F93CF93DF93EC012885398530
:1073400012161306DCF58E819F81821793071CF5B8
:1073500068E083E20E949F3B00E010E00FC08A8556
:107360009B85E80FF91F608181E20E949F3B8E811F
:107370009F8101969F838E830F5F1F4FEE81FF8158
:1073800088859985083011051CF4E817F9073CF346
:10739000E817F90724F061E087E20E949F3B8B81A8
:1073A000813031F465E089810E949F3B1B8206C0D9
:1073B00061E089810E949F3B81E08B83DF91CF91C7
:1073C0001F910F910895DC01FC01938110924D01F2
:1073D00010924C0181E080934901913019F0923074
:1073E00059F51BC0E091B600F091B7008081992754
:1073F00090934F0180934E01F0935101E09350011F
:10740000FD018681978180349105B1F488E090E098
:1074100090934F0180934E010FC0FD0186819781AB
:1074200090934F0180934E018091B8009091B900E4
:10743000909351018093500186E491E00E94993924
:107440000895CF93DF9382E20E94863BC82FDD2709
:10745000C5FF1AC068E083E20E949F3BC6FF10C0D0
:1074600020914C0130914D0180914E0190914F013E
:10747000281739072CF486E491E00E94993904C05A
:1074800061E087E20E949F3BDF91CF91089588E001
:107490000E94863B08958AE00E94863B80FF03C0DD
:1074A0000E94213A08958AE20E94863B82E30E946C
:1074B000863B8AE30E94863B08958EE00E94863BCD
:1074C0000895AF92BF92CF92DF92EF92FF920F9307
:1074D0001F93CF93DF93CDB7DEB728970FB6F894FD
:1074E000DEBF0FBECDBF86E20E94863B86FF7BC01B
:1074F0008E010F5F1F4F580189E0C82ED12CCC0E92
:10750000DD1E80913A010E94863BF80181938F0134
:107510007501EC15FD05A9F768E087E20E949F3B25
:1075200068E083E20E949F3B80E20E94863B8F7767
:10753000682F80E20E949F3B898199279C012076D9
:10754000307020323105B1F120343105B9F1232BEF
:10755000D9F58F719070892B19F5F50181818630ED
:1075600051F0873018F48530B1F409C0893079F0D2
:107570008B3089F426C0C5010E94E3392DC060E438
:1075800080E20E949F3B6B81605884E023C0C5016C
:107590000E948C3921C08BE890E00E94AD3B14C062
:1075A00066E471E0C5010E94493886E491E00E94DA
:1075B000993912C0C5010E944B3803C0C5010E9411
:1075C0004A3865E083E206C080E20E94863B80582C
:1075D000682F80E20E949F3BF70180818823D1F4CD
:1075E00065E083E215C020914E0130914F018091FA
:1075F0004A0190914B018217930764F410924F0156
:1076000010924E0168E083E20E949F3B61E087E2B6
:107610000E949F3B28960FB6F894DEBF0FBECDBFE9
:10762000DF91CF911F910F91FF90EF90DF90CF905E
:10763000BF90AF900895CF92DF92EF92FF920F9399
:107640001F93CF93DF93CDB7DEB7C054D0400FB6B2
:10765000F894DEBF0FBECDBF8CE00E94863B992719
:1076600080FF03C00E94613A29C081FF27C08EE2DB
:107670000E94863B8DE20E94863B89838E010F5FCC
:107680001F4F68019FE3E92EF12CE00EF11E0F5F02
:107690001F4F0E947A3BF80180830E151F05B9F732
:1076A000E091AB00F091AC00C601099568E08FE273
:1076B0000E949F3B61E08FE20E949F3BC05CDF4FD6
:1076C0000FB6F894DEBF0FBECDBFDF91CF911F91F3
:1076D0000F91FF90EF90DF90CF90089585B7826073
:1076E00085BF8BB780648BBF88EF81BB82B3886313
:1076F00082BB089582B398E1892782BB0000000015
:1077000082B3892782BB83B3992708959FEF94BBE7
:1077100085BB82B398E6892782BB82B3892782BB67
:10772000000014BA0E947A3B9927089585BB82B362
:1077300098E2892782BB82B3892782BB089585BBE3
:107740008FEF84BB82B398E6892782BB82B38927F7
:1077500082BB862F0E94963B08950E94473C089565
:107760009093B7008093B6007093B9006093B8000F
:1077700008959093AC008093AB0008951F9386E02A
:107780000E94863B992786FF03C00E941B3B0EC0C8
:1077900082FF03C00E944B3A09C081FF03C00E94D0
:1077A000473A04C084FF02C00E945D3A87E00E940D
:1077B000863B182F60E087E00E949F3B612F87E0A7
:1077C0000E949F3B1F9108950E946B3961E080E009
:1077D0000E949F3B80E00E94863B80FDFBCF62E0E1
:1077E00081E00E949F3B60E18FE00E949F3B60E848
:1077F00084E00E949F3B60E480E20E949F3B68E03F
:1078000083E20E949F3B69E087E20E949F3B6FE01A
:107810008DE00E949F3B6FE08BE00E949F3B60E504
:1078200089E00E949F3B66ED87E00E949F3B62E0FB
:1078300085E00E949F3B6CEC80E00E949F3B089596
:1078400080EC8BB988E98AB986E880BD10BC8AE1F2
:1078500089B98CB15F99FDCF08955D9BFECF8CB93E
:1078600008955F9BFECF8CB1992708958A3310F459
:10787000805301C087556A3310F4605301C06755C7
:107880006F708295807F682B862F99270895FC0161
:1078900004C05D9BFECF31968CB980818823C9F7E7
:1078A0000895982F92959F708F709A3020F45D9B69
:1078B000FECF905D03C05D9BFECF995A9CB98A3084
:1078C00020F45D9BFECF805D03C05D9BFECF895A97
:1078D0008CB9089597FB092E07260AD077FD04D0AE
:1078E0000CD006D000201AF4709561957F4F089552
:1078F000F6F7909581959F4F0895AA1BBB1B51E108
:1079000007C0AA1FBB1FA617B70710F0A61BB70B0F
:10791000881F991F5A95A9F780959095BC01CD01B4
:107920000895E199FECFBFBBAEBBE09A11960DB2B0
:107930000895E199FECFBFBBAEBB0DBA11960FB64D
:0C794000F894E29AE19A0FBE0895FFCF80
:10794C0009021900010100A01A090400000200003C
:10795C0000000705020240000012011001000000A7
:10796C00088117620C000000000001756E737570C1
:10797C00706F72746564207374616E6461726420DC
:06798C007265710A0D0096
:040000030000700089
:00000001FF
