:107000000C942A380C9442390C9445380C94453829
:107010000C9445380C9445380C9445380C944538FC
:107020000C9445380C9445380C9445380C944538EC
:107030000C9445380C9445380C9445380C944538DC
:107040000C9445380C9445380C9445380C944538CC
:107050000C94453811241FBECFE5D8E0DEBFCDBF6C
:1070600011E0A0E6B0E0EEE9F9E702C005900D926C
:10707000A038B107D9F712E0A0E8B1E001C01D9235
:10708000AE32B107E1F70C94BE380C940038089585
:1070900008950895AC0120E030E0E0EAFFE005C08B
:1070A000CF010197F1F72F5F3F4F24173507C4F346
:1070B00008951F931FB7F894E199FECFF7E0660F8C
:1070C000771F881F991FFA95D1F783E0FB01809302
:1070D0005700E89507B600FCFDCFAB01A4E9B1E08D
:1070E00031E02C91FD0181819927982F8827820F0B
:1070F000911D0C01FA0130935700E8951124129666
:107100004E5F5F4FF2E0A431BF0759F785E0FB0106
:1071100080935700E89507B600FCFDCF81E180938E
:107120005700E8951FBF1F91089580E0A0E0B0E0F0
:10713000082E0E94C33C80918301882351F0609106
:1071400087016695609387017727882799270E9492
:10715000593868E08FE20E94CA3B61E08FE20E94EA
:10716000CA3B61E080E00E94CA3B81E08BBF1BBE4E
:10717000E0918001F091810109950895CFE5D8E073
:10718000DEBFCDBFF89481E08BBF82E08BBF7894E7
:107190000E944B3C80E690E00E94713CA0E0B0E091
:1071A0000E94BB3C802D882311F40E94953888EC06
:1071B00090E00E944A386DE770E086E990E00E9416
:1071C000DB3B8CEE98E30E94E43B0E94993B0E94DB
:1071D0000F3C10928301FFCFFC018091840182302B
:1071E00069F0853019F08130E9F505C08AE090E05A
:1071F0000E944A3808950E94953808952091870189
:10720000822F992780FF1FC010928301213019F42B
:107210001092820107C0019762E070E00E94943CE6
:1072200060938201DF01E4EDF1E08D91819382E0D2
:10723000E431F807D1F760918201772788279927F1
:107240000E9459380CC081E080938301DF01E4E99A
:10725000F1E08D91819381E0E43DF807D1F7109240
:1072600084010895808180938401823021F481819A
:10727000809387010895813021F40E9495381092FF
:10728000840108951F920F920FB60F9211242F932D
:107290003F934F935F936F937F938F939F93AF939E
:1072A000BF93EF93FF930E94E93BFF91EF91BF9152
:1072B000AF919F918F917F916F915F914F913F918E
:1072C0002F910F900FBE0F901F90189587E280931B
:1072D000150285E28093140290E2909316021092B8
:1072E000170228E030E0309319022093180283E25D
:1072F0008093210281E280932002909322021092D7
:10730000230230932502209324020895089568E013
:107310008FE20E94CA3B62E18CE20E94CA3B61E0BC
:107320008FE20E94CA3B08950F931F93CF93DF9380
:10733000EC012885398512161306DCF58E819F81B4
:10734000821793071CF568E083E20E94CA3B00E0C5
:1073500010E00FC08A859B85E80FF91F608181E2EC
:107360000E94CA3B8E819F8101969F838E830F5F0F
:107370001F4FEE81FF8188859985083011051CF427
:10738000E817F9073CF3E817F90724F061E087E212
:107390000E94CA3B8B81813031F465E089810E9473
:1073A000CA3B1B8206C061E089810E94CA3B81E022
:1073B0008B83DF91CF911F910F910895CF93DF932E
:1073C000EC019B81109227021092260281E08093AB
:1073D0002302913019F0923089F51EC088EA90E0BE
:1073E0000E94D83BE0919001F09191018081992712
:1073F0009093290280932802F0932B02E0932A02B3
:107400008E819F8180349105C9F488E090E090934B
:1074100029028093280212C08CEB90E00E94D83B96
:107420008E819F81909329028093280280919201FE
:107430009091930190932B0280932A0280E292E034
:107440000E949439DF91CF9108951F93CF93DF93DA
:1074500082E20E94B13B182F86ED90E00E94D83B5B
:10746000C12FDD27C5FF1AC068E083E20E94CA3B36
:10747000C6FF10C020912602309127028091280279
:1074800090912902281739072CF480E292E00E949B
:10749000943904C061E087E20E94CA3BDF91CF913A
:1074A0001F91089588E00E94B13B08958AE00E94F0
:1074B000B13B80FF03C00E94253A089588ED90E01B
:1074C0000E94D83B8AE20E94B13B82E30E94B13B1A
:1074D0008AE30E94B13B08958EE00E94B13B08957B
:1074E0000F931F93CF93DF93CDB7DEB728970FB6D7
:1074F000F894DEBF0FBECDBF83EE90E00E94D83B74
:1075000086E20E94B13B86FFA9C08E010F5F1F4F2C
:10751000809114020E94B13BF80181938F01CE014A
:107520000996E817F907A1F78E010F5F1F4FF801C1
:1075300081918F0199270E947B3CCE010996081703
:107540001907A9F788EE90E00E94D83B8E010F5FE3
:107550001F4F68E087E20E94CA3B68E083E20E9416
:10756000CA3B80E20E94B13B8F77682F80E20E9485
:10757000CA3B898199279C012076307020323105E1
:1075800009F447C02034310509F44BC0232B09F01E
:1075900052C08F719070892B91F5F80181818630EE
:1075A00051F0873018F4853039F50DC08930B9F0C5
:1075B0008B3011F51CC08BEE90E00E94D83BC801C7
:1075C0000E94DE3944C08CEF90E00E94D83B60E41A
:1075D00080E20E94CA3B6B81605884E036C089E03B
:1075E00091E00E94D83BC8010E94873930C08DE1EC
:1075F00091E00E94D83B1CC08DE291E01EC060E289
:1076000072E0C8010E94473880E292E00E949439FB
:107610001EC088E491E00E94D83BC8010E9449380E
:1076200007C088E591E00E94D83BC8010E94483815
:1076300065E083E20AC089E691E00E94D83B80E2DF
:107640000E94B13B8058682F80E20E94CA3BF8013B
:1076500080818823D1F465E083E215C0209128025F
:10766000309129028091240290912502821793077C
:1076700064F4109229021092280268E083E20E94CA
:10768000CA3B61E087E20E94CA3B28960FB6F89495
:10769000DEBF0FBECDBFDF91CF911F910F91089537
:1076A0000F931F93CF93DF93CDB7DEB7C054D04075
:1076B0000FB6F894DEBF0FBECDBF8CE00E94B13B89
:1076C000992780FF03C00E94703A27C081FF25C020
:1076D0008EE20E94B13B8DE20E94B13B89838E0114
:1076E0000F5F1F4F0F5F1F4F0E94A53BF801808364
:1076F000CE01805C9F4F08171907A1F7E091850123
:10770000F0918601CE010196099568E08FE20E9412
:10771000CA3B61E08FE20E94CA3BC05CDF4F0FB6FC
:10772000F894DEBF0FBECDBFDF91CF911F910F91B7
:10773000089585B7826085BF8BB780648BBF88EF63
:1077400081BB82B3886382BB089582B398E18927A5
:1077500082BB0000000082B3892782BB83B39927D4
:1077600008959FEF94BB85BB82B398E6892782BBBF
:1077700082B3892782BB000014BA0E94A53B9927D7
:10778000089585BB82B398E2892782BB82B389279B
:1077900082BB089585BB8FEF84BB82B398E68927AF
:1077A00082BB82B3892782BB862F0E94C13B08958A
:1077B0000E94713C08959093910180939001709381
:1077C00093016093920108959093860180938501BF
:1077D00008951F9386E00E94B13B992786FF03C05E
:1077E0000E94503B0EC082FF03C00E94563A09C05F
:1077F00081FF03C00E94523A04C084FF02C00E946D
:107800006C3A87E00E94B13B182F60E087E00E944D
:10781000CA3B612F87E00E94CA3B1F9108950E94D6
:10782000663961E080E00E94CA3B80E00E94B13B83
:1078300080FDFBCF62E081E00E94CA3B60E18FE007
:107840000E94CA3B60E884E00E94CA3B60E480E298
:107850000E94CA3B68E083E20E94CA3B69E087E27B
:107860000E94CA3B6FE08DE00E94CA3B6FE08BE054
:107870000E94CA3B60E589E00E94CA3B66ED87E052
:107880000E94CA3B62E085E00E94CA3B6CEC80E04B
:107890000E94CA3B089580EC8BB988E98AB986E8D2
:1078A00080BD10BC8AE189B98CB15F99FDCF089584
:1078B0005D9BFECF8CB908955F9BFECF8CB199275D
:1078C00008958A3310F4805301C087556A3310F449
:1078D000605301C067558295807F6F70862B992712
:1078E0000895FC0104C05D9BFECF31968CB9808168
:1078F0008823C9F70895982F92959F708F709A30BA
:1079000020F45D9BFECF905D03C05D9BFECF995A36
:107910009CB98A3020F45D9BFECF805D03C05D9BE7
:10792000FECF895A8CB9089597FB092E07260AD0F5
:1079300077FD04D00CD006D000201AF47095619524
:107940007F4F0895F6F7909581959F4F0895AA1B54
:10795000BB1B51E107C0AA1FBB1FA617B70710F03A
:10796000A61BB70B881F991F5A95A9F7809590956C
:10797000BC01CD010895E199FECFBFBBAEBBE09A3B
:1079800011960DB20895E199FECFBFBBAEBB0DBA03
:0E79900011960FB6F894E29AE19A0FBE089590
:10799E000D0A626F6F746C6F61646572206973207B
:1079AE006E6F77206163746976650D0A000902199E
:1079BE0000010100A01A09040000020000000007E7
:1079CE00050202400000120110010000000881179C
:1079DE00620C000000000001444556494345204416
:1079EE00455343524950544F520A0D00434F4E4691
:1079FE00494755524154494F4E20444553435249ED
:107A0E0050544F52200074007478206576656E7461
:107A1E000D0A0072780D0A000D0A004745542044E5
:107A2E00455343524950544F520A0D00534554206A
:107A3E0041444452455353200053455420434F4E26
:107A4E0046494755524154494F4E0A0D005345542D
:107A5E0020494E544552464143450A0D00756E73FA
:107A6E007570706F72746564207374616E64617288
:107A7E0064207265710A0D00436C61737320726528
:107A8E0071756573740A0D0056656E646F7220729F
:107A9E006571756573740A0D00756E737570706F10
:107AAE00727465642072657120747970650D0A00B8
:040000030000700089
:00000001FF
