:107000000C942A380C9447390C9447380C94473820
:107010000C9447380C9447380C9447380C944738F4
:107020000C9447380C9447380C9447380C944738E4
:107030000C9447380C9447380C9447380C944738D4
:107040000C9447380C9447380C9447380C944738C4
:107050000C94473811241FBECFE5D8E0DEBFCDBF6A
:1070600010E0A0E6B0E0E6ECF9E702C005900D9272
:10707000A03CB107D9F711E0A0ECB0E001C01D922F
:10708000AE36B107E1F70E94BF380C94E23C0C9495
:107090000038089508950895AC0120E030E006C05E
:1070A00080EA9FE00197F1F72F5F3F4F24173507E4
:1070B000BCF308951F931FB7F894E199FECFF7E052
:1070C000660F771F881F991FFA95D1F783E0FB01A0
:1070D00080935700E89507B600FCFDCFA4EDB0E023
:1070E000AB013C9121E0FD0181819927982F8827F0
:1070F000830F911D0C01FA0120935700E89511248C
:1071000012964E5F5F4FF1E0A435BF0751F785E05F
:10711000FB0180935700E89507B600FCFDCF81E1A5
:1071200080935700E8951FBF1F91089580E0A0E06D
:10713000B0E0082E0E94D63C8091C300882351F015
:107140006091C70066956093C700772788279927C5
:107150000E945A3868E08FE20E94DC3B61E08FE2D7
:107160000E94DC3B61E080E00E94DC3B81E08BBF61
:107170001BBEE091C000F091C10009950895CFE5D4
:10718000D8E0DEBFCDBFA0E0B0E00E94CE3C902DA5
:10719000F89481E08BBF82E08BBF7894992311F43F
:1071A0000E94963888EC90E00E944C3860E670E0CF
:1071B00089E790E00E94ED3B87EE98E30E94F63B62
:1071C0000E94AB3B0E94213C1092C300FFCFCF93A3
:1071D000DF93EC018091C400823049F0853009F4DE
:1071E00053C0813009F041C00E9496384DC02091B3
:1071F000C700822F992780FF25C01092C30021303D
:1072000019F41092C20007C0019762E070E00E947A
:10721000A73C6093C20020E030E0F901EC5EFE4F35
:10722000DE01A20FB31F8C9180832F5F3F4F20346C
:10723000310599F76091C2007727882799270E9426
:107240005A3820C081E08093C30020E030E0F9018B
:10725000EC52FF4FDE01A20FB31F8C9180832F5F92
:107260003F4F2034310599F70DC088818093C400C9
:10727000823021F489818093C70006C0813021F4D7
:107280000E9496381092C400DF91CF9108951F920A
:107290000F920FB60F9211242F933F934F935F934A
:1072A0006F937F938F939F93AF93BF93EF93FF93CE
:1072B0000E94FB3BFF91EF91BF91AF919F918F9106
:1072C0007F916F915F914F913F912F910F900FBEE2
:1072D0000F901F90189587E28093550185E2809367
:1072E000540190E2909356011092570128E030E04B
:1072F000309359012093580183E28093610181E228
:107300008093600190936201109263013093650154
:10731000209364010895089568E08FE20E94DC3BA9
:1073200062E18CE20E94DC3B61E08FE20E94DC3B88
:1073300008950F931F93CF93DF93EC012885398530
:1073400012161306DCF58E819F81821793071CF5B8
:1073500068E083E20E94DC3B00E010E00FC08A8519
:107360009B85E80FF91F608181E20E94DC3B8E81E2
:107370009F8101969F838E830F5F1F4FEE81FF8158
:1073800088859985083011051CF4E817F9073CF346
:10739000E817F90724F061E087E20E94DC3B8B816B
:1073A000813031F465E089810E94DC3B1B8206C09C
:1073B00061E089810E94DC3B81E08B83DF91CF918A
:1073C0001F910F910895DC01FC01938110926701D8
:1073D0001092660181E080936301913019F0923040
:1073E00059F51BC0E091D000F091D1008081992720
:1073F0009093690180936801F0936B01E0936A01B7
:10740000FD018681978180349105B1F488E090E098
:1074100090936901809368010FC0FD018681978177
:1074200090936901809368018091D2009091D3007C
:1074300090936B0180936A0180E691E00E949939F4
:107440000895CF93DF9382E20E94C33BC82FDD27CC
:10745000C5FF1AC068E083E20E94DC3BC6FF10C093
:1074600020916601309167018091680190916901D6
:10747000281739072CF480E691E00E94993904C05E
:1074800061E087E20E94DC3BDF91CF9108958AE0C2
:107490000E94C33B80FF03C00E94213A08958AE204
:1074A0000E94C33B82E30E94C33B8AE30E94C33B2A
:1074B00008958EE00E94C33B08951F93CF93DF93FE
:1074C00088E00E94C33B182F8BE890E00E94EA3BC3
:1074D000C12FDD27C6FF1CC060E085E00E94DC3BB9
:1074E00060E884E00E94DC3B60E080E20E94DC3BDC
:1074F00068E083E20E94DC3B61E087E20E94DC3BC3
:1075000062E085E00E94DC3B87E990E00E94EA3B74
:10751000C4FF04C060EC89E00E94DC3B17FF04C09C
:1075200060ED89E00E94DC3BC3FF04C08FE990E07E
:107530000E94EA3BDF91CF911F910895AF92BF92D5
:10754000CF92DF92EF92FF920F931F93CF93DF932F
:10755000CDB7DEB728970FB6F894DEBF0FBECDBF0C
:1075600086E20E94C33B86FF7BC08E010F5F1F4FE8
:10757000580189E0C82ED12CCC0EDD1E809154011B
:107580000E94C33BF80181938F017501EC15FD0545
:10759000A9F768E087E20E94DC3B68E083E20E9492
:1075A000DC3B80E20E94C33B8F77682F80E20E9421
:1075B000DC3B898199279C0120763070203231058F
:1075C000B1F120343105B9F1232BD9F58F719070C9
:1075D000892B19F5F5018181863051F0873018F437
:1075E0008530B1F409C0893079F08B3089F426C038
:1075F000C5010E94E3392DC060E480E20E94DC3BBB
:107600006B81605884E023C0C5010E948C3921C081
:1076100085EA90E00E94EA3B14C060E671E0C50193
:107620000E94493880E691E00E94993912C0C50154
:107630000E944B3803C0C5010E944A3865E083E2CE
:1076400006C080E20E94C33B8058682F80E20E94FF
:10765000DC3BF70180818823D1F465E083E215C02B
:1076600020916801309169018091640190916501D8
:107670008217930764F4109269011092680168E020
:1076800083E20E94DC3B61E087E20E94DC3B2896BB
:107690000FB6F894DEBF0FBECDBFDF91CF911F9123
:1076A0000F91FF90EF90DF90CF90BF90AF90089533
:1076B000CF92DF92EF92FF920F931F93CF93DF93BE
:1076C000CDB7DEB7C054D0400FB6F894DEBF0FBEC2
:1076D000CDBF8CE00E94C33B992780FF03C00E946E
:1076E0009E3A29C081FF27C08EE20E94C33B8DE2F3
:1076F0000E94C33B89838E010F5F1F4F68019FE388
:10770000E92EF12CE00EF11E0F5F1F4F0E94B73BD8
:10771000F80180830E151F05B9F7E091C500F091BF
:10772000C600C601099568E08FE20E94DC3B61E07B
:107730008FE20E94DC3BC05CDF4F0FB6F894DEBFE7
:107740000FBECDBFDF91CF911F910F91FF90EF90B2
:10775000DF90CF90089585B7826085BF8BB7806436
:107760008BBF88EF81BB82B3886382BB089582B3ED
:1077700098E1892782BB0000000082B3892782BB81
:1077800083B3992708959FEF94BB85BB82B398E696
:10779000892782BB82B3892782BB000014BA0E946A
:1077A000B73B9927089585BB82B398E2892782BBAE
:1077B00082B3892782BB089585BB8FEF84BB82B3D8
:1077C00098E6892782BB82B3892782BB862F0E94D5
:1077D000D33B08950E94843C08959093D1008093F8
:1077E000D0007093D3006093D20008959093C600A8
:1077F0008093C50008951F9386E00E94C33B99279C
:1078000086FF03C00E94583B0EC082FF03C00E9447
:10781000473A09C081FF03C00E945D3A04C084FF5B
:1078200002C00E94593A87E00E94C33B182F60E0D3
:1078300087E00E94DC3B612F87E00E94DC3B1F91C8
:1078400008950E946B3961E080E00E94DC3B80E09B
:107850000E94C33B80FDFBCF62E081E00E94DC3BE5
:1078600060E18FE00E94DC3B60E884E00E94DC3B4A
:1078700060E480E20E94DC3B68E083E20E94DC3B43
:1078800069E087E20E94DC3B6FE08DE00E94DC3B18
:107890006FE08BE00E94DC3B60E589E00E94DC3B0E
:1078A00066ED87E00E94DC3B62E085E00E94DC3B05
:1078B0006CEC80E00E94DC3B089580EC8BB988E999
:1078C0008AB986E880BD10BC8AE189B98CB15F991C
:1078D000FDCF08955D9BFECF8CB908955F9BFECFD1
:1078E0008CB1992708958A3310F4805301C08755CD
:1078F0006A3310F4605301C067556F708295807FC2
:10790000682B862F99270895FC0104C05D9BFECF4C
:1079100031968CB980818823C9F70895982F929564
:107920009F708F709A3020F45D9BFECF905D03C0F6
:107930005D9BFECF995A9CB98A3020F45D9BFECFA7
:10794000805D03C05D9BFECF895A8CB9089597FB7B
:10795000092E07260AD077FD04D00CD006D00020CF
:107960001AF4709561957F4F0895F6F7909581957B
:107970009F4F0895AA1BBB1B51E107C0AA1FBB1F45
:10798000A617B70710F0A61BB70B881F991F5A95AB
:10799000A9F780959095BC01CD010895E199FECF9E
:1079A000BFBBAEBBE09A11960DB20895E199FECF30
:1079B000BFBBAEBB0DBA11960FB6F894E29AE19A2E
:0679C0000FBE0895FFCF89
:1079C60009021900010100A01A09040000020000C2
:1079D600000007050202400000120110010000002D
:1079E600088117620C000000000001616C742065BC
:1079F60076656E740D0A0072657365740D0A00650E
:107A06006F700D0A00756E737570706F72746564B1
:107A1600207374616E64617264207265710A0D0070
:040000030000700089
:00000001FF
