:107000000C942A380C94C0390C9447380C944738A7
:107010000C9447380C9447380C9447380C944738F4
:107020000C9447380C9447380C9447380C944738E4
:107030000C9447380C9447380C9447380C944738D4
:107040000C9447380C9447380C9447380C944738C4
:107050000C94473811241FBECFE5D8E0DEBFCDBF6A
:1070600010E0A0E6B0E0E8EAFEE702C005900D926D
:10707000A23FB107D9F711E0A2EFB0E001C01D9225
:10708000AA3AB107E1F70E94A8380C94533F0C9438
:10709000003808950895AC0120E030E006C080EA91
:1070A0009FE00197F1F72F5F3F4F24173507B9F79E
:1070B0000895F8948BB78F718BBF19BE6F988AB102
:1070C0008F718AB986B78E7F86BF4398339887B70A
:1070D0008F7787BFE39808951F931FB7F894E199BE
:1070E000FECFF7E0660F771F881F991FFA95D1F73B
:1070F00083E0FB0180935700E89507B600FCFDCFC5
:10710000ACE0B1E0AB013C9121E0FD018181992728
:10711000982F8827830F911D0C01FA0120935700A7
:10712000E895112412964E5F5F4FF1E0AC38BF072F
:1071300051F785E0FB0180935700E89507B600FC06
:10714000FDCF81E180935700E8951FBF1F910895FF
:10715000CFE5D8E0DEBFCDBF0E9459381ABAD49A25
:1071600011BA17BA14BA919A909A81E090E00E94ED
:107170004B38819B63C089B39927EC01C071D070F3
:1071800084FD23C0A0E0B0E00E943F3F802D81300D
:1071900049F4E199FECF80E0A0E0B0E0082E0E9423
:1071A000473F13C09198899A81E090E00E944B3844
:1071B000809B0BC08998919AFE0184918F3F29F0A2
:1071C000E091F200F091F30009951092FA006DE958
:1071D00070E08BE890E00E94B23C89E299E30E9463
:1071E000BF3C80E690E00E945D3D81E690E00E9419
:1071F0005D3D8AE790E00E945D3D0E94FC3CF89472
:1072000081E08BBF82E08BBF78940E94723C0E9429
:10721000BD3DDC9A84E690E00E944B38DC9884E621
:1072200090E00E944B38DC9A84E690E00E944B3854
:10723000DC9880E293E00E944B38EBCFDC9A84EF3D
:1072400091E00E944B38DC9884E690E00E944B3835
:10725000F5CF0F931F93DC010FB7F8948091FB00DB
:10726000823009F044C08091FE009091FF0080FFC1
:1072700029C01092FA008130910529F41092F5008E
:107280001092F40007C00197969587959093F500AA
:107290008093F40020E030E0FD01E20FF31F8081D5
:1072A000F901E45BFE4F80832F5F3F4F20343105AF
:1072B00099F76091F4007091F500882799270E9452
:1072C0006C3812C081E08093FA0020E030E0FD01CC
:1072D000E20FF31F8081F901E45FFE4F80832F5F8F
:1072E0003F4F2034310599F71092FB0045C01C91A7
:1072F0001093FB00123091F4FD012181332730936C
:10730000FF002093FE0082819927982F8827822BE7
:10731000932B9093FF008093FE002EC0113061F5F7
:107320008091FA00882371F06091FE007091FF0057
:10733000769567957093FF006093FE0088279927E4
:107340000E946C3868E08FE20E94A33C61E08FE20B
:107350000E94A33C61E080E00E94A33C0E94593857
:107360001BBF1BBE0FBF81E180935700E895E091E2
:10737000F200F091F300099578941F910F91089510
:107380001F920F920FB60F9211242F933F934F939A
:107390005F936F937F938F939F93AF93BF93EF937D
:1073A000FF930E94973DFF91EF91BF91AF919F9105
:1073B0008F917F916F915F914F913F912F910F909E
:1073C0000FBE0F901F90189587E280938D0185E284
:1073D00080938C0190E290938E0110928F0128E0AF
:1073E00030E0309391012093900183E280939901E2
:1073F00081E28093980190939A0110929B013093BF
:107400009D0120939C010895089568E08BE20E94FD
:10741000A33C63E188E20E94A33C68E08FE20E9403
:10742000A33C62E18CE20E94A33C61E08FE20E94F7
:10743000A33C68E083E30E94A33C61E180E30E94F7
:10744000A33C65E083E20E94A33C08950F931F9341
:10745000CF93DF93EC012885398512161306DCF5EE
:107460008E819F81821793071CF568E083E20E945A
:10747000A33C00E010E00FC08A859B85E80FF91F50
:10748000608181E20E94A33C8E819F8101969F834F
:107490008E830F5F1F4FEE81FF81888599850830AD
:1074A00011051CF4E817F9073CF3E817F90724F075
:1074B00061E087E20E94A33C8B81813031F465E07A
:1074C00089810E94A33C1B8206C061E089810E94E1
:1074D000A33C81E08B83DF91CF911F910F910895A1
:1074E000CF93DF93CDB7DEB724970FB6F894DEBF06
:1074F0000FBECDBFDC01FC012281338110929F01C0
:1075000010929E0181E080939B01832F9927823006
:10751000E1F0833031F1813009F050C0E091080191
:10752000F0910901808199279093A1018093A00196
:10753000F093A301E093A201FD018681978180343D
:107540009105E1F588E090E021C0FD0186819781F9
:107550009093A1018093A00180910A0190910B0169
:1075600029C0E22F8091F8009091F900222399F030
:10757000FF27EE0FFF1FE80FF91F0190F081E02DAC
:10758000F093A301E093A201808199279093A10138
:107590008093A00113C094E0998383E08A8389E0FB
:1075A0008B839C8384E090E09093A1018093A00161
:1075B000CE0101969093A3018093A20188E991E006
:1075C0000E94263A24960FB6F894DEBF0FBECDBFB8
:1075D000DF91CF910895CF93DF9382E20E948A3C9E
:1075E000C82FDD27C5FF1AC068E083E20E94A33CD4
:1075F000C6FF10C020919E0130919F018091A00193
:107600009091A101281739072CF488E991E00E9494
:10761000263A04C061E087E20E94A33CDF91CF914B
:1076200008958AE00E948A3C80FF03C00E94EB3AE2
:1076300008958AE20E948A3C82E30E948A3C8AE39F
:107640000E948A3C08958EE00E948A3C08951F9310
:10765000CF93DF9388E00E948A3C182F86EB90E05E
:107660000E94B13CC12FDD27C6FF1CC060E085E051
:107670000E94A33C60E884E00E94A33C60E080E2BA
:107680000E94A33C68E083E20E94A33C61E087E2A1
:107690000E94A33C62E085E00E94A33C82EC90E063
:1076A0000E94B13CC4FF04C060EC89E00E94A33C8E
:1076B00017FF04C060ED89E00E94A33CC3FF04C033
:1076C0008AEC90E00E94B13CDF91CF911F91089528
:1076D000AF92BF92CF92DF92EF92FF920F931F93E0
:1076E000CF93DF93CDB7DEB728970FB6F894DEBF00
:1076F0000FBECDBF86E20E948A3C86FF78C08E0115
:107700000F5F1F4F580159E0C52ED12CCC0EDD1E46
:1077100080918C010E948A3CF80181938F01750150
:10772000EC15FD05A9F768E087E20E94A33C68E03C
:1077300083E20E94A33C80E20E948A3C8F77682FFC
:1077400080E20E94A33C898199279C0120763070B9
:107750002032310579F12034310591F1232BC1F527
:107760008F719070892B79F5F5018181863051F008
:10777000873018F48530C9F409C0893079F08B302E
:10778000A1F410C0C5010E94703A2AC060E480E2F2
:107790000E94A33C6B81605884E020C0C5010E9418
:1077A000053A1EC065E083E219C080ED90E00E94BA
:1077B000B13C0EC068E971E0C5010E944A3803C0BF
:1077C000C5010E94493888E991E00E94263A08C024
:1077D00080E20E948A3C8058682F80E20E94A33C8D
:1077E000F70180818823D1F465E083E215C0209100
:1077F000A0013091A10180919C0190919D0182177F
:10780000930764F41092A1011092A00168E083E252
:107810000E94A33C61E087E20E94A33C28960FB639
:10782000F894DEBF0FBECDBFDF91CF911F910F91B6
:10783000FF90EF90DF90CF90BF90AF900895CF92E0
:10784000DF92EF92FF920F931F93CF93DF93CDB709
:10785000DEB7C054D0400FB6F894DEBF0FBECDBF28
:107860008CE00E948A3C992780FF03C00E94683BFD
:1078700029C081FF27C08EE20E948A3C8DE20E94CF
:107880008A3C89838E010F5F1F4F68016FE3E62EEC
:10789000F12CE00EF11E0F5F1F4F0E947E3CF8019D
:1078A00080830E151F05B9F7E091FC00F091FD00F3
:1078B000C601099568E08FE20E94A33C61E08FE277
:1078C0000E94A33CC05CDF4F0FB6F894DEBF0FBE32
:1078D000CDBFDF91CF911F910F91FF90EF90DF907F
:1078E000CF90089585B7826085BF8BB780648BBFCA
:1078F00088EF81BB82B3886382BB089582B398E12D
:10790000892782BB0000000082B3892782BB83B332
:10791000992708959FEF94BB85BB82B398E689278A
:1079200082BB82B3892782BB000014BA0E947E3CCE
:107930009927089585BB82B398E2892782BB82B3D9
:10794000892782BB089585BB8FEF84BB82B398E6FD
:10795000892782BB82B3892782BB862F0E949A3CEB
:1079600008950895909309018093080170930B0185
:1079700060930A011092F7001092F6000895909318
:10798000FD008093FC000895EF92FF921F93CF9328
:10799000DF937C01C091F600D091F700209711F0A1
:1079A00011E012C085E090E00E94413EFC019093FE
:1079B000F7008093F600F182E08212821482138233
:1079C00010E012C01F5FEC018B819C810097D1F702
:1079D00085E090E00E94413EFC019C838B83F18214
:1079E000E082128314821382812F9927DF91CF9135
:1079F0001F91FF90EF900895EF92FF920F931F93C6
:107A0000CF93DF93E091F600F091F70080E090E0F3
:107A10000380F481E02D01963097D1F7880F991FEC
:107A20000E94413E9093F9008093F8000091F60087
:107A30001091F700E801E880F9808A81C82FDD27DE
:107A4000CC0FDD1F8091F8009091F900C80FD91F6D
:107A5000F701808199270E94413E9983888320E025
:107A600030E017C0E801EA81FF27EE0FFF1F809189
:107A7000F8009091F900E80FF91F0190F081E02DD6
:107A8000E20FF31FD701A20FB31F8C9180832F5FEA
:107A90003F4FF70180819927281739071CF3E80128
:107AA0008B819C81009711F08C01C4CFDF91CF9125
:107AB0001F910F91FF90EF900895CF93DF93EC010A
:107AC000FC0101900020E9F7E81BF90BCF01880FBA
:107AD000991F0E94413E9C01FE0101900020E9F7A0
:107AE000EC1BFD0BEE0FFF1FDC01EC9383E0F901B3
:107AF000818340E050E009C0FE01E40FF51F808162
:107B00008C93FD0111824F5F5F4F1296FE01019031
:107B10000020E9F73197EC1BFD0B4E175F0760F370
:107B2000C9010E94C43C9927DF91CF9108951F930A
:107B300086E00E948A3C992786FF03C00E941F3C72
:107B40000EC082FF03C00E94113B09C081FF03C029
:107B50000E94273B04C084FF02C00E94233B87E0B1
:107B60000E948A3C182F60E087E00E94A33C612FAE
:107B700087E00E94A33C1F9108950E94E43961E0D0
:107B800080E00E94A33C80E00E948A3C80FDFBCF05
:107B900062E081E00E94A33C60E18FE00E94A33C90
:107BA00060E884E00E94A33C60E480E20E94A33C81
:107BB00068E083E20E94A33C69E087E20E94A33C64
:107BC0006FE08DE00E94A33C6FE08BE00E94A33C3D
:107BD00060E589E00E94A33C66ED87E00E94A33C3B
:107BE00062E085E00E94A33C6CEC80E00E94A33C34
:107BF000089580EC8BB988E18AB986E880BD10BC15
:107C00008AE189B98CB15F99FDCF08955D9BFECF64
:107C10008CB908958CB1992708958A3310F4805354
:107C200001C087556A3310F4605301C067556F7007
:107C30008295807F682B862F99270895FC0104C0C8
:107C40005D9BFECF31968CB980818823C9F708955A
:107C5000982F92959F708F709A3020F45D9BFECF85
:107C6000905D03C05D9BFECF995A9CB98A3020F489
:107C70005D9BFECF805D03C05D9BFECF895A8CB9B2
:107C80000895CF93DF93AC01029710F442E050E0E7
:107C9000A091A801B091A901FD01C0E0D0E020E0D1
:107CA00030E020C0808191818417950769F482813A
:107CB0009381209719F09B838A8304C09093A90134
:107CC0008093A8019F0132C04817590738F4211545
:107CD000310519F08217930708F49C01EF01028027
:107CE000F381E02D3097F1F62115310599F1C901A5
:107CF000841B950B049708F4A901E0E0F0E028C08C
:107D00008D919C91119782179307F9F448175907A1
:107D100081F4ED018A819B81309719F093838283EE
:107D200004C09093A9018093A8019D012E5F3F4F4D
:107D30004CC0841B950BFD01E80FF91F4193519333
:107D400002978D939C939F0140C0FD01A281B38156
:107D50001097B1F68091A6019091A701892B41F46B
:107D60008091ED009091EE009093A7018093A60181
:107D70002091EF003091F0002115310549F48DB7C5
:107D8000282F33278091EB009091EC00281B390BB2
:107D9000A091A601B091A7012A1B3B0B2417350720
:107DA00090F0CA0102962817390768F09D012E5FEE
:107DB0003F4FC901840F951F9093A7018093A6019F
:107DC0004D935C9302C020E030E0C901DF91CF9178
:107DD0000895CF93DF93009709F44EC0EC012297EA
:107DE0001B821A82A091A801B091A901109711F1EC
:107DF00040E050E001C0DC01AC17BD0700F1BB83DF
:107E0000AA83FE0121913191E20FF31FEA17FB07CC
:107E100071F48D919C911197280F391F2E5F3F4F60
:107E200039832883FD01828193819B838A83411555
:107E3000510559F4D093A901C093A8011DC0FD01BB
:107E400082819381AD010097B1F6FA01D383C28399
:107E500021913191E20FF31FEC17FD0769F488813E
:107E60009981280F391F2E5F3F4FFA0131832083FC
:107E70008A819B8193838283DF91CF910895E199D9
:107E8000FECFBFBBAEBBE09A11960DB20895E1994B
:107E9000FECFBFBBAEBB0DBA11960FB6F894E29AF7
:087EA000E19A0FBE0895FFCF27
:107EA8000055534270726F6720456D626564646562
:107EB8006450726F6A656374730075736270726F71
:107EC8006742617365204D6F6465001201100100FF
:107ED8000000088117620C00000102000109021964
:107EE80000010100A01A09040000010000000007B9
:107EF800050202400000616C74206576656E740DA1
:107F08000A0072657365740D0A00656F700D0A00CA
:107F1800756E737570706F72746564207374616EBA
:107F280064617264207265710A0D002000AA010064
:027F3800000047
:040000030000700089
:00000001FF
