:100000000C9447000C9430010C9462000C94620034
:100010000C9462000C9462000C9462000C946200D8
:100020000C9462000C9462000C9462000C946200C8
:100030000C9462000C9464000C9462000C946200B6
:100040000C9462000C9462000C9462000C946200A8
:100050000C9462006B039403CA039406EF0301043B
:100060004B04940694064E04940694069406940653
:1000700094065404A104B804D204F7046F0595054E
:1000800003061D065D054D052D06F10347061124E7
:100090001FBECFE5D8E0DEBFCDBF10E0A0E6B0E0E8
:1000A000EAE7F3E202C005900D92A43FB107D9F749
:1000B00012E0A4EFB0E001C01D92A139B107E1F751
:1000C0000C9499060C9400001F920F920FB60F9299
:1000D00011240F900FBE0F901F901895BE9881EAC3
:1000E00087BB81E58DB908958FB9779BFECF0895C1
:1000F0001FB888EE93E002C0019711F0779BFCCF08
:100100008FB1992708950895809115019091160156
:10011000019749F467E08BE20E94640A109216018D
:1001200010921501089563E08BE20E94640A81E059
:1001300090E090931601809315010895EF92FF923D
:100140000F931F93CF93DF937C0168E08BE20E94B3
:10015000640AC0E0D0E00CE111E007C0F801619151
:100160008F0189E20E94640A2196CE15DF05B4F35F
:100170000E948400DF91CF911F910F91FF90EF902B
:100180000895CF93DF938091030190910401892B0F
:1001900009F45CC068E08BE20E94640A809103016C
:1001A000909104018134910518F4C0E0D0E03DC085
:1001B000C0E0D0E0E0911801F091190196E0EE0F57
:1001C000FF1F9A95E1F7EC0FFD1FE45EFE4F608183
:1001D00089E20E94640A2196C034D10559F78091C2
:1001E00018019091190101969093190180931801BB
:1001F00080910301909104018054904090930401F8
:100200008093030121C0E0911801F091190186E06B
:10021000EE0FFF1F8A95E1F7EC0FFD1FE45EFE4F26
:10022000608189E20E94640A219680910301909185
:100230000401C817D90738F3109219011092180158
:1002400010920401109203010E948400DF91CF916B
:100250000895FC018181813011F40E946410089599
:100260001F920F920FB60F9211242F933F934F932B
:100270005F936F937F938F939F93AF93BF93EF930E
:10028000FF930E94640FFF91EF91BF91AF919F91F7
:100290008F917F916F915F914F913F912F910F902F
:1002A0000FBE0F901F901895982F80EC8FB9779BF9
:1002B000FECF9FB9779BFECF6FB9779BFECF4FB92B
:1002C000779BFECF8AE090E00E947A100895EF922B
:1002D000FF920F931F93CF93DF93EC018091130153
:1002E00090911401019719F060E070E01EC0109227
:1002F00014011092130180910301909104018C501C
:10030000914058F085E180931C0180EC80931D01A1
:1003100082E090E00E949E0006C080E290E0909310
:10032000F5008093F4006AE070E0209103013091C1
:10033000040180E490E0861B970BA901460F571F2C
:100340008217930790F44054504050930401409317
:10035000030181E090E0909312018093110140E449
:1003600050E0DE01A60FB71F19C0109204011092D1
:1003700003011092120110921101F3CF8091F40049
:100380009091F5002D91FC01E45EFE4F20830196D3
:100390009093F5008093F4006F5F7F4F64177507AB
:1003A00068F38091030190910401892BE9F5C0E283
:1003B000D0E03CE3E32E31E0F32E26C0F70141917B
:1003C0007F0160910C0170910D0180910E0190915F
:1003D0000F01072F182F292F3327802F0E94540138
:1003E000219680910C0190910D01A0910E01B09188
:1003F0000F010196A11DB11D80930C0190930D0179
:10040000A0930E01B0930F018091F4009091F5003C
:10041000C817D90798F285E180931C0110921D013D
:1004200082E090E00E949E00DF91CF911F910F919A
:10043000FF90EF900895809109018FB9779BFECFCF
:1004400020910C0130910D0140910E0150910F014E
:10045000BB27A52F942F832F8FB9779BFECF2FB962
:10046000779BFECF0E94780099270895292F332784
:10047000982F80E48FB9779BFECF2FB9779BFECF63
:100480009FB9779BFECF6FB9779BFECF88E48FB97A
:10049000779BFECF2FB9779BFECF9FB9779BFECF7F
:1004A0004FB9779BFECF0895AF92BF92CF92DF9264
:1004B000EF92FF920F931F93CF93DF93BC01A09015
:1004C0000C01B0900D01C0900E01D0900F018091F1
:1004D0000501882309F4C0C0809113019091140193
:1004E00020910301309104018130910509F049C048
:1004F0002733310590F09093120180931101265318
:1005000030403093040120930301B0E4EB2EF12C32
:10051000EB012A960AE010E02CC010921201109212
:100520001101AAE0EA2EF12CE20EF31E1092040152
:1005300010920301EDCF4981688180910C01909167
:100540000D010E94360280910C0190910D01A09145
:100550000E01B0910F010196A11DB11D80930C01F8
:1005600090930D01A0930E01B0930F010E5F1F4FEA
:1005700022960E151F05FCF2109214011092130121
:1005800041C02134310580F081E090E09093120168
:1005900080931101205430403093040120930301D3
:1005A000F0E4EF2EF12C09C010921201109211010B
:1005B00079011092040110920301EB0100E010E0B8
:1005C0001EC04981688180910C0190910D010E94AB
:1005D000360280910C0190910D01A0910E01B09115
:1005E0000F010196A11DB11D80930C0190930D0187
:1005F000A0930E01B0930F010E5F1F4F22960E15B0
:100600001F05FCF28091030190910401892B21F5D3
:10061000809108018FB9779BFECF95018B2D99278B
:1006200087FD9A958FB9779BFECF2FB9779BFECF29
:100630001FB8779BFECF84E190E00E947A1083E19F
:1006400080931C0110921D0182E090E00E949E00A8
:100650001092120110921101DF91CF911F910F9111
:10066000FF90EF90DF90CF90BF90AF9008950F93E1
:100670001F93CF93DF93EC0168E08BE20E94640A42
:100680008091110190911201892B81F080911001CC
:10069000833119F4CE010E945402809110018531FA
:1006A00009F042C3CE010E9467013EC38881809356
:1006B000100188819927AA27BB27FC013197ED31CA
:1006C000F10508F031C3E65DFF4FEE0FFF1F059007
:1006D000F491E02D099481E080931C0110921D019A
:1006E0008AE080931E0181E480931F0186E5809358
:1006F000200182E58093210189E48093220183E532
:100700008093230180E5809324018FE58093250168
:100710008DE4809326018BE48093270182E380930C
:1007200028018DE090E0FEC282E080931C011092CF
:100730001D018981883909F032C1FE0132968A8112
:100740008330A9F0843028F48130B9F0823050F43D
:1007500007C0853081F0853060F0863091F40DC09F
:1007600080E501C081E58DB981E08EB90FC081E5DA
:1007700005C082E5F8CF82E501C083E58DB91EB8DA
:1007800005C081E58DB91EB883E08A83808180939E
:10079000170105C183E080931C0110921D0189811E
:1007A0008239A1F0833938F4803909F441C28139A2
:1007B00009F03EC209C0883969F0813A09F438C2AB
:1007C000843909F035C204C081E006C086E004C067
:1007D0008AE202C08091170180931E012BC285E03E
:1007E000DAC08A818FB9779BFECF8B818FB9779BD7
:1007F000FECF8C818FB9779BFECF0E9478009CE161
:100800003BC289819927AA27BB2780930C0190932B
:100810000D01A0930E01B0930F012A81BA2FA92FC9
:10082000982F8827332744275527822B932BA42BD7
:10083000B52B80930C0190930D01A0930E01B09302
:100840000F012B81BA2FA92F982F882733274427F0
:100850005527822B932BA42BB52B80930C019093BF
:100860000D01A0930E01B0930F012C81BA2FA92F77
:10087000982F8827332744275527822B932BA42B87
:10088000B52B80930C0190930D01A0930E01B093B2
:100890000F0186E080C00E94641046C28AE0809307
:1008A0001C0110921D0140C210920C0110920D010A
:1008B00010920E0110920F01C798C09A8AE090E042
:1008C0000E947A10000000000000C09800000000A4
:1008D0000000000089E190E00E947A108CEA8FB954
:1008E000779BFECF83E58FB9779BFECFDC9A80E1C3
:1008F00080931C0180EC80931D0105E010E00E94B4
:1009000078009E81891721F41FB8779BFECF45C0E0
:100910001FB8779BFECF84E190E00E947A108CEAAA
:100920008FB9779BFECF83E58FB9779BFECF0150C0
:10093000104029F71FB8779BFECF80EC80931D01F4
:100940002EC0DC98C09A81E180931C0110921D0199
:1009500082E090E00E949E0080911A0190911B011C
:10096000892B09F0E1C11092160110921501DCC12A
:100970008B818FB9779BFECF8C818FB9779BFECF10
:100980001FB8779BFECF1FB8779BFECF8981992731
:100990000E947A1082E180931C0110921D0182E076
:1009A00090E0C0C189812A819927982F8827332711
:1009B000822B932B90930401809303018B8180936E
:1009C00005018C81809306018D81809307018E81C2
:1009D000809308018F818093090181E090E09093DA
:1009E000140180931301CE010E94540299C08981A1
:1009F0002A819927982F88273327822B932B0196BA
:100A0000909304018093030101972B8120930901A6
:100A1000EC010EE111E03CC0809109018FB9779B98
:100A2000FECF20910C0130910D0140910E015091AB
:100A30000F01BB27A52F942F832F8FB9779BFECF54
:100A40002FB9779BFECF0E947800F80180838091B8
:100A50000901803221F488E28093090116C080E206
:100A60008093090180910C0190910D01A0910E01DC
:100A7000B0910F010196A11DB11D80930C019093BF
:100A80000D01A0930E01B0930F010F5F1F4F21972F
:100A90001C161D060CF284E191C08A818FB9779BE8
:100AA000FECF8B818FB9779BFECF8C818FB9779BDF
:100AB000FECF0E9478009AE1DFC089818FB9779BD1
:100AC000FECF8A818FB9779BFECF8B818FB9779BC1
:100AD000FECF8C818FB9779BFECF89E1A5C089813C
:100AE0002A819927982F88273327822B932B90933D
:100AF0000401809303018B81809305018C81809395
:100B000006018D81809307018F818093090181E027
:100B100090E09093140180931301CE010E9467012D
:100B20001092140110921301FFC089812A81992724
:100B3000982F88273327822B932B019690930401BB
:100B40008093030101972B8120930901EC010EE1B1
:100B500011E030C0809109018FB9779BFECF2091C1
:100B60000C0130910D0140910E0150910F01BB27F6
:100B7000A52F942F832F8FB9779BFECF2FB9779B0B
:100B8000FECF0E947800F80181938F0180910C01C3
:100B900090910D01A0910E01B0910F010196A11D40
:100BA000B11D80930C0190930D01A0930E01B093A1
:100BB0000F0121971C161D066CF286E180931C0123
:100BC00010921D018091030190910401FC01E35EEC
:100BD000FE4F10828F339105A0F080E490E00E94D8
:100BE0009E008091030190910401CE97909304019F
:100BF0008093030181E090E09093190180931801A4
:100C000093C002968FC089818FB9779BFECF8A816E
:100C10008FB9779BFECF8B818FB9779BFECF8C816D
:100C20008FB9779BFECF87E180931C0110921D0145
:100C300010921E0183E090E075C08A818FB9779B86
:100C4000FECF8B818FB9779BFECF8C818FB9779B3D
:100C5000FECF0E94780098E10FC08A818FB9779B00
:100C6000FECF8B818FB9779BFECF8C818FB9779B1D
:100C7000FECF0E9478009BE190931C0110921D0111
:100C800080931E0110921F0184E090E04BC081E030
:100C900090E090931B0180931A01FE0134968C81A1
:100CA0008FB9779BFECF8D818FB9779BFECF8E81D9
:100CB0008FB9779BFECF80818035D1F0813560F48C
:100CC0008832B1F0893218F48032C9F411C080330F
:100CD00079F08833A1F40CC0803A51F0813A18F4CD
:100CE000883569F405C08C3A31F0803C41F403C08A
:100CF0000E94780005C08F818FB9779BFECF80E07E
:100D000010921E0110921F01109220018093210168
:100D10008DE180931C0110921D01109222018A81A5
:100D2000992703960E949E00DF91CF911F910F910A
:100D30000895CDE5D8E0DEBFCDBFBE9881EA87BB80
:100D400081E58DB90E94750A10921201109211016D
:100D500083E08093170181E090E090931B018093E2
:100D60001A01109219011092180180E18ABBDC98D7
:100D7000C09A8BEE93E00E94C00A84E091E20E9448
:100D8000C50A80E092E00E94CA0A89E0898384E073
:100D90008A83CE0101960E94B20E80E690E00E9406
:100DA0005C0F89E690E00E94540F8AE790E00E9471
:100DB0004C0F0E94860E4C0162E370E00E94D80A3C
:100DC00060E070E0C4010E94F20D3C0140E050E0A0
:100DD000BC01C4010E94F90A21ECA22E20E0B22E2F
:100DE000CC24DD2490E4E92EF12C02E022E030E076
:100DF00041E050E0B301C4010E94870D87E3A82EB3
:100E000083E0B82E22E030E041E050E0B301C401BD
:100E10000E94BF0D0E94330A78940E948A0FFFCF70
:100E200087E28093700285E280936F0290E2909354
:100E300071021092720228E030E030937402209325
:100E4000730283E280937E0281E280937D0290931D
:100E50007F021092800230938202209381020895D3
:100E6000089560918C0281E20E94640A089568E00E
:100E70008BE20E94640A62E188E20E94640A68E0F0
:100E80008FE20E94640A62E18CE20E94640A61E0DF
:100E90008FE20E94640A65E083E20E94640A08957A
:100EA0000F931F938C0160E480E20E94640AF801B2
:100EB0006281605884E00E94640AF8018281809314
:100EC0008B021F910F9108950F931F93CF93DF9380
:100ED000EC012A853B8512161306DCF58885998579
:100EE000821793071CF568E083E20E94640A00E021
:100EF00010E00FC08C859D85E80FF91F608181E2AD
:100F00000E94640A888599850196998788870F5F72
:100F10001F4FE885F9858A859B85083011051CF4EB
:100F2000E817F9073CF3E817F90724F061E087E2D6
:100F30000E94640A8B81813031F465E089810E94CE
:100F4000640A1B8206C061E089810E94640A81E014
:100F50008B83DF91CF911F910F910895CF93DF93F2
:100F6000CDB7DEB724970FB6F894DEBF0FBECDBF66
:100F7000DC01FC01228133811092860210928502ED
:100F800081E080938002832F99278230D9F08330CB
:100F900069F1813009F057C080915B0299279093E5
:100FA0008802809387028BE592E090938A02809377
:100FB0008902868197818034910509F044C088E0D8
:100FC00090E029C0FD0186819781909388028093EB
:100FD0008702E22FFF27EE0FFF1F80916D02909195
:100FE0006E02E80FF91F8081918129C02223C1F090
:100FF000E22FFF27EE0FFF1F809101019091020168
:10100000E80FF91F0190F081E02DF0938A02E09340
:10101000890280819927909388028093870213C068
:1010200094E0998383E08A8389E08B839C8384E0C6
:1010300090E09093880280938702CE01019690936E
:101040008A02809389028DE792E00E9464072496C9
:101050000FB6F894DEBF0FBECDBFDF91CF910895DC
:10106000CF93DF9382E20E944B0AC82FDD27C5FF92
:101070001FC068E083E20E94640AC6FF10C020918E
:10108000850230918602809187029091880228170C
:1010900039074CF48DE792E00E9464070DC088E8A0
:1010A00090E00E94720A61E087E20E94640A04C034
:1010B00089E990E00E94720ADF91CF9108958AE059
:1010C0000E944B0A992780FF03C00E9430080895B0
:1010D00081FF0DC08AE20E944B0A80914802813054
:1010E00061F4E0914B02F0914C020995089582E37E
:1010F0000E944B0A8AE30E944B0A08951F9388E0DE
:101100000E944B0A182F84EA90E00E94720A812FF5
:10111000992786FF1BC060E085E00E94640A60E8B2
:1011200084E00E94640A60E080E20E94640A68E051
:1011300083E20E94640A61E087E20E94640A62E03E
:1011400085E00E94640A80EB90E021C084FF0BC020
:1011500060EC89E00E94640A63E085E00E94640A12
:1011600088EB90E014C017FF0BC060E589E00E9497
:10117000640A62E085E00E94640A8EEB90E007C09A
:1011800083FF03C087EC90E002C08DEC90E00E94EA
:10119000720A1F9108958EE00E944B0A84ED90E040
:1011A0000E94720A08950F931F93CF93DF93CDB7D8
:1011B000DEB728970FB6F894DEBF0FBECDBF86E22C
:1011C0000E944B0A86FF6FC08E010F5F1F4F8091F8
:1011D0006F020E944B0AF80181938F01CE0109969C
:1011E000E817F907A1F78E010F5F1F4F68E087E24C
:1011F0000E94640A68E083E20E94640A80E20E941E
:101200004B0A8F77682F80E20E94640A89819927B0
:101210008076907080329105A1F18034910571F152
:10122000892B91F5F80181818630E1F0873050F407
:10123000833091F1843018F4823030F52DC0853040
:1012400019F514C08930B1F08A3018F48830E1F40F
:1012500005C08A3009F18B30B9F413C0C8010E946F
:1012600031071AC0C8010E94AE0716C0C8010E940B
:10127000500712C0C8010E9437070EC0C8010E9463
:10128000290165E083E206C080E20E944B0A805893
:10129000682F80E20E94640AF80180818823D1F4DB
:1012A00065E083E215C02091870230918802809129
:1012B0008102909182028217930764F4109288024F
:1012C0001092870268E083E20E94640A61E087E28C
:1012D0000E94640A28960FB6F894DEBF0FBECDBFF9
:1012E000DF91CF911F910F9108950F931F93CF938B
:1012F000DF93CDB7DEB7C054D0400FB6F894DEBF51
:101300000FBECDBF8CE00E944B0A182F81EE90E0FB
:101310000E94720A812F992780FF03C00E94D30880
:1013200075C081FF28C08EE20E944B0A8DE20E94A8
:101330004B0A89838E010F5F1F4F0F5F1F4F0E9463
:101340003F0AF8018083CE01805C9F4F0817190780
:10135000A1F78091F600813039F4E091F900F09125
:10136000FA00CE010196099568E08FE20E94640AB6
:1013700061E08FE229C082FF2AC086E30E944B0A07
:1013800085E30E944B0A89838E010F5F1F4F0F5F19
:101390001F4F0E943F0AF8018083CE01805C9F4F5F
:1013A00008171907A1F78091F700813039F4E0910F
:1013B000FB00F091FC00CE010196099568E087E3FF
:1013C0000E94640A61E087E30E94640A1FC083FFF1
:1013D0001DC08EE30E944B0A8E010F5F1F4F8DE3ED
:1013E0000E944B0AF80181938F01CE018F5B9F4FC2
:1013F000E817F907A1F78091F800813039F4E091FE
:10140000F900F091FA00CE0101960995C05CDF4F1A
:101410000FB6F894DEBF0FBECDBFDF91CF911F9105
:101420000F910895CF92DF92EF92FF920F931F9347
:10143000CF93DF936C017A01C0E0D0E08B0107C04D
:10144000F80161918F01C6010E941F102196CE15EF
:10145000DF05B4F3DF91CF911F910F91FF90EF90D3
:10146000DF90CF90089585B7826085BF8BB7806489
:101470008BBF88EF81BB82B3886382BB089582B340
:1014800098E1892782BB0000000082B3892782BBD4
:1014900083B3992708959FEF94BB85BB82B398E6E9
:1014A000892782BB82B3892782BB000014BA0E94BD
:1014B0003F0A9927089585BB82B398E2892782BBAA
:1014C00082B3892782BB089585BB8FEF84BB82B32B
:1014D00098E6892782BB82B3892782BB862F0E9428
:1014E0005B0A08950E94DD0F089582E180935B02FC
:1014F00081E080935C0280E191E090935E028093B2
:101500005D0210925F02109260021092610288E008
:10151000809362021092640210926302109266023B
:10152000109265021092680210926702109269028E
:1015300010926A0210926B0210926C021092F600E6
:101540001092F7001092F80010924802109249028F
:1015500010924A021092520210925102109200010F
:101560001092FF0008959093640280936302709339
:101570006602609365025093680240936702089583
:10158000909364028093630208959093660280931F
:10159000650208959093680280936702089580938E
:1015A0005F02089580936002089580936102089518
:1015B000CF93DF939C01CB01E0915102F091520255
:1015C00062E070E00E9482110FC0A081B18182812F
:1015D000823039F4ED018D8199278217930709F440
:1015E00068870780F085E02D309779F7DF91CF91FC
:1015F0000895CF93DF939C01E0915102F091520244
:1016000014C0A081B1818281843061F484819927E2
:101610008217930739F4868199278617970711F463
:10162000ED014B830780F085E02D309751F7DF9176
:10163000CF910895BF92CF92DF92EF92FF920F93D6
:101640001F93CF93DF936C01162FF42EB22EC0910F
:101650005102D09152022097A1F489E090E00E94BB
:101660008910FC019093520280935102D182C08272
:10167000138310861782F282B4820583E68215C036
:10168000EC018F8198850097D9F789E090E00E945E
:101690008910FC0198878F83D182C0821383F282E4
:1016A000B4820583E68210861782DF91CF911F9165
:1016B0000F91FF90EF90DF90CF90BF900895EF9241
:1016C000FF921F93CF93DF937C01C091FF00D091D5
:1016D0000001209711F011E012C085E090E00E9417
:1016E0008910FC01909300018093FF00F182E08259
:1016F00012821482138210E012C01F5FEC018B81F2
:101700009C810097D1F785E090E00E948910FC0150
:101710009C838B83F182E082128314821382812F57
:101720009927DF91CF911F91FF90EF900895EF924D
:10173000FF920F931F93CF93DF93E091FF00F091FF
:10174000000180E090E00380F481E02D0196309765
:10175000D1F7880F991F0E948910909302018093FE
:1017600001010091FF0010910001E801E880F9807B
:101770008A81C82FDD27CC0FDD1F80910101909158
:101780000201C80FD91FF701808199270E94891093
:101790009983888320E030E0D70114C0E801EA8112
:1017A000FF27EE0FFF1F8091010190910201E80FCA
:1017B000F91F0190F081E02DE20FF31F8D918083DE
:1017C0002F5F3F4FF701808199272817390734F39E
:1017D000E8018B819C81009711F08C01C6CFDF91CD
:1017E000CF911F910F91FF90EF9008956F927F928C
:1017F0008F929F92AF92BF92CF92DF92EF92FF9221
:101800000F931F93CF93DF93E0915102F091520217
:101810008824992409C08281823019F40894811C9B
:10182000911C0780F085E02D3097A9F73401660CF4
:10183000771CC3010E94891090936E0280936D0201
:1018400071E0E72EF12CAA24BB2453C0E091510291
:10185000F091520269E0C62ED12C15C0A081B18151
:10186000848199278E159F0519F48381C80ED11C98
:10187000ED018D818E1521F48281823009F45D01A4
:101880000780F085E02D309749F700916D021091A7
:101890006E02060D171D02501040C6010E948910ED
:1018A000F8019183808320E030E0D501E0916D0262
:1018B000F0916E02E60DF71D32970190F081E02D58
:1018C000E20FF31F8D9180832F5F3F4F2930310549
:1018D00069F7E0916D02F0916E02E60DF71D329707
:1018E0000190F081E02D8C2D875F82830894E11CAC
:1018F000F11C8E149F040CF0A9CF51E0E52EF12CC1
:1019000049E0C42ED12C6624772432E0A32EB12CDA
:101910009AC08481682E772415C0A0915102B0919D
:1019200052020EC0ED91FC9111978181823029F411
:10193000858199278E159F0561F3ED01AF81B885EB
:10194000109781F701E010E073C04091510250916F
:10195000520268C0DA01ED91FC918181843009F076
:101960005EC0EA018E8199278017910709F057C060
:101970008C8199278E159F0509F051C09601DF01D2
:10198000BF01675F7F4FE0916D02F0916E02EA0D3B
:10199000FB1D32970190F081E02DE20FF31F8D9136
:1019A00080832F5F3F4FA617B70769F7E9E0F0E0A4
:1019B000CE0EDF1EC0915102D09152022EC08A81FC
:1019C000853041F58C8199278E159F0519F58D81FC
:1019D000992780179107F1F4888199819601DC019C
:1019E000BC01695F7F4FE0916D02F0916E02EA0DDC
:1019F000FB1D32970190F081E02DE20FF31F8D91D6
:101A000080832F5F3F4FA617B70769F787E090E005
:101A1000C80ED91E0F80D885C02D209781F6EA0107
:101A20004F8158854115510509F094CF0F5F1F4F25
:101A3000601671060CF089CF0894E11CF11CE2E0FD
:101A4000F0E0AE0EBF1E8E149F040CF066CFDF9147
:101A5000CF911F910F91FF90EF90DF90CF90BF90AB
:101A6000AF909F908F907F906F9008956F927F922C
:101A70008F929F92AF92BF92CF92DF92EF92FF929E
:101A80000F93CF93DF935C013B014901E091510239
:101A9000F091520216C0A081B18184819927A816C5
:101AA000B90661F4868199278615970539F48281F4
:101AB000843021F4ED018C818F5F8C830780F08569
:101AC000E02D309741F787E090E00E948910FC01FB
:101AD00087E0808385E0818382820383F582E482CC
:101AE000C682EE24062D2A2D45E067E0CF010E9434
:101AF0001A0BDF91CF910F91FF90EF90DF90CF9075
:101B0000BF90AF909F908F907F906F900895AF920D
:101B1000BF92CF92DF92EF92FF920F93FC01A1143C
:101B2000B10401F14230510571F04330510599F093
:101B300041305105B9F481E080934802B0924C02E3
:101B4000A0924B020FC081E080934902B0924E02F6
:101B5000A0924D0207C081E080934A02B0925002E9
:101B6000A0924F0220583F4FCF010E94360D0F9197
:101B7000FF90EF90DF90CF90BF90AF900895AF921D
:101B8000BF92CF92DF92EF92FF920F93FC0142300F
:101B9000510571F04330510599F041305105B9F4C8
:101BA00081E08093F600B092FA00A092F9000FC095
:101BB00081E08093F700B092FC00A092FB0007C088
:101BC00081E08093F800B092FE00A092FD00CF016A
:101BD0000E94360D0F91FF90EF90DF90CF90BF9055
:101BE000AF900895CF92DF92EF920F931F93CF9310
:101BF000DF936C018B01A0915102B0915202C0E0C1
:101C0000D0E014C02D913C911197F90185818C157C
:101C100051F4FD018281823031F4F90184818F5FBA
:101C20008483C82FDD27FD01A781B085109751F768
:101C300089E090E00E948910FC0189E0808384E0C3
:101C40008183028313821482158216821782108682
:101C5000EC2E00E02C2D44E069E0CF010E941A0B2D
:101C6000CE01DF91CF911F910F91EF90DF90CF9038
:101C70000895BF92CF92DF92EF92FF920F931F933E
:101C8000CF93DF936C017B01142FB22EA0915102F0
:101C9000B0915202C0E0D0E014C02D913C91119758
:101CA000F90185818C1551F4FD018281823031F476
:101CB000F90184818F5F8483C82FDD27FD01A7810F
:101CC000B085109751F789E090E00E948910FC01DF
:101CD00089E0808384E08183E28213821482158309
:101CE000B68207831086EC2E00E02C2D44E069E0DC
:101CF000CF010E941A0BCE01DF91CF911F910F915E
:101D0000FF90EF90DF90CF90BF900895CF92DF9239
:101D1000EF920F93C0906C02C394C0926C02DD24CA
:101D200089E090E00E948910FC0189E0808389E0CD
:101D300090E09383828382E081831482C58216823D
:101D400080EA87838AE18087EE2400E020E042E099
:101D500069E0CF010E941A0BC6010F91EF90DF904E
:101D6000CF900895EF92FF920F931F93CF93DF933D
:101D70008C01FC0101900020E9F73197E81BF90B79
:101D8000EE0FFF1FCF0102960E9489107C01BC015B
:101D9000F80101900020E9F73197E01BF10BEE0FFD
:101DA000FF1FEE5FDC01EC9383E0E701898340E0F5
:101DB00050E0F80101900020E9F73197E01BF10BAA
:101DC000980108C0D9018D919D01EB01888319828A
:101DD0004F5F5F4F6E5F7F4F4E175F0798F3C701EE
:101DE0000E945F0B9927DF91CF911F910F91FF9078
:101DF000EF900895EF92FF920F931F93CF93DF938D
:101E00008C017B01CA010E94B20E9C01E09151023B
:101E1000F091520214C0A081B1818281843061F4BA
:101E2000848199278017910739F4868199278E1527
:101E30009F0511F4ED0128870780F085E02D30978C
:101E400051F7DF91CF911F910F91FF90EF9008957F
:101E50000F931F93CF93DF938C01CB010E94B20E9F
:101E60009C01E0915102F09152020FC0A081B1811A
:101E70008281823039F4ED018D8199278017910795
:101E800009F42E830780F085E02D309779F7DF91F4
:101E9000CF911F910F9108950E94B20E1816190646
:101EA00014F480936B0208950E94B20E181619065E
:101EB00014F480936A0208950E94B20E181619064F
:101EC00014F48093690208951F9386E00E944B0AE0
:101ED000992786FF03C00E9475090EC082FF03C0C8
:101EE0000E945F0809C081FF03C00E947E0804C0F1
:101EF00084FF02C00E94CB0887E00E944B0A182F83
:101F000060E087E00E94640A612F87E00E94640A13
:101F10001F9108950E94F60B0E94970B0E941007D4
:101F200061E080E00E94640A80E00E944B0A80FD2C
:101F3000FBCF62E081E00E94640A6FEF8FE00E94B5
:101F4000640A60E18FE00E94640A60E884E00E9415
:101F5000640A60E480E20E94640A68E083E20E940E
:101F6000640A69E087E20E94640A6FE08DE00E94E3
:101F7000640A6FE08BE00E94640A68E589E00E94D1
:101F8000640A66ED87E00E94640A62E085E00E94D0
:101F9000640A6CEC80E00E94640A089580EC8BB9BE
:101FA00088E98AB986E880BD10BC83E389B98CB121
:101FB0005F99FDCF08950895089508958A3310F428
:101FC000805301C087556A3310F4605301C06755D0
:101FD0008295807F6F70862B992708950895CF93FF
:101FE000DF93DC01EC01EC81FD81219188859985ED
:101FF000019721F48A819B81E81BF90BED01FD8398
:10200000EC83998788878D919C9111970197119600
:102010009C938E93822F9927DF91CF910895FC0195
:10202000118210827783668375836483538342832E
:1020300053874287518740878FEF84870895CF93D6
:10204000DF93DC012D913C911197EC018A819B81FA
:10205000281739071CF080E090E01AC0ED01EE81EE
:10206000FF8161938A859B85019721F48A819B81F9
:10207000E81BF90BED019B878A87FF83EE838D9127
:102080009C911197019611969C938E9381E090E01C
:10209000DF91CF910895FC0180819181892BE1F33B
:1020A000CF010E94EF0F99270895FC018081918153
:1020B000892B19F42FEF30E005C0CF010E94EF0FFC
:1020C000282F3327C90108958FEF20E030E0D90190
:1020D000082E0E94B111D9010E94A911802D8F3FB5
:1020E000D1F78BB782608BBFE091EC00F091ED00EF
:1020F00009950895AC0120E030E0E0EAFFE005C07A
:10210000CF010197F1F72F5F3F4F24173507C4F335
:102110000895CF93DF93AC01029710F442E050E0B2
:10212000A0918F02B0919002FD01C0E0D0E020E0CC
:1021300030E020C0808191818417950769F4828105
:102140009381209719F09B838A8304C09093900217
:1021500080938F02CF0132C04817590738F42115F8
:10216000310519F08217930708F49C01EF010280F2
:10217000F381E02D3097F1F62115310589F1C90180
:10218000841B950B049708F4A901E0E0F0E026C059
:102190008D919C91119782179307E9F4481759077D
:1021A00079F4ED018A819B81309719F093838283C2
:1021B00004C09093900280938F02CD01029649C093
:1021C000841B950BFD01E80FF91F41935193029772
:1021D0008D939C933AC0FD01A281B3811097C1F603
:1021E00080918D0290918E02892B41F48091F000B4
:1021F0009091F10090938E0280938D022091F200D5
:102200003091F3002115310541F42DB73EB780918F
:10221000EE009091EF00281B390BE0918D02F091B8
:102220008E022E1B3F0B2417350788F0CA01029639
:102230002817390760F0CF01840F951F02969093FD
:102240008E0280938D0241935193CF0102C080E0B2
:1022500090E0DF91CF910895CF93DF93009709F439
:102260004EC0EC0122971B821A82A0918F02B0917E
:102270009002109711F140E050E001C0DC01AC1772
:10228000BD0700F1BB83AA83FE0121913191E20FCA
:10229000F31FEA17FB0771F42E5F3F4F8D919C915E
:1022A0001197820F931F99838883FD018281938107
:1022B0009B838A834115510559F4D0939002C093B2
:1022C0008F021DC0FD0182819381AD010097B1F69F
:1022D000FA01D383C28321913191E20FF31FEC17EE
:1022E000FD0769F42E5F3F4F88819981820F931F0C
:1022F000FA01918380838A819B8193838283DF911A
:10230000CF91089597FB092E07260AD077FD04D0B8
:102310000CD006D000201AF4709561957F4F089577
:10232000F6F7909581959F4F0895AA1BBB1B51E12D
:1023300007C0AA1FBB1FA617B70710F0A61BB70B35
:10234000881F991F5A95A9F780959095BC01CD01DA
:102350000895E199FECFBFBBAEBBE09A11960DB2D6
:102360000895E199FECFBFBBAEBB0DBA11960FB673
:0A237000F894E29AE19A0FBE089576
:10237A00422E53617574657200415652495350207A
:10238A006D6B4949204B6C6F6E00303030304130F4
:10239A0030313238323535007374616C6C206861C3
:1023AA006E647368616B65200074783020657272A0
:1023BA006F720A00616C74206576656E740D0A008E
:1023CA0072657365740D0A007364330D0A007265D1
:1023DA0073756D650D0A00656F700D0A00656C7383
:1023EA00650D0A006E61636B206576656E740D0A71
:1023FA00007278206576656E740D0A000070200000
:04240A00910200003B
:00000001FF
