:100000000C9447000C9430010C9462000C94620034
:100010000C9462000C9462000C9462000C946200D8
:100020000C9462000C9462000C9462000C946200C8
:100030000C9462000C9464000C9462000C946200B6
:100040000C9462000C9462000C9462000C946200A8
:100050000C9462006B039403CA037106EF0301045E
:100060004B04710671064E04710671067106710625
:100070007106540499049D04B704DC045305790502
:10008000E6050006410531051006F1032A06112494
:100090001FBECFE5D8E0DEBFCDBF10E0A0E6B0E0E8
:1000A000E8E2F3E202C005900D92A43FB107D9F750
:1000B00012E0A4EFB0E001C01D92AF38B107E1F744
:1000C0000C9476060C9400001F920F920FB60F92BC
:1000D00011240F900FBE0F901F901895BE9881EAC3
:1000E00087BB81E58DB908958FB9779BFECF0895C1
:1000F0001FB888EE93E002C0019711F0779BFCCF08
:100100008FB1992708950895809115019091160156
:10011000019749F467E08BE20E943B0A10921601B6
:1001200010921501089563E08BE20E943B0A81E082
:1001300090E090931601809315010895EF92FF923D
:100140000F931F93CF93DF937C0168E08BE20E94B3
:100150003B0AC0E0D0E00AE111E007C0F80161917C
:100160008F0189E20E943B0A2196CE15DF05B4F388
:100170000E948400DF91CF911F910F91FF90EF902B
:100180000895CF93DF938091030190910401892B0F
:1001900009F45CC068E08BE20E943B0A8091030195
:1001A000909104018134910518F4C0E0D0E03DC085
:1001B000C0E0D0E0E0911801F091190196E0EE0F57
:1001C000FF1F9A95E1F7EC0FFD1FE65EFE4F608181
:1001D00089E20E943B0A2196C034D10559F78091EB
:1001E00018019091190101969093190180931801BB
:1001F00080910301909104018054904090930401F8
:100200008093030121C0E0911801F091190186E06B
:10021000EE0FFF1F8A95E1F7EC0FFD1FE65EFE4F24
:10022000608189E20E943B0A2196809103019091AE
:100230000401C817D90738F3109219011092180158
:1002400010920401109203010E948400DF91CF916B
:100250000895FC018181813011F40E943B100895C2
:100260001F920F920FB60F9211242F933F934F932B
:100270005F936F937F938F939F93AF93BF93EF930E
:10028000FF930E943B0FFF91EF91BF91AF919F9120
:100290008F917F916F915F914F913F912F910F902F
:1002A0000FBE0F901F901895982F80EC8FB9779BF9
:1002B000FECF9FB9779BFECF6FB9779BFECF4FB92B
:1002C000779BFECF8AE090E00E9451100895EF9254
:1002D000FF920F931F93CF93DF93EC018091130153
:1002E00090911401019719F060E070E01EC0109227
:1002F00014011092130180910301909104018C501C
:10030000914058F085E180931A0180EC80931B01A5
:1003100082E090E00E949E0006C080E290E0909310
:10032000F5008093F4006AE070E0209103013091C1
:10033000040180E490E0861B970BA901460F571F2C
:100340008217930790F44054504050930401409317
:10035000030181E090E0909312018093110140E449
:1003600050E0DE01A60FB71F19C0109204011092D1
:1003700003011092120110921101F3CF8091F40049
:100380009091F5002D91FC01E65EFE4F20830196D1
:100390009093F5008093F4006F5F7F4F64177507AB
:1003A00068F38091030190910401892BE9F5C0E283
:1003B000D0E03AE3E32E31E0F32E26C0F70141917D
:1003C0007F0160910C0170910D0180910E0190915F
:1003D0000F01072F182F292F3327802F0E94540138
:1003E000219680910C0190910D01A0910E01B09188
:1003F0000F010196A11DB11D80930C0190930D0179
:10040000A0930E01B0930F018091F4009091F5003C
:10041000C817D90798F285E180931A0110921B0141
:1004200082E090E00E949E00DF91CF911F910F919A
:10043000FF90EF900895809109018FB9779BFECFCF
:1004400020910C0130910D0140910E0150910F014E
:10045000BB27A52F942F832F8FB9779BFECF2FB962
:10046000779BFECF0E94780099270895292F332784
:10047000982F80E48FB9779BFECF2FB9779BFECF63
:100480009FB9779BFECF6FB9779BFECF88E48FB97A
:10049000779BFECF2FB9779BFECF9FB9779BFECF7F
:1004A0004FB9779BFECF0895AF92BF92CF92DF9264
:1004B000EF92FF920F931F93CF93DF93BC01A09015
:1004C0000C01B0900D01C0900E01D0900F018091F1
:1004D0000501882309F4C0C0809113019091140193
:1004E00020910301309104018130910509F049C048
:1004F0002733310590F09093120180931101265318
:1005000030403093040120930301B0E4EB2EF12C32
:10051000EB012A960AE010E02CC010921201109212
:100520001101AAE0EA2EF12CE20EF31E1092040152
:1005300010920301EDCF4981688180910C01909167
:100540000D010E94360280910C0190910D01A09145
:100550000E01B0910F010196A11DB11D80930C01F8
:1005600090930D01A0930E01B0930F010E5F1F4FEA
:1005700022960E151F05FCF2109214011092130121
:1005800041C02134310580F081E090E09093120168
:1005900080931101205430403093040120930301D3
:1005A000F0E4EF2EF12C09C010921201109211010B
:1005B00079011092040110920301EB0100E010E0B8
:1005C0001EC04981688180910C0190910D010E94AB
:1005D000360280910C0190910D01A0910E01B09115
:1005E0000F010196A11DB11D80930C0190930D0187
:1005F000A0930E01B0930F010E5F1F4F22960E15B0
:100600001F05FCF28091030190910401892B21F5D3
:10061000809108018FB9779BFECF95018B2D99278B
:1006200087FD9A958FB9779BFECF2FB9779BFECF29
:100630001FB8779BFECF84E190E00E94511083E1C8
:1006400080931A0110921B0182E090E00E949E00AC
:100650001092120110921101DF91CF911F910F9111
:10066000FF90EF90DF90CF90BF90AF9008950F93E1
:100670001F93CF93DF93EC0168E08BE20E943B0A6B
:100680008091110190911201892B81F080911001CC
:10069000833119F4CE010E945402809110018531FA
:1006A00009F01FC3CE010E9467011BC3888180939C
:1006B000100188819927AA27BB27FC013197ED31CA
:1006C000F10508F00EC3E65DFF4FEE0FFF1F05902A
:1006D000F491E02D099481E080931A0110921B019E
:1006E0008AE080931C0181E480931D0186E580935C
:1006F0001E0182E580931F0189E48093200183E538
:100700008093210180E5809322018FE5809323016E
:100710008DE4809324018BE48093250182E3809310
:1007200026018DE090E0DBC282E080931A011092F6
:100730001B018981883909F017C1FE0132968A812F
:100740008330A9F0843028F48130B9F0823050F43D
:1007500007C0853081F0853060F0863091F40DC09F
:1007600080E501C081E58DB981E08EB90FC081E5DA
:1007700005C082E5F8CF82E501C083E58DB91EB8DA
:1007800005C081E58DB91EB883E08A83808180939E
:100790001701EAC083E080931A0110921B0189813E
:1007A0008239A1F0833938F4803909F424C28139BF
:1007B00009F021C209C0883969F0813A09F41BC2E5
:1007C000843909F018C204C081E006C086E004C084
:1007D0008AE202C08091170180931C010EC285E05D
:1007E000BFC08A818FB9779BFECF8B818FB9779BF2
:1007F000FECF8C818FB9779BFECF0E9478009CE161
:100800001EC289819927AA27BB2780930C01909348
:100810000D01A0930E01B0930F012A81BA2FA92FC9
:10082000982F8827332744275527822B932BA42BD7
:10083000B52B80930C0190930D01A0930E01B09302
:100840000F012B81BA2FA92F982F882733274427F0
:100850005527822B932BA42BB52B80930C019093BF
:100860000D01A0930E01B0930F012C81BA2FA92F77
:10087000982F8827332744275527822B932BA42B87
:10088000B52B80930C0190930D01A0930E01B093B2
:100890000F0186E065C00E943B1023C28AE080936E
:1008A0001A0110921B011DC210920C0110920D0131
:1008B00010920E0110920F01DC9AC09A0000000005
:1008C00000000000C09889E190E00E9451108CEA7D
:1008D0008FB9779BFECF83E58FB9779BFECF80E101
:1008E00080931A0180EC80931B0105E010E00E94C8
:1008F00078009E81891721F41FB8779BFECF32C004
:100900001FB8779BFECF84E190E00E9451108CEAE3
:100910008FB9779BFECF83E58FB9779BFECF0150D0
:10092000104029F71FB8779BFECF80EC80931B0106
:100930001BC0DC98C09A81E113C08B818FB9779B73
:10094000FECF8C818FB9779BFECF1FB8779BFECFF0
:100950001FB8779BFECF898199270E94511082E1B1
:1009600080931A0110921B0182E090E0B8C1898146
:100970002A819927982F88273327822B932B9093AE
:100980000401809303018B81809305018C81809306
:1009900006018D81809307018E81809308018F81EC
:1009A0008093090181E090E09093140180931301FA
:1009B000CE010E94540298C089812A819927982FDC
:1009C00088273327822B932B0196909304018093E1
:1009D00003012B8120930901EC010CE111E03CC0E3
:1009E000809109018FB9779BFECF20910C01309146
:1009F0000D0140910E0150910F01BB27A52F942F9F
:100A0000832F8FB9779BFECF2FB9779BFECF0E94A4
:100A10007800F801808380910901803221F488E216
:100A20008093090116C080E28093090180910C0136
:100A300090910D01A0910E01B0910F010196A11DA1
:100A4000B11D80930C0190930D01A0930E01B09302
:100A50000F010F5F1F4F21971C161D060CF284E13A
:100A600090C08A818FB9779BFECF8B818FB9779B9E
:100A7000FECF8C818FB9779BFECF0E9478009AE1E0
:100A8000DEC089818FB9779BFECF8A818FB9779B32
:100A9000FECF8B818FB9779BFECF8C818FB9779BEF
:100AA000FECF89E1A4C089812A819927982F8827C0
:100AB0003327822B932B90930401809303018B8126
:100AC000809305018C81809306018D8180930701BD
:100AD0008F818093090181E090E0909314018093CD
:100AE0001301CE010E9467011092140110921301AC
:100AF000F8C089812A819927982F88273327822B4C
:100B0000932B019690930401809303012B812093F2
:100B10000901EC010CE111E030C0809109018FB9AD
:100B2000779BFECF20910C0130910D0140910E0179
:100B300050910F01BB27A52F942F832F8FB9779B3F
:100B4000FECF2FB9779BFECF0E947800F8018193EA
:100B50008F0180910C0190910D01A0910E01B09137
:100B60000F010196A11DB11D80930C0190930D0101
:100B7000A0930E01B0930F0121971C161D066CF275
:100B800086E180931A0110921B01809103019091DC
:100B90000401FC01E55EFE4F10828F339105A0F049
:100BA00080E490E00E949E008091030190910401F6
:100BB000CE97909304018093030181E090E090939D
:100BC0001901809318018DC0029689C089818FB95F
:100BD000779BFECF8A818FB9779BFECF8B818FB9B0
:100BE000779BFECF8C818FB9779BFECF87E1809377
:100BF0001A0110921B0110921C0183E090E06FC05B
:100C00008A818FB9779BFECF8B818FB9779BFECF7F
:100C10008C818FB9779BFECF0E94780098E10FC03E
:100C20008A818FB9779BFECF8B818FB9779BFECF5F
:100C30008C818FB9779BFECF0E9478009BE19093C7
:100C40001A0110921B0180931C0110921D0184E077
:100C500090E045C0FE0134968C818FB9779BFECF22
:100C60008D818FB9779BFECF8E818FB9779BFECF19
:100C700080818035D1F0813560F48832B1F08932DD
:100C800018F48032C9F411C0803379F08833A1F4AC
:100C90000CC0803A51F0813A18F4883569F405C0E7
:100CA0008C3A31F0803C41F403C00E94780005C0CA
:100CB0008F818FB9779BFECF80E010921C0110923C
:100CC0001D0110921E0180931F018DE180931A0176
:100CD00010921B01109220018A81992703960E948D
:100CE0009E00DF91CF911F910F910895CDE5D8E03F
:100CF000DEBFCDBFBE9881EA87BB81E58DB90E947A
:100D00004C0A109212011092110183E08093170196
:100D1000109219011092180180E18ABBDC98C09AE8
:100D20008BEE93E00E94970A84E091E20E949C0A75
:100D300080E092E00E94A10A89E0898384E08A83AE
:100D4000CE0101960E94890E80E690E00E94330F4A
:100D500089E690E00E942B0F8AE790E00E94230F23
:100D60000E945D0E4C0162E370E00E94AF0A60E0F9
:100D700070E0C4010E94C90D3C0140E050E0BC019C
:100D8000C4010E94D00A21ECA22E20E0B22ECC2475
:100D9000DD2490E4E92EF12C02E022E030E041E095
:100DA00050E0B301C4010E945E0D87E3A82E83E0EA
:100DB000B82E22E030E041E050E0B301C4010E94CF
:100DC000960D0E940A0A78940E94610FFFCF87E275
:100DD00080936E0285E280936D0290E290936F02A1
:100DE0001092700228E030E030937202209371027A
:100DF00083E280937C0281E280937B0290937D0268
:100E000010927E023093800220937F02089508950D
:100E100060918A0281E20E943B0A089568E08BE2B9
:100E20000E943B0A62E188E20E943B0A68E08FE28E
:100E30000E943B0A62E18CE20E943B0A61E08FE281
:100E40000E943B0A65E083E20E943B0A08950F93EB
:100E50001F938C0160E480E20E943B0AF8016281EA
:100E6000605884E00E943B0AF801828180938902E5
:100E70001F910F9108950F931F93CF93DF93EC0170
:100E80002A853B8512161306DCF58885998582171D
:100E900093071CF568E083E20E943B0A00E010E043
:100EA0000FC08C859D85E80FF91F608181E20E944B
:100EB0003B0A888599850196998788870F5F1F4F20
:100EC000E885F9858A859B85083011051CF4E817AB
:100ED000F9073CF3E817F90724F061E087E20E9484
:100EE0003B0A8B81813031F465E089810E943B0AA5
:100EF0001B8206C061E089810E943B0A81E08B83EE
:100F0000DF91CF911F910F910895CF93DF93CDB7CC
:100F1000DEB724970FB6F894DEBF0FBECDBFDC015D
:100F2000FC0122813381109284021092830281E0BD
:100F300080937E02832F99278230D9F0833069F124
:100F4000813009F057C08091590299279093860209
:100F50008093850289E592E09093880280938702CE
:100F6000868197818034910509F044C088E090E043
:100F700029C0FD0186819781909386028093850226
:100F8000E22FFF27EE0FFF1F80916B0290916C0202
:100F9000E80FF91F8081918129C02223C1F0E22F3F
:100FA000FF27EE0FFF1F8091010190910201E80FD2
:100FB000F91F0190F081E02DF0938802E093870201
:100FC00080819927909386028093850213C094E0D4
:100FD000998383E08A8389E08B839C8384E090E01B
:100FE0009093860280938502CE01019690938802A9
:100FF000809387028BE792E00E943B0724960FB60E
:10100000F894DEBF0FBECDBFDF91CF910895CF938F
:10101000DF9382E20E94220AC82FDD27C5FF1FC08E
:1010200068E083E20E943B0AC6FF10C02091830261
:1010300030918402809185029091860228173907A9
:101040004CF48BE792E00E943B070DC088E890E0EB
:101050000E94490A61E087E20E943B0A04C089E9D4
:1010600090E00E94490ADF91CF9108958AE00E94A2
:10107000220A992780FF03C00E940708089581FF74
:101080000DC08AE20E94220A80914602813061F4FA
:10109000E0914902F0914A020995089582E30E9485
:1010A000220A8AE30E94220A08951F9388E00E9480
:1010B000220A182F84EA90E00E94490A812F99277A
:1010C00086FF1BC060E085E00E943B0A60E884E088
:1010D0000E943B0A60E080E20E943B0A68E083E2F3
:1010E0000E943B0A61E087E20E943B0A62E085E0E1
:1010F0000E943B0A80EB90E021C084FF0BC060ECB3
:1011000089E00E943B0A63E085E00E943B0A88EB8D
:1011100090E014C017FF0BC060E589E00E943B0A15
:1011200062E085E00E943B0A8EEB90E007C083FFFF
:1011300003C087EC90E002C08DEC90E00E94490A69
:101140001F9108958EE00E94220A84ED90E00E9493
:10115000490A08950F931F93CF93DF93CDB7DEB75E
:1011600028970FB6F894DEBF0FBECDBF86E20E946F
:10117000220A86FF6FC08E010F5F1F4F80916D02A4
:101180000E94220AF80181938F01CE010996E81787
:10119000F907A1F78E010F5F1F4F68E087E20E94F9
:1011A0003B0A68E083E20E943B0A80E20E94220A36
:1011B0008F77682F80E20E943B0A89819927807689
:1011C000907080329105A1F18034910571F1892BE5
:1011D00091F5F80181818630E1F0873050F4833059
:1011E00091F1843018F4823030F52DC0853019F536
:1011F00014C08930B1F08A3018F48830E1F405C0A9
:101200008A3009F18B30B9F413C0C8010E94080775
:101210001AC0C8010E94850716C0C8010E9427078E
:1012200012C0C8010E940E070EC0C8010E94290109
:1012300065E083E206C080E20E94220A8058682F9F
:1012400080E20E943B0AF80180818823D1F465E0A6
:1012500083E215C0209185023091860280917F0241
:10126000909180028217930764F410928602109284
:10127000850268E083E20E943B0A61E087E20E9407
:101280003B0A28960FB6F894DEBF0FBECDBFDF91A4
:10129000CF911F910F9108950F931F93CF93DF93D9
:1012A000CDB7DEB7C054D0400FB6F894DEBF0FBE46
:1012B000CDBF8CE00E94220A182F81EE90E00E94A0
:1012C000490A812F992780FF03C00E94AA0875C090
:1012D00081FF28C08EE20E94220A8DE20E94220A2B
:1012E00089838E010F5F1F4F0F5F1F4F0E94160AE9
:1012F000F8018083CE01805C9F4F08171907A1F782
:101300008091F600813039F4E091F900F091FA0013
:10131000CE010196099568E08FE20E943B0A61E0E8
:101320008FE229C082FF2AC086E30E94220A85E359
:101330000E94220A89838E010F5F1F4F0F5F1F4F8C
:101340000E94160AF8018083CE01805C9F4F081727
:101350001907A1F78091F700813039F4E091FB0083
:10136000F091FC00CE010196099568E087E30E94A8
:101370003B0A61E087E30E943B0A1FC083FF1DC058
:101380008EE30E94220A8E010F5F1F4F8DE30E94A1
:10139000220AF80181938F01CE018F5B9F4FE817DE
:1013A000F907A1F78091F800813039F4E091F90054
:1013B000F091FA00CE0101960995C05CDF4F0FB69F
:1013C000F894DEBF0FBECDBFDF91CF911F910F917B
:1013D0000895CF92DF92EF92FF920F931F93CF93D6
:1013E000DF936C017A01C0E0D0E08B0107C0F80107
:1013F00061918F01C6010E94F60F2196CE15DF057F
:10140000B4F3DF91CF911F910F91FF90EF90DF9098
:10141000CF90089585B7826085BF8BB780648BBFFE
:1014200088EF81BB82B3886382BB089582B398E161
:10143000892782BB0000000082B3892782BB83B367
:10144000992708959FEF94BB85BB82B398E68927BF
:1014500082BB82B3892782BB000014BA0E94160A9D
:101460009927089585BB82B398E2892782BB82B30E
:10147000892782BB089585BB8FEF84BB82B398E632
:10148000892782BB82B3892782BB862F0E94320ABA
:1014900008950E94B40F089582E18093590281E07B
:1014A00080935A0280E191E090935C0280935B020A
:1014B00010925D0210925E0210925F0288E08093AB
:1014C0006002109262021092610210926402109205
:1014D00063021092660210926502109267021092E7
:1014E00068021092690210926A021092F60010923D
:1014F000F7001092F80010924602109247021092E4
:1015000048021092500210924F0210920001109265
:10151000FF000895909362028093610270936402C9
:10152000609363025093660240936502089590931E
:101530006202809361020895909364028093630233
:1015400008959093660280936502089580935D02EA
:10155000089580935E02089580935F020895CF936B
:10156000DF939C01CB01E0914F02F091500262E0C9
:1015700070E00E9459110FC0A081B1818281823038
:1015800039F4ED018D8199278217930709F4688753
:101590000780F085E02D309779F7DF91CF9108959E
:1015A000CF93DF939C01E0914F02F091500214C061
:1015B000A081B1818281843061F48481992782176E
:1015C000930739F4868199278617970711F4ED015F
:1015D0004B830780F085E02D309751F7DF91CF9155
:1015E0000895BF92CF92DF92EF92FF920F931F93D5
:1015F000CF93DF936C01162FF42EB22EC0914F02C1
:10160000D09150022097A1F489E090E00E946010F0
:10161000FC019093500280934F02D182C0821383C9
:1016200010861782F282B4820583E68215C0EC012F
:101630008F8198850097D9F789E090E00E9460102B
:10164000FC0198878F83D182C0821383F282B48297
:101650000583E68210861782DF91CF911F910F914B
:10166000FF90EF90DF90CF90BF900895EF92FF92A0
:101670001F93CF93DF937C01C091FF00D0910001B5
:10168000209711F011E012C085E090E00E946010F8
:10169000FC01909300018093FF00F182E0821282AE
:1016A0001482138210E012C01F5FEC018B819C81B9
:1016B0000097D1F785E090E00E946010FC019C83C8
:1016C0008B83F182E082128314821382812F992707
:1016D000DF91CF911F91FF90EF900895EF92FF92CD
:1016E0000F931F93CF93DF93E091FF00F0910001E0
:1016F00080E090E00380F481E02D01963097D1F7EF
:10170000880F991F0E94601090930201809301013D
:101710000091FF0010910001E801E880F9808A81C2
:10172000C82FDD27CC0FDD1F8091010190910201B0
:10173000C80FD91FF701808199270E9460109983F3
:10174000888320E030E0D70114C0E801EA81FF2758
:10175000EE0FFF1F8091010190910201E80FF91F28
:101760000190F081E02DE20FF31F8D9180832F5FB8
:101770003F4FF701808199272817390734F3E80193
:101780008B819C81009711F08C01C6CFDF91CF91A6
:101790001F910F91FF90EF9008956F927F928F921B
:1017A0009F92AF92BF92CF92DF92EF92FF920F93F0
:1017B0001F93CF93DF93E0914F02F0915002882462
:1017C000992409C08281823019F40894811C911CEB
:1017D0000780F085E02D3097A9F73401660C771C5F
:1017E000C3010E94601090936C0280936B0271E0C1
:1017F000E72EF12CAA24BB2453C0E0914F02F091B4
:10180000500269E0C62ED12C15C0A081B18184811F
:1018100099278E159F0519F48381C80ED11CED01FF
:101820008D818E1521F48281823009F45D0107805B
:10183000F085E02D309749F700916B0210916C0212
:10184000060D171D02501040C6010E946010F801DD
:101850009183808320E030E0D501E0916B02F0912C
:101860006C02E60DF71D32970190F081E02DE20F3A
:10187000F31F8D9180832F5F3F4F2930310569F72A
:10188000E0916B02F0916C02E60DF71D329701902A
:10189000F081E02D8C2D875F82830894E11CF11C80
:1018A0008E149F040CF0A9CF51E0E52EF12C49E0F5
:1018B000C42ED12C6624772432E0A32EB12C9AC0FA
:1018C0008481682E772415C0A0914F02B0915002F8
:1018D0000EC0ED91FC9111978181823029F48581B0
:1018E00099278E159F0561F3ED01AF81B88510979B
:1018F00081F701E010E073C040914F025091500217
:1019000068C0DA01ED91FC918181843009F05EC0FC
:10191000EA018E8199278017910709F057C08C81C1
:1019200099278E159F0509F051C09601DF01BF016F
:10193000675F7F4FE0916B02F0916C02EA0DFB1D37
:1019400032970190F081E02DE20FF31F8D9180839B
:101950002F5F3F4FA617B70769F7E9E0F0E0CE0E1B
:10196000DF1EC0914F02D09150022EC08A81853077
:1019700041F58C8199278E159F0519F58D81992741
:1019800080179107F1F4888199819601DC01BC01EF
:10199000695F7F4FE0916B02F0916C02EA0DFB1DD5
:1019A00032970190F081E02DE20FF31F8D9180833B
:1019B0002F5F3F4FA617B70769F787E090E0C80E83
:1019C000D91E0F80D885C02D209781F6EA014F815E
:1019D00058854115510509F094CF0F5F1F4F6016D0
:1019E00071060CF089CF0894E11CF11CE2E0F0E0F4
:1019F000AE0EBF1E8E149F040CF066CFDF91CF9108
:101A00001F910F91FF90EF90DF90CF90BF90AF901C
:101A10009F908F907F906F9008956F927F928F929A
:101A20009F92AF92BF92CF92DF92EF92FF920F936D
:101A3000CF93DF935C013B014901E0914F02F091AC
:101A4000500216C0A081B18184819927A816B906D9
:101A500061F4868199278615970539F4828184304F
:101A600021F4ED018C818F5F8C830780F085E02D60
:101A7000309741F787E090E00E946010FC0187E01A
:101A8000808385E0818382820383F582E482C6823B
:101A9000EE24062D2A2D45E067E0CF010E94F10AD1
:101AA000DF91CF910F91FF90EF90DF90CF90BF909B
:101AB000AF909F908F907F906F900895AF92BF925C
:101AC000CF92DF92EF92FF920F93FC01A114B10429
:101AD00001F14230510571F04330510599F0413028
:101AE0005105B9F481E080934602B0924A02A09277
:101AF00049020FC081E080934702B0924C02A0924D
:101B00004B0207C081E080934802B0924E02A0923F
:101B10004D0220583F4FCF010E940D0D0F91FF90B5
:101B2000EF90DF90CF90BF90AF900895AF92BF92AB
:101B3000CF92DF92EF92FF920F93FC01423051055A
:101B400071F04330510599F041305105B9F481E00D
:101B50008093F600B092FA00A092F9000FC081E0E5
:101B60008093F700B092FC00A092FB0007C081E0D8
:101B70008093F800B092FE00A092FD00CF010E9479
:101B80000D0D0F91FF90EF90DF90CF90BF90AF9031
:101B90000895CF92DF92EF920F931F93CF93DF932D
:101BA0006C018B01A0914F02B0915002C0E0D0E0D7
:101BB00014C02D913C911197F90185818C1551F438
:101BC000FD018281823031F4F90184818F5F848349
:101BD000C82FDD27FD01A781B085109751F789E057
:101BE00090E00E946010FC0189E0808384E08183A2
:101BF0000283138214821582168217821086EC2EBD
:101C000000E02C2D44E069E0CF010E94F10ACE01F2
:101C1000DF91CF911F910F91EF90DF90CF900895BA
:101C2000BF92CF92DF92EF92FF920F931F93CF93C9
:101C3000DF936C017B01142FB22EA0914F02B09163
:101C40005002C0E0D0E014C02D913C911197F901F1
:101C500085818C1551F4FD018281823031F4F901C6
:101C600084818F5F8483C82FDD27FD01A781B08524
:101C7000109751F789E090E00E946010FC0189E024
:101C8000808384E08183E282138214821583B6828A
:101C900007831086EC2E00E02C2D44E069E0CF0194
:101CA0000E94F10ACE01DF91CF911F910F91FF9019
:101CB000EF90DF90CF90BF900895CF92DF92EF9298
:101CC0000F93C0906A02C394C0926A02DD2489E037
:101CD00090E00E946010FC0189E0808389E090E040
:101CE0009383828382E081831482C582168280EA94
:101CF00087838AE18087EE2400E020E042E069E00B
:101D0000CF010E94F10AC6010F91EF90DF90CF90B2
:101D10000895EF92FF920F931F93CF93DF938C015F
:101D2000FC0101900020E9F73197E81BF90BEE0F59
:101D3000FF1FCF0102960E9460107C01BC01F801D8
:101D400001900020E9F73197E01BF10BEE0FFF1F28
:101D5000EE5FDC01EC9383E0E701898340E050E033
:101D6000F80101900020E9F73197E01BF10B980191
:101D700008C0D9018D919D01EB01888319824F5FC5
:101D80005F4F6E5F7F4F4E175F0798F3C7010E944A
:101D9000360B9927DF91CF911F910F91FF90EF9014
:101DA0000895EF92FF920F931F93CF93DF938C01CF
:101DB0007B01CA010E94890E9C01E0914F02F091C3
:101DC000500214C0A081B1818281843061F4848189
:101DD00099278017910739F4868199278E159F05D9
:101DE00011F4ED0128870780F085E02D309751F739
:101DF000DF91CF911F910F91FF90EF9008950F9376
:101E00001F93CF93DF938C01CB010E94890E9C011D
:101E1000E0914F02F09150020FC0A081B181828108
:101E2000823039F4ED018D8199278017910709F4EB
:101E30002E830780F085E02D309779F7DF91CF91E1
:101E40001F910F9108950E94890E1816190614F417
:101E50008093690208950E94890E1816190614F4D9
:101E60008093680208950E94890E1816190614F4CA
:101E70008093670208951F9386E00E94220A9927A3
:101E800086FF03C00E944C090EC082FF03C00E945F
:101E9000360809C081FF03C00E94550804C084FFB2
:101EA00002C00E94A20887E00E94220A182F60E068
:101EB00087E00E943B0A612F87E00E943B0A1F9146
:101EC00008950E94CD0B0E946E0B0E94E70661E010
:101ED00080E00E943B0A80E00E94220A80FDFBCF46
:101EE00062E081E00E943B0A6FEF8FE00E943B0AB4
:101EF00060E18FE00E943B0A60E884E00E943B0AB8
:101F000060E480E20E943B0A68E083E20E943B0AB0
:101F100069E087E20E943B0A6FE08DE00E943B0A85
:101F20006FE08BE00E943B0A68E589E00E943B0A73
:101F300066ED87E00E943B0A62E085E00E943B0A72
:101F40006CEC80E00E943B0A089580EC8BB988E934
:101F50008AB986E880BD10BC83E389B98CB15F99EA
:101F6000FDCF08950895089508958A3310F480539D
:101F700001C087556A3310F4605301C067558295DC
:101F8000807F6F70862B992708950895CF93DF93F4
:101F9000DC01EC01EC81FD81219188859985019717
:101FA00021F48A819B81E81BF90BED01FD83EC8311
:101FB000998788878D919C911197019711969C9391
:101FC0008E93822F9927DF91CF910895FC01118282
:101FD0001082778366837583648353834283538738
:101FE0004287518740878FEF84870895CF93DF938F
:101FF000DC012D913C911197EC018A819B8128177E
:1020000039071CF080E090E01AC0ED01EE81FF81FD
:1020100061938A859B85019721F48A819B81E81BC6
:10202000F90BED019B878A87FF83EE838D919C914D
:102030001197019611969C938E9381E090E0DF9129
:10204000CF910895FC0180819181892BE1F3CF012B
:102050000E94C60F99270895FC0180819181892BE8
:1020600019F42FEF30E005C0CF010E94C60F282FD2
:102070003327C90108958FEF20E030E0D901082E01
:102080000E948811D9010E948011802D8F3FD1F7C5
:102090008BB782608BBFE091EC00F091ED00099569
:1020A0000895AC0120E030E0E0EAFFE005C0CF0198
:1020B0000197F1F72F5F3F4F24173507C4F30895B9
:1020C000CF93DF93AC01029710F442E050E0A0916F
:1020D0008D02B0918E02FD01C0E0D0E020E030E042
:1020E00020C0808191818417950769F48281938152
:1020F000209719F09B838A8304C090938E0280936B
:102100008D02CF0132C04817590738F42115310527
:1021100019F08217930708F49C01EF010280F38104
:10212000E02D3097F1F62115310589F1C901841BA5
:10213000950B049708F4A901E0E0F0E026C08D912A
:102140009C91119782179307E9F44817590779F47E
:10215000ED018A819B81309719F09383828304C0BB
:1021600090938E0280938D02CD01029649C0841B0C
:10217000950BFD01E80FF91F4193519302978D9341
:102180009C933AC0FD01A281B3811097C1F6809162
:102190008B0290918C02892B41F48091F0009091F8
:1021A000F10090938C0280938B022091F200309189
:1021B000F3002115310541F42DB73EB78091EE00B3
:1021C0009091EF00281B390BE0918B02F0918C026B
:1021D0002E1B3F0B2417350788F0CA0102962817DB
:1021E000390760F0CF01840F951F029690938C02FF
:1021F00080938B0241935193CF0102C080E090E025
:10220000DF91CF910895CF93DF93009709F44EC0EB
:10221000EC0122971B821A82A0918D02B0918E024E
:10222000109711F140E050E001C0DC01AC17BD0790
:1022300000F1BB83AA83FE0121913191E20FF31FCC
:10224000EA17FB0771F42E5F3F4F8D919C91119718
:10225000820F931F99838883FD01828193819B83E1
:102260008A834115510559F4D0938E02C0938D0293
:102270001DC0FD0182819381AD010097B1F6FA0185
:10228000D383C28321913191E20FF31FEC17FD0735
:1022900069F42E5F3F4F88819981820F931FFA0165
:1022A000918380838A819B8193838283DF91CF9105
:1022B000089597FB092E07260AD077FD04D00CD08D
:1022C00006D000201AF4709561957F4F0895F6F7B7
:1022D000909581959F4F0895AA1BBB1B51E107C0A4
:1022E000AA1FBB1FA617B70710F0A61BB70B881FA6
:1022F000991F5A95A9F780959095BC01CD01089535
:10230000E199FECFBFBBAEBBE09A11960DB2089526
:10231000E199FECFBFBBAEBB0DBA11960FB6F894D4
:08232000E29AE19A0FBE089554
:10232800422E5361757465720041565249535020CC
:102338006D6B4949204B6C6F6E0030303030413046
:1023480030313238323535007374616C6C20686115
:102358006E647368616B65200074783020657272F2
:102368006F720A00616C74206576656E740D0A00E0
:1023780072657365740D0A007364330D0A00726523
:1023880073756D650D0A00656F700D0A00656C73D5
:10239800650D0A006E61636B206576656E740D0AC3
:1023A800007278206576656E740D0A000070200052
:0423B8008F02000090
:00000001FF
