:100000000C9447000C94C5000C9462000C946200A0
:100010000C9462000C9462000C9462000C946200D8
:100020000C9462000C9462000C9462000C946200C8
:100030000C9462000C9464000C9462000C946200B6
:100040000C9462000C9462000C9462000C946200A8
:100050000C9462000F0238026E025B049302A50248
:10006000C7025B045B04CA025B045B045B045B04C1
:100070005B04D00209031103250356035B045B04F0
:10008000CA03E4035B04BA03F40395020E041124CB
:100090001FBECFE5D8E0DEBFCDBF11E0A0E6B0E0E7
:1000A000EAE3F0E202C005900D92A030B107D9F763
:1000B00012E0A0E0B1E001C01D92A739B107E1F75D
:1000C0000C9462040C9400001F920F920FB60F92D2
:1000D00011240F900FBE0F901F901895BE9881EAC3
:1000E00087BB81E58DB908958FB9779BFECF0895C1
:1000F0001FB888EE93E002C0019711F0779BFCCF08
:100100008FB1992708950895EF92FF920F931F934F
:10011000CF93DF937C0168E08BE20E942008C0E06F
:10012000D0E002E211E007C0F80161918F0189E29D
:100130000E9420082196CE15DF05B4F380911F019F
:1001400090912001019749F467E08BE20E9420081A
:100150001092200110921F010AC063E08BE20E94FE
:10016000200881E090E09093200180931F01DF91AF
:10017000CF911F910F91FF90EF900895FC01818125
:10018000813011F40E94200E08951F920F920FB635
:100190000F9211242F933F934F935F936F937F930D
:1001A0008F939F93AF93BF93EF93FF930E94200D84
:1001B000FF91EF91BF91AF919F918F917F916F913F
:1001C0005F914F913F912F910F900FBE0F901F9015
:1001D0001895282F892F9927982F80E48FB9779B1E
:1001E000FECF9FB9779BFECF2FB9779BFECF6FB91C
:1001F000779BFECF88E48FB9779BFECF9FB9779B23
:10020000FECF2FB9779BFECF4FB9779BFECF0895D6
:10021000EF92FF920F931F93CF93DF93BC018091D6
:100220001D0190911E01019719F40AE010E002C02F
:1002300000E010E080910F01882309F4BAC080919A
:100240001D0190911E0120910D0130910E01019729
:10025000E1F52733310568F02653304030930E0125
:1002600020930D01E0E4EE2EF12CEB01C00FD11F25
:1002700024C0790110920E0110920D01F6CF498130
:10028000688180911601909117010E94E900809188
:10029000160190911701A0911801B09119010196D2
:1002A000A11DB11D8093160190931701A093180111
:1002B000B09319010E5F1F4F22960E151F05FCF219
:1002C00010921E0110921D0137C02134310550F0EB
:1002D0002054304030930E0120930D0150E4E52E60
:1002E000F12C05C0790110920E0110920D01EB0165
:1002F00000E010E01EC04981688180911601909154
:1003000017010E94E9008091160190911701A091B8
:100310001801B09119010196A11DB11D809316011C
:1003200090931701A0931801B09319010E5F1F4F0E
:1003300022960E151F05FCF280910D0190910E0181
:10034000892BB9F58091160190911701A0911801A0
:10035000B09119019C01AD01207CB901605470403D
:100360008F739070A070B0700097A105B10509F06F
:10037000B9018CE48FB9779BFECF872F99278FB96E
:10038000779BFECF6FB9779BFECF1FB8779BFECFD1
:100390008AE090E00E94E20E83E1809322011092B5
:1003A000230182E090E00E94840010921C011092D0
:1003B0001B01DF91CF911F910F91FF90EF90089556
:1003C000EF92FF920F931F93CF93DF93EC0168E0BE
:1003D0008BE20E94200880911B0190911C01892BC7
:1003E00049F080911A01833109F065C2CE010E9463
:1003F000080161C2888180931A0188819927AA2700
:10040000BB27FC013197ED31F10508F054C2E65DE0
:10041000FF4FEE0FFF1F0590F491E02D099481E04E
:1004200080932201109223018AE08093240181E4C9
:100430008093250186E58093260182E5809327013C
:1004400089E48093280183E58093290180E58093E6
:100450002A018FE580932B018DE480932C018BE49E
:1004600080932D0182E380932E018DE090E021C2E4
:1004700082E080932201109223018981883909F05A
:1004800076C1FE0132968A818330A9F0843028F447
:100490008130B9F0823050F407C0853081F085306A
:1004A00060F0863091F40DC080E501C081E58DB922
:1004B00081E08EB90FC081E505C082E5F8CF82E505
:1004C00001C083E58DB91EB805C081E58DB91EB8A0
:1004D00083E08A8380818093210149C183E08093F6
:1004E00022011092230189818239A1F0833938F4E5
:1004F000803909F464C1813909F061C109C08839C2
:1005000069F0813A09F45BC1843909F058C104C02B
:1005100081E006C085E004C08AE202C0809121012A
:10052000809324014EC185E077C08A818FB9779B83
:10053000FECF8B818FB9779BFECF8C818FB9779B54
:10054000FECF0E9478009CE15EC189810E94AA0DC5
:100550008A810E94AA0D8B810E94AA0D8C810E9423
:10056000AA0D8B812C819927982F88273327822BDE
:10057000932BAA2797FDA095BA2F809316019093ED
:100580001701A0931801B093190186E045C00E949D
:10059000200E91C18AE080932201109223018BC129
:1005A000DC9A80E180932201C09A000000000000E4
:1005B000C09889E190E00E94E20E8CEA8FB9779BA7
:1005C000FECF83E58FB9779BFECF80EC809323012C
:1005D00005E010E00E9478009E81891721F41FB881
:1005E000779BFECF1BC01FB8779BFECF84E190E0C6
:1005F0000E94E20E8CEA8FB9779BFECF83E58FB91C
:10060000779BFECF0150104029F71FB8779BFECF94
:10061000ABC0DC98C09A81E1809322011092230143
:10062000A6C08B818FB9779BFECF8C818FB9779BCA
:10063000FECF1FB8779BFECF1FB8779BFECF898177
:1006400099270E94E20E82E1E7CF89812A819927CA
:10065000982F88273327822B932B90930E0180931A
:100660000D01C79730F081E090E090931C018093DA
:100670001B018B8180930F018C81809310018D81F0
:10068000809311018E81809312018F8180931301D9
:1006900081E090E090931E0180931D01CE010E94A5
:1006A000080110921E0110921D0105C189812A8145
:1006B0009927982F88273327822B932B90930E010D
:1006C00080930D018B818093130144C080911301AD
:1006D0008FB9779BFECF2091160130911701409181
:1006E000180150911901BB27A52F942F832F8FB983
:1006F000779BFECF2FB9779BFECFF2E0EF2EF12C48
:10070000012D112DE20EF31E041F151F0E9478000B
:1007100022E231E0E20EF31EF701808380911601A0
:1007200090911701A0911801B09119010196A11D96
:10073000B11D8093160190931701A0931801B093F7
:10074000190180910D0190910E01019790930E0176
:1007500080930D0180910D0190910E01892B09F07C
:10076000B5CF84E18093220180EC8093230182E065
:1007700090E09FC08A818FB9779BFECF8B818FB924
:10078000779BFECF8C818FB9779BFECF0E9478003C
:100790009AE139C089818FB9779BFECF8A818FB961
:1007A000779BFECF8B818FB9779BFECF8C818FB9E2
:1007B000779BFECF87E18093220110922301109254
:1007C000240183E090E075C08A818FB9779BFECFCA
:1007D0008B818FB9779BFECF8C818FB9779BFECFB2
:1007E0000E94780098E10FC08A818FB9779BFECF75
:1007F0008B818FB9779BFECF8C818FB9779BFECF92
:100800000E9478009BE19093220110922301809333
:1008100024011092250184E090E04BC0FE01349643
:100820008C818FB9779BFECF8D818FB9779BFECF5F
:100830008E818FB9779BFECF80818035D1F0813555
:1008400060F48832B1F0893218F4803201F511C0B9
:10085000803379F08833D9F40CC0803A51F0813A72
:1008600018F48835A1F405C08C3A39F0803C79F44D
:1008700009C00E947800182F0AC08F818FB977991C
:1008800006C0FDCF8F818FB9779BFECF10E010920D
:1008900024011092250110922601109327018DE169
:1008A0008093220110922301109228018A819927B6
:1008B00003960E948400DF91CF911F910F91FF90CA
:1008C000EF900895CDE5D8E0DEBFCDBFBE9881EAB8
:1008D00087BB81E58DB90E94310810921C011092EE
:1008E0001B0183E08093210180E18ABBDC988BEEC1
:1008F00093E00E947C0884E091E20E94810880E0FD
:1009000092E00E94860889E0898384E08A83CE0190
:1009100001960E946E0C80E690E00E94180D89E618
:1009200090E00E94100D8AE790E00E94080D0E945E
:10093000420C4C0162E370E00E94940860E070E0B9
:10094000C4010E94AE0B3C0140E050E0BC01C40178
:100950000E94B508AA24BB24CC24DD2490E4E92E0F
:10096000F12C02E022E030E041E050E0B301C401AC
:100970000E94430B80EEA82E81E0B82E22E030E0EA
:1009800041E050E0B301C4010E947B0B0E94EF07DD
:1009900078940E94460DFFCF87E28093760285E22D
:1009A0008093750290E2909377021092780228E08B
:1009B00030E030937A022093790283E280938402BC
:1009C00081E2809383029093850210928602309395
:1009D000880220938702089508956091920281E22F
:1009E0000E942008089568E08BE20E94200862E1DE
:1009F00088E20E94200868E08FE20E94200862E1FD
:100A00008CE20E94200861E08FE20E94200865E0ED
:100A100083E20E94200808950F931F938C0160E4E5
:100A200080E20E942008F8016281605884E00E9400
:100A30002008F8018281809391021F910F910895FF
:100A40000F931F93CF93DF93EC012A853B851216FA
:100A50001306DCF588859985821793071CF568E0F5
:100A600083E20E94200800E010E00FC08C859D8585
:100A7000E80FF91F608181E20E942008888599852E
:100A80000196998788870F5F1F4FE885F9858A85CA
:100A90009B85083011051CF4E817F9073CF3E817AB
:100AA000F90724F061E087E20E9420088B81813001
:100AB00031F465E089810E9420081B8206C061E054
:100AC00089810E94200881E08B83DF91CF911F9163
:100AD0000F910895CF93DF93CDB7DEB724970FB66C
:100AE000F894DEBF0FBECDBFDC01FC012281338153
:100AF00010928C0210928B0281E080938602832FE9
:100B000099278230D9F0833069F1813009F057C0DC
:100B100080916102992790938E0280938D0281E6E5
:100B200092E09093900280938F0286819781803427
:100B3000910509F044C088E090E029C0FD0186815C
:100B4000978190938E0280938D02E22FFF27EE0F04
:100B5000FF1F8091730290917402E80FF91F80814A
:100B6000918129C02223C1F0E22FFF27EE0FFF1F42
:100B700080910B0190910C01E80FF91F0190F08119
:100B8000E02DF0939002E0938F028081992790935B
:100B90008E0280938D0213C094E0998383E08A8350
:100BA00089E08B839C8384E090E090938E02809315
:100BB0008D02CE0101969093900280938F0283E87C
:100BC00092E00E94200524960FB6F894DEBF0FBE77
:100BD000CDBFDF91CF910895CF93DF9382E20E9442
:100BE0000708C82FDD27C5FF1FC068E083E20E9409
:100BF0002008C6FF10C020918B0230918C0280919A
:100C00008D0290918E02281739074CF483E892E008
:100C10000E9420050DC088E890E00E942E0861E047
:100C200087E20E94200804C089E990E00E942E0813
:100C3000DF91CF9108958AE00E940708992780FFED
:100C400003C00E94EC05089581FF0DC08AE20E9456
:100C5000070880914E02813061F4E0915102F091D9
:100C600052020995089582E30E9407088AE30E94D0
:100C7000070808951F9388E00E940708182F84EA48
:100C800090E00E942E08812F992786FF1BC060E00C
:100C900085E00E94200860E884E00E94200860E06F
:100CA00080E20E94200868E083E20E94200861E060
:100CB00087E20E94200862E085E00E94200880EB25
:100CC00090E021C084FF0BC060EC89E00E94200806
:100CD00063E085E00E94200888EB90E014C017FFD5
:100CE0000BC060E589E00E94200862E085E00E9478
:100CF00020088EEB90E007C083FF03C087EC90E0F4
:100D000002C08DEC90E00E942E081F9108958EE0A5
:100D10000E94070884ED90E00E942E0808950F932A
:100D20001F93CF93DF93CDB7DEB728970FB6F89414
:100D3000DEBF0FBECDBF86E20E94070886FF6FC0F0
:100D40008E010F5F1F4F809175020E940708F80106
:100D500081938F01CE010996E817F907A1F78E015B
:100D60000F5F1F4F68E087E20E94200868E083E27F
:100D70000E94200880E20E9407088F77682F80E297
:100D80000E94200889819927807690708032910591
:100D9000A1F18034910571F1892B91F5F8018181E0
:100DA0008630E1F0873050F4833091F1843018F4CC
:100DB000823030F52DC0853019F514C08930B1F07E
:100DC0008A3018F48830E1F405C08A3009F18B309C
:100DD000B9F413C0C8010E94ED041AC0C8010E94F2
:100DE0006A0516C0C8010E940C0512C0C8010E9405
:100DF000F3040EC0C8010E94BE0065E083E206C095
:100E000080E20E9407088058682F80E20E94200834
:100E1000F80180818823D1F465E083E215C0209138
:100E20008D0230918E028091870290918802821704
:100E3000930764F410928E0210928D0268E083E2B0
:100E40000E94200861E087E20E94200828960FB6E1
:100E5000F894DEBF0FBECDBFDF91CF911F910F91F0
:100E600008950F931F93CF93DF93CDB7DEB7C05490
:100E7000D0400FB6F894DEBF0FBECDBF8CE00E940D
:100E80000708182F81EE90E00E942E08812F9927E5
:100E900080FF03C00E948F0675C081FF28C08EE2CC
:100EA0000E9407088DE20E94070889838E010F5F68
:100EB0001F4F0F5F1F4F0E94FB07F8018083CE0179
:100EC000805C9F4F08171907A1F7809100018130BE
:100ED00039F4E0910301F0910401CE0101960995E6
:100EE00068E08FE20E94200861E08FE229C082FF63
:100EF0002AC086E30E94070885E30E9407088983C9
:100F00008E010F5F1F4F0F5F1F4F0E94FB07F801FD
:100F10008083CE01805C9F4F08171907A1F780914D
:100F20000101813039F4E0910501F0910601CE0113
:100F30000196099568E087E30E94200861E087E355
:100F40000E9420081FC083FF1DC08EE30E94070877
:100F50008E010F5F1F4F8DE30E940708F8018193F8
:100F60008F01CE018F5B9F4FE817F907A1F78091A2
:100F70000201813039F4E0910301F0910401CE01C6
:100F800001960995C05CDF4F0FB6F894DEBF0FBE27
:100F9000CDBFDF91CF911F910F910895CF92DF9236
:100FA000EF92FF920F931F93CF93DF936C017A011F
:100FB000C0E0D0E08B0107C0F80161918F01C6014C
:100FC0000E94DB0D2196CE15DF05B4F3DF91CF91A2
:100FD0001F910F91FF90EF90DF90CF90089585B70C
:100FE000826085BF8BB780648BBF88EF81BB82B383
:100FF000886382BB089582B398E1892782BB000091
:10100000000082B3892782BB83B3992708959FEF9D
:1010100094BB85BB82B398E6892782BB82B38927BC
:1010200082BB000014BA0E94FB079927089585BB74
:1010300082B398E2892782BB82B3892782BB089555
:1010400085BB8FEF84BB82B398E6892782BB82B3CE
:10105000892782BB862F0E94170808950E94990D48
:10106000089582E18093610281E08093620280E1D1
:1010700091E0909364028093630210926502109253
:1010800066021092670288E08093680210926A02FA
:101090001092690210926C0210926B0210926E0212
:1010A00010926D0210926F021092700210927102F3
:1010B000109272021092000110920101109202012E
:1010C00010924E0210924F0210925002109258024B
:1010D0001092570210920A011092090108959093FC
:1010E0006A028093690270936C0260936B02509362
:1010F0006E0240936D02089590936A028093690294
:10110000089590936C0280936B02089590936E0201
:1011100080936D020895809365020895809366021E
:101120000895809367020895CF93DF939C01CB01CC
:10113000E0915702F091580262E070E00E94EA0FDD
:101140000FC0A081B1818281823039F4ED018D819F
:1011500099278217930709F468870780F085E02DA7
:10116000309779F7DF91CF910895CF93DF939C016A
:10117000E0915702F091580214C0A081B1818281A0
:10118000843061F4848199278217930739F486812A
:1011900099278617970711F4ED014B830780F08597
:1011A000E02D309751F7DF91CF910895BF92CF9204
:1011B000DF92EF92FF920F931F93CF93DF936C0117
:1011C000162FF42EB22EC0915702D09158022097BC
:1011D000A1F489E090E00E94F10EFC019093580286
:1011E00080935702D182C082138310861782F282C5
:1011F000B4820583E68215C0EC018F819885009743
:10120000D9F789E090E00E94F10EFC0198878F8366
:10121000D182C0821383F282B4820583E682108673
:101220001782DF91CF911F910F91FF90EF90DF9088
:10123000CF90BF900895EF92FF921F93CF93DF93CB
:101240007C01C0910901D0910A01209711F011E0B1
:1012500012C085E090E00E94F10EFC0190930A011B
:1012600080930901F182E08212821482138210E0DD
:1012700012C01F5FEC018B819C810097D1F785E044
:1012800090E00E94F10EFC019C838B83F182E0824E
:10129000128314821382812F9927DF91CF911F919E
:1012A000FF90EF900895EF92FF920F931F93CF93CB
:1012B000DF93E0910901F0910A0180E090E0038062
:1012C000F481E02D01963097D1F7880F991F0E9485
:1012D000F10E90930C0180930B0100910901109184
:1012E0000A01E801E880F9808A81C82FDD27CC0F48
:1012F000DD1F80910B0190910C01C80FD91FF701E0
:10130000808199270E94F10E9983888320E030E044
:10131000D70114C0E801EA81FF27EE0FFF1F80917B
:101320000B0190910C01E80FF91F0190F081E02D65
:10133000E20FF31F8D9180832F5F3F4FF701808174
:1013400099272817390734F3E8018B819C8100978E
:1013500011F08C01C6CFDF91CF911F910F91FF90BB
:10136000EF9008956F927F928F929F92AF92BF926B
:10137000CF92DF92EF92FF920F931F93CF93DF9361
:10138000E0915702F09158028824992409C0828183
:10139000823019F40894811C911C0780F085E02D9F
:1013A0003097A9F73401660C771CC3010E94F10E37
:1013B000909374028093730271E0E72EF12CAA24BB
:1013C000BB2453C0E0915702F091580269E0C62E49
:1013D000D12C15C0A081B181848199278E159F05DC
:1013E00019F48381C80ED11CED018D818E1521F475
:1013F0008281823009F45D010780F085E02D30970D
:1014000049F70091730210917402060D171D0250E6
:101410001040C6010E94F10EF8019183808320E004
:1014200030E0D501E0917302F0917402E60DF71DF2
:1014300032970190F081E02DE20FF31F8D918083B0
:101440002F5F3F4F2930310569F7E0917302F0912A
:101450007402E60DF71D32970190F081E02D8C2D7E
:10146000875F82830894E11CF11C8E149F040CF0AA
:10147000A9CF51E0E52EF12C49E0C42ED12C6624F1
:10148000772432E0A32EB12C9AC08481682E772471
:1014900015C0A0915702B09158020EC0ED91FC9179
:1014A00011978181823029F4858199278E159F05B6
:1014B00061F3ED01AF81B885109781F701E010E08D
:1014C00073C0409157025091580268C0DA01ED9103
:1014D000FC918181843009F05EC0EA018E819927F8
:1014E0008017910709F057C08C8199278E159F05A9
:1014F00009F051C09601DF01BF01675F7F4FE091A6
:101500007302F0917402EA0DFB1D32970190F08195
:10151000E02DE20FF31F8D9180832F5F3F4FA617C1
:10152000B70769F7E9E0F0E0CE0EDF1EC091570281
:10153000D09158022EC08A81853041F58C8199273F
:101540008E159F0519F58D81992780179107F1F464
:10155000888199819601DC01BC01695F7F4FE09130
:101560007302F0917402EA0DFB1D32970190F08135
:10157000E02DE20FF31F8D9180832F5F3F4FA61761
:10158000B70769F787E090E0C80ED91E0F80D885AD
:10159000C02D209781F6EA014F81588541155105EC
:1015A00009F094CF0F5F1F4F601671060CF089CFC2
:1015B0000894E11CF11CE2E0F0E0AE0EBF1E8E14B8
:1015C0009F040CF066CFDF91CF911F910F91FF9098
:1015D000EF90DF90CF90BF90AF909F908F907F90D3
:1015E0006F9008956F927F928F929F92AF92BF9269
:1015F000CF92DF92EF92FF920F93CF93DF935C0134
:101600003B014901E0915702F091580216C0A081B8
:10161000B18184819927A816B90661F4868199273A
:101620008615970539F48281843021F4ED018C818F
:101630008F5F8C830780F085E02D309741F787E03E
:1016400090E00E94F10EFC0187E0808385E08183B9
:1016500082820383F582E482C682EE24062D2A2D3F
:1016600045E067E0CF010E94D608DF91CF910F914E
:10167000FF90EF90DF90CF90BF90AF909F908F90B2
:101680007F906F900895AF92BF92CF92DF92EF92CA
:10169000FF920F93FC01A114B10401F142305105F6
:1016A00071F04330510599F041305105B9F481E0B2
:1016B00080934E02B0925202A09251020FC081E07C
:1016C00080934F02B0925402A092530207C081E06F
:1016D00080935002B0925602A092550220583F4F7C
:1016E000CF010E94F20A0F91FF90EF90DF90CF9010
:1016F000BF90AF900895AF92BF92CF92DF92EF92DA
:10170000FF920F93FC014230510571F043305105B7
:1017100099F041305105B9F481E080930001B09215
:101720000401A09203010FC081E080930101B092F7
:101730000601A092050107C081E080930201B092EA
:101740000801A0920701CF010E94F20A0F91FF90B9
:10175000EF90DF90CF90BF90AF900895CF92DF923F
:10176000EF920F931F93CF93DF936C018B01A091A6
:101770005702B0915802C0E0D0E014C02D913C91C6
:101780001197F90185818C1551F4FD018281823018
:1017900031F4F90184818F5F8483C82FDD27FD0137
:1017A000A781B085109751F789E090E00E94F10E73
:1017B000FC0189E0808384E08183028313821482A8
:1017C0001582168217821086EC2E00E02C2D44E044
:1017D00069E0CF010E94D608CE01DF91CF911F9121
:1017E0000F91EF90DF90CF900895BF92CF92DF924C
:1017F000EF92FF920F931F93CF93DF936C017B01C6
:10180000142FB22EA0915702B0915802C0E0D0E040
:1018100014C02D913C911197F90185818C1551F4DB
:10182000FD018281823031F4F90184818F5F8483EC
:10183000C82FDD27FD01A781B085109751F789E0FA
:1018400090E00E94F10EFC0189E0808384E08183B6
:10185000E282138214821583B68207831086EC2EEF
:1018600000E02C2D44E069E0CF010E94D608CE01B3
:10187000DF91CF911F910F91FF90EF90DF90CF906C
:10188000BF900895CF92DF92EF920F93C0907202B3
:10189000C394C0927202DD2489E090E00E94F10EB0
:1018A000FC0189E0808389E090E09383828382E079
:1018B00081831482C582168280EA87838AE18087C9
:1018C000EE2400E020E042E069E0CF010E94D6086B
:1018D000C6010F91EF90DF90CF900895EF92FF92A5
:1018E0000F931F93CF93DF938C01FC010190002095
:1018F000E9F73197E81BF90BEE0FFF1FCF010296B6
:101900000E94F10E7C01BC01F80101900020E9F772
:101910003197E01BF10BEE0FFF1FEE5FDC01EC9344
:1019200083E0E701898340E050E0F8010190002066
:10193000E9F73197E01BF10B980108C0D9018D91AF
:101940009D01EB01888319824F5F5F4F6E5F7F4F70
:101950004E175F0798F3C7010E941B099927DF9173
:10196000CF911F910F91FF90EF900895EF92FF920A
:101970000F931F93CF93DF938C017B01CA010E94C9
:101980006E0C9C01E0915702F091580214C0A081A6
:10199000B1818281843061F4848199278017910715
:1019A00039F4868199278E159F0511F4ED0128875A
:1019B0000780F085E02D309751F7DF91CF911F918F
:1019C0000F91FF90EF9008950F931F93CF93DF93A4
:1019D0008C01CB010E946E0C9C01E0915702F091AA
:1019E00058020FC0A081B1818281823039F4ED01AB
:1019F0008D8199278017910709F42E830780F08540
:101A0000E02D309779F7DF91CF911F910F910895D5
:101A10000E946E0C1816190614F480937102089532
:101A20000E946E0C1816190614F480937002089523
:101A30000E946E0C1816190614F480936F02089514
:101A40001F9386E00E940708992786FF03C00E9423
:101A500031070EC082FF03C00E941B0609C081FF30
:101A600003C00E943A0604C084FF02C00E94870699
:101A700087E00E940708182F60E087E00E94200896
:101A8000612F87E00E9420081F9108950E94B209EB
:101A90000E9453090E94CC0461E080E00E9420086B
:101AA00080E00E94070880FDFBCF62E081E00E9499
:101AB00020086FEF8FE00E94200860E18FE00E9415
:101AC000200860E884E00E94200860E480E20E9430
:101AD000200868E083E20E94200869E087E20E9413
:101AE00020086FE08DE00E9420086FE08BE00E94EC
:101AF000200868E589E00E94200866ED87E00E94E2
:101B0000200862E085E00E9420086CEC80E00E94E2
:101B10002008089580EC8BB988E98AB986E880BDF1
:101B200010BC83E389B98CB15F99FDCF0895089506
:101B3000089508958A3310F4805301C087556A339D
:101B400010F4605301C067558295807F6F70862BBB
:101B5000992708950895CF93DF93DC01EC01EC8180
:101B6000FD81219188859985019721F48A819B8146
:101B7000E81BF90BED01FD83EC83998788878D9134
:101B80009C911197019711969C938E93822F992780
:101B9000DF91CF910895FC011182108277836683D3
:101BA0007583648353834283538742875187408779
:101BB0008FEF84870895CF93DF93DC012D913C91C3
:101BC0001197EC018A819B81281739071CF080E06E
:101BD00090E01AC0ED01EE81FF8161938A859B85BB
:101BE000019721F48A819B81E81BF90BED019B870A
:101BF0008A87FF83EE838D919C91119701961196B0
:101C00009C938E9381E090E0DF91CF910895FC0149
:101C100080819181892BE1F3CF010E94AB0D99273F
:101C20000895FC0180819181892B19F42FEF30E018
:101C300005C0CF010E94AB0D282F3327C90108959D
:101C40008BB782608BBF87E7A0E0B0E0082E0E94D0
:101C50001110E091EC00F091ED00099508958FB915
:101C6000779BFECF08951F938FEF87BB83E58DB9D8
:101C700010E118BB85E090E00E94E20E18BA85E002
:101C800090E00E94E20E18BB8CEA8FB9779BFECFE2
:101C900083E58FB9779BFECF1FB8779BFECF89E096
:101CA00090E00E94E20E8CEA8FB98FB9779BFECF4D
:101CB00084E08FB9779BFECF1FB8779BFECF80E182
:101CC00090E00E94E20E82E088BB8EEE90E00E94DF
:101CD000990D1F910895AC019C0120E23202212D43
:101CE000330B1124247035E0959587953A95E1F7EB
:101CF000887F8260282B2FB9779BFECF4FB9779BC7
:101D0000FECF6FB9779BFECF83E090E00E94E20E9A
:101D10000895CF92DF92EF92FF920F931F93CF938C
:101D2000DF936C018FEF87BB83E58DB910E118BBA2
:101D300085E090E00E94E20E18BA85E090E00E94F3
:101D4000E20E18BB8CEA8FB9779BFECF83E58FB983
:101D5000779BFECF1FB8779BFECF89E090E00E9473
:101D6000E20EF60181819927D82FCC278281860146
:101D70000C5F1F4FEE24FF24C80FD11D0EC0F801C9
:101D80006081CE010E946B0EF80181918F010E944B
:101D9000AA0D0894E11CF11C2196F6018381992774
:101DA000E816F90664F389E090E00E94E20E82E012
:101DB00088BBDF91CF911F910F91FF90EF90DF9043
:101DC000CF900895AC0120E030E0E0EAFFE005C0EC
:101DD000CF010197F1F72F5F3F4F24173507C4F369
:101DE0000895CF93DF93AC01029710F442E050E0E6
:101DF000A0919502B0919602FD01C0E0D0E020E0F4
:101E000030E020C0808191818417950769F4828138
:101E10009381209719F09B838A8304C09093960244
:101E200080939502CF0132C04817590738F4211525
:101E3000310519F08217930708F49C01EF01028025
:101E4000F381E02D3097F1F62115310589F1C901B3
:101E5000841B950B049708F4A901E0E0F0E026C08C
:101E60008D919C91119782179307E9F448175907B0
:101E700079F4ED018A819B81309719F093838283F5
:101E800004C09093960280939502CD01029649C0BA
:101E9000841B950BFD01E80FF91F419351930297A5
:101EA0008D939C933AC0FD01A281B3811097C1F636
:101EB0008091930290919402892B41F48091FB00D0
:101EC0009091FC0090939402809393022091FD00E6
:101ED0003091FE002115310541F42DB73EB78091B8
:101EE000F9009091FA00281B390BE0919302F091D0
:101EF00094022E1B3F0B2417350788F0CA01029667
:101F00002817390760F0CF01840F951F0296909330
:101F100094028093930241935193CF0102C080E0D9
:101F200090E0DF91CF910895CF93DF93009709F46C
:101F30004EC0EC0122971B821A82A0919502B091AB
:101F40009602109711F140E050E001C0DC01AC179F
:101F5000BD0700F1BB83AA83FE0121913191E20FFD
:101F6000F31FEA17FB0771F42E5F3F4F8D919C9191
:101F70001197820F931F99838883FD01828193813A
:101F80009B838A834115510559F4D0939602C093DF
:101F900095021DC0FD0182819381AD010097B1F6CC
:101FA000FA01D383C28321913191E20FF31FEC1721
:101FB000FD0769F42E5F3F4F88819981820F931F3F
:101FC000FA01918380838A819B8193838283DF914D
:101FD000CF91089597FB092E07260AD077FD04D0EC
:101FE0000CD006D000201AF4709561957F4F0895AB
:101FF000F6F7909581959F4F0895AA1BBB1B51E161
:1020000007C0AA1FBB1FA617B70710F0A61BB70B68
:10201000881F991F5A95A9F780959095BC01CD010D
:102020000895E199FECFBFBBAEBB0DBA11960FB6B6
:0A203000F894E29AE19A0FBE0895B9
:10203A00422E5361757465720041565249535020BD
:10204A006D6B4949204B6C6F6E0030303030413037
:10205A0030313238323535007374616C6C20686106
:10206A006E647368616B65200074783020657272E3
:10207A006F720A00616C74206576656E740D0A00D1
:10208A0072657365740D0A007364330D0A00726514
:10209A0073756D650D0A00656F700D0A00656C73C6
:1020AA00650D0A006E61636B206576656E740D0AB4
:1020BA00007278206576656E740D0A00007072658C
:1020CA006164792E2E2E0D0A00200097020000006E
:00000001FF
