:100000000C94EB000C941F050C9408010C9408014F
:100010000C9408010C9408010C9408010C9408013C
:100020000C9408010C9408010C9408010C9408012C
:100030000C9408010C9408010C9408010C9408011C
:100040000C9408010C9408010C9408010C9408010C
:100050000C9408017F05A705E0057608050619063A
:100060006F067608760872067608760876087608AF
:100070007608780683069F06B106EA068507C50757
:1000800035084A0877076A0757080C066F0800000A
:10009000000000000000020006000E001200140024
:1000A0001500170018001A001B001D001E0020007C
:1000B000210024002600270029002C002D003000FC
:1000C0003200350038003B003E004100440047004C
:1000D0004B004E00530057005C0060006500690053
:1000E0006F0074007A00800087008D0095009C00EE
:1000F000A400AB00B400BD00C600D100DA00E600E9
:10010000F000FC00080116012301320141015201F7
:100110006201730186019801AD01C201D901EF01AD
:10012000090222023D025A0276029602B702D90261
:10013000FB0223034A0374039F03CC03FC032D0437
:1001400062049904D404110550059405DA052306C8
:100150007006C10616077007CE0730089608030917
:100160007309EB09680AEB0A720B020C9D0C3B0D3C
:10017000DE0D910E470F0810CB10A01181126D13E8
:100180005614561560168617A318DC191E1B811C01
:10019000EC1D5E1FD1208F222924EA25DA27C529EC
:1001A000E12BF22D3730B9322335CB374B3A073DAF
:1001B000074057436046654A1E4EE251F055345A97
:1001C000935E42632868426D8B722F78347E688418
:1001D000C18ABF91E09811241FBECFE5D8E0DEBFF1
:1001E000CDBF10E0A0E6B0E0EAEEF6E202C0059076
:1001F0000D92A039B107D9F712E0A0E9B0E001C033
:100200001D92AA33B107E1F70E947D080C94741384
:100210000C940000A0E0B0E00E946013802D9927AC
:100220009093C2008093C1008091C1009091C20060
:10023000843A910530F083E090E09093C20080937F
:10024000C10088B38F7188BBBE9821EA27BBBC9AD6
:100250001DB81EB8E091C100F091C200EE0FFF1F63
:10026000E257FF4F859194919093B9008093B80025
:100270008091C1009091C20083309105C1F084301B
:10028000910530F48130910571F0029770F409C046
:100290008530910599F08530910558F00697A1F4C5
:1002A0000FC080E507C083E505C081E503C081E597
:1002B00008C082E58DB981E08EB9089582E501C05C
:1002C00083E58DB91EB80895C798BE9827BB0895D9
:1002D00087B38E7587BB18BA089588B38E7188BBB3
:1002E000BE9887B3816A87BB0895682F8091C1004B
:1002F0009091C200079730F46FB9779BFECF8FB112
:1003000099270895E091B800F091B900F695E79526
:1003100040E850E020E030E0842F862311F0C59AB9
:1003200001C0C598CF010197F1F7C79ACF01019796
:10033000F1F7B699542BCF010197F1F7C798CF0188
:100340000197F1F746952F5F3F4F2830310521F790
:10035000852F992708952DB13EB11DB81EB8809103
:10036000B8009091B900FC013197F1F7C79A019755
:10037000F1F7C7982DB93EB90895FF920F931F93D7
:100380008B01F42E0E947501812F99270E9475011F
:10039000802F0E9475018F2D0E94750199271F9152
:1003A0000F91FF9008950E947501089580E00E94CA
:1003B0007501992708951F931FB7F8948091BF0086
:1003C0009091C000019749F467E08BE20E94380CDD
:1003D0001092C0001092BF000AC063E08BE20E943E
:1003E000380C81E090E09093C0008093BF001FBF65
:1003F0001F910895FF920F931F93082FFFB6F89453
:1004000068E08BE20E94380C10E009C0E12FFF2762
:10041000E753FF4F608189E20E94380C1F5F10177D
:10042000A9F70E94DB01FFBE1F910F91FF90089575
:10043000CF92DF92EF92FF920F931F93CF93DF93B0
:10044000EC0189818D3348F48A818D3330F48E013B
:10045000CC24DD24EE24FF241EC08DE18093C9004E
:1004600089EC8093CA0082E02DC0F80184810E944B
:100470007501282F8B819927C816D9063CF0F70102
:10048000E553FF4F20830894E11CF11C0894C11C24
:10049000D11C0F5F1F4F89819927C816D9062CF3ED
:1004A0008A819927E816F90614F480E0E0CF8DE1FF
:1004B0008093C9001092CA00F701E553FF4F1082E4
:1004C0008E2D8D5F0E94FA01DF91CF911F910F91C8
:1004D000FF90EF90DF90CF900895CF93DF938091BE
:1004E000A1009091A200892B09F45CC068E08BE226
:1004F0000E94380C8091A1009091A2008134910556
:1005000018F4C0E0D0E03DC0C0E0D0E0E091C3000E
:10051000F091C40046E0EE0FFF1F4A95E1F7EC0FA3
:10052000FD1FE753FF4F608189E20E94380C21963E
:10053000C034D10559F78091C3009091C400019651
:100540009093C4008093C3008091A1009091A20079
:10055000805490409093A2008093A10021C0E0912C
:10056000C300F091C40036E0EE0FFF1F3A95E1F7AB
:10057000EC0FFD1FE753FF4F608189E20E94380CAA
:1005800021968091A1009091A200C817D90738F355
:100590001092C4001092C3001092A2001092A10009
:1005A0000E94DB01DF91CF910895FC0181818130B0
:1005B00011F40E941C120895EF92FF920F931F9363
:1005C000CF93DF93EC011092AA001092AB0010922F
:1005D000AC001092AD001092B2008FEF9FEF90939D
:1005E000B7008093B6008091B5008A7F8093B500F4
:1005F0000E946D01DC9AC7988091C7009091C80055
:10060000019761F4C0988AE090E00E942412C09A99
:100610008AE090E00E942412C0980BC0C09A8AE041
:1006200090E00E942412C0988AE090E00E94241278
:10063000C09A8AE090E00E94241280E18093C90071
:100640008B8199270E9424128C81082F112733C097
:1006500088850E94D3018D8199270E942412898563
:100660000E94D3018D8199270E9424128A850E94BD
:100670007501E82E8D8199270E9424128B850E9496
:100680007501F82E8D8199270E9424128F8188236D
:1006900059F0833021F48E81E81649F405C0843086
:1006A00031F48E81F81619F41092CA000AC00E9423
:1006B000AB01015010400115110551F680EC8093FB
:1006C000CA0082E00E94FA01DF91CF911F910F9141
:1006D000FF90EF900895CF92DF92EF92FF920F93E9
:1006E0001F93CF93DF93EC01D62E8091BD009091A4
:1006F000BE00892B19F470E4F72E1BC02A966623DE
:10070000B1F085E18093C90089EE90E0909391006B
:10071000809390008091A1009091A2008D50914013
:1007200020F080EC8093CA0002C01092CA0066E3F9
:10073000F62E8091A1009091A2008034910531F4B1
:1007400081E490E09093A2008093A1008091A100A9
:100750009091A2002F2D33272817390768F4821BA8
:10076000930B9093A2008093A10081E090E090937E
:10077000BC008093BB0009C0F82E1092A20010921A
:10078000A1001092BC001092BB00DD2039F18091D5
:10079000CA00882309F043C10F2D1127A801BE010B
:1007A00080919000909191000E9430138091900070
:1007B00090919100800F911F9093910080939000F1
:1007C0002EC18091CA00882309F01EC1C9EED0E075
:1007D000F0909000FC1AC090A90002C0C090A80040
:1007E000EE24ACC08091B50082FF1FC08091AA00AA
:1007F0009091AB00A091AC00B091AD008D0122278B
:1008000033278091B6009091B700AA27BB2708171D
:1008100019072A073B0749F01093B7000093B60069
:1008200040E0B8018DE40E94BD01DD2049F48091D3
:10083000A500E0FE02C0886001C0877F8093A5000C
:1008400048816091AA007091AB008091A5000E9440
:10085000BD018091A300992780FD40C083FF11C096
:1008600018EC88EE93E00197F1F740E060E070E06B
:1008700080EF0E94BD0180FF48C0115091F781E8D0
:1008800024C082FF25C088818C1511F1DD2049F438
:100890008091A700E0FE02C0886001C0877F80933E
:1008A000A70018EC88EE93E00197F1F76091AA0099
:1008B0007091AB0040E08091A7000E94BD0198813B
:1008C000891719F1115071F780E88093B2001DC0AB
:1008D0008091A40099270E94241217C088818C154A
:1008E000A1F02091B50020FD10C08091AA00909148
:1008F000AB009093B4008093B3008E2D8170880F6D
:100900002D7F282B21602093B500DD2011F4E0FE1F
:1009100013C08091AA009091AB00A091AC00B0915F
:10092000AD000196A11DB11D8093AA009093AB006C
:10093000A093AC00B093AD00E3942196EF1409F0BE
:1009400051CF8091A1009091A200892B09F06EC037
:100950008091A3008178813809F04BC06091AE008E
:100960007091AF0040E08091A6000E94BD0180918F
:10097000A300992786FF11C018EC88EE93E0019739
:10098000F1F740E060E070E080EF0E94BD0180FF81
:1009900030C0115091F781E824C085FF25C09091A7
:1009A000B50090FF21C0DD2049F48091A70091FFA0
:1009B00002C0886001C0877F8093A70018EC88EE92
:1009C00093E00197F1F76091B3007091B40040E0BB
:1009D0008091A7000E94BD018C1559F4115079F740
:1009E00080E88093B20005C08091A40099270E94FE
:1009F0002412DD2011F085E101C083E18093C9005C
:100A00008091B2008093CA001092B2008091B5002C
:100A10008E7F8093B50082E00E94FA0107C080912A
:100A2000A1009091A200892B09F4CBCEDF91CF9148
:100A30001F910F91FF90EF90DF90CF9008951F923C
:100A40000F920FB60F9211242F933F934F935F9302
:100A50006F937F938F939F93AF93BF93EF93FF9386
:100A60000E943811FF91EF91BF91AF919F918F91AB
:100A70007F916F915F914F913F912F910F900FBE9A
:100A80000F901F901895EF92FF920F931F93CF93A3
:100A9000DF93EC0160E08BE20E94380C68E08BE2AF
:100AA0000E94380C8091BB009091BC00892B91F082
:100AB0008091BA00833121F460E0CE010E946B0383
:100AC0008091BA00853109F011C361E0CE010E9426
:100AD0006B030CC388818093BA0088819927AA2769
:100AE000BB27FC013197ED31F10508F0FFC2E65D4F
:100AF000FF4FEE0FFF1F0590F491E02D099481E068
:100B00008093C9001092CA008AE08093CB0081E4F0
:100B10008093CC0086E58093CD0082E58093CE0063
:100B200089E48093CF0083E58093D00080E58093B3
:100B3000D1008FE58093D2008DE48093D3008BE4C5
:100B40008093D40082E38093D5008DE0C5C282E01B
:100B50008093C9001092CA008981883991F08E393A
:100B600009F058C08A81882329F41092C800109295
:100B7000C70050C081E090E09093C8008093C70008
:100B800049C08A81843A10F083EA8A838A81282FB7
:100B900033278091C1009091C2002817390769F06E
:100BA0003093C2002093C1008091C1009091C20097
:100BB000A0E0B0E0082E0E9468130E940A012AC03B
:100BC00083E08093C9001092CA008981823991F034
:100BD000833938F4803909F459C2813909F056C291
:100BE00009C0883959F0813A09F450C2843909F0B2
:100BF0004DC202C089E006C082E304C08091C100FA
:100C00009091C2008093CB0043C285E08093C900DD
:100C10001092CA0082E060C28A810E94D3018B8157
:100C20000E94D3018C810E94D3010E94D6019CE1D5
:100C30004AC289819927AA27BB278093AA0090934B
:100C4000AB00A093AC00B093AD00BA2FA92F982FA2
:100C500088272A81332744275527822B932BA42BBF
:100C6000B52B8093AA009093AB00A093AC00B093F7
:100C7000AD00BA2FA92F982F88272B81332744271F
:100C80005527822B932BA42BB52B8093AA009093EE
:100C9000AB00A093AC00B093AD00BA2FA92F982F52
:100CA00088272C81332744275527822B932BA42B6D
:100CB000B52B8093AA009093AB00A093AC00B093A7
:100CC000AD0090E0898187FD91E0990F990F8091A7
:100CD000B5008B7F892B8093B50086E097CF0E946B
:100CE0001C1204C28AE08093C9001092CA00FEC19F
:100CF000CE010E94DC028091B5008E7F8093B5000A
:100D00001092B200F3C140E060E070E08DE40E9418
:100D1000BD01DC98C09A87B38E7587BB18BA81E194
:100D20008093C9001092CA0082E00E94FA0180916B
:100D3000C5009091C600892B09F0D8C18AC18B816A
:100D40000E94D3018C810E94D30180E00E94D301D4
:100D500080E00E94D301898199270E94241282E1B8
:100D600055CF89819927982F88272A813327822B6D
:100D7000932B9093A2008093A1008B818093A3007A
:100D80008C818093A4008D818093A5008E818093B7
:100D9000A6008F818093A70088858093A80089850D
:100DA0008093A9008091AA009091AB00A091AC0023
:100DB000B091AD008093AE009093AF00A093B000CF
:100DC000B093B10081E090E09093BE008093BD00AD
:100DD00060E0D3C089819927F82EEE248A81992773
:100DE000E82AF92A0894E11CF11CF092A200E09292
:100DF000A1000894E108F1088B818093A700C0E06E
:100E0000D0E04FC08091B50082FF1FC08091AA0042
:100E10009091AB00A091AC00B091AD008D01222764
:100E200033278091B6009091B700AA27BB270817F7
:100E300019072A073B0749F01093B7000093B60043
:100E400040E0B8018DE40E94BD016091AA0070915C
:100E5000AB0040E08091A7000E94BD01FE01E75376
:100E6000FF4F82838091A700803221F488E2809333
:100E7000A70016C080E28093A7008091AA009091FD
:100E8000AB00A091AC00B091AD000196A11DB11DC9
:100E90008093AA009093AB00A093AC00B093AD00F8
:100EA0002196CE15DF0509F0ADCF84E18093C9000E
:100EB0001092CA008091A1009091A200FC01E6531B
:100EC000FF4F10828F33910508F0A7C08E5F0E94FC
:100ED000FA01BFC08A810E94D3018B810E94D30195
:100EE0008C810E94D3010E94D6019AE1ECC08981D5
:100EF0000E94D3018A810E94D3018B810E94D30179
:100F00008C810E94D30189E1BDC089819927982FE6
:100F100088272A813327822B932B9093A2008093DA
:100F2000A1008B818093A3008C818093A4008D818C
:100F30008093A5008E818093A6008F818093A70067
:100F400088858093A80089858093A9008091AA0054
:100F50009091AB00A091AC00B091AD008093AE0039
:100F60009093AF00A093B000B093B10081E090E007
:100F70009093BE008093BD0061E0CE010E946B03A0
:100F80001092BE001092BD00B1C089819927182F20
:100F900000278A819927082B192B0F5F1F4F109369
:100FA000A2000093A1008B818093A700C0E0D0E055
:100FB00020C06091AA007091AB0040E08091A70032
:100FC0000E94BD01FE01E753FF4F81838091AA007B
:100FD0009091AB00A091AC00B091AD000196A11D25
:100FE000B11D8093AA009093AB00A093AC00B09386
:100FF000AD002196C017D107E1F686E18093C900C4
:101000001092CA008091A1009091A200FC01E653C9
:10101000FF4F10828F33910598F080E40E94FA010F
:101020008091A1009091A200CE979093A20080930E
:10103000A10081E090E09093C4008093C30056C06B
:101040008E5F0E94FA018091BF009091C0000197CD
:1010500029F41092C0001092BF0048C081E090E0D7
:101060009093C0008093BF0041C089810E94D3014A
:101070008A810E94D3018B810E94D3018C810E94BE
:10108000D30187E18093C9001092CA001092CB006F
:1010900083E022C08A810E94D3018B810E94D30108
:1010A0008C810E94D3010E94D60198E10CC08A81F4
:1010B0000E94D3018B810E94D3018C810E94D301B5
:1010C0000E94D6019BE19093C9001092CA008093C0
:1010D000CB001092CC0084E00E94FA0107C010926D
:1010E000C6001092C500CE010E941802DF91CF9178
:1010F0001F910F91FF90EF900895CDE5D8E0DEBFEE
:10110000CDBF0E940A0187B38E7587BB18BA0E94B3
:10111000470C1092BC001092BB0081E090E09093CD
:10112000C6008093C5001092C4001092C300909333
:10113000C8008093C7001092C0001092BF0080E1E9
:101140008ABBDC98C09A8BEE93E00E94920C84E0FC
:1011500091E20E94970C80E092E00E949C0C89E052
:10116000898384E08A83CE0101960E94941080E6F0
:1011700090E00E94301189E690E00E9428118AE7F1
:1011800090E00E9420110E946A104C0162E370E01E
:101190000E94AA0C60E070E0C4010E94D60F3C01DE
:1011A00040E050E0BC01C4010E94CB0CEDE6AE2E45
:1011B000E2E0BE2ECC24DD2470E4E72EF12C02E028
:1011C00022E030E041E050E0B301C4010E946B0F27
:1011D00063E4A62E65E0B62E22E030E041E050E068
:1011E000B301C4010E94A30F0E94070C78940E94CF
:1011F0006011FFCF87E280931D0285E280931C027D
:1012000090E290931E0210921F0228E030E030938B
:1012100021022093200283E28093290281E28093BD
:10122000280290932A0210922B0230932D022093D1
:101230002C020895089508956091350281E20E947C
:10124000380C089568E08BE20E94380C62E188E275
:101250000E94380C68E08FE20E94380C62E18CE258
:101260000E94380C61E08FE20E94380C65E083E256
:101270000E94380C08950F931F938C0160E480E264
:101280000E94380CF8016281605884E00E94380C9A
:10129000F8018281809334021F910F9108950F937A
:1012A0001F93CF93DF93EC0128853985121613061F
:1012B0000CF03FC08E819F81821793073CF568E058
:1012C00083E20E94380C00E010E012C08A859B8502
:1012D000E80FF91F608181E20E94380C8E819F81A6
:1012E00001969F838E830F5F1F4F0830110539F0E1
:1012F000EE81FF8188859985E817F9073CF32885F9
:1013000039858E819F818217930724F061E087E2FF
:101310000E94380C8B81813031F465E089810E9414
:10132000380C1B8206C061E089810E94380C81E084
:101330008B83DF91CF911F910F910895CF93DF930E
:10134000CDB7DEB724970FB6F894DEBF0FBECDBF82
:10135000DC01FC012281338110922F0210922E02B7
:1013600081E080932B02832F9927823021F18330F3
:10137000B1F1813009F060C0809108029927909303
:1013800031028093300288E092E0909333028093A0
:10139000320286819781089721F480E490E0978358
:1013A0008683FD01868197818034910509F044C0D0
:1013B00088E090E029C0FD018681978190933102F9
:1013C00080933002E22FFF27EE0FFF1F80911A0259
:1013D00090911B02E80FF91F8081918129C022237F
:1013E000C1F0E22FFF27EE0FFF1F80919F00909129
:1013F000A000E80FF91F0190F081E02DF093330277
:10140000E0933202808199279093310280933002D9
:1014100013C094E0998383E08A8389E08B839C8363
:1014200084E090E09093310280933002CE010196E7
:10143000909333028093320288E292E00E944F0937
:1014400024960FB6F894DEBF0FBECDBFDF91CF91CB
:101450000895CF93DF9382E20E941F0CC82FDD27EF
:10146000C5FF1AC068E083E20E94380CC6FF10C0B6
:1014700020912E0230912F02809130029091310202
:10148000281739072CF488E292E00E944F0904C023
:1014900061E087E20E94380CDF91CF9108951F939D
:1014A000CF93DF9388E00E941F0C182FC82FDD27F1
:1014B000C6FF18C060E085E00E94380C60E884E058
:1014C0000E94380C60E080E20E94380C68E083E201
:1014D0000E94380C61E087E20E94380C62E085E0EF
:1014E0000E94380CC4FF04C060EC89E00E94380CF4
:1014F00017FF04C060ED89E00E94380CDF91CF91A6
:101500001F9108958AE00E941F0C992780FF03C055
:101510000E94290A089581FF0DC08AE20E941F0CD3
:101520008091F501813061F4E091F801F091F901C9
:101530000995089582E30E941F0C8AE30E941F0C04
:1015400008958EE00E941F0C0895AF92BF92CF9233
:10155000DF92EF92FF920F931F93CF93DF93CDB75C
:10156000DEB728970FB6F894DEBF0FBECDBF86E278
:101570000E941F0C86FF7EC08E010F5F1F4F580117
:1015800069E0C62ED12CCC0EDD1E80911C020E947B
:101590001F0CF80181938F017501EC15FD05A9F76A
:1015A00068E087E20E94380C68E083E20E94380C11
:1015B00080E20E941F0C8F77682F80E20E94380C17
:1015C00089819927807690708032910509F440C016
:1015D00080349105D1F1892BF1F5F50181818630B7
:1015E000D9F0873048F48130F1F18130C8F0833090
:1015F00079F1853081F521C0893019F18A3018F4EC
:10160000883049F505C08A3071F18B3021F520C052
:10161000C5010E941C0927C0C5010E949E0923C064
:1016200068E083E20E94380C61E081E20E94380C9D
:1016300060E081E20E94380C0BC0C5010E943B09AA
:1016400012C0C5010E9422090EC0C5010E94D50228
:1016500065E083E206C080E20E941F0C8058682F7C
:1016600080E20E94380CF70180818823D1F465E084
:1016700083E215C0209130023091310280912C021A
:1016800090912D028217930764F410923102109208
:10169000300268E083E20E94380C61E087E20E9439
:1016A000380C28960FB6F894DEBF0FBECDBFDF9181
:1016B000CF911F910F91FF90EF90DF90CF90BF904F
:1016C000AF900895CF92DF92EF92FF920F931F9306
:1016D000CF93DF93CDB7DEB7C054D0400FB6F894A8
:1016E000DEBF0FBECDBF8CE00E941F0C992780FF8C
:1016F00003C00E94A50A7BC081FF2AC08EE20E941F
:101700001F0C8DE20E941F0C89838E010F5F1F4FFB
:101710006801FFE3EF2EF12CE00EF11E0F5F1F4F6B
:101720000E94130CF80180830E151F05B9F78091F4
:101730009200813031F4E0919500F0919600C6015D
:10174000099568E08FE20E94380C61E08FE22BC0BF
:1017500082FF2CC086E30E941F0C85E30E941F0CB1
:1017600089838E010F5F1F4F6801EFE3EE2EF12C8E
:10177000E00EF11E0F5F1F4F0E94130CF8018083D3
:101780000E151F05B9F780919300813031F4E09177
:101790009700F0919800C601099568E087E30E94E0
:1017A000380C61E087E30E94380C21C083FF1FC022
:1017B0008EE30E941F0C8E010F5F1F4F680171E4C2
:1017C000E72EF12CEC0EFD1E8DE30E941F0CF8019C
:1017D00081938F01EE15FF05B9F780919400813058
:1017E00031F4E0919500F0919600C6010995C05C36
:1017F000DF4F0FB6F894DEBF0FBECDBFDF91CF91A4
:101800001F910F91FF90EF90DF90CF90089585B7D3
:10181000826085BF8BB780648BBF88EF81BB82B34A
:10182000886382BB089582B398E1892782BB000058
:10183000000082B3892782BB83B3992708959FEF65
:1018400094BB85BB82B398E6892782BB82B3892784
:1018500082BB000014BA0E94130C9927089585BB1F
:1018600082B398E2892782BB82B3892782BB08951D
:1018700085BB8FEF84BB82B398E6892782BB82B396
:10188000892782BB862F0E942F0C0895089582E13C
:101890008093080281E08093090280E191E09093B7
:1018A0000B0280930A0210920C0210920D02109209
:1018B0000E0288E080930F02109211021092100223
:1018C000109213021092120210921502109214023A
:1018D000109216021092170210921802109219021A
:1018E0001092920010929300109294001092F501C1
:1018F0001092F6011092F7011092FF011092FE0172
:1019000010929E0010929D00089590931102809372
:1019100010027093130260931202509315024093C9
:1019200014020895909311028093100208959093E9
:10193000130280931202089590931502809314026B
:10194000089580930C02089580930D02089580936A
:101950000E020895CF93DF939C01CB01E091FE012D
:10196000F091FF0162E070E00E9439130FC0A08186
:10197000B1818281823039F4ED018D8199278217FE
:10198000930709F468870780F085E02D309779F791
:10199000DF91CF910895CF93DF939C01E091FE01F9
:1019A000F091FF0114C0A081B1818281843061F483
:1019B000848199278217930739F48681992786179E
:1019C000970711F4ED014B830780F085E02D3097E8
:1019D00051F7DF91CF91089590939C0080939B00E5
:1019E0000895BF92CF92DF92EF92FF920F931F93D1
:1019F000CF93DF936C01162FF42EB22EC091FE010F
:101A0000D091FF012097A1F489E090E00E9432126A
:101A1000FC019093FF018093FE01D182C082138369
:101A200010861782F282B4820583E68215C0EC012B
:101A30008F8198850097D9F789E090E00E94321253
:101A4000FC0198878F83D182C0821383F282B48293
:101A50000583E68210861782DF91CF911F910F9147
:101A6000FF90EF90DF90CF90BF900895EF92FF929C
:101A70001F93CF93DF937C01C0919D00D0919E0076
:101A8000209711F011E012C085E090E00E94321220
:101A9000FC0190939E0080939D00F182E08212826F
:101AA0001482138210E012C01F5FEC018B819C81B5
:101AB0000097D1F785E090E00E943212FC019C83F0
:101AC0008B83F182E082128314821382812F992703
:101AD000DF91CF911F91FF90EF900895EF92FF92C9
:101AE0000F931F93CF93DF93E0919D00F0919E00A1
:101AF00080E090E00380F481E02D01963097D1F7EB
:101B0000880F991F0E9432129093A00080939F002B
:101B100000919D0010919E00E801E880F9808A8183
:101B2000C82FDD27CC0FDD1F80919F009091A00072
:101B3000C80FD91FF701808199270E94321299831B
:101B4000888320E030E017C0E801EA81FF27EE0F2C
:101B5000FF1F80919F009091A000E80FF91F019056
:101B6000F081E02DE20FF31FD701A20FB31F8C917C
:101B700080832F5F3F4FF70180819927281739070E
:101B80001CF3E8018B819C81009711F08C01C4CF7C
:101B9000DF91CF911F910F91FF90EF9008954F9299
:101BA0005F926F927F928F929F92AF92BF92CF92ED
:101BB000DF92EF92FF920F931F93CF93DF93E09109
:101BC000FE01F091FF016624772409C082818230F2
:101BD00019F40894611C711C0780F085E02D309782
:101BE000A9F74301880C991CC4010E9432129093FA
:101BF0001B0280931A02E1E0EE2EF12CAA24BB24F2
:101C000053C0E091FE01F091FF0179E0C72ED12C85
:101C100015C0A081B181848199278E159F0519F483
:101C20008381C80ED11CED018D818E1521F4828136
:101C3000823009F45D010780F085E02D309749F787
:101C400000911A0210911B0202501040080D191D3C
:101C5000C6010E943212F8019183808320E030E0B7
:101C6000E0911A02F0911B02E80DF91D32970190E4
:101C7000F081E02DE20FF31FD501A20FB31F8C916D
:101C800080832F5F3F4F2930310551F7E0911A02D1
:101C9000F0911B02E80DF91D32970190F081E02DC3
:101CA000C2820894E11CF11C6E147F040CF0A9CFD1
:101CB00061E0C62ED12C59E0A52EB12C4424552428
:101CC00042E0842E912CA1C0A091FE01B091FF01B1
:101CD00012C0ED91FC9111978181823049F4858188
:101CE00099278C159D0521F48481482E552405C023
:101CF000ED01AF81B885109761F731E0E32EF12C4B
:101D000079C06091FE017091FF016DC0FB01C0813F
:101D1000D1818981843009F063C0868199278E152D
:101D20009F0509F05DC0848199278C159D0509F0F8
:101D300057C0950140E050E0E0911A02F0911B027B
:101D4000E80DF91D32970190F081E02DE20FF31FAD
:101D5000DE01A40FB51F8C9180832F5F3F4F4F5F33
:101D60005F4F4930510541F789E090E0A80EB91E58
:101D7000C091FE01D091FF0131C08A81853059F5B3
:101D80008C8199278C159D0531F58D8199278E15AC
:101D90009F0509F508811981950140E050E0E09127
:101DA0001A02F0911B02E80DF91D32970190F081A3
:101DB000E02DE20FF31FD801A40FB51F8C91808393
:101DC0002F5F3F4F4F5F5F4F4730510541F7E7E0CF
:101DD000F0E0AE0EBF1E0F80D885C02D209769F6AB
:101DE000EB016F8178856115710509F08FCF08943B
:101DF000E11CF11C4E145F040CF083CF0894C11C4D
:101E0000D11CE2E0F0E08E0E9F1E6C147D040CF0FD
:101E10005BCFDF91CF911F910F91FF90EF90DF90FB
:101E2000CF90BF90AF909F908F907F906F905F907A
:101E30004F9008956F927F928F929F92AF92BF9230
:101E4000CF92DF92EF92FF920F93CF93DF935C01DB
:101E50003B014901E091FE01F091FF0116C0A08114
:101E6000B18184819927A816B90661F486819927E2
:101E70008615970539F48281843021F4ED018C8137
:101E80008F5F8C830780F085E02D309741F787E0E6
:101E900090E00E943212FC0187E0808385E081831C
:101EA00082820383F582E482C682EE24062D2A2DE7
:101EB00045E067E0CF010E94F10CDF91CF910F91D7
:101EC000FF90EF90DF90CF90BF90AF909F908F905A
:101ED0007F906F900895AF92BF92CF92DF92EF9272
:101EE000FF920F93FC01A114B10401F1423051059E
:101EF00071F04330510599F041305105B9F481E05A
:101F00008093F501B092F901A092F8010FC081E031
:101F10008093F601B092FB01A092FA0107C081E024
:101F20008093F701B092FD01A092FC0120583F4F31
:101F3000CF010E941A0F0F91FF90EF90DF90CF908A
:101F4000BF90AF900895AF92BF92CF92DF92EF9281
:101F5000FF920F93FC014230510571F0433051055F
:101F600099F041305105B9F481E080939200B0922C
:101F70009600A09295000FC081E080939300B092EC
:101F80009800A092970007C081E080939400B092DF
:101F90009A00A0929900CF010E941A0F0F91FF9012
:101FA000EF90DF90CF90BF90AF900895CF92DF92E7
:101FB000EF920F931F93CF93DF936C018B01A0914E
:101FC000FE01B091FF01C0E0D0E014C02D913C9122
:101FD0001197F90185818C1551F4FD0182818230C0
:101FE00031F4F90184818F5F8483C82FDD27FD01DF
:101FF000A781B085109751F789E090E00E943212D6
:10200000FC0189E0808384E081830283138214824F
:102010001582168217821086EC2E00E02C2D44E0EB
:1020200069E0CF010E94F10CCE01DF91CF911F91A9
:102030000F91EF90DF90CF900895BF92CF92DF92F3
:10204000EF92FF920F931F93CF93DF936C017B016D
:10205000142FB22EA091FE01B091FF01C0E0D0E09C
:1020600014C02D913C911197F90185818C1551F483
:10207000FD018281823031F4F90184818F5F848394
:10208000C82FDD27FD01A781B085109751F789E0A2
:1020900090E00E943212FC0189E0808384E0818319
:1020A000E282138214821583B68207831086EC2E97
:1020B00000E02C2D44E069E0CF010E94F10CCE013C
:1020C000DF91CF911F910F91FF90EF90DF90CF9014
:1020D000BF900895EF920F931F93109119021F5F05
:1020E0001093190289E090E00E943212FC0189E00D
:1020F000808389E090E09383828382E081831482ED
:102100001583168280E887838AE18087EE2400E0C9
:1021100020E042E069E0CF010E94F10C812F992775
:102120001F910F91EF900895CF93DF93EC01FC0185
:1021300001900020E9F7E81BF90BCF01880F991FE8
:102140000E9432129C01FE0101900020E9F7EC1B75
:10215000FD0BEE0FFF1FDC01EC9383E0F90181839F
:1021600040E050E009C0FE01E40FF51F80818C9330
:10217000FD0111824F5F5F4F1296FE01019000201A
:10218000E9F73197EC1BFD0B4E175F0760F3C901B0
:102190000E94360D9927DF91CF910895EF92FF921B
:1021A0000F931F93CF93DF938C017B01CA010E9491
:1021B00094109C01E091FE01F091FF0114C0A081F8
:1021C000B1818281843061F48481992780179107DD
:1021D00039F4868199278E159F0511F4ED01288722
:1021E0000780F085E02D309751F7DF91CF911F9157
:1021F0000F91FF90EF9008950F931F93CF93DF936C
:102200008C01CB010E9494109C01E091FE01F091A1
:10221000FF010FC0A081B1818281823039F4ED01CC
:102220008D8199278017910709F42E830780F08507
:10223000E02D309779F7DF91CF911F910F9108959D
:102240000E9494101816190614F480931802089529
:102250000E9494101816190614F48093170208951A
:102260000E9494101816190614F48093160208950B
:102270001F93CF93DF9386E00E941F0CC82FDD27AA
:10228000C4FF02C00E94A10AC6FF02C00E94620BE6
:10229000C2FF02C00E94820AC1FF02C00E944F0A10
:1022A00087E00E941F0C182F60E087E00E94380C26
:1022B000612F87E00E94380CDF91CF911F91089524
:1022C0000E94CF0D0E946E0D0E94FA0861E080E02E
:1022D0000E94380C80E00E941F0C80FDFBCF62E062
:1022E00081E00E94380C60E884E00E94380C60E4D1
:1022F00080E20E94380C68E083E20E94380C69E0BA
:1023000087E20E94380C6FE08DE00E94380C6FE08D
:102310008BE00E94380C68ED89E00E94380C63E382
:102320008FE00E94380C66ED87E00E94380C62E076
:1023300085E00E94380C6CEC80E00E94380C089517
:10234000CF93DF93DC01EC01EC81FD812191888545
:102350009985019721F48A819B81E81BF90BED0196
:10236000FD83EC83998788878D919C9111970197C4
:1023700011969C938E93822F9927DF91CF91089588
:10238000FC01118210827783668375836483538393
:10239000428353874287518740878FEF8487089510
:1023A000CF93DF93DC012D913C911197EC018A8151
:1023B0009B81281739071CF080E090E01AC0ED01DE
:1023C000EE81FF8161938A859B85019721F48A8143
:1023D0009B81E81BF90BED019B878A87FF83EE83C6
:1023E0008D919C911197019611969C938E9381E00B
:1023F00090E0DF91CF910895FC0180819181892B3C
:10240000E1F3CF010E94A01199270895CF93DF93A4
:10241000FC01EB0180819181181619061CF02FEF49
:102420003FEF06C0CF010E94A011888321E030E079
:10243000C901DF91CF910895DC9AF894E09188006A
:10244000F091890009950895AC0120E030E006C0C4
:1024500080EA9FE00197F1F72F5F3F4F2417350780
:10246000BCF30895CF93DF93AC01029710F442E0E0
:1024700050E0A0913802B0913902FD01C0E0D0E0F7
:1024800020E030E020C0808191818417950769F4B5
:1024900082819381209719F09B838A8304C0909353
:1024A0003902809338029F0132C04817590738F427
:1024B0002115310519F08217930708F49C01EF01EB
:1024C0000280F381E02D3097F1F62115310599F165
:1024D000C901841B950B049708F4A901E0E0F0E022
:1024E00028C08D919C91119782179307F9F4481792
:1024F000590781F4ED018A819B81309719F093830C
:10250000828304C090933902809338029D012E5F2C
:102510003F4F4CC0841B950BFD01E80FF91F419301
:10252000519302978D939C939F0140C0FD01A2811E
:10253000B3811097B1F68091360290913702892BC2
:1025400041F480918C0090918D009093370280939C
:10255000360220918E0030918F002115310549F40B
:102560008DB7282F332780918A0090918B00281BEC
:10257000390BA0913602B09137022A1B3B0B24176E
:10258000350790F0CA0102962817390768F09D01B7
:102590002E5F3F4FC901840F951F909337028093A0
:1025A00036024D935C9302C020E030E0C901DF9118
:1025B000CF910895CF93DF93009709F44EC0EC01BB
:1025C00022971B821A82A0913802B091390210978B
:1025D00011F140E050E001C0DC01AC17BD0700F193
:1025E000BB83AA83FE0121913191E20FF31FEA1709
:1025F000FB0771F48D919C911197280F391F2E5F65
:102600003F4F39832883FD01828193819B838A8395
:102610004115510559F4D0933902C09338021DC0B9
:10262000FD0182819381AD010097B1F6FA01D38358
:10263000C28321913191E20FF31FEC17FD0769F47A
:1026400088819981280F391F2E5F3F4FFA0131830E
:1026500020838A819B8193838283DF91CF91089528
:10266000FB01DC0102C001900D9241505040D8F7AF
:10267000089597FB092E07260AD077FD04D00CD0C9
:1026800006D000201AF4709561957F4F0895F6F7F3
:10269000909581959F4F0895AA1BBB1B51E107C0E0
:1026A000AA1FBB1FA617B70710F0A61BB70B881FE2
:1026B000991F5A95A9F780959095BC01CD01089571
:1026C000E199FECFBFBBAEBBE09A11960DB2089563
:1026D000E199FECFBFBBAEBB0DBA11960FB6F89411
:0A26E000E29AE19A0FBE0895FFCFC1
:1026EA00422E536175746572004156524953502007
:1026FA006D6B3220436C6F6E650030303030413084
:10270A003031323832353500007020003A0200008C
:00000001FF
