:100000000C94EB000C9431050C9408010C9408013D
:100010000C9408010C9408010C9408010C9408013C
:100020000C9408010C9408010C9408010C9408012C
:100030000C9408010C9408010C9408010C9408011C
:100040000C9408010C9408010C9408010C9408010C
:100050000C9408018D05B605EF054F081406290616
:1000600073064F084F0876064F084F084F084F0891
:100070004F087C0680069706A906DE0664078A07F5
:100080000C082208560749072F081C0648080000DC
:10009000000000000000020006000E001200140024
:1000A0001500170018001A001B001D001E0020007C
:1000B000210024002600270029002C002D003000FC
:1000C0003200350038003B003E004100440047004C
:1000D0004B004E00530057005C0060006500690053
:1000E0006F0074007A00800087008D0095009C00EE
:1000F000A400AB00B400BD00C600D100DA00E600E9
:10010000F000FC00080116012301320141015201F7
:100110006201730186019801AD01C201D901EF01AD
:10012000090222023D025A0276029602B702D90261
:10013000FB0223034A0374039F03CC03FC032D0437
:1001400062049904D404110550059405DA052306C8
:100150007006C10616077007CE0730089608030917
:100160007309EB09680AEB0A720B020C9D0C3B0D3C
:10017000DE0D910E470F0810CB10A01181126D13E8
:100180005614561560168617A318DC191E1B811C01
:10019000EC1D5E1FD1208F222924EA25DA27C529EC
:1001A000E12BF22D3730B9322335CB374B3A073DAF
:1001B000074057436046654A1E4EE251F055345A97
:1001C000935E42632868426D8B722F78347E688418
:1001D000C18ABF91E09811241FBECFE5D8E0DEBFF1
:1001E000CDBF10E0A0E6B0E0EAE8F6E202C005907C
:1001F0000D92A039B107D9F712E0A0E9B0E001C033
:100200001D92A433B107E1F70E9454080C944413E3
:100210000C940000A0E0B0E00E943013802D9927DC
:100220009093BC008093BB008091BB009091BC0078
:10023000843A910530F083E090E09093BC00809385
:10024000BB0088B38F7188BBBE9821EA27BBBC9ADC
:100250001DB81EB8E091BB00F091BC00EE0FFF1F6F
:10026000E257FF4F859194919093B3008093B20031
:100270008091BB009091BC0083309105C1F0843027
:10028000910530F48130910571F0029770F409C046
:100290008530910599F08530910558F00697A1F4C5
:1002A0000FC080E507C083E505C081E503C081E597
:1002B00008C082E58DB981E08EB9089582E501C05C
:1002C00083E58DB91EB80895C798BE9827BB0895D9
:1002D00087B38E7587BB18BA089588B38E7188BBB3
:1002E000BE9887B3816A87BB0895682F8091BB0051
:1002F0009091BC00079730F46FB9779BFECF8FB118
:1003000099270895E091B200F091B300F695E79532
:1003100040E850E020E030E0842F862311F0C59AB9
:1003200001C0C598CF010197F1F7C79ACF01019796
:10033000F1F7B699542BCF010197F1F7C798CF0188
:100340000197F1F746952F5F3F4F2830310521F790
:10035000852F992708952DB13EB11DB81EB8809103
:10036000B2009091B300FC013197F1F7C79A019761
:10037000F1F7C7982DB93EB908950E947501089507
:1003800080E00E947501992708958091A7000E943E
:10039000BD018091AA009091AB00A091AC00B091FA
:1003A000AD00892F9A2FAB2FBB270E94BD018091F2
:1003B000AA000E94BD010E94C00199270895809162
:1003C000B9009091BA00019749F467E08BE20E946E
:1003D0000F0C1092BA001092B900089563E08BE2FE
:1003E0000E940F0C81E090E09093BA008093B900D6
:1003F00008950F931F93CF93DF938C0168E08BE2F6
:100400000E940F0CC0E0D0E008C0FE01ED53FF4F8A
:10041000608189E20E940F0C2196C017D107ACF3CE
:100420000E94DF01DF91CF911F910F910895CF922C
:10043000DF92EF92FF920F931F93CF93DF93EC0124
:1004400089818D3348F48A818D3330F48E01CC2438
:10045000DD24EE24FF241FC08DE18093C30089ECCE
:100460008093C40082E090E02DC0F80184810E9456
:100470007501282F8B819927C816D9063CF0F70102
:10048000EB53FF4F20830894E11CF11C0894C11C1E
:10049000D11C0F5F1F4F89819927C816D9062CF3ED
:1004A0008A819927E816F90614F480E0E0CF8DE1FF
:1004B0008093C3001092C400F701EB53FF4F1082EA
:1004C000C70103960E94F901DF91CF911F910F910F
:1004D000FF90EF90DF90CF900895CF93DF938091BE
:1004E000A1009091A200892B09F45CC068E08BE226
:1004F0000E940F0C8091A1009091A200813491057F
:1005000018F4C0E0D0E03DC0C0E0D0E0E091BD0014
:10051000F091BE0046E0EE0FFF1F4A95E1F7EC0FA9
:10052000FD1FED53FF4F608189E20E940F0C219661
:10053000C034D10559F78091BD009091BE0001965D
:100540009093BE008093BD008091A1009091A20085
:10055000805490409093A2008093A10021C0E0912C
:10056000BD00F091BE0036E0EE0FFF1F3A95E1F7B7
:10057000EC0FFD1FED53FF4F608189E20E940F0CCD
:1005800021968091A1009091A200C817D90738F355
:100590001092BE001092BD001092A2001092A10015
:1005A0000E94DF01DF91CF910895FC0181818130AC
:1005B00011F40E94F3110895EF92FF920F931F938D
:1005C000CF93DF93EC011092AA001092AB0010922F
:1005D000AC001092AD000E946D01DC9AC79880912A
:1005E000C1009091C200019761F4C0988AE090E048
:1005F0000E94FD11C09A8AE090E00E94FD11C0980F
:100600000BC0C09A8AE090E00E94FD11C0988AE079
:1006100090E00E94FD11C09A8AE090E00E94FD11D6
:1006200080E18093C3008B8199270E94FD118C810A
:10063000082F112733C088850E94BD018D8199271D
:100640000E94FD1189850E94BD018D8199270E941C
:10065000FD118A850E947501E82E8D8199270E94DF
:10066000FD118B850E947501F82E8D8199270E94BE
:10067000FD118F81882359F0833021F48E81E81693
:1006800049F405C0843031F48E81F81619F41092C3
:10069000C4000AC00E94AB010150104001151105B1
:1006A00051F680EC8093C40082E090E00E94F90152
:1006B000DF91CF911F910F91FF90EF900895FF92DE
:1006C0000F931F93182F062FF42E80EC0E94BD016C
:1006D000812F0E94BD01802F0E94BD018F2D0E949D
:1006E000BD018AE090E00E94FD111F910F91FF90E3
:1006F00008950F931F93CF93DF93EC018091B70080
:100700009091B800019719F040E050E01EC010929F
:10071000B8001092B7008091A1009091A2008C5077
:10072000914058F085E18093C30080EC8093C40031
:1007300082E090E00E94F90106C080E290E0909390
:100740009100809390004AE050E02091A100309108
:10075000A20080E490E0841B950B82179307A0F41D
:1007600020543040240F351F3093A2002093A10065
:1007700081E090E09093B6008093B50060E470E073
:10078000DE01A40FB51F1CC0BA01620F731F1092C7
:10079000A2001092A1001092B6001092B500F0CF06
:1007A00080919000909191002D91FC01ED53FF4FAD
:1007B0002083019690939100809390004F5F5F4F4C
:1007C0004617570768F38091A1009091A200892BEA
:1007D000D1F5C0E2D0E027C0FE01ED53FF4F4081CC
:1007E0006091AA007091AB008091AC009091AD0037
:1007F000072F182F292F3327802F0E945F03219660
:100800008091AA009091AB00A091AC00B091AD0096
:100810000196A11DB11D8093AA009093AB00A093F7
:10082000AC00B093AD008091900090919100C817FA
:10083000D90790F285E18093C3001092C40082E052
:1008400090E00E94F901DF91CF911F910F910895DF
:10085000DF92EF92FF920F931F93D82EE62EF42E85
:10086000022F1091A4008091A800281721F08091F8
:10087000A30080FF16C0812F99270E94FD1113C08D
:1008800081E090E00E94FD118D2D0E94BD018E2D12
:100890000E94BD018F2D0E94BD010E94C0018017E2
:1008A00011F0115068F71F910F91FF90EF90DF90BA
:1008B0000895EF92FF920F931F93CF93DF93EC0174
:1008C000F62EE42E092F11278091A5000E94BD016C
:1008D000802F0E94BD018C2F0E94BD018F2D0E9490
:1008E000BD018091A30080FD07C02F2D4C2F602FEC
:1008F0008091A7000E9428048091A50088600E9432
:10090000BD01802F0E94BD018C2F0E94BD018E2D44
:100910000E94BD018091A30080FD08C08091A700C6
:100920002E2D4C2F602F88600E942804DF91CF91DC
:100930001F910F91FF90EF900895EF92FF920F9308
:100940001F93CF93DF939C018091B7009091B800E3
:10095000892B19F06AE070E002C060E070E0E0E42A
:10096000EE2EF12CE61AF70A8091A1009091A200D8
:10097000E816F90668F48E199F099093A2008093F7
:10098000A10081E090E09093B6008093B50009C08B
:100990007C011092A2001092A1001092B600109259
:1009A000B500E901C60FD71F00E010E01EC0498165
:1009B00068818091AA009091AB000E9459048091B7
:1009C000AA009091AB00A091AC00B091AD0001964F
:1009D000A11DB11D8093AA009093AB00A093AC0021
:1009E000B093AD000E5F1F4F22960E151F05FCF24F
:1009F0008091A1009091A200892B61F58091A300C4
:100A000080FF1FC087FF1DC08091A6000E94BD010E
:100A10008091AE009091AF00A091B000B091B10074
:100A2000892F9A2FAB2FBB270E94BD018091AE006A
:100A30000E94BD0180E00E94BD0184E190E00E941F
:100A4000FD1183E18093C3001092C40082E090E026
:100A50000E94F901DF91CF911F910F91FF90EF90CC
:100A600008951F920F920FB60F9211242F933F9368
:100A70004F935F936F937F938F939F93AF93BF93A6
:100A8000EF93FF930E940F11FF91EF91BF91AF91F0
:100A90009F918F917F916F915F914F913F912F9196
:100AA0000F900FBE0F901F9018950F931F93CF9329
:100AB000DF93EC0160E08BE20E940F0C68E08BE2B8
:100AC0000E940F0C8091B5009091B600892B81F0A7
:100AD0008091B400833119F4CE010E949D0480916D
:100AE000B400853109F0DBC2CE010E947903D7C280
:100AF00088818093B40088819927AA27BB27FC01AD
:100B00003197ED31F10508F0CAC2E65DFF4FEE0FF7
:100B1000FF1F0590F491E02D099481E08093C300BC
:100B20001092C4008AE08093C50081E48093C600DF
:100B300086E58093C70082E58093C80089E48093AE
:100B4000C90083E58093CA0080E58093CB008FE5E0
:100B50008093CC008DE48093CD008BE48093CE0015
:100B600082E38093CF008DE090E08FC282E080939B
:100B7000C3001092C4008981883991F08E3909F040
:100B800058C08A81882329F41092C2001092C100B3
:100B900050C081E090E09093C2008093C10049C0B2
:100BA0008A81843A10F083EA8A838A81282F332746
:100BB0008091BB009091BC002817390769F03093F1
:100BC000BC002093BB008091BB009091BC00A0E0D2
:100BD000B0E0082E0E9438130E940A012AC083E068
:100BE0008093C3001092C4008981823991F08339C7
:100BF00038F4803909F421C2813909F01EC209C0D4
:100C0000883959F0813A09F418C2843909F015C2BB
:100C100002C089E006C082E304C08091BB009091CD
:100C2000BC008093C5000BC285E08093C300109286
:100C3000C40082E090E029C28A810E94BD018B81BC
:100C40000E94BD018C810E94BD010E94C0019CE1F7
:100C500012C289819927AA27BB278093AA00909363
:100C6000AB00A093AC00B093AD00BA2FA92F982F82
:100C700088272A81332744275527822B932BA42B9F
:100C8000B52B8093AA009093AB00A093AC00B093D7
:100C9000AD00BA2FA92F982F88272B8133274427FF
:100CA0005527822B932BA42BB52B8093AA009093CE
:100CB000AB00A093AC00B093AD00BA2FA92F982F32
:100CC00088272C81332744275527822B932BA42B4D
:100CD000B52B8093AA009093AB00A093AC00B09387
:100CE000AD0086E0A2CF0E94F311D9C18AE08093C3
:100CF000C3001092C400D3C1CE010E94DC02CFC158
:100D0000DC98C09A87B38E7587BB18BA81E180934F
:100D1000C3001092C40082E090E00E94F90180912B
:100D2000BF009091C000892B09F0B9C169C18B81C6
:100D30000E94BD018C810E94BD0180E00E94BD0126
:100D400080E00E94BD01898199270E94FD1182E106
:100D50006CCF89819927982F88272A813327822B66
:100D6000932B9093A2008093A1008B818093A3008A
:100D70008C818093A4008D818093A5008E818093C7
:100D8000A6008F818093A7008091AA009091AB006C
:100D9000A091AC00B091AD008093AE009093AF00F5
:100DA000A093B000B093B10081E090E09093B800C0
:100DB0008093B700CE010E949D04A7C08981992726
:100DC000982F88272A813327822B932B0196909383
:100DD000A2008093A10001972B812093A700EC0132
:100DE00002E010E03DC08091A7000E94BD0180910B
:100DF000AA009091AB00A091AC00B091AD00892FFA
:100E00009A2FAB2FBB270E94BD018091AA000E94A0
:100E1000BD010E94C001F801ED53FF4F8083809116
:100E2000A700803221F488E28093A70016C080E2F8
:100E30008093A7008091AA009091AB00A091AC0094
:100E4000B091AD000196A11DB11D8093AA009093B1
:100E5000AB00A093AC00B093AD000F5F1F4F219784
:100E60001C161D060CF4BFCF84E18093C3001092C2
:100E7000C4008091A1009091A200FC01EC53FF4FAF
:100E800010828F33910508F09EC002960E94F901EE
:100E9000B7C08A810E94BD018B810E94BD018C81F7
:100EA0000E94BD010E94C0019AE1E5C089810E94B3
:100EB000BD018A810E94BD018B810E94BD018C8190
:100EC0000E94BD0189E1B5C089819927982F8827A3
:100ED0002A813327822B932B9093A2008093A10029
:100EE0008B818093A3008C818093A4008D8180935B
:100EF000A5008F818093A70081E090E09093B800D7
:100F00008093B700CE010E9479031092B80010922E
:100F1000B700C5C089819927982F88272A81332750
:100F2000822B932B01969093A2008093A1002B819A
:100F30002093A700EC0102E010E031C08091A700EF
:100F40000E94BD018091AA009091AB00A091AC00DD
:100F5000B091AD00892F9A2FAB2FBB270E94BD0106
:100F60008091AA000E94BD010E94C001F801ED53CA
:100F7000FF4F80830F5F1F4F8091AA009091AB00BD
:100F8000A091AC00B091AD000196A11DB11D809360
:100F9000AA009093AB00A093AC00B093AD00219752
:100FA0001C161D065CF286E18093C3001092C400FB
:100FB0008091A1009091A200FC01EC53FF4F1082A0
:100FC0008F339105A0F080E490E00E94F9018091B8
:100FD000A1009091A200CE979093A2008093A100CF
:100FE00081E090E09093BE008093BD0058C00296CF
:100FF0000E94F9018091B9009091BA00019729F4FB
:101000001092BA001092B9004AC081E090E090932B
:10101000BA008093B90043C089810E94BD018A81D2
:101020000E94BD018B810E94BD018C810E94BD0187
:1010300087E18093C3001092C4001092C50083E042
:1010400090E023C08A810E94BD018B810E94BD0176
:101050008C810E94BD010E94C00198E10CC08A8170
:101060000E94BD018B810E94BD018C810E94BD0147
:101070000E94C0019BE19093C3001092C400809332
:10108000C5001092C60084E090E00E94F90107C0FC
:101090001092C0001092BF00CE010E941702DF9193
:1010A000CF911F910F910895CDE5D8E0DEBFCDBF60
:1010B0000E940A0187B38E7587BB18BA0E941E0C66
:1010C0001092B6001092B50081E090E09093C000BD
:1010D0008093BF001092BE001092BD009093C2009A
:1010E0008093C1001092BA001092B90080E18ABBCF
:1010F000DC98C09A8BEE93E00E94690C84E091E248
:101100000E946E0C80E092E00E94730C89E089835B
:1011100084E08A83CE0101960E946B1080E690E005
:101120000E94071189E690E00E94FF108AE790E094
:101130000E94F7100E9441104C0162E370E00E948F
:10114000810C60E070E0C4010E94AD0F3C0140E002
:1011500050E0BC01C4010E94A20CADE6AA2EA2E0A0
:10116000BA2ECC24DD24F0E4EF2EF12C02E022E0B4
:1011700030E041E050E0B301C4010E94420FE5E5D8
:10118000AE2EE5E0BE2E22E030E041E050E0B301BB
:10119000C4010E947A0F0E94DE0B78940E943711DE
:1011A000FFCF87E28093170285E28093160290E2D8
:1011B000909318021092190228E030E030931B023D
:1011C00020931A0283E28093230281E28093220219
:1011D0009093240210922502309327022093260236
:1011E00008950895089560912F0281E20E940F0CE6
:1011F000089568E08BE20E940F0C62E188E20E9491
:101200000F0C68E08FE20E940F0C62E18CE20E94FA
:101210000F0C61E08FE20E940F0C65E083E20E94F8
:101220000F0C08950F931F938C0160E480E20E94DD
:101230000F0CF8016281605884E00E940F0CF801E5
:10124000828180932E021F910F9108950F931F9317
:10125000CF93DF93EC0128853985121613060CF025
:101260003FC08E819F81821793073CF568E083E23F
:101270000E940F0C00E010E012C08A859B85E80FE9
:10128000F91F608181E20E940F0C8E819F8101967F
:101290009F838E830F5F1F4F0830110539F0EE8159
:1012A000FF8188859985E817F9073CF328853985FA
:1012B0008E819F818217930724F061E087E20E946C
:1012C0000F0C8B81813031F465E089810E940F0C15
:1012D0001B8206C061E089810E940F0C81E08B8334
:1012E000DF91CF911F910F910895CF93DF93CDB7E9
:1012F000DEB724970FB6F894DEBF0FBECDBFDC017A
:10130000FC0122813381109229021092280281E08F
:1013100080932502832F9927823021F18330B1F108
:10132000813009F060C080910202992790932B02CE
:1013300080932A0282E092E090932D0280932C0207
:1013400086819781089721F480E490E097838683D3
:10135000FD01868197818034910509F044C088E0C1
:1013600090E029C0FD018681978190932B028093A4
:101370002A02E22FFF27EE0FFF1F809114029091A7
:101380001502E80FF91F8081918129C02223C1F045
:10139000E22FFF27EE0FFF1F80919F009091A0008A
:1013A000E80FF91F0190F081E02DF0932D02E093FA
:1013B0002C028081992790932B0280932A0213C0DC
:1013C00094E0998383E08A8389E08B839C8384E023
:1013D00090E090932B0280932A02CE010196909385
:1013E0002D0280932C0282E292E00E94260924962C
:1013F0000FB6F894DEBF0FBECDBFDF91CF91089539
:10140000CF93DF9382E20E94F60BC82FDD27C5FF42
:101410001AC068E083E20E940F0CC6FF10C0209142
:1014200028023091290280912A0290912B022817DC
:1014300039072CF482E292E00E94260904C061E0A0
:1014400087E20E940F0CDF91CF9108951F93CF93F5
:10145000DF9388E00E94F60B182FC82FDD27C6FF08
:1014600018C060E085E00E940F0C60E884E00E94F4
:101470000F0C60E080E20E940F0C68E083E20E94A3
:101480000F0C61E087E20E940F0C62E085E00E9491
:101490000F0CC4FF04C060EC89E00E940F0C17FF22
:1014A00004C060ED89E00E940F0CDF91CF911F9185
:1014B00008958AE00E94F60B992780FF03C00E94DE
:1014C000000A089581FF0DC08AE20E94F60B809108
:1014D000EF01813061F4E091F201F091F30109959F
:1014E000089582E30E94F60B8AE30E94F60B0895AA
:1014F0008EE00E94F60B0895AF92BF92CF92DF92DA
:10150000EF92FF920F931F93CF93DF93CDB7DEB788
:1015100028970FB6F894DEBF0FBECDBF86E20E94BB
:10152000F60B86FF7EC08E010F5F1F4F580169E0EA
:10153000C62ED12CCC0EDD1E809116020E94F60B19
:10154000F80181938F017501EC15FD05A9F768E09D
:1015500087E20E940F0C68E083E20E940F0C80E299
:101560000E94F60B8F77682F80E20E940F0C898112
:101570009927807690708032910509F440C08034BC
:101580009105D1F1892BF1F5F50181818630D9F0F2
:10159000873048F48130F1F18130C8F0833079F13F
:1015A000853081F521C0893019F18A3018F48830EE
:1015B00049F505C08A3071F18B3021F520C0C50195
:1015C0000E94F30827C0C5010E94750923C068E086
:1015D00083E20E940F0C61E081E20E940F0C60E048
:1015E00081E20E940F0C0BC0C5010E94120912C0BB
:1015F000C5010E94F9080EC0C5010E94D50265E030
:1016000083E206C080E20E94F60B8058682F80E2D9
:101610000E940F0CF70180818823D1F465E083E2FA
:1016200015C020912A0230912B02809126029091C0
:1016300027028217930764F410922B0210922A0259
:1016400068E083E20E940F0C61E087E20E940F0CC9
:1016500028960FB6F894DEBF0FBECDBFDF91CF91B5
:101660001F910F91FF90EF90DF90CF90BF90AF90C0
:101670000895CF92DF92EF92FF920F931F93CF9333
:10168000DF93CDB7DEB7C054D0400FB6F894DEBFBD
:101690000FBECDBF8CE00E94F60B992780FF03C0E0
:1016A0000E947C0A7BC081FF2AC08EE20E94F60B5A
:1016B0008DE20E94F60B89838E010F5F1F4F680138
:1016C000FFE3EF2EF12CE00EF11E0F5F1F4F0E9483
:1016D000EA0BF80180830E151F05B9F7809192007F
:1016E000813031F4E0919500F0919600C6010995A2
:1016F00068E08FE20E940F0C61E08FE22BC082FF56
:101700002CC086E30E94F60B85E30E94F60B8983CA
:101710008E010F5F1F4F6801EFE3EE2EF12CE00EFC
:10172000F11E0F5F1F4F0E94EA0BF80180830E1518
:101730001F05B9F780919300813031F4E091970053
:10174000F0919800C601099568E087E30E940F0CAC
:1017500061E087E30E940F0C21C083FF1FC08EE36E
:101760000E94F60B8E010F5F1F4F680171E4E72E98
:10177000F12CEC0EFD1E8DE30E94F60BF801819317
:101780008F01EE15FF05B9F780919400813031F497
:10179000E0919500F0919600C6010995C05CDF4F7D
:1017A0000FB6F894DEBF0FBECDBFDF91CF911F9172
:1017B0000F91FF90EF90DF90CF90089585B78260F2
:1017C00085BF8BB780648BBF88EF81BB82B3886392
:1017D00082BB089582B398E1892782BB0000000094
:1017E00082B3892782BB83B3992708959FEF94BB67
:1017F00085BB82B398E6892782BB82B3892782BBE7
:10180000000014BA0E94EA0B9927089585BB82B3A1
:1018100098E2892782BB82B3892782BB089585BB62
:101820008FEF84BB82B398E6892782BB82B3892776
:1018300082BB862F0E94060C0895089582E1809352
:10184000020281E08093030280E191E0909305021F
:10185000809304021092060210920702109208026E
:1018600088E08093090210920B0210920A021092F3
:101870000D0210920C0210920F0210920E021092A2
:101880001002109211021092120210921302109282
:10189000920010929300109294001092EF01109217
:1018A000F0011092F1011092F9011092F8011092DA
:1018B0009E0010929D00089590930B0280930A025F
:1018C00070930D0260930C0250930F0240930E022E
:1018D000089590930B0280930A02089590930D024D
:1018E00080930C02089590930F0280930E02089546
:1018F000809306020895809307020895809308025A
:101900000895CF93DF939C01CB01E091F801F09112
:10191000F90162E070E00E9409130FC0A081B1815B
:101920008281823039F4ED018D81992782179307E6
:1019300009F468870780F085E02D309779F7DF910B
:10194000CF910895CF93DF939C01E091F801F0913E
:10195000F90114C0A081B1818281843061F4848155
:1019600099278217930739F4868199278617970755
:1019700011F4ED014B830780F085E02D309751F78E
:10198000DF91CF91089590939C0080939B000895E0
:10199000BF92CF92DF92EF92FF920F931F93CF935C
:1019A000DF936C01162FF42EB22EC091F801D09166
:1019B000F9012097A1F489E090E00E940B12FC014C
:1019C0009093F9018093F801D182C082138310862D
:1019D0001782F282B4820583E68215C0EC018F8102
:1019E00098850097D9F789E090E00E940B12FC01DE
:1019F00098878F83D182C0821383F282B482058359
:101A0000E68210861782DF91CF911F910F91FF9090
:101A1000EF90DF90CF90BF900895EF92FF921F93C9
:101A2000CF93DF937C01C0919D00D0919E002097C1
:101A300011F011E012C085E090E00E940B12FC0151
:101A400090939E0080939D00F182E0821282148226
:101A5000138210E012C01F5FEC018B819C81009704
:101A6000D1F785E090E00E940B12FC019C838B83F0
:101A7000F182E082128314821382812F9927DF91F1
:101A8000CF911F91FF90EF900895EF92FF920F93E7
:101A90001F93CF93DF93E0919D00F0919E0080E033
:101AA00090E00380F481E02D01963097D1F7880F04
:101AB000991F0E940B129093A00080939F000091A9
:101AC0009D0010919E00E801E880F9808A81C82F6E
:101AD000DD27CC0FDD1F80919F009091A000C80FE3
:101AE000D91FF701808199270E940B12998388835F
:101AF00020E030E017C0E801EA81FF27EE0FFF1F6A
:101B000080919F009091A000E80FF91F0190F08153
:101B1000E02DE20FF31FD701A20FB31F8C9180833A
:101B20002F5F3F4FF70180819927281739071CF352
:101B3000E8018B819C81009711F08C01C4CFDF916B
:101B4000CF911F910F91FF90EF9008954F925F9268
:101B50006F927F928F929F92AF92BF92CF92DF92BD
:101B6000EF92FF920F931F93CF93DF93E091F801D1
:101B7000F091F9016624772409C08281823019F43A
:101B80000894611C711C0780F085E02D3097A9F73F
:101B90004301880C991CC4010E940B1290931502FA
:101BA00080931402E1E0EE2EF12CAA24BB2453C052
:101BB000E091F801F091F90179E0C72ED12C15C020
:101BC000A081B181848199278E159F0519F48381A5
:101BD000C80ED11CED018D818E1521F482818230D9
:101BE00009F45D010780F085E02D309749F70091F9
:101BF00014021091150202501040080D191DC60163
:101C00000E940B12F8019183808320E030E0E09184
:101C10001402F0911502E80DF91D32970190F08140
:101C2000E02DE20FF31FD501A20FB31F8C9180832B
:101C30002F5F3F4F2930310551F7E0911402F091A9
:101C40001502E80DF91D32970190F081E02DC28256
:101C50000894E11CF11C6E147F040CF0A9CF61E024
:101C6000C62ED12C59E0A52EB12C4424552442E097
:101C7000842E912CA1C0A091F801B091F90112C05D
:101C8000ED91FC9111978181823049F485819927EA
:101C90008C159D0521F48481482E552405C0ED0145
:101CA000AF81B885109761F731E0E32EF12C79C050
:101CB0006091F8017091F9016DC0FB01C081D18183
:101CC0008981843009F063C0868199278E159F052C
:101CD00009F05DC0848199278C159D0509F057C0D6
:101CE000950140E050E0E0911402F0911502E80DFA
:101CF000F91D32970190F081E02DE20FF31FDE0114
:101D0000A40FB51F8C9180832F5F3F4F4F5F5F4FB4
:101D10004930510541F789E090E0A80EB91EC09105
:101D2000F801D091F90131C08A81853059F58C8153
:101D300099278C159D0531F58D8199278E159F0565
:101D400009F508811981950140E050E0E091140205
:101D5000F0911502E80DF91D32970190F081E02D08
:101D6000E20FF31FD801A40FB51F8C9180832F5F62
:101D70003F4F4F5F5F4F4730510541F7E7E0F0E0DD
:101D8000AE0EBF1E0F80D885C02D209769F6EB01DF
:101D90006F8178856115710509F08FCF0894E11C7A
:101DA000F11C4E145F040CF083CF0894C11CD11CAD
:101DB000E2E0F0E08E0E9F1E6C147D040CF05BCF11
:101DC000DF91CF911F910F91FF90EF90DF90CF9017
:101DD000BF90AF909F908F907F906F905F904F904B
:101DE00008956F927F928F929F92AF92BF92CF92FF
:101DF000DF92EF92FF920F93CF93DF935C013B0151
:101E00004901E091F801F091F90116C0A081B1817A
:101E100084819927A816B90661F4868199278615C9
:101E2000970539F48281843021F4ED018C818F5F34
:101E30008C830780F085E02D309741F787E090E0B4
:101E40000E940B12FC0187E0808385E081838282FF
:101E50000383F582E482C682EE24062D2A2D45E016
:101E600067E0CF010E94C80CDF91CF910F91FF90E6
:101E7000EF90DF90CF90BF90AF909F908F907F902A
:101E80006F900895AF92BF92CF92DF92EF92FF9240
:101E90000F93FC01A114B10401F14230510571F01E
:101EA0004330510599F041305105B9F481E08093F8
:101EB000EF01B092F301A092F2010FC081E0809394
:101EC000F001B092F501A092F40107C081E0809387
:101ED000F101B092F701A092F60120583F4FCF01D7
:101EE0000E94F10E0F91FF90EF90DF90CF90BF9086
:101EF000AF900895AF92BF92CF92DF92EF92FF9290
:101F00000F93FC014230510571F04330510599F0B7
:101F100041305105B9F481E080939200B09296006F
:101F2000A09295000FC081E080939300B09298003A
:101F3000A092970007C081E080939400B0929A002D
:101F4000A0929900CF010E94F10E0F91FF90EF90A7
:101F5000DF90CF90BF90AF900895CF92DF92EF9235
:101F60000F931F93CF93DF936C018B01A091F80126
:101F7000B091F901C0E0D0E014C02D913C911197CF
:101F8000F90185818C1551F4FD018281823031F493
:101F9000F90184818F5F8483C82FDD27FD01A7812C
:101FA000B085109751F789E090E00E940B12FC0178
:101FB00089E0808384E08183028313821482158206
:101FC000168217821086EC2E00E02C2D44E069E08A
:101FD000CF010E94C80CCE01DF91CF911F910F91CC
:101FE000EF90DF90CF900895BF92CF92DF92EF9263
:101FF000FF920F931F93CF93DF936C017B01142FFC
:10200000B22EA091F801B091F901C0E0D0E014C067
:102010002D913C911197F90185818C1551F4FD01A9
:102020008281823031F4F90184818F5F8483C82FEB
:10203000DD27FD01A781B085109751F789E090E079
:102040000E940B12FC0189E0808384E08183E2829C
:10205000138214821583B68207831086EC2E00E06B
:102060002C2D44E069E0CF010E94C80CCE01DF9125
:10207000CF911F910F91FF90EF90DF90CF90BF9085
:102080000895EF920F931F93109113021F5F109307
:10209000130289E090E00E940B12FC0189E080832A
:1020A00089E090E09383828382E0818314821583A8
:1020B000168280E887838AE18087EE2400E020E0B2
:1020C00042E069E0CF010E94C80C812F99271F913F
:1020D0000F91EF900895CF93DF93EC01FC010190F5
:1020E0000020E9F7E81BF90BCF01880F991F0E9428
:1020F0000B129C01FE0101900020E9F7EC1BFD0B87
:10210000EE0FFF1FDC01EC9383E0F901818340E0D7
:1021100050E009C0FE01E40FF51F80818C93FD01A2
:1021200011824F5F5F4F1296FE0101900020E9F788
:102130003197EC1BFD0B4E175F0760F3C9010E943E
:102140000D0D9927DF91CF910895EF92FF920F9394
:102150001F93CF93DF938C017B01CA010E946B1008
:102160009C01E091F801F091F90114C0A081B181C6
:102170008281843061F4848199278017910739F432
:10218000868199278E159F0511F4ED012887078018
:10219000F085E02D309751F7DF91CF911F910F918E
:1021A000FF90EF9008950F931F93CF93DF938C01CF
:1021B000CB010E946B109C01E091F801F091F901B4
:1021C0000FC0A081B1818281823039F4ED018D810F
:1021D00099278017910709F42E830780F085E02D59
:1021E000309779F7DF91CF911F910F9108950E9459
:1021F0006B101816190614F48093120208950E94A9
:102200006B101816190614F48093110208950E9499
:102210006B101816190614F48093100208951F937A
:10222000CF93DF9386E00E94F60BC82FDD27C4FF13
:1022300002C00E94780AC6FF02C00E94390BC2FF8A
:1022400002C00E94590AC1FF02C00E94260A87E00C
:102250000E94F60B182F60E087E00E940F0C612FA0
:1022600087E00E940F0CDF91CF911F9108950E948B
:10227000A60D0E94450D0E94D10861E080E00E94F9
:102280000F0C80E00E94F60B80FDFBCF62E081E046
:102290000E940F0C60E884E00E940F0C60E480E272
:1022A0000E940F0C68E083E20E940F0C69E087E255
:1022B0000E940F0C6FE08DE00E940F0C6FE08BE02E
:1022C0000E940F0C68ED89E00E940F0C63E38FE021
:1022D0000E940F0C66ED87E00E940F0C62E085E023
:1022E0000E940F0C6CEC80E00E940F0C0895CF93BD
:1022F000DF93DC01EC01EC81FD81219188859985DA
:10230000019721F48A819B81E81BF90BED01FD8384
:10231000EC83998788878D919C91119701971196ED
:102320009C938E93822F9927DF91CF910895FC0182
:10233000118210827783668375836483538342831B
:1023400053874287518740878FEF84870895CF93C3
:10235000DF93DC012D913C911197EC018A819B81E7
:10236000281739071CF080E090E01AC0ED01EE81DB
:10237000FF8161938A859B85019721F48A819B81E6
:10238000E81BF90BED019B878A87FF83EE838D9114
:102390009C911197019611969C938E9381E090E009
:1023A000DF91CF910895FC0180819181892BE1F328
:1023B000CF010E94771199270895CF93DF93FC01F5
:1023C000EB0180819181181619061CF02FEF3FEF69
:1023D00006C0CF010E947711888321E030E0C90157
:1023E000DF91CF910895DC9A8BB782608BBFE0912B
:1023F0008800F091890009950895AC0120E030E053
:1024000006C080EA9FE00197F1F72F5F3F4F241746
:102410003507BCF30895CF93DF93AC01029710F416
:1024200042E050E0A0913202B0913302FD01C0E0E1
:10243000D0E020E030E020C08081918184179507B2
:1024400069F482819381209719F09B838A8304C069
:1024500090933302809332029F0132C0481759078C
:1024600038F42115310519F08217930708F49C01FF
:10247000EF010280F381E02D3097F1F6211531054F
:1024800099F1C901841B950B049708F4A901E0E0B8
:10249000F0E028C08D919C91119782179307F9F471
:1024A0004817590781F4ED018A819B81309719F013
:1024B0009383828304C090933302809332029D0100
:1024C0002E5F3F4F4CC0841B950BFD01E80FF91F99
:1024D0004193519302978D939C939F0140C0FD01BE
:1024E000A281B3811097B1F68091300290913102B0
:1024F000892B41F480918C0090918D009093310252
:102500008093300220918E0030918F00211531058B
:1025100049F48DB7282F332780918A0090918B0042
:10252000281B390BA0913002B09131022A1B3B0BC2
:102530002417350790F0CA0102962817390768F06A
:102540009D012E5F3F4FC901840F951F909331026B
:10255000809330024D935C9302C020E030E0C901CB
:10256000DF91CF910895CF93DF93009709F44EC088
:10257000EC0122971B821A82A0913202B0913302A1
:10258000109711F140E050E001C0DC01AC17BD072D
:1025900000F1BB83AA83FE0121913191E20FF31F69
:1025A000EA17FB0771F48D919C911197280F391F41
:1025B0002E5F3F4F39832883FD01828193819B8366
:1025C0008A834115510559F4D0933302C0933202E6
:1025D0001DC0FD0182819381AD010097B1F6FA0122
:1025E000D383C28321913191E20FF31FEC17FD07D2
:1025F00069F488819981280F391F2E5F3F4FFA01B6
:10260000318320838A819B8193838283DF91CF9161
:10261000089597FB092E07260AD077FD04D00CD029
:1026200006D000201AF4709561957F4F0895F6F753
:10263000909581959F4F0895AA1BBB1B51E107C040
:10264000AA1FBB1FA617B70710F0A61BB70B881F42
:10265000991F5A95A9F780959095BC01CD010895D1
:10266000E199FECFBFBBAEBBE09A11960DB20895C3
:10267000E199FECFBFBBAEBB0DBA11960FB6F89471
:0A268000E29AE19A0FBE0895FFCF21
:10268A00422E536175746572004156524953502067
:10269A006D6B3220436C6F6E6500303030304130E4
:1026AA0030313238323535000070200034020000F3
:00000001FF
