:100000000C942A000C94F8000C9445000C944500C4
:100010000C9445000C9445000C9445000C9445004C
:100020000C9445000C9445000C9445000C9445003C
:100030000C9445000C9447000C9445000C9445002A
:100040000C9445000C9445000C9445000C9445001C
:100050000C94450011241FBECFE5D8E0DEBFCDBF14
:1000600010E0A0E6B0E0ECECF8E102C005900D92E3
:10007000AA3EB107D9F711E0AAEEB0E001C01D9287
:10008000A238B107E1F70C9451000C9400001F92C4
:100090000F920FB60F9211240F900FBE0F901F906A
:1000A0001895CDE5D8E0DEBFCDBF0E948104109247
:1000B000F8001092F70080E18ABB81E897E10E9486
:1000C000CC0482E69CE00E94D10480E092E00E9491
:1000D000D60489E0898384E08A83CE0101960E9458
:1000E000BE0880E690E00E94680989E690E00E94E0
:1000F000600984E790E00E9458090E9492084C0130
:1001000062E370E00E94E40460E070E0C4010E94D9
:10011000FE073C0140E050E0BC01C4010E9405051F
:10012000AA24BB24CC24DD2490E4E92EF12C02E0A7
:1001300023E030E041E050E0B301C4010E949307A6
:100140008CEEA82E80E0B82E22E030E041E050E0B6
:10015000B301C4010E94CB070E943F0478940E941F
:100160009609FFCFEF92FF920F931F93CF93DF93E8
:100170007C0168E08BE20E947004C0E0D0E009EFEF
:1001800010E007C0F80161918F0189E20E947004BC
:100190002196CE15DF05B4F38091F7009091F80019
:1001A000019749F467E08BE20E9470041092F80016
:1001B0001092F7000AC063E08BE20E94700481E0B5
:1001C00090E09093F8008093F700DF91CF911F911A
:1001D0000F91FF90EF90089581E090E00E94B200AF
:1001E0000895FC018181813011F40E94700A089504
:1001F0001F920F920FB60F9211242F933F934F939C
:100200005F936F937F938F939F93AF93BF93EF937E
:10021000FF930E947009FF91EF91BF91AF919F9161
:100220008F917F916F915F914F913F912F910F909F
:100230000FBE0F901F90189587E28093610185E2B1
:100240008093600190E2909362011092630128E034
:1002500030E0309365012093640183E280936F0165
:1002600081E280936E01909370011092710130933E
:100270007301209372010895089560917D0181E2D8
:100280000E947004089568E08BE20E94700462E1AD
:1002900088E20E94700468E08FE20E94700463E1CB
:1002A0008CE20E94700461E08FE20E94700465E0BD
:1002B00083E20E94700408950F931F938C0160E401
:1002C00080E20E947004F8016281605884E00E941C
:1002D0007004F801828180937C011F910F91089531
:1002E0000F931F93CF93DF93EC012A853B85121662
:1002F0001306DCF588859985821793071CF568E05D
:1003000083E20E94700400E010E00FC08C859D85A0
:10031000E80FF91F608181E20E9470048885998549
:100320000196998788870F5F1F4FE885F9858A8531
:100330009B85083011051CF4E817F9073CF3E81712
:10034000F90724F061E087E20E9470048B8181301C
:1003500031F465E089810E9470041B8206C061E06F
:1003600089810E94700481E08B83DF91CF911F917E
:100370000F910895CF93DF93CDB7DEB724970FB6D3
:10038000F894DEBF0FBECDBFDC01FC0122813381BA
:10039000109277011092760181E080937101832F92
:1003A00099278230D9F0833069F1813009F057C044
:1003B00080914C01992790937901809378018CE486
:1003C00091E090937B0180937A01868197818034BC
:1003D000910509F044C088E090E029C0FD018681C4
:1003E00097819093790180937801E22FFF27EE0F98
:1003F000FF1F80915E0190915F01E80FF91F8081DE
:10040000918129C02223C1F0E22FFF27EE0FFF1FA9
:100410008091F5009091F600E80FF91F0190F081AE
:10042000E02DF0937B01E0937A01808199279093EE
:1004300079018093780113C094E0998383E08A83E3
:1004400089E08B839C8384E090E090937901809392
:100450007801CE01019690937B0180937A018EE61C
:1004600091E00E94700124960FB6F894DEBF0FBE93
:10047000CDBFDF91CF910895CF93DF9382E20E94A9
:100480005704C82FDD27C5FF1FC068E083E20E9424
:100490007004C6FF10C020917601309177018091E1
:1004A000780190917901281739074CF48EE691E094
:1004B0000E9470010DC08DE790E00E947E0461E013
:1004C00087E20E94700404C08EE890E00E947E04DF
:1004D000DF91CF9108958AE00E945704992780FF09
:1004E00003C00E943C02089581FF0DC08AE20E9471
:1004F000570480913901813061F4E0913C01F09121
:100500003D010995089582E30E9457048AE30E9401
:10051000570408951F9388E00E945704182F89E913
:1005200090E00E947E04812F992786FF1BC060E027
:1005300085E00E94700460E884E00E94700460E03E
:1005400080E20E94700468E083E20E94700461E02F
:1005500087E20E94700462E085E00E94700485EAF0
:1005600090E021C084FF0BC060EC89E00E94700421
:1005700063E085E00E9470048DEA90E014C017FFEC
:100580000BC060E589E00E94700462E085E00E9493
:10059000700483EB90E007C083FF03C08CEB90E016
:1005A00002C082EC90E00E947E041F9108958EE0CC
:1005B0000E94570489EC90E00E947E0408950F93F6
:1005C0001F93CF93DF93CDB7DEB728970FB6F8947C
:1005D000DEBF0FBECDBF86E20E94570486FF6FC00C
:1005E0008E010F5F1F4F809160010E945704F80138
:1005F00081938F01CE010996E817F907A1F78E01C3
:100600000F5F1F4F68E087E20E94700468E083E29A
:100610000E94700480E20E9457048F77682F80E266
:100620000E947004898199278076907080329105AC
:10063000A1F18034910571F1892B91F5F801818147
:100640008630E1F0873050F4833091F1843018F433
:10065000823030F52DC0853019F514C08930B1F0E5
:100660008A3018F48830E1F405C08A3009F18B3003
:10067000B9F413C0C8010E943D011AC0C8010E940C
:10068000BA0116C0C8010E945C0112C0C8010E94D4
:1006900043010EC0C8010E94F10065E083E206C07C
:1006A00080E20E9457048058682F80E20E94700404
:1006B000F80180818823D1F465E083E215C02091A0
:1006C00078013091790180917201909173018217C4
:1006D000930764F4109279011092780168E083E244
:1006E0000E94700461E087E20E94700428960FB6B1
:1006F000F894DEBF0FBECDBFDF91CF911F910F9158
:1007000008950F931F93CF93DF93CDB7DEB7C054F7
:10071000D0400FB6F894DEBF0FBECDBF8CE00E9474
:100720005704182F86ED90E00E947E04812F9927B0
:1007300080FF03C00E94DF0275C081FF28C08EE2E7
:100740000E9457048DE20E94570489838E010F5F37
:100750001F4F0F5F1F4F0E944B04F8018083CE0193
:10076000805C9F4F08171907A1F78091EA0081303C
:1007700039F4E091ED00F091EE00CE01019609957B
:1007800068E08FE20E94700461E08FE229C082FF7E
:100790002AC086E30E94570485E30E945704898398
:1007A0008E010F5F1F4F0F5F1F4F0E944B04F80118
:1007B0008083CE01805C9F4F08171907A1F78091B5
:1007C000EB00813039F4E091EF00F091F000CE01C0
:1007D0000196099568E087E30E94700461E087E371
:1007E0000E9470041FC083FF1DC08EE30E94570447
:1007F0008E010F5F1F4F8DE30E945704F801819314
:100800008F01CE018F5B9F4FE817F907A1F7809109
:10081000EC00813039F4E091ED00F091EE00CE0172
:1008200001960995C05CDF4F0FB6F894DEBF0FBE8E
:10083000CDBFDF91CF911F910F910895CF92DF929D
:10084000EF92FF920F931F93CF93DF936C017A0186
:10085000C0E0D0E08B0107C0F80161918F01C601B3
:100860000E942B0A2196CE15DF05B4F3DF91CF91BC
:100870001F910F91FF90EF90DF90CF90089585B773
:10088000826085BF8BB780648BBF88EF81BB82B3EA
:10089000886382BB089582B398E1892782BB0000F8
:1008A000000082B3892782BB83B3992708959FEF05
:1008B00094BB85BB82B398E6892782BB82B3892724
:1008C00082BB000014BA0E944B049927089585BB8F
:1008D00082B398E2892782BB82B3892782BB0895BD
:1008E00085BB8FEF84BB82B398E6892782BB82B336
:1008F000892782BB862F0E94670408950E94E90918
:10090000089582E180934C0181E080934D0180E164
:1009100091E090934F0180934E01109250011092FC
:1009200051011092520188E08093530110925501B9
:1009300010925401109257011092560110925901D1
:100940001092580110925A0110925B0110925C01B2
:1009500010925D011092EA001092EB001092EC00F0
:100960001092390110923A0110923B01109243010A
:10097000109242011092F4001092F30008959093A7
:100980005501809354017093570160935601509321
:100990005901409358010895909355018093540153
:1009A00008959093570180935601089590935901AB
:1009B00080935801089580935001089580935101C8
:1009C0000895809352010895CF93DF939C01CB014A
:1009D000E0914201F091430162E070E00E942B0C33
:1009E0000FC0A081B1818281823039F4ED018D8107
:1009F00099278217930709F468870780F085E02D0F
:100A0000309779F7DF91CF910895CF93DF939C01D1
:100A1000E0914201F091430114C0A081B181828133
:100A2000843061F4848199278217930739F4868191
:100A300099278617970711F4ED014B830780F085FE
:100A4000E02D309751F7DF91CF910895BF92CF926B
:100A5000DF92EF92FF920F931F93CF93DF936C017E
:100A6000162FF42EB22EC0914201D091430120974F
:100A7000A1F489E090E00E94320BFC0190934301C5
:100A800080934201D182C082138310861782F28242
:100A9000B4820583E68215C0EC018F8198850097AA
:100AA000D9F789E090E00E94320BFC0198878F8390
:100AB000D182C0821383F282B4820583E6821086DB
:100AC0001782DF91CF911F910F91FF90EF90DF90F0
:100AD000CF90BF900895EF92FF921F93CF93DF9333
:100AE0007C01C091F300D091F400209711F011E047
:100AF00012C085E090E00E94320BFC019093F4005C
:100B00008093F300F182E08212821482138210E05B
:100B100012C01F5FEC018B819C810097D1F785E0AB
:100B200090E00E94320BFC019C838B83F182E08277
:100B3000128314821382812F9927DF91CF911F9105
:100B4000FF90EF900895EF92FF920F931F93CF9332
:100B5000DF93E091F300F091F40080E090E00380F7
:100B6000F481E02D01963097D1F7880F991F0E94EC
:100B7000320B9093F6008093F5000091F3001091F2
:100B8000F400E801E880F9808A81C82FDD27CC0FC6
:100B9000DD1F8091F5009091F600C80FD91FF70175
:100BA000808199270E94320B9983888320E030E06E
:100BB000D70114C0E801EA81FF27EE0FFF1F8091E3
:100BC000F5009091F600E80FF91F0190F081E02DFB
:100BD000E20FF31F8D9180832F5F3F4FF7018081DC
:100BE00099272817390734F3E8018B819C810097F6
:100BF00011F08C01C6CFDF91CF911F910F91FF9023
:100C0000EF9008956F927F928F929F92AF92BF92D2
:100C1000CF92DF92EF92FF920F931F93CF93DF93C8
:100C2000E0914201F09143018824992409C0828116
:100C3000823019F40894811C911C0780F085E02D06
:100C40003097A9F73401660C771CC3010E94320B60
:100C500090935F0180935E0171E0E72EF12CAA244E
:100C6000BB2453C0E0914201F091430169E0C62EDC
:100C7000D12C15C0A081B181848199278E159F0543
:100C800019F48381C80ED11CED018D818E1521F4DC
:100C90008281823009F45D010780F085E02D309774
:100CA00049F700915E0110915F01060D171D02507A
:100CB0001040C6010E94320BF8019183808320E02E
:100CC00030E0D501E0915E01F0915F01E60DF71D86
:100CD00032970190F081E02DE20FF31F8D91808318
:100CE0002F5F3F4F2930310569F7E0915E01F091A8
:100CF0005F01E60DF71D32970190F081E02D8C2DFC
:100D0000875F82830894E11CF11C8E149F040CF011
:100D1000A9CF51E0E52EF12C49E0C42ED12C662458
:100D2000772432E0A32EB12C9AC08481682E7724D8
:100D300015C0A0914201B09143010EC0ED91FC910C
:100D400011978181823029F4858199278E159F051D
:100D500061F3ED01AF81B885109781F701E010E0F4
:100D600073C0409142015091430168C0DA01ED9196
:100D7000FC918181843009F05EC0EA018E8199275F
:100D80008017910709F057C08C8199278E159F0510
:100D900009F051C09601DF01BF01675F7F4FE0910D
:100DA0005E01F0915F01EA0DFB1D32970190F08129
:100DB000E02DE20FF31F8D9180832F5F3F4FA61729
:100DC000B70769F7E9E0F0E0CE0EDF1EC0914201FF
:100DD000D09143012EC08A81853041F58C819927BD
:100DE0008E159F0519F58D81992780179107F1F4CC
:100DF000888199819601DC01BC01695F7F4FE09198
:100E00005E01F0915F01EA0DFB1D32970190F081C8
:100E1000E02DE20FF31F8D9180832F5F3F4FA617C8
:100E2000B70769F787E090E0C80ED91E0F80D88514
:100E3000C02D209781F6EA014F8158854115510553
:100E400009F094CF0F5F1F4F601671060CF089CF29
:100E50000894E11CF11CE2E0F0E0AE0EBF1E8E141F
:100E60009F040CF066CFDF91CF911F910F91FF90FF
:100E7000EF90DF90CF90BF90AF909F908F907F903A
:100E80006F9008956F927F928F929F92AF92BF92D0
:100E9000CF92DF92EF92FF920F93CF93DF935C019B
:100EA0003B014901E0914201F091430116C0A0814C
:100EB000B18184819927A816B90661F486819927A2
:100EC0008615970539F48281843021F4ED018C81F7
:100ED0008F5F8C830780F085E02D309741F787E0A6
:100EE00090E00E94320BFC0187E0808385E08183E3
:100EF00082820383F582E482C682EE24062D2A2DA7
:100F000045E067E0CF010E942605DF91CF910F9168
:100F1000FF90EF90DF90CF90BF90AF909F908F9019
:100F20007F906F900895AF92BF92CF92DF92EF9231
:100F3000FF920F93FC01A114B10401F1423051055D
:100F400071F04330510599F041305105B9F481E019
:100F500080933901B0923D01A0923C010FC081E025
:100F600080933A01B0923F01A0923E0107C081E018
:100F700080933B01B0924101A092400120583F4F25
:100F8000CF010E9442070F91FF90EF90DF90CF902A
:100F9000BF90AF900895AF92BF92CF92DF92EF9241
:100FA000FF920F93FC014230510571F0433051051F
:100FB00099F041305105B9F481E08093EA00B09294
:100FC000EE00A092ED000FC081E08093EB00B092A4
:100FD000F000A092EF0007C081E08093EC00B09297
:100FE000F200A092F100CF010E9442070F91FF9002
:100FF000EF90DF90CF90BF90AF900895CF92DF92A7
:10100000EF920F931F93CF93DF936C018B01A0910D
:101010004201B0914301C0E0D0E014C02D913C9159
:101020001197F90185818C1551F4FD01828182307F
:1010300031F4F90184818F5F8483C82FDD27FD019E
:10104000A781B085109751F789E090E00E94320B9C
:10105000FC0189E0808384E081830283138214820F
:101060001582168217821086EC2E00E02C2D44E0AB
:1010700069E0CF010E942605CE01DF91CF911F913B
:101080000F91EF90DF90CF900895BF92CF92DF92B3
:10109000EF92FF920F931F93CF93DF936C017B012D
:1010A000142FB22EA0914201B0914301C0E0D0E0D4
:1010B00014C02D913C911197F90185818C1551F443
:1010C000FD018281823031F4F90184818F5F848354
:1010D000C82FDD27FD01A781B085109751F789E062
:1010E00090E00E94320BFC0189E0808384E08183E0
:1010F000E282138214821583B68207831086EC2E57
:1011000000E02C2D44E069E0CF010E942605CE01CD
:10111000DF91CF911F910F91FF90EF90DF90CF90D3
:10112000BF900895CF92DF92EF920F93C0905D0130
:10113000C394C0925D01DD2489E090E00E94320BEF
:10114000FC0189E0808389E090E09383828382E0E0
:1011500081831482C582168280EA87838AE1808730
:10116000EE2400E020E042E069E0CF010E94260585
:10117000C6010F91EF90DF90CF900895EF92FF920C
:101180000F931F93CF93DF938C01FC0101900020FC
:10119000E9F73197E81BF90BEE0FFF1FCF0102961D
:1011A0000E94320B7C01BC01F80101900020E9F79C
:1011B0003197E01BF10BEE0FFF1FEE5FDC01EC93AC
:1011C00083E0E701898340E050E0F80101900020CE
:1011D000E9F73197E01BF10B980108C0D9018D9117
:1011E0009D01EB01888319824F5F5F4F6E5F7F4FD8
:1011F0004E175F0798F3C7010E946B059927DF918F
:10120000CF911F910F91FF90EF900895EF92FF9271
:101210000F931F93CF93DF938C017B01CA010E9430
:10122000BE089C01E0914201F091430114C0A081ED
:10123000B1818281843061F484819927801791077C
:1012400039F4868199278E159F0511F4ED012887C1
:101250000780F085E02D309751F7DF91CF911F91F6
:101260000F91FF90EF9008950F931F93CF93DF930B
:101270008C01CB010E94BE089C01E0914201F091DB
:1012800043010FC0A081B1818281823039F4ED0128
:101290008D8199278017910709F42E830780F085A7
:1012A000E02D309779F7DF91CF911F910F9108953D
:1012B0000E94BE081816190614F480935C01089564
:1012C0000E94BE081816190614F480935B01089555
:1012D0000E94BE081816190614F480935A01089546
:1012E0001F9386E00E945704992786FF03C00E943F
:1012F00081030EC082FF03C00E946B0209C081FF00
:1013000003C00E948A0204C084FF02C00E94D70268
:1013100087E00E945704182F60E087E00E94700465
:10132000612F87E00E9470041F9108950E940206B9
:101330000E94A3050E941C0161E080E00E947004ED
:1013400080E00E94570480FDFBCF62E081E00E94B4
:1013500070046FEF8FE00E94700460E18FE00E94E4
:10136000700460E884E00E94700460E480E20E94FF
:10137000700468E083E20E94700469E087E20E94E2
:1013800070046FE08DE00E9470046FE08BE00E94BB
:10139000700468E589E00E94700466ED87E00E94B1
:1013A000700462E085E00E9470046CEC80E00E94B2
:1013B0007004089580EC8BB988E98AB986E880BD0D
:1013C00010BC83E389B98CB15F99FDCF089508956E
:1013D000089508958A3310F4805301C087556A3305
:1013E00010F4605301C067558295807F6F70862B23
:1013F000992708950895CF93DF93DC01EC01EC81E8
:10140000FD81219188859985019721F48A819B81AD
:10141000E81BF90BED01FD83EC83998788878D919B
:101420009C911197019711969C938E93822F9927E7
:10143000DF91CF910895FC0111821082778366833A
:1014400075836483538342835387428751874087E0
:101450008FEF84870895CF93DF93DC012D913C912A
:101460001197EC018A819B81281739071CF080E0D5
:1014700090E01AC0ED01EE81FF8161938A859B8522
:10148000019721F48A819B81E81BF90BED019B8771
:101490008A87FF83EE838D919C9111970196119617
:1014A0009C938E9381E090E0DF91CF910895FC01B1
:1014B00080819181892BE1F3CF010E94FB0999275B
:1014C0000895FC0180819181892B19F42FEF30E080
:1014D00005C0CF010E94FB09282F3327C9010895B9
:1014E0008FEF20E030E0D901082E0E945A0CD9017C
:1014F0000E94520C802D8F3FD1F78BB782608BBF3B
:10150000E091E100F091E20009950895AC0120E03E
:1015100030E0E0EAFFE005C0CF010197F1F72F5F6F
:101520003F4F24173507C4F30895882341F0BD9A2F
:10153000B89ABF9ABE9A889A899AD49A0895BD9803
:10154000B898BF98BE9888988998D4980895982F8D
:101550009F7098BB882321F0909A919ADC9A089505
:1015600090989198DC980895B59B02C080E201C0E4
:1015700080E0B0998160B7998068B699806480995D
:10158000816081998260CC99806199270895833028
:1015900001F1843028F4813081F08230A0F407C05A
:1015A000853019F18530D8F0863051F524C061308E
:1015B00011F4C59A0895C5980895613011F4C09A40
:1015C0000895C0980895613011F4C79A0895C79896
:1015D0000895613011F4C69A0895C698089561304F
:1015E00011F4909A089590980895613011F4919AA9
:1015F000089591980895613011F4949A0895DC98B3
:1016000008958330D1F0843028F4813079F082302D
:1016100078F407C08530D9F08530A0F0863009F520
:101620001BC086B3992780729070089586B30BC053
:1016300086B3992780789070089586B3992780742F
:101640009070089580B3992781709070089580B349
:10165000992782709070089589B39927807190704E
:1016600008950895CF93DF93AC01029710F442E000
:1016700050E0A0918001B0918101FD01C0E0D0E077
:1016800020E030E020C0808191818417950769F4C3
:1016900082819381209719F09B838A8304C0909361
:1016A000810180938001CF0132C04817590738F477
:1016B0002115310519F08217930708F49C01EF01F9
:1016C0000280F381E02D3097F1F62115310589F183
:1016D000C901841B950B049708F4A901E0E0F0E030
:1016E00026C08D919C91119782179307E9F44817B2
:1016F000590779F4ED018A819B81309719F0938322
:10170000828304C09093810180938001CD01029671
:1017100049C0841B950BFD01E80FF91F41935193BC
:1017200002978D939C933AC0FD01A281B3811097DB
:10173000C1F680917E0190917F01892B41F48091C7
:10174000E5009091E60090937F0180937E012091C7
:10175000E7003091E8002115310541F42DB73EB77F
:101760008091E3009091E400281B390BE0917E0109
:10177000F0917F012E1B3F0B2417350788F0CA011B
:1017800002962817390760F0CF01840F951F029643
:1017900090937F0180937E0141935193CF0102C0CA
:1017A00080E090E0DF91CF910895CF93DF93009791
:1017B00009F44EC0EC0122971B821A82A09180018D
:1017C000B0918101109711F140E050E001C0DC01BF
:1017D000AC17BD0700F1BB83AA83FE0121913191B3
:1017E000E20FF31FEA17FB0771F42E5F3F4F8D9155
:1017F0009C911197820F931F99838883FD018281A9
:1018000093819B838A834115510559F4D0938101BB
:10181000C09380011DC0FD0182819381AD010097BD
:10182000B1F6FA01D383C28321913191E20FF31F04
:10183000EC17FD0769F42E5F3F4F88819981820F75
:10184000931FFA01918380838A819B819383828392
:10185000DF91CF91089597FB092E07260AD077FDD7
:1018600004D00CD006D000201AF4709561957F4FFB
:101870000895F6F7909581959F4F0895AA1BBB1B7D
:1018800051E107C0AA1FBB1FA617B70710F0A61B80
:10189000B70B881F991F5A95A9F780959095BC01A1
:1018A000CD010895E199FECFBFBBAEBBE09A119682
:1018B0000DB20895E199FECFBFBBAEBB0DBA119634
:0C18C0000FB6F894E29AE19A0FBE08956A
:1018CC00422E5361757465720053696D706C65506E
:1018DC006F727400474E552F47504C320073746131
:1018EC006C6C2068616E647368616B652000747841
:1018FC0030206572726F720A00616C7420657665B7
:10190C006E740D0A0072657365740D0A007364338E
:10191C000D0A00726573756D650D0A00656F700DAB
:10192C000A00656C73650D0A006E61636B20657649
:10193C00656E740D0A007278206576656E740D0AFA
:0A194C00000070200082010000007E
:00000001FF
