:100000000C942A000C942B010C9447000C9447008C
:100010000C9447000C9447000C9447000C94470044
:100020000C9447000C9447000C9447000C94470034
:100030000C9447000C944F010C9447000C9447001B
:100040000C9447000C9447000C9447000C94470014
:100050000C94470011241FBECFE5D8E0DEBFCDBF12
:1000600011E0A0E6B0E0E2E0FFE002C005900D92F2
:10007000A433B107D9F712E0A4E3B1E001C01D92A7
:10008000AD33B107E1F70E944A000C9480070C944D
:1000900000000895CFE5D8E0DEBFCDBF44E650E0D4
:1000A00069EB71E080914301909144010E94040644
:1000B00044E650E06BE471E080913A0190913B019D
:1000C0000E94040680EB90E00E94AA0478940E94AB
:1000D0007D016AEA70E088E990E00E949D0480E674
:1000E00090E00E94480581E690E00E9448058AE77A
:1000F00090E00E9448050E94E7040E945B040E9471
:10010000A805FFCF8091380190913901019731F412
:10011000109239011092380163E007C081E090E04D
:10012000909339018093380167E083E30E948C0447
:1001300008958091360190913701019731F4109222
:1001400037011092360163E007C081E090E09093A0
:1001500037018093360167E08BE20E948C0408959A
:10016000FC0180810E948A0108950F931F93CF9311
:10017000DF938C0187E890E00E94A401F80181815F
:10018000813241F1823209F446C0803209F057C011
:100190008DE890E00E94A40161E087E20E948C0457
:1001A00085E20E94730485E20E94730485E20E9446
:1001B000730485E20E94730485E20E94730485E261
:1001C0000E94730485E20E94730468E083E20E9447
:1001D0008C0431C068E083E20E948C0460E881E214
:1001E0000E948C0465E281E20E948C0460E081E25E
:1001F0000E948C0460E081E20E948C0460E081E255
:100200000E948C0460E081E20E948C0468E081E23C
:100210000E948C040EC068E08BE20E948C04CDEE3C
:10022000D0E0699189E20E948C04F0E0C53FDF07CD
:10023000C1F70E94990065E083E20E948C04DF917F
:10024000CF911F910F910895FC018181813011F4AC
:100250000E94590608951F920F920FB60F92112413
:100260002F933F934F935F936F937F938F939F93BE
:10027000AF93BF93EF93FF930E948205FF91EF919D
:10028000BF91AF919F918F917F916F915F914F91AE
:100290003F912F910F900FBE0F901F9018951F92B6
:1002A0000F920FB60F9211242F933F934F935F93AA
:1002B0006F937F938F939F93AF93BF93EF93FF932E
:1002C00068E083E30E948C040E948E01682F81E322
:1002D0000E948C040E948200FF91EF91BF91AF9128
:1002E0009F918F917F916F915F914F913F912F914E
:1002F0000F900FBE0F901F90189580EC8BB988E976
:100300008AB986E880BD10BC87E689B98CB15F994F
:10031000FDCF08955D9BFECF8CB908955F9BFECF06
:100320008CB1992708958A3310F4805301C0875502
:100330006A3310F4605301C067556F708295807FF7
:10034000682B862F99270895FC0104C05D9BFECF82
:1003500031968CB980818823C9F70895982F92959A
:100360009F708F709A3020F45D9BFECF905D03C02C
:100370005D9BFECF995A9CB98A3020F45D9BFECFDD
:10038000805D03C05D9BFECF895A8CB9089587E2DA
:100390008093200285E280931F0290E290932102D5
:1003A0001092220228E030E03093240220932302AE
:1003B00083E280932C0281E280932B0290932D02A2
:1003C00010922E023093300220932F020895089548
:1003D00068E08BE20E948C0463E188E20E948C0456
:1003E00068E08FE20E948C0461E18CE20E948C0440
:1003F00061E08FE20E948C0468E083E30E948C0439
:1004000061E180E30E948C0465E083E20E948C0439
:1004100008950F931F93CF93DF93EC0128853985BF
:1004200012161306DCF58E819F81821793071CF547
:1004300068E083E20E948C0400E010E00FC08A852F
:100440009B85E80FF91F608181E20E948C048E81F8
:100450009F8101969F838E830F5F1F4FEE81FF81E7
:1004600088859985083011051CF4E817F9073CF3D5
:10047000E817F90724F061E087E20E948C048B8181
:10048000813031F465E089810E948C041B8206C0B2
:1004900061E089810E948C0481E08B83DF91CF91A0
:1004A0001F910F910895CF93DF93CDB7DEB72497B7
:1004B0000FB6F894DEBF0FBECDBFDC01FC01228178
:1004C0003381109232021092310281E080932E0229
:1004D000832F99278230E1F0833031F1813009F0A8
:1004E00050C0E091B701F091B801808199279093B5
:1004F000340280933302F0933602E0933502FD011B
:100500008681978180349105E1F588E090E021C0F3
:10051000FD0186819781909334028093330280910C
:100520001D0290911E0229C0E22F809147019091F7
:100530004801222399F0FF27EE0FFF1FE80FF91F54
:100540000190F081E02DF0933602E0933502808136
:100550009927909334028093330213C094E09983D7
:1005600083E08A8389E08B839C8384E090E090938E
:10057000340280933302CE01019690933602809329
:1005800035028BE292E00E94090224960FB6F8949D
:10059000DEBF0FBECDBFDF91CF910895CF93DF9324
:1005A00082E20E947304C82FDD27C5FF1AC068E0ED
:1005B00083E20E948C04C6FF10C02091310230916A
:1005C00032028091330290913402281739072CF4BB
:1005D0008BE292E00E94090204C061E087E20E947F
:1005E0008C04DF91CF9108958AE00E94730480FF0C
:1005F00003C00E94CE0208958AE20E94730482E33F
:100600000E9473048AE30E94730408958EE00E949E
:10061000730408951F93CF93DF9388E00E947304BF
:10062000182F87EF90E00E949A04C12FDD27C6FFA4
:100630001CC060E085E00E948C0460E884E00E94B9
:100640008C0460E080E20E948C0468E083E20E94F7
:100650008C0461E087E20E948C0462E085E00E94E5
:100660008C0483E091E00E949A04C4FF04C060EC13
:1006700089E00E948C0417FF04C060ED89E00E94AD
:100680008C04C3FF04C08BE091E00E949A04DF91C8
:10069000CF911F910895AF92BF92CF92DF92EF92C8
:1006A000FF920F931F93CF93DF93CDB7DEB72897B9
:1006B0000FB6F894DEBF0FBECDBF86E20E94730472
:1006C00086FF7EC08E010F5F1F4F580159E0C52E77
:1006D000D12CCC0EDD1E80911F020E947304F80104
:1006E00081938F017501EC15FD05A9F768E087E29C
:1006F0000E948C0468E083E20E948C0480E20E94E5
:1007000073048F77682F80E20E948C048981992777
:100710009C012076307020323105A9F1203431055A
:10072000C1F1232BF1F58F719070892B31F5F50113
:100730008181863051F0873018F48530C9F409C0C2
:10074000893079F08B30A1F410C0C5010E945302AA
:1007500030C060E480E20E948C046B81605884E0C9
:1007600026C0C5010E94E80124C065E083E21FC0E5
:1007700081E191E00E949A0414C06BE272E0C5012D
:100780000E94490009C06BE272E0C5010E94B500F9
:1007900003C0C5010E9424018BE292E00E9409027D
:1007A00008C080E20E9473048058682F80E20E9493
:1007B0008C04F70180818823D1F465E083E215C0C1
:1007C000209133023091340280912F0290913002B7
:1007D0008217930764F4109234021092330268E097
:1007E00083E20E948C0461E087E20E948C042896D8
:1007F0000FB6F894DEBF0FBECDBFDF91CF911F9132
:100800000F91FF90EF90DF90CF90BF90AF90089541
:10081000CF92DF92EF92FF920F931F93CF93DF93CC
:10082000CDB7DEB7C054D0400FB6F894DEBF0FBED0
:10083000CDBF8CE00E947304992780FF03C00E9403
:100840004B0329C081FF27C08EE20E9473048DE212
:100850000E94730489838E010F5F1F4F68016FE34D
:10086000E62EF12CE00EF11E0F5F1F4F0E94670471
:10087000F80180830E151F05B9F7E0914901F09149
:100880004A01C601099568E08FE20E948C0461E08C
:100890008FE20E948C04C05CDF4F0FB6F894DEBF7D
:1008A0000FBECDBFDF91CF911F910F91FF90EF90C1
:1008B000DF90CF90089585B7826085BF8BB7806445
:1008C0008BBF88EF81BB82B3886382BB089582B3FC
:1008D00098E1892782BB0000000082B3892782BB90
:1008E00083B3992708959FEF94BB85BB82B398E6A5
:1008F000892782BB82B3892782BB000014BA0E9479
:1009000067049927089585BB82B398E2892782BB43
:1009100082B3892782BB089585BB8FEF84BB82B3E6
:1009200098E6892782BB82B3892782BB862F0E94E3
:10093000830408950E94A40108959093B8018093C0
:10094000B70170931E0260931D021092460110922F
:100950004501089590934A01809349010895EF92CB
:10096000FF921F93CF93DF937C01C0914501D091FB
:100970004601209711F011E012C085E090E00E943E
:100980006F06FC019093460180934501F182E0825D
:1009900012821482138210E012C01F5FEC018B815F
:1009A0009C810097D1F785E090E00E946F06FC01E2
:1009B0009C838B83F182E082128314821382812FC5
:1009C0009927DF91CF911F91FF90EF900895EF92BB
:1009D000FF920F931F93CF93DF93E0914501F09126
:1009E000460180E090E00380F481E02D019630978D
:1009F000D1F7880F991F0E946F069093480180934A
:100A000047010091450110914601E801E880F98015
:100A10008A81C82FDD27CC0FDD1F8091470190917F
:100A20004801C80FD91FF701808199270E946F06DE
:100A30009983888320E030E017C0E801EA81FF272E
:100A4000EE0FFF1F8091470190914801E80FF91FB9
:100A50000190F081E02DE20FF31FD701A20FB31F29
:100A60008C9180832F5F3F4FF70180819927281752
:100A700039071CF3E8018B819C81009711F08C01F0
:100A8000C4CFDF91CF911F910F91FF90EF90089508
:100A9000CF93DF93EC01FC0101900020E9F7E81B04
:100AA000F90BCF01880F991F0E946F069C01FE0170
:100AB00001900020E9F7EC1BFD0BEE0FFF1FDC019E
:100AC000EC9383E0F901818340E050E009C0FE012E
:100AD000E40FF51F80818C93FD0111824F5F5F4F02
:100AE0001296FE0101900020E9F73197EC1BFD0BF7
:100AF0004E175F0760F3C9010E94AF049927DF9189
:100B0000CF9108951F9386E00E947304992786FF72
:100B100003C00E9408040EC082FF03C00E94F402BA
:100B200009C081FF03C00E940A0304C084FF02C001
:100B30000E94060387E00E947304182F60E087E09C
:100B40000E948C04612F87E00E948C041F910895FD
:100B50000E94C70161E080E00E948C0480E00E9456
:100B6000730480FDFBCF62E081E00E948C0460E1B1
:100B70008FE00E948C0460E884E00E948C0460E4B2
:100B800080E20E948C0468E083E20E948C0469E0A9
:100B900087E20E948C046FE08DE00E948C046FE07D
:100BA0008BE00E948C0460E589E00E948C0466ED75
:100BB00087E00E948C0462E085E00E948C046CEC6B
:100BC00080E00E948C040895CF93DF93DC01EC0158
:100BD000EC81FD81219188859985019721F48A8195
:100BE0009B81E81BF90BED01FD83EC8399878887D6
:100BF0008D919C911197019711969C938E93822FC2
:100C00009927DF91CF910895FC011182108277839B
:100C100066837583648353834283538742875187F6
:100C200040878FEF84870895CF93DF93DC012D9168
:100C30003C911197EC018A819B81281739071CF0A0
:100C400080E090E01AC0ED01EE81FF8161938A851A
:100C50009B85019721F48A819B81E81BF90BED01AB
:100C60009B878A87FF83EE838D919C9111970196D4
:100C700011969C938E9381E090E0DF91CF9108953F
:100C8000FC0180819181892BE1F3CF010E94E40571
:100C900099270895FC0180819181892B19F42FEF08
:100CA00030E005C0CF010E94E405282F3327C90199
:100CB00008958FEF20E030E0D901082E0E947407DC
:100CC000D9010E946C07802D8F3FD1F78BB78260CE
:100CD0008BBFE0912C01F0912D0109950895CF93E0
:100CE000DF93AC01029710F442E050E0A0913B0288
:100CF000B0913C02FD01C0E0D0E020E030E020C037
:100D0000808191818417950769F48281938120976E
:100D100019F09B838A8304C090933C0280933B022A
:100D20009F0132C04817590738F42115310519F0D1
:100D30008217930708F49C01EF010280F381E02DF4
:100D40003097F1F62115310599F1C901841B950BF6
:100D5000049708F4A901E0E0F0E028C08D919C918F
:100D6000119782179307F9F44817590781F4ED0199
:100D70008A819B81309719F09383828304C090937A
:100D80003C0280933B029D012E5F3F4F4BC0841B72
:100D9000950BFD01E80FF91F4193519302978D9335
:100DA0009C939F013FC0FD01A281B3811097B1F6D2
:100DB0008091390290913A02892B41F4809130015F
:100DC0009091310190933A0280933902209132013F
:100DD000309133012115310541F42DB73EB7809193
:100DE0002E0190912F01281B390BA0913902B0914F
:100DF0003A022A1B3B0B2417350790F0CA010296D2
:100E00002817390768F09D012E5F3F4FC901840FF5
:100E1000951F90933A02809339024D935C9302C0E0
:100E200020E030E0C901DF91CF910895CF93DF93A7
:100E3000009709F44EC0EC0122971B821A82A09100
:100E40003B02B0913C02109711F140E050E001C02C
:100E5000DC01AC17BD0700F1BB83AA83FE01219121
:100E60003191E20FF31FEA17FB0771F48D919C910A
:100E70001197280F391F2E5F3F4F39832883FD01BB
:100E8000828193819B838A834115510559F4D093C4
:100E90003C02C0933B021DC0FD0182819381AD01E4
:100EA0000097B1F6FA01D383C28321913191E20F09
:100EB000F31FEC17FD0769F488819981280F391F0A
:100EC0002E5F3F4FFA01318320838A819B81938378
:100ED0008283DF91CF910895E199FECFBFBBAEBB76
:100EE000E09A11960DB20895E199FECFBFBBAEBB5B
:100EF0000DBA11960FB6F894E29AE19A0FBE0895D2
:020F0000FFCF21
:100F02000055534270726F6720456D626564646577
:100F12006450726F6A656374730075736270726F86
:100F220067525332333200636C61737300736574BA
:100F3200206C696E650D0A001201100102000008A2
:100F42008117640C0001010200010902480002013C
:100F520000A01A0904000001020201000524001089
:100F620001042402020524060001052401030107ED
:100F720005830308006409040100020A0000000757
:100F820005010201000007058102080000A12000FE
:100F920000000002000300616C74206576656E74C7
:100FA2000D0A0072657365740D0A00656F700D0A93
:100FB20000756E737570706F7274656420737461FE
:100FC2006E64617264207265710A0D000070200007
:040FD2003D020000DC
:00000001FF
