:100000000C942A000C94C1000C9447000C944700F7
:100010000C9447000C9447000C9447000C94470044
:100020000C9447000C9447000C9447000C94470034
:100030000C9447000C9449000C9447000C94470022
:100040000C9447000C9447000C9447000C94470014
:100050000C94470011241FBECFE5D8E0DEBFCDBF12
:1000600010E0A0E6B0E0E6E6F7E102C005900D92F0
:10007000A63EB107D9F711E0A6EEB0E001C01D928F
:10008000AC33B107E1F70E9454000C94B20B0C940E
:1000900000001F920F920FB60F9211240F900FBE07
:1000A0000F901F9018950895CDE5D8E0DEBFCDBF25
:1000B0000E94BF090E94670480E18ABBDC9A81E844
:1000C00097E10E94B20482E69CE00E94B70481E0BE
:1000D00090E00E94BC0489E0898384E08A83CE0199
:1000E00001960E94B10880E690E00E944D0989E6E1
:1000F00090E00E9445090E9487084C0162E370E08D
:100100000E94CA0460E070E0C4010E94F3073C0151
:1001100040E050E0BC01C4010E94EB04AA24BB24CF
:10012000CC24DD2490E4E92EF12C02E022E030E042
:1001300041E050E0B301C4010E94880783E5A82E86
:1001400080E0B82E22E030E041E050E0B301C4018D
:100150000E94C0070E9425040E947B097894DC98C5
:100160008AE090E00E946C0ADC9A8AE090E00E94AB
:100170006C0AF5CFFC018181813011F40E94560A8E
:1001800008951F920F920FB60F9211242F933F9351
:100190004F935F936F937F938F939F93AF93BF938F
:1001A000EF93FF930E945509FF91EF91BF91AF919B
:1001B0009F918F917F916F915F914F913F912F917F
:1001C0000F900FBE0F901F90189587E280931B0130
:1001D00085E280931A0190E290931C0110921D0118
:1001E00028E030E030931F0120931E0183E28093CA
:1001F000290181E28093280190932A0110922B011A
:1002000030932D0120932C010895089560913701BA
:1002100081E20E945604089568E08BE20E94560431
:1002200062E188E20E94560468E08FE20E94560470
:1002300062E18CE20E94560461E08FE20E94560463
:1002400065E083E20E94560408950F931F938C018A
:1002500060E480E20E945604F8016281605884E004
:100260000E945604F8018281809336011F910F91FC
:1002700008950F931F93CF93DF93EC012A853B855D
:1002800012161306DCF588859985821793071CF5ED
:1002900068E083E20E94560400E010E00FC08C8505
:1002A0009D85E80FF91F608181E20E9456048885D0
:1002B00099850196998788870F5F1F4FE885F98593
:1002C0008A859B85083011051CF4E817F9073CF373
:1002D000E817F90724F061E087E20E9456048B8159
:1002E000813031F465E089810E9456041B8206C08A
:1002F00061E089810E94560481E08B83DF91CF9178
:100300001F910F910895CF93DF93CDB7DEB7249758
:100310000FB6F894DEBF0FBECDBFDC01FC01228119
:100320003381109231011092300181E080932B01D2
:10033000832F99278230D9F0833069F1813009F019
:1003400057C0809106019927909333018093320121
:1003500086E091E090933501809334018681978106
:100360008034910509F044C088E090E029C0FD0187
:10037000868197819093330180933201E22FFF278A
:10038000EE0FFF1F8091180190911901E80FF91FDE
:100390008081918129C02223C1F0E22FFF27EE0F37
:1003A000FF1F8091F1009091F200E80FF91F01907A
:1003B000F081E02DF0933501E0933401808199279D
:1003C000909333018093320113C094E0998383E0CA
:1003D0008A8389E08B839C8384E090E0909333014F
:1003E00080933201CE0101969093350180933401C0
:1003F00088E291E00E94390124960FB6F894DEBF9E
:100400000FBECDBFDF91CF910895CF93DF9382E2EE
:100410000E943D04C82FDD27C5FF1FC068E083E2AE
:100420000E945604C6FF10C0209130013091310166
:100430008091320190913301281739074CF488E2FA
:1004400091E00E9439010DC08AE790E00E946404A7
:1004500061E087E20E94560404C08BE890E00E94AD
:100460006404DF91CF9108958AE00E943D049927AA
:1004700080FF03C00E940502089581FF0DC08AE23B
:100480000E943D048091F300813061F4E091F60018
:10049000F091F7000995089582E30E943D048AE3F4
:1004A0000E943D0408951F9388E00E943D04182F88
:1004B00086E990E00E946404812F992786FF1BC083
:1004C00060E085E00E94560460E884E00E945604E3
:1004D00060E080E20E94560468E083E20E945604D5
:1004E00061E087E20E94560462E085E00E945604C3
:1004F00082EA90E021C084FF0BC060EC89E00E949A
:10050000560463E085E00E9456048AEA90E014C035
:1005100017FF0BC060E589E00E94560462E085E0A9
:100520000E94560480EB90E007C083FF03C089EB74
:1005300090E002C08FEB90E00E9464041F91089548
:100540008EE00E943D0486EC90E00E9464040895D1
:10055000AF92BF92CF92DF92EF92FF920F931F93D1
:10056000CF93DF93CDB7DEB728970FB6F894DEBFF1
:100570000FBECDBF86E20E943D0486FF71C08E0192
:100580000F5F1F4F580169E0C62ED12CCC0EDD1E27
:1005900080911A010E943D04F80181938F01750139
:1005A000EC15FD05A9F768E087E20E94560468E0B3
:1005B00083E20E94560480E20E943D048F77682FF8
:1005C00080E20E945604898199278076907080325B
:1005D0009105A1F18034910571F1892B91F5F50117
:1005E00081818630E1F0873050F4833091F184309E
:1005F00018F4823030F52DC0853019F514C08930DB
:10060000B1F08A3018F48830E1F405C08A3009F17D
:100610008B30B9F413C0C5010E9406011AC0C50190
:100620000E94830116C0C5010E94250112C0C501A8
:100630000E940C010EC0C5010E94BA0065E083E271
:1006400006C080E20E943D048058682F80E20E942C
:100650005604F70180818823D1F465E083E215C058
:10066000209132013091330180912C0190912D0124
:100670008217930764F4109233011092320168E0FC
:1006800083E20E94560461E087E20E9456042896A5
:100690000FB6F894DEBF0FBECDBFDF91CF911F9193
:1006A0000F91FF90EF90DF90CF90BF90AF900895A3
:1006B000CF92DF92EF92FF920F931F93CF93DF932E
:1006C000CDB7DEB7C054D0400FB6F894DEBF0FBE32
:1006D000CDBF8CE00E943D04182F83ED90E00E9476
:1006E0006404812F992780FF03C00E94A8027BC069
:1006F00081FF2AC08EE20E943D048DE20E943D04EB
:1007000089838E010F5F1F4F6801FFE3EF2EF12CED
:10071000E00EF11E0F5F1F4F0E943104F80180832D
:100720000E151F05B9F78091E600813031F4E09194
:10073000E900F091EA00C601099568E08FE20E94A5
:10074000560461E08FE22BC082FF2CC086E30E943A
:100750003D0485E30E943D0489838E010F5F1F4F96
:100760006801EFE3EE2EF12CE00EF11E0F5F1F4F3C
:100770000E943104F80180830E151F05B9F780919E
:10078000E700813031F4E091EB00F091EC00C6011C
:10079000099568E087E30E94560461E087E30E94C0
:1007A000560421C083FF1FC08EE30E943D048E01CA
:1007B0000F5F1F4F680171E4E72EF12CEC0EFD1E58
:1007C0008DE30E943D04F80181938F01EE15FF0532
:1007D000B9F78091E800813031F4E091E900F091BF
:1007E000EA00C6010995C05CDF4F0FB6F894DEBF82
:1007F0000FBECDBFDF91CF911F910F91FF90EF9072
:10080000DF90CF900895CF92DF92EF92FF920F93F7
:100810001F93CF93DF936C017B018A01C0E0D0E08E
:1008200008C0F701EC0FFD1F6081C6010E94110A8C
:100830002196C017D107ACF3DF91CF911F910F9193
:10084000FF90EF90DF90CF90089585B7826085BFCD
:100850008BB780648BBF88EF81BB82B3886382BB18
:10086000089582B398E1892782BB0000000082B31B
:10087000892782BB83B3992708959FEF94BB85BBDB
:1008800082B398E6892782BB82B3892782BB0000A6
:1008900014BA0E9431049927089585BB82B398E267
:1008A000892782BB82B3892782BB089585BB8FEFDE
:1008B00084BB82B398E6892782BB82B3892782BB37
:1008C000862F0E944D0408950E94CE09089582E16A
:1008D0008093060181E08093070180E191E090938D
:1008E00009018093080110920A0110920B011092E5
:1008F0000C0188E080930D0110920F0110920E01FF
:100900001092110110921001109213011092120115
:1009100010921401109215011092160110921701F5
:100920001092E6001092E7001092E8001092F30097
:100930001092F4001092F5001092FD001092FC004D
:100940001092F0001092EF00089590930F018093A1
:100950000E017093110160931001509313014093A5
:100960001201089590930F0180930E0108959093C2
:100970001101809310010895909313018093120147
:10098000089580930A01089580930B010895809340
:100990000C010895CF93DF939C01CB01E091FC0003
:1009A000F091FD0062E070E00E94770B0FC0A08123
:1009B000B1818281823039F4ED018D8199278217CE
:1009C000930709F468870780F085E02D309779F761
:1009D000DF91CF910895CF93DF939C01E091FC00CC
:1009E000F091FD0014C0A081B1818281843061F456
:1009F000848199278217930739F48681992786176E
:100A0000970711F4ED014B830780F085E02D3097B7
:100A100051F7DF91CF910895BF92CF92DF92EF927D
:100A2000FF920F931F93CF93DF936C01162FF42E39
:100A3000B22EC091FC00D091FD002097A1F489E076
:100A400090E00E947A0AFC019093FD008093FC00E4
:100A5000D182C082138310861782F282B48205830A
:100A6000E68215C0EC018F8198850097D9F789E05F
:100A700090E00E947A0AFC0198878F83D182C0821D
:100A80001383F282B4820583E68210861782DF9197
:100A9000CF911F910F91FF90EF90DF90CF90BF907B
:100AA0000895EF92FF921F93CF93DF937C01C09143
:100AB000EF00D091F000209711F011E012C085E016
:100AC00090E00E947A0AFC019093F0008093EF007E
:100AD000F182E08212821482138210E012C01F5F42
:100AE000EC018B819C810097D1F785E090E00E941A
:100AF0007A0AFC019C838B83F182E0821283148248
:100B00001382812F9927DF91CF911F91FF90EF9052
:100B10000895EF92FF920F931F93CF93DF93E0918D
:100B2000EF00F091F00080E090E00380F481E02D90
:100B300001963097D1F7880F991F0E947A0A9093F7
:100B4000F2008093F1000091EF001091F000E801B5
:100B5000E880F9808A81C82FDD27CC0FDD1F8091C6
:100B6000F1009091F200C80FD91FF70180819927F9
:100B70000E947A0A9983888320E030E017C0E80158
:100B8000EA81FF27EE0FFF1F8091F1009091F200A4
:100B9000E80FF91F0190F081E02DE20FF31FD7015C
:100BA000A20FB31F8C9180832F5F3F4FF70180818D
:100BB0009927281739071CF3E8018B819C8100973E
:100BC00011F08C01C4CFDF91CF911F910F91FF9055
:100BD000EF9008954F925F926F927F928F929F92C3
:100BE000AF92BF92CF92DF92EF92FF920F931F933B
:100BF000CF93DF93E091FC00F091FD006624772411
:100C000009C08281823019F40894611C711C07802C
:100C1000F085E02D3097A9F74301880C991CC40199
:100C20000E947A0A9093190180931801E1E0EE2E58
:100C3000F12CAA24BB2455C0E091FC00F091FD00EA
:100C400079E0C72ED12C15C0A081B181848199276C
:100C50008E159F0519F48381C80ED11CED018D817D
:100C60008E1521F48281823009F45D010780F085C0
:100C7000E02D309749F700911801109119010250A9
:100C80001040080D191DC6010E947A0AF8019183CF
:100C9000808320E030E0E0911801F0911901E80D27
:100CA000F91D32970190F081E02DE20FF31FD5017D
:100CB000A20FB31F8C9180832F5F3F4F29303105E6
:100CC00051F7E0911801F0911901E80DF91D3297E3
:100CD0000190F081E02D8C2D875F82830894E11CC8
:100CE000F11C6E147F040CF0A7CF61E0C62ED12C4E
:100CF00059E0A52EB12C4424552442E0842E912C99
:100D0000A1C0A091FC00B091FD0012C0ED91FC913A
:100D100011978181823049F4858199278C159D0531
:100D200021F48481482E552405C0ED01AF81B8859A
:100D3000109761F731E0E32EF12C79C06091FC004F
:100D40007091FD006DC0FB01C081D181898184302B
:100D500009F063C0868199278E159F0509F05DC053
:100D6000848199278C159D0509F057C0950140E0B5
:100D700050E0E0911801F0911901E80DF91D32974A
:100D80000190F081E02DE20FF31FDE01A40FB51FEB
:100D90008C9180832F5F3F4F4F5F5F4F49305105EC
:100DA00041F789E090E0A80EB91EC091FC00D091F7
:100DB000FD0031C08A81853059F58C8199278C15C9
:100DC0009D0531F58D8199278E159F0509F50881BF
:100DD0001981950140E050E0E0911801F09119016E
:100DE000E80DF91D32970190F081E02DE20FF31F1D
:100DF000D801A40FB51F8C9180832F5F3F4F4F5FA9
:100E00005F4F4730510541F7E7E0F0E0AE0EBF1EFF
:100E10000F80D885C02D209769F6EB016F8178850A
:100E20006115710509F08FCF0894E11CF11C4E1477
:100E30005F040CF083CF0894C11CD11CE2E0F0E009
:100E40008E0E9F1E6C147D040CF05BCFDF91CF9152
:100E50001F910F91FF90EF90DF90CF90BF90AF90D8
:100E60009F908F907F906F905F904F9008956F92BA
:100E70007F928F929F92AF92BF92CF92DF92EF922A
:100E8000FF920F93CF93DF935C013B014901E09107
:100E9000FC00F091FD0016C0A081B18184819927EA
:100EA000A816B90661F4868199278615970539F445
:100EB0008281843021F4ED018C818F5F8C830780E7
:100EC000F085E02D309741F787E090E00E947A0AA4
:100ED000FC0187E0808385E0818382820383F58241
:100EE000E482C682EE24062D2A2D45E067E0CF017C
:100EF0000E940C05DF91CF910F91FF90EF90DF9052
:100F0000CF90BF90AF909F908F907F906F900895FB
:100F1000AF92BF92CF92DF92EF92FF920F93FC01BC
:100F2000A114B10401F14230510571F04330510573
:100F300099F041305105B9F481E08093F300B0920B
:100F4000F700A092F6000FC081E08093F400B09209
:100F5000F900A092F80007C081E08093F500B092FC
:100F6000FB00A092FA0020583F4FCF010E943707A4
:100F70000F91FF90EF90DF90CF90BF90AF900895CA
:100F8000AF92BF92CF92DF92EF92FF920F93FC014C
:100F90004230510571F04330510599F0413051050F
:100FA000B9F481E08093E600B092EA00A092E900F3
:100FB0000FC081E08093E700B092EC00A092EB00BC
:100FC00007C081E08093E800B092EE00A092ED00AF
:100FD000CF010E9437070F91FF90EF90DF90CF90E5
:100FE000BF90AF900895CF92DF92EF920F931F932F
:100FF000CF93DF936C018B01A091FC00B091FD00B9
:10100000C0E0D0E014C02D913C911197F901858189
:101010008C1551F4FD018281823031F4F901848113
:101020008F5F8483C82FDD27FD01A781B0851097CE
:1010300051F789E090E00E947A0AFC0189E0808300
:1010400084E08183028313821482158216821782C0
:101050001086EC2E00E02C2D44E069E0CF010E94C8
:101060000C05CE01DF91CF911F910F91EF90DF9092
:10107000CF900895BF92CF92DF92EF92FF920F939D
:101080001F93CF93DF936C017B01142FB22EA0919D
:10109000FC00B091FD00C0E0D0E014C02D913C9167
:1010A0001197F90185818C1551F4FD0182818230FF
:1010B00031F4F90184818F5F8483C82FDD27FD011E
:1010C000A781B085109751F789E090E00E947A0AD5
:1010D000FC0189E0808384E08183E28213821482B0
:1010E0001583B68207831086EC2E00E02C2D44E099
:1010F00069E0CF010E940C05CE01DF91CF911F91D5
:101100000F91FF90EF90DF90CF90BF900895EF92F6
:101110000F931F93109117011F5F1093170189E020
:1011200090E00E947A0AFC0189E0808389E090E0E7
:101130009383828382E0818314821583168280EAFE
:1011400087838AE18087EE2400E020E042E069E0C6
:10115000CF010E940C05812F99271F910F91EF90CD
:101160000895CF93DF93EC01FC0101900020E9F793
:10117000E81BF90BCF01880F991F0E947A0A9C0186
:10118000FE0101900020E9F7EC1BFD0BEE0FFF1FA5
:10119000DC01EC9383E0F901818340E050E009C079
:1011A000FE01E40FF51F80818C93FD0111824F5FDA
:1011B0005F4F1296FE0101900020E9F73197EC1B7A
:1011C000FD0B4E175F0760F3C9010E945105992777
:1011D000DF91CF910895EF92FF920F931F93CF93DA
:1011E000DF938C017B01CA010E94B1089C01E09150
:1011F000FC00F091FD0014C0A081B1818281843097
:1012000061F4848199278017910739F486819927A1
:101210008E159F0511F4ED0128870780F085E02DDC
:10122000309751F7DF91CF911F910F91FF90EF9081
:1012300008950F931F93CF93DF938C01CB010E94EE
:10124000B1089C01E091FC00F091FD000FC0A0816D
:10125000B1818281823039F4ED018D819927801727
:10126000910709F42E830780F085E02D309779F7F8
:10127000DF91CF911F910F9108950E94B108181628
:10128000190614F48093160108950E94B1081816E7
:10129000190614F48093150108950E94B1081816D8
:1012A000190614F48093140108951F9386E00E9498
:1012B0003D04992786FF03C00E9458030EC082FF99
:1012C00003C00E94340209C081FF03C00E94530280
:1012D00004C084FF02C00E94A00287E00E943D0477
:1012E000182F60E087E00E945604612F87E00E947B
:1012F00056041F9108950E94EA050E9489050E94E4
:10130000E50061E080E00E94560480E00E943D0418
:1013100080FDFBCF62E081E00E9456046FEF8FE01A
:101320000E94560460E18FE00E94560460E884E069
:101330000E94560460E480E20E94560468E083E262
:101340000E94560469E087E20E9456046FE08DE037
:101350000E9456046FE08BE00E94560468E589E025
:101360000E94560466ED87E00E94560462E085E024
:101370000E9456046CEC80E00E945604089580ECB4
:101380008BB988E98AB986E880BD10BC83E389B946
:101390008CB15F99FDCF08950895089508958A331B
:1013A00010F4805301C087556A3310F4605301C0B4
:1013B00067556F708295807F682B862F99270895D7
:1013C0000895CF93DF93DC01EC01EC81FD81219145
:1013D00088859985019721F48A819B81E81BF90B07
:1013E000ED01FD83EC83998788878D919C911197FE
:1013F000019711969C938E93822F9927DF91CF911D
:101400000895FC011182108277836683758364835B
:101410005383428353874287518740878FEF848766
:101420000895CF93DF93DC012D913C911197EC014E
:101430008A819B81281739071CF080E090E01AC050
:10144000ED01EE81FF8161938A859B85019721F4EF
:101450008A819B81E81BF90BED019B878A87FF83BB
:10146000EE838D919C911197019611969C938E938A
:1014700081E090E0DF91CF910895FC01808191811E
:10148000892BE1F3CF010E94E10999270895FC011E
:1014900080819181892B19F42FEF30E005C0CF01B5
:1014A0000E94E109282F3327C90108958FEF20E01A
:1014B00030E0D901082E0E94A60BD9010E949E0B94
:1014C000802D8F3FD1F78BB782608BBFE091DE001C
:1014D000F091DF0009950895AC0120E030E006C0EE
:1014E00080EA9FE00197F1F72F5F3F4F2417350700
:1014F000BCF30895CF93DF93AC01029710F442E060
:1015000050E0A0913A01B0913B01FD01C0E0D0E074
:1015100020E030E020C0808191818417950769F434
:1015200082819381209719F09B838A8304C09093D2
:101530003B0180933A019F0132C04817590738F4A4
:101540002115310519F08217930708F49C01EF016A
:101550000280F381E02D3097F1F62115310599F1E4
:10156000C901841B950B049708F4A901E0E0F0E0A1
:1015700028C08D919C91119782179307F9F4481711
:10158000590781F4ED018A819B81309719F093838B
:10159000828304C090933B0180933A019D012E5FAA
:1015A0003F4F4BC0841B950BFD01E80FF91F419382
:1015B000519302978D939C939F013FC0FD01A2819F
:1015C000B3811097B1F68091380190913901892B40
:1015D00041F48091E2009091E3009093390180936F
:1015E00038012091E4003091E5002115310541F4E6
:1015F0002DB73EB78091E0009091E100281B390B98
:10160000A0913801B09139012A1B3B0B24173507F3
:1016100090F0CA0102962817390768F09D012E5FE5
:101620003F4FC901840F951F909339018093380172
:101630004D935C9302C020E030E0C901DF91CF916F
:101640000895CF93DF93009709F44EC0EC012297E1
:101650001B821A82A0913A01B0913B01109711F1BF
:1016600040E050E001C0DC01AC17BD0700F1BB83D6
:10167000AA83FE0121913191E20FF31FEA17FB07C4
:1016800071F48D919C911197280F391F2E5F3F4F58
:1016900039832883FD01828193819B838A8341154D
:1016A000510559F4D0933B01C0933A011DC0FD018F
:1016B00082819381AD010097B1F6FA01D383C28391
:1016C00021913191E20FF31FEC17FD0769F4888136
:1016D0009981280F391F2E5F3F4FFA0131832083F4
:1016E0008A819B8193838283DF91CF91089597FBB9
:1016F000092E07260AD077FD04D00CD006D0002092
:101700001AF4709561957F4F0895F6F7909581953D
:101710009F4F0895AA1BBB1B51E107C0AA1FBB1F07
:10172000A617B70710F0A61BB70B881F991F5A956D
:10173000A9F780959095BC01CD010895E199FECF60
:10174000BFBBAEBBE09A11960DB20895E199FECFF2
:10175000BFBBAEBB0DBA11960FB6F894E29AE19AF0
:061760000FBE0895FFCF4B
:10176600422E536175746572004C454420426C6983
:101776006E6B64656D6F202020007374616C6C2045
:1017860068616E647368616B6520007478302065EB
:1017960072726F720A00616C74206576656E740DE4
:1017A6000A0072657365740D0A007364330D0A00CE
:1017B600726573756D650D0A00656F700D0A0065BB
:1017C6006C73650D0A006E61636B206576656E74D9
:1017D6000D0A007278206576656E740D0A00007039
:0617E60020003C010000A0
:00000001FF
