:100000000C942A000C94C3000C9445000C944500F9
:100010000C9445000C9445000C9445000C9445004C
:100020000C9445000C9445000C9445000C9445003C
:100030000C9445000C9447000C9445000C9445002A
:100040000C9445000C9445000C9445000C9445001C
:100050000C94450011241FBECFE5D8E0DEBFCDBF14
:1000600010E0A0E6B0E0EAE0F7E102C005900D92F2
:10007000A43FB107D9F711E0A4EFB0E001C01D9291
:10008000AA34B107E1F70C9452000C9400001F92BF
:100090000F920FB60F9211240F900FBE0F901F906A
:1000A00018950895CDE5D8E0DEBFCDBF0E94A50923
:1000B0000E944C0480E18ABBDC9A8BEE93E00E94A4
:1000C000970484E091E20E949C0480E092E00E9408
:1000D000A10489E0898384E08A83CE0101960E948D
:1000E000890880E690E00E94330989E690E00E944A
:1000F0002B098AE790E00E9423090E945D084C01C9
:1001000062E370E00E94AF0460E070E0C4010E940E
:10011000C9073C0140E050E0BC01C4010E94D0048A
:10012000AA24BB24CC24DD2490E4E92EF12C02E0A7
:1001300022E030E041E050E0B301C4010E945E07DC
:1001400081E5A82E80E0B82E22E030E041E050E0CA
:10015000B301C4010E9496070E940A0478940E9489
:100160006109DC9884EF91E00E944A0ADC9A84EFEE
:1001700091E00E944A0AF5CFFC018181813011F49F
:100180000E943B0A08951F920F920FB60F921124FE
:100190002F933F934F935F936F937F938F939F938F
:1001A000AF93BF93EF93FF930E943B09FF91EF91B1
:1001B000BF91AF919F918F917F916F915F914F917F
:1001C0003F912F910F900FBE0F901F90189587E2CF
:1001D0008093290185E28093280190E290932A017F
:1001E00010922B0128E030E030932D0120932C0158
:1001F00083E28093370181E2809336019093380146
:100200001092390130933B0120933A0108950895EB
:100210006091450181E20E943B04089568E08BE211
:100220000E943B0462E188E20E943B0468E08FE2A6
:100230000E943B0462E18CE20E943B0461E08FE299
:100240000E943B0465E083E20E943B0408950F9303
:100250001F938C0160E480E20E943B04F8016281FC
:10026000605884E00E943B04F8018281809344013D
:100270001F910F9108950F931F93CF93DF93EC017C
:100280002A853B8512161306DCF588859985821729
:1002900093071CF568E083E20E943B0400E010E055
:1002A0000FC08C859D85E80FF91F608181E20E9457
:1002B0003B04888599850196998788870F5F1F4F32
:1002C000E885F9858A859B85083011051CF4E817B7
:1002D000F9073CF3E817F90724F061E087E20E9490
:1002E0003B048B81813031F465E089810E943B04BD
:1002F0001B8206C061E089810E943B0481E08B8300
:10030000DF91CF911F910F910895CF93DF93CDB7D8
:10031000DEB724970FB6F894DEBF0FBECDBFDC0169
:10032000FC012281338110923F0110923E0181E055
:1003300080933901832F99278230D9F0833069F176
:10034000813009F057C080911401992790934101A1
:100350008093400184E191E09093430180934201B6
:10036000868197818034910509F044C088E090E04F
:1003700029C0FD01868197819093410180934001BE
:10038000E22FFF27EE0FFF1F80912601909127019A
:10039000E80FF91F8081918129C02223C1F0E22F4B
:1003A000FF27EE0FFF1F8091FF0090910001E80FE3
:1003B000F91F0190F081E02DF0934301E093420199
:1003C00080819927909341018093400113C094E06C
:1003D000998383E08A8389E08B839C8384E090E027
:1003E0009093410180934001CE0101969093430187
:1003F0008093420186E391E00E943B0124960FB670
:10040000F894DEBF0FBECDBFDF91CF910895CF939B
:10041000DF9382E20E942204C82FDD27C5FF1FC0A0
:1004200068E083E20E943B04C6FF10C020913E01B9
:1004300030913F0180914001909141012817390787
:100440004CF486E391E00E943B010DC088E890E007
:100450000E94490461E087E20E943B0404C089E9EC
:1004600090E00E944904DF91CF9108958AE00E94B4
:100470002204992780FF03C00E940702089581FF8C
:100480000DC08AE20E94220480910101813061F452
:10049000E0910401F09105010995089582E30E941D
:1004A00022048AE30E94220408951F9388E00E9498
:1004B0002204182F84EA90E00E944904812F992792
:1004C00086FF1BC060E085E00E943B0460E884E09A
:1004D0000E943B0460E080E20E943B0468E083E20B
:1004E0000E943B0461E087E20E943B0462E085E0F9
:1004F0000E943B0480EB90E021C084FF0BC060ECC5
:1005000089E00E943B0463E085E00E943B0488EBA5
:1005100090E014C017FF0BC060E589E00E943B0427
:1005200062E085E00E943B048EEB90E007C083FF11
:1005300003C087EC90E002C08DEC90E00E9449047B
:100540001F9108958EE00E94220484ED90E00E94A5
:10055000490408950F931F93CF93DF93CDB7DEB770
:1005600028970FB6F894DEBF0FBECDBF86E20E947B
:10057000220486FF6FC08E010F5F1F4F80912801FC
:100580000E942204F80181938F01CE010996E81799
:10059000F907A1F78E010F5F1F4F68E087E20E9405
:1005A0003B0468E083E20E943B0480E20E94220454
:1005B0008F77682F80E20E943B048981992780769B
:1005C000907080329105A1F18034910571F1892BF1
:1005D00091F5F80181818630E1F0873050F4833065
:1005E00091F1843018F4823030F52DC0853019F542
:1005F00014C08930B1F08A3018F48830E1F405C0B5
:100600008A3009F18B30B9F413C0C8010E94080187
:100610001AC0C8010E94850116C0C8010E942701A6
:1006200012C0C8010E940E010EC0C8010E94BC0089
:1006300065E083E206C080E20E9422048058682FB1
:1006400080E20E943B04F80180818823D1F465E0B8
:1006500083E215C0209140013091410180913A011F
:1006600090913B018217930764F41092410110921C
:10067000400168E083E20E943B0461E087E20E945F
:100680003B0428960FB6F894DEBF0FBECDBFDF91B6
:10069000CF911F910F9108950F931F93CF93DF93E5
:1006A000CDB7DEB7C054D0400FB6F894DEBF0FBE52
:1006B000CDBF8CE00E942204182F81EE90E00E94B2
:1006C0004904812F992780FF03C00E94AA0275C0A8
:1006D00081FF28C08EE20E9422048DE20E94220443
:1006E00089838E010F5F1F4F0F5F1F4F0E941604FB
:1006F000F8018083CE01805C9F4F08171907A1F78E
:100700008091F400813039F4E091F700F091F80025
:10071000CE010196099568E08FE20E943B0461E0FA
:100720008FE229C082FF2AC086E30E94220485E36B
:100730000E94220489838E010F5F1F4F0F5F1F4F9E
:100740000E941604F8018083CE01805C9F4F081739
:100750001907A1F78091F500813039F4E091F90093
:10076000F091FA00CE010196099568E087E30E94B6
:100770003B0461E087E30E943B041FC083FF1DC070
:100780008EE30E9422048E010F5F1F4F8DE30E94B3
:100790002204F80181938F01CE018F5B9F4FE817F0
:1007A000F907A1F78091F600813039F4E091F70064
:1007B000F091F800CE0101960995C05CDF4F0FB6AD
:1007C000F894DEBF0FBECDBFDF91CF911F910F9187
:1007D0000895CF92DF92EF92FF920F931F93CF93E2
:1007E000DF936C017A01C0E0D0E08B0107C0F80113
:1007F00061918F01C6010E94F6092196CE15DF0591
:10080000B4F3DF91CF911F910F91FF90EF90DF90A4
:10081000CF90089585B7826085BF8BB780648BBF0A
:1008200088EF81BB82B3886382BB089582B398E16D
:10083000892782BB0000000082B3892782BB83B373
:10084000992708959FEF94BB85BB82B398E68927CB
:1008500082BB82B3892782BB000014BA0E941604AF
:100860009927089585BB82B398E2892782BB82B31A
:10087000892782BB089585BB8FEF84BB82B398E63E
:10088000892782BB82B3892782BB862F0E943204CC
:1008900008950E94B409089582E18093140181E0D3
:1008A0008093150180E191E09093170180931601E8
:1008B000109218011092190110921A0188E0809389
:1008C0001B0110921D0110921C0110921F01109229
:1008D0001E0110922101109220011092220110920B
:1008E000230110922401109225011092F40010921D
:1008F000F5001092F6001092010110920201109280
:10090000030110920B0110920A011092FE00109246
:10091000FD00089590931D0180931C0170931F01A9
:1009200060931E01509321014093200108959093FC
:100930001D0180931C01089590931F0180931E0157
:1009400008959093210180932001089580931801C8
:10095000089580931901089580931A010895CF9303
:10096000DF939C01CB01E0910A01F0910B0162E061
:1009700070E00E94520B0FC0A081B1818281823051
:1009800039F4ED018D8199278217930709F468875F
:100990000780F085E02D309779F7DF91CF910895AA
:1009A000CF93DF939C01E0910A01F0910B0114C0F9
:1009B000A081B1818281843061F48481992782177A
:1009C000930739F4868199278617970711F4ED016B
:1009D0004B830780F085E02D309751F7DF91CF9161
:1009E0000895BF92CF92DF92EF92FF920F931F93E1
:1009F000CF93DF936C01162FF42EB22EC0910A0113
:100A0000D0910B012097A1F489E090E00E94590A4F
:100A1000FC0190930B0180930A01D182C082138361
:100A200010861782F282B4820583E68215C0EC013B
:100A30008F8198850097D9F789E090E00E94590A44
:100A4000FC0198878F83D182C0821383F282B482A3
:100A50000583E68210861782DF91CF911F910F9157
:100A6000FF90EF90DF90CF90BF900895EF92FF92AC
:100A70001F93CF93DF937C01C091FD00D091FE00C6
:100A8000209711F011E012C085E090E00E94590A11
:100A9000FC019093FE008093FD00F182E0821282BF
:100AA0001482138210E012C01F5FEC018B819C81C5
:100AB0000097D1F785E090E00E94590AFC019C83E1
:100AC0008B83F182E082128314821382812F992713
:100AD000DF91CF911F91FF90EF900895EF92FF92D9
:100AE0000F931F93CF93DF93E091FD00F091FE00F1
:100AF00080E090E00380F481E02D01963097D1F7FB
:100B0000880F991F0E94590A909300018093FF005B
:100B10000091FD001091FE00E801E880F9808A81D3
:100B2000C82FDD27CC0FDD1F8091FF0090910001C1
:100B3000C80FD91FF701808199270E94590A99830C
:100B4000888320E030E0D70114C0E801EA81FF2764
:100B5000EE0FFF1F8091FF0090910001E80FF91F39
:100B60000190F081E02DE20FF31F8D9180832F5FC4
:100B70003F4FF701808199272817390734F3E8019F
:100B80008B819C81009711F08C01C6CFDF91CF91B2
:100B90001F910F91FF90EF9008956F927F928F9227
:100BA0009F92AF92BF92CF92DF92EF92FF920F93FC
:100BB0001F93CF93DF93E0910A01F0910B018824FA
:100BC000992409C08281823019F40894811C911CF7
:100BD0000780F085E02D3097A9F73401660C771C6B
:100BE000C3010E94590A909327018093260171E066
:100BF000E72EF12CAA24BB2453C0E0910A01F09106
:100C00000B0169E0C62ED12C15C0A081B181848171
:100C100099278E159F0519F48381C80ED11CED010B
:100C20008D818E1521F48281823009F45D01078067
:100C3000F085E02D309749F70091260110912701AA
:100C4000060D171D02501040C6010E94590AF801F6
:100C50009183808320E030E0D501E0912601F0917E
:100C60002701E60DF71D32970190F081E02DE20F8C
:100C7000F31F8D9180832F5F3F4F2930310569F736
:100C8000E0912601F0912701E60DF71D32970190C2
:100C9000F081E02D8C2D875F82830894E11CF11C8C
:100CA0008E149F040CF0A9CF51E0E52EF12C49E001
:100CB000C42ED12C6624772432E0A32EB12C9AC006
:100CC0008481682E772415C0A0910A01B0910B0190
:100CD0000EC0ED91FC9111978181823029F48581BC
:100CE00099278E159F0561F3ED01AF81B8851097A7
:100CF00081F701E010E073C040910A0150910B01AF
:100D000068C0DA01ED91FC918181843009F05EC008
:100D1000EA018E8199278017910709F057C08C81CD
:100D200099278E159F0509F051C09601DF01BF017B
:100D3000675F7F4FE0912601F0912701EA0DFB1DCF
:100D400032970190F081E02DE20FF31F8D918083A7
:100D50002F5F3F4FA617B70769F7E9E0F0E0CE0E27
:100D6000DF1EC0910A01D0910B012EC08A8185300F
:100D700041F58C8199278E159F0519F58D8199274D
:100D800080179107F1F4888199819601DC01BC01FB
:100D9000695F7F4FE0912601F0912701EA0DFB1D6D
:100DA00032970190F081E02DE20FF31F8D91808347
:100DB0002F5F3F4FA617B70769F787E090E0C80E8F
:100DC000D91E0F80D885C02D209781F6EA014F816A
:100DD00058854115510509F094CF0F5F1F4F6016DC
:100DE00071060CF089CF0894E11CF11CE2E0F0E000
:100DF000AE0EBF1E8E149F040CF066CFDF91CF9114
:100E00001F910F91FF90EF90DF90CF90BF90AF9028
:100E10009F908F907F906F9008956F927F928F92A6
:100E20009F92AF92BF92CF92DF92EF92FF920F9379
:100E3000CF93DF935C013B014901E0910A01F091FE
:100E40000B0116C0A081B18184819927A816B9062B
:100E500061F4868199278615970539F4828184305B
:100E600021F4ED018C818F5F8C830780F085E02D6C
:100E7000309741F787E090E00E94590AFC0187E033
:100E8000808385E0818382820383F582E482C68247
:100E9000EE24062D2A2D45E067E0CF010E94F104E3
:100EA000DF91CF910F91FF90EF90DF90CF90BF90A7
:100EB000AF909F908F907F906F900895AF92BF9268
:100EC000CF92DF92EF92FF920F93FC01A114B10435
:100ED00001F14230510571F04330510599F0413034
:100EE0005105B9F481E080930101B0920501A0920F
:100EF00004010FC081E080930201B0920701A0922B
:100F0000060107C081E080930301B0920901A0921D
:100F1000080120583F4FCF010E940D070F91FF900D
:100F2000EF90DF90CF90BF90AF900895AF92BF92B7
:100F3000CF92DF92EF92FF920F93FC014230510566
:100F400071F04330510599F041305105B9F481E019
:100F50008093F400B092F800A092F7000FC081E0F7
:100F60008093F500B092FA00A092F90007C081E0EA
:100F70008093F600B092FC00A092FB00CF010E948B
:100F80000D070F91FF90EF90DF90CF90BF90AF9043
:100F90000895CF92DF92EF920F931F93CF93DF9339
:100FA0006C018B01A0910A01B0910B01C0E0D0E06F
:100FB00014C02D913C911197F90185818C1551F444
:100FC000FD018281823031F4F90184818F5F848355
:100FD000C82FDD27FD01A781B085109751F789E063
:100FE00090E00E94590AFC0189E0808384E08183BB
:100FF0000283138214821582168217821086EC2EC9
:1010000000E02C2D44E069E0CF010E94F104CE0104
:10101000DF91CF911F910F91EF90DF90CF900895C6
:10102000BF92CF92DF92EF92FF920F931F93CF93D5
:10103000DF936C017B01142FB22EA0910A01B091B5
:101040000B01C0E0D0E014C02D913C911197F90143
:1010500085818C1551F4FD018281823031F4F901D2
:1010600084818F5F8483C82FDD27FD01A781B08530
:10107000109751F789E090E00E94590AFC0189E03D
:10108000808384E08183E282138214821583B68296
:1010900007831086EC2E00E02C2D44E069E0CF01A0
:1010A0000E94F104CE01DF91CF911F910F91FF902B
:1010B000EF90DF90CF90BF900895CF92DF92EF92A4
:1010C0000F93C0902501C394C0922501DD2489E0CF
:1010D00090E00E94590AFC0189E0808389E090E059
:1010E0009383828382E081831482C582168280EAA0
:1010F00087838AE18087EE2400E020E042E069E017
:10110000CF010E94F104C6010F91EF90DF90CF90C4
:101110000895EF92FF920F931F93CF93DF938C016B
:10112000FC0101900020E9F73197E81BF90BEE0F65
:10113000FF1FCF0102960E94590A7C01BC01F801F1
:1011400001900020E9F73197E01BF10BEE0FFF1F34
:10115000EE5FDC01EC9383E0E701898340E050E03F
:10116000F80101900020E9F73197E01BF10B98019D
:1011700008C0D9018D919D01EB01888319824F5FD1
:101180005F4F6E5F7F4F4E175F0798F3C7010E9456
:1011900036059927DF91CF911F910F91FF90EF9026
:1011A0000895EF92FF920F931F93CF93DF938C01DB
:1011B0007B01CA010E9489089C01E0910A01F0911B
:1011C0000B0114C0A081B1818281843061F48481DB
:1011D00099278017910739F4868199278E159F05E5
:1011E00011F4ED0128870780F085E02D309751F745
:1011F000DF91CF911F910F91FF90EF9008950F9382
:101200001F93CF93DF938C01CB010E9489089C012F
:10121000E0910A01F0910B010FC0A081B1818281A0
:10122000823039F4ED018D8199278017910709F4F7
:101230002E830780F085E02D309779F7DF91CF91ED
:101240001F910F9108950E9489081816190614F429
:101250008093240108950E9489081816190614F431
:101260008093230108950E9489081816190614F422
:101270008093220108951F9386E00E9422049927FB
:1012800086FF03C00E944C030EC082FF03C00E9471
:10129000360209C081FF03C00E94550204C084FFCA
:1012A00002C00E94A20287E00E942204182F60E080
:1012B00087E00E943B04612F87E00E943B041F915E
:1012C00008950E94CD050E946E050E94E70061E02E
:1012D00080E00E943B0480E00E94220480FDFBCF5E
:1012E00062E081E00E943B046FEF8FE00E943B04CC
:1012F00060E18FE00E943B0460E884E00E943B04D0
:1013000060E480E20E943B0468E083E20E943B04C8
:1013100069E087E20E943B046FE08DE00E943B049D
:101320006FE08BE00E943B0468E589E00E943B048B
:1013300066ED87E00E943B0462E085E00E943B048A
:101340006CEC80E00E943B04089580EC8BB988E946
:101350008AB986E880BD10BC83E389B98CB15F99F6
:10136000FDCF08950895089508958A3310F48053A9
:1013700001C087556A3310F4605301C067558295E8
:10138000807F6F70862B992708950895CF93DF9300
:10139000DC01EC01EC81FD81219188859985019723
:1013A00021F48A819B81E81BF90BED01FD83EC831D
:1013B000998788878D919C911197019711969C939D
:1013C0008E93822F9927DF91CF910895FC0111828E
:1013D0001082778366837583648353834283538744
:1013E0004287518740878FEF84870895CF93DF939B
:1013F000DC012D913C911197EC018A819B8128178A
:1014000039071CF080E090E01AC0ED01EE81FF8109
:1014100061938A859B85019721F48A819B81E81BD2
:10142000F90BED019B878A87FF83EE838D919C9159
:101430001197019611969C938E9381E090E0DF9135
:10144000CF910895FC0180819181892BE1F3CF0137
:101450000E94C60999270895FC0180819181892BFA
:1014600019F42FEF30E005C0CF010E94C609282FE4
:101470003327C90108958BB782608BBF87E7A0E04F
:10148000B0E0082E0E94790BE091EC00F091ED00A5
:1014900009950895AC0120E030E0E0EAFFE005C0E6
:1014A000CF010197F1F72F5F3F4F24173507C4F3A2
:1014B0000895CF93DF93AC01029710F442E050E01F
:1014C000A0914801B0914901FD01C0E0D0E020E0C9
:1014D00030E020C0808191818417950769F4828172
:1014E0009381209719F09B838A8304C090934901CC
:1014F00080934801CF0132C04817590738F42115AD
:10150000310519F08217930708F49C01EF0102805E
:10151000F381E02D3097F1F62115310589F1C901EC
:10152000841B950B049708F4A901E0E0F0E026C0C5
:101530008D919C91119782179307E9F448175907E9
:1015400079F4ED018A819B81309719F0938382832E
:1015500004C09093490180934801CD01029649C08F
:10156000841B950BFD01E80FF91F419351930297DE
:101570008D939C933AC0FD01A281B3811097C1F66F
:101580008091460190914701892B41F48091F000B0
:101590009091F10090934701809346012091F200D1
:1015A0003091F3002115310541F42DB73EB78091FC
:1015B000EE009091EF00281B390BE0914601F0916D
:1015C00047012E1B3F0B2417350788F0CA010296EE
:1015D0002817390760F0CF01840F951F029690936A
:1015E00047018093460141935193CF0102C080E0AF
:1015F00090E0DF91CF910895CF93DF93009709F4A6
:101600004EC0EC0122971B821A82A0914801B09132
:101610004901109711F140E050E001C0DC01AC1726
:10162000BD0700F1BB83AA83FE0121913191E20F36
:10163000F31FEA17FB0771F42E5F3F4F8D919C91CA
:101640001197820F931F99838883FD018281938173
:101650009B838A834115510559F4D0934901C09366
:1016600048011DC0FD0182819381AD010097B1F653
:10167000FA01D383C28321913191E20FF31FEC175A
:10168000FD0769F42E5F3F4F88819981820F931F78
:10169000FA01918380838A819B8193838283DF9186
:1016A000CF91089597FB092E07260AD077FD04D025
:1016B0000CD006D000201AF4709561957F4F0895E4
:1016C000F6F7909581959F4F0895AA1BBB1B51E19A
:1016D00007C0AA1FBB1FA617B70710F0A61BB70BA2
:1016E000881F991F5A95A9F780959095BC01CD0147
:1016F0000895E199FECFBFBBAEBB0DBA11960FB6F0
:0A170000F894E29AE19A0FBE0895F2
:10170A00422E5361757465720041565249534F20F7
:10171A006D6B4949204B6C6F6E0030303030413070
:10172A0030313634363131007374616C6C20686143
:10173A006E647368616B652000747830206572721C
:10174A006F720A00616C74206576656E740D0A000A
:10175A0072657365740D0A007364330D0A0072654D
:10176A0073756D650D0A00656F700D0A00656C73FF
:10177A00650D0A006E61636B206576656E740D0AED
:10178A00007278206576656E740D0A00007020007C
:04179A004A01000000
:00000001FF
