:100000000C942A000C94AE000C9445000C9445000E
:100010000C9445000C9445000C9445000C9445004C
:100020000C9445000C9445000C9445000C9445003C
:100030000C9445000C9447000C9445000C9445002A
:100040000C9445000C9445000C9445000C9445001C
:100050000C94450011241FBECFE5D8E0DEBFCDBF14
:1000600010E0A0E6B0E0E0EEF6E102C005900D92EF
:10007000A23EB107D9F712E0A2EEB0E001C01D9296
:10008000A837B107E1F70C9451000C9400001F92BF
:100090000F920FB60F9211240F900FBE0F901F906A
:1000A0001895CDE5D8E0DEBFCDBF0E943704109291
:1000B000FE001092FD0080E18ABBDC988BEE93E09D
:1000C0000E94820484E091E20E94870480E092E032
:1000D0000E948C0489E0898384E08A83CE010196A2
:1000E0000E94740880E690E00E941E0989E690E074
:1000F0000E94160984E790E00E940E090E944808B9
:100100004C0162E370E00E949A0460E070E0C40178
:100110000E94B4073C0140E050E0BC01C4010E94D1
:10012000BB04AA24BB24CC24DD2480E4E82EF12CDB
:1001300002E022E030E041E050E0B301C4010E945F
:1001400049070E94F50378940E944C09FFCFFC01F7
:100150008181813011F40E94260A08951F920F9226
:100160000FB60F9211242F933F934F935F936F938A
:100170007F938F939F93AF93BF93EF93FF930E94CF
:100180002609FF91EF91BF91AF919F918F917F9140
:100190006F915F914F913F912F910F900FBE0F90F4
:1001A0001F90189587E28093570285E2809356024C
:1001B00090E2909358021092590228E030E0309378
:1001C0005B0220935A0283E28093650281E280936E
:1001D0006402909366021092670230936902209342
:1001E0006802089508956091730281E20E942604D6
:1001F000089568E08BE20E94260462E188E20E9492
:10020000260468E08FE20E94260462E18CE20E94EC
:10021000260461E08FE20E94260465E083E20E94EA
:10022000260408950F931F938C0160E480E20E94DE
:100230002604F8016281605884E00E942604F801D7
:100240008281809372021F910F9108950F931F93E3
:10025000CF93DF93EC012A853B8512161306DCF55C
:1002600088859985821793071CF568E083E20E94D0
:10027000260400E010E00FC08C859D85E80FF91F73
:10028000608181E20E94260488859985019699877C
:1002900088870F5F1F4FE885F9858A859B85083021
:1002A00011051CF4E817F9073CF3E817F90724F0E7
:1002B00061E087E20E9426048B81813031F465E0A1
:1002C00089810E9426041B8206C061E089810E9408
:1002D000260481E08B83DF91CF911F910F910895C8
:1002E000CF93DF93CDB7DEB724970FB6F894DEBF78
:1002F0000FBECDBFDC01FC012281338110926D0263
:1003000010926C0281E080936702832F99278230DC
:10031000D9F0833069F1813009F057C080914202F1
:10032000992790936F0280936E0282E492E09093FB
:10033000710280937002868197818034910509F063
:1003400044C088E090E029C0FD01868197819093A8
:100350006F0280936E02E22FFF27EE0FFF1F809146
:10036000540290915502E80FF91F8081918129C0B4
:100370002223C1F0E22FFF27EE0FFF1F8091ED0037
:100380009091EE00E80FF91F0190F081E02DF093BD
:100390007102E09370028081992790936F0280939D
:1003A0006E0213C094E0998383E08A8389E08B8393
:1003B0009C8384E090E090936F0280936E02CE0164
:1003C0000196909371028093700284E692E00E94FD
:1003D000260124960FB6F894DEBF0FBECDBFDF9185
:1003E000CF910895CF93DF9382E20E940D04C82F2E
:1003F000DD27C5FF1FC068E083E20E942604C6FF18
:1004000010C020916C0230916D0280916E0290912B
:100410006F02281739074CF484E692E00E94260107
:100420000DC085E790E00E94340461E087E20E94FD
:10043000260404C086E890E00E943404DF91CF9146
:1004400008958AE00E940D04992780FF03C00E944E
:10045000F201089581FF0DC08AE20E940D0480918F
:100460002F02813061F4E0913202F091330209955C
:10047000089582E30E940D048AE30E940D0408950A
:100480001F9388E00E940D04182F81E990E00E94DC
:100490003404812F992786FF1BC060E085E00E940D
:1004A000260460E884E00E94260460E080E20E9466
:1004B000260468E083E20E94260461E087E20E944D
:1004C000260462E085E00E9426048DE990E021C0C8
:1004D00084FF0BC060EC89E00E94260463E085E0A5
:1004E0000E94260485EA90E014C017FF0BC060E567
:1004F00089E00E94260462E085E00E9426048BEADF
:1005000090E007C083FF03C084EB90E002C08AEB59
:1005100090E00E9434041F9108958EE00E940D0423
:1005200081EC90E00E94340408950F931F93CF93C1
:10053000DF93CDB7DEB728970FB6F894DEBF0FBEB6
:10054000CDBF86E20E940D0486FF6FC08E010F5F53
:100550001F4F809156020E940D04F80181938F0174
:10056000CE010996E817F907A1F78E010F5F1F4F1B
:1005700068E087E20E94260468E083E20E94260485
:1005800080E20E940D048F77682F80E20E9426048B
:10059000898199278076907080329105A1F180340D
:1005A000910571F1892B91F5F80181818630E1F097
:1005B000873050F4833091F1843018F4823030F574
:1005C0002DC0853019F514C08930B1F08A3018F487
:1005D0008830E1F405C08A3009F18B30B9F413C0DA
:1005E000C8010E94F3001AC0C8010E94700116C021
:1005F000C8010E94120112C0C8010E94F9000EC079
:10060000C8010E94A70065E083E206C080E20E9464
:100610000D048058682F80E20E942604F801808132
:100620008823D1F465E083E215C020916E023091F9
:100630006F0280916802909169028217930764F4B7
:1006400010926F0210926E0268E083E20E9426040C
:1006500061E087E20E94260428960FB6F894DEBF78
:100660000FBECDBFDF91CF911F910F9108950F93D2
:100670001F93CF93DF93CDB7DEB7C054D0400FB6F2
:10068000F894DEBF0FBECDBF8CE00E940D04182F82
:100690008EEC90E00E943404812F992780FF03C0E4
:1006A0000E94950275C081FF28C08EE20E940D0451
:1006B0008DE20E940D0489838E010F5F1F4F0F5F33
:1006C0001F4F0E940104F8018083CE01805C9F4F80
:1006D00008171907A1F78091E200813039F4E09101
:1006E000E500F091E600CE010196099568E08FE201
:1006F0000E94260461E08FE229C082FF2AC086E3BF
:100700000E940D0485E30E940D0489838E010F5F12
:100710001F4F0F5F1F4F0E940104F8018083CE011D
:10072000805C9F4F08171907A1F78091E300813083
:1007300039F4E091E700F091E800CE0101960995C7
:1007400068E087E30E94260461E087E30E942604B4
:100750001FC083FF1DC08EE30E940D048E010F5F3A
:100760001F4F8DE30E940D04F80181938F01CE018C
:100770008F5B9F4FE817F907A1F78091E400813064
:1007800039F4E091E500F091E600CE01019609957B
:10079000C05CDF4F0FB6F894DEBF0FBECDBFDF9158
:1007A000CF911F910F910895CF92DF92EF92FF9218
:1007B0000F931F93CF93DF936C017A01C0E0D0E0D9
:1007C0008B0107C0F80161918F01C6010E94E10908
:1007D0002196CE15DF05B4F3DF91CF911F910F91D4
:1007E000FF90EF90DF90CF90089585B7826085BF2E
:1007F0008BB780648BBF88EF81BB82B3886382BB79
:10080000089582B398E1892782BB0000000082B37B
:10081000892782BB83B3992708959FEF94BB85BB3B
:1008200082B398E6892782BB82B3892782BB000006
:1008300014BA0E9401049927089585BB82B398E2F7
:10084000892782BB82B3892782BB089585BB8FEF3E
:1008500084BB82B398E6892782BB82B3892782BB97
:10086000862F0E941D0408950E949F09089582E129
:100870008093420281E08093430280E191E0909373
:100880004502809344021092460210924702109251
:10089000480288E08093490210924B0210924A026B
:1008A00010924D0210924C0210924F0210924E0282
:1008B0001092500210925102109252021092530262
:1008C0001092E2001092E3001092E40010922F02C6
:1008D00010923002109231021092390210923802B6
:1008E0001092EC001092EB00089590934B028093CD
:1008F0004A0270934D0260934C0250934F02409312
:100900004E02089590934B0280934A02089590936B
:100910004D0280934C02089590934F0280934E02B3
:100920000895809346020895809347020895809326
:1009300048020895CF93DF939C01CB01E0913802E8
:10094000F091390262E070E00E943D0B0FC0A0817F
:10095000B1818281823039F4ED018D81992782172E
:10096000930709F468870780F085E02D309779F7C1
:10097000DF91CF910895CF93DF939C01E0913802EE
:10098000F091390214C0A081B1818281843061F478
:10099000848199278217930739F4868199278617CE
:1009A000970711F4ED014B830780F085E02D309718
:1009B00051F7DF91CF910895BF92CF92DF92EF92DE
:1009C000FF920F931F93CF93DF936C01162FF42E9A
:1009D000B22EC0913802D09139022097A1F489E05B
:1009E00090E00E94440AFC019093390280933802FF
:1009F000D182C082138310861782F282B48205836B
:100A0000E68215C0EC018F8198850097D9F789E0BF
:100A100090E00E94440AFC0198878F83D182C082B3
:100A20001383F282B4820583E68210861782DF91F7
:100A3000CF911F910F91FF90EF90DF90CF90BF90DB
:100A40000895EF92FF921F93CF93DF937C01C091A3
:100A5000EB00D091EC00209711F011E012C085E07E
:100A600090E00E94440AFC019093EC008093EB001C
:100A7000F182E08212821482138210E012C01F5FA2
:100A8000EC018B819C810097D1F785E090E00E947A
:100A9000440AFC019C838B83F182E08212831482DE
:100AA0001382812F9927DF91CF911F91FF90EF90B3
:100AB0000895EF92FF920F931F93CF93DF93E091EE
:100AC000EB00F091EC0080E090E00380F481E02DF9
:100AD00001963097D1F7880F991F0E94440A90938E
:100AE000EE008093ED000091EB001091EC00E80126
:100AF000E880F9808A81C82FDD27CC0FDD1F809127
:100B0000ED009091EE00C80FD91FF7018081992761
:100B10000E94440A9983888320E030E0D70114C002
:100B2000E801EA81FF27EE0FFF1F8091ED00909111
:100B3000EE00E80FF91F0190F081E02DE20FF31FA6
:100B40008D9180832F5F3F4FF70180819927281770
:100B5000390734F3E8018B819C81009711F08C01F7
:100B6000C6CFDF91CF911F910F91FF90EF90089525
:100B70006F927F928F929F92AF92BF92CF92DF92AD
:100B8000EF92FF920F931F93CF93DF93E091380280
:100B9000F09139028824992409C08281823019F4A5
:100BA0000894811C911C0780F085E02D3097A9F7EF
:100BB0003401660C771CC3010E94440A90935502CD
:100BC0008093540271E0E72EF12CAA24BB2453C079
:100BD000E0913802F091390269E0C62ED12C15C09F
:100BE000A081B181848199278E159F0519F4838195
:100BF000C80ED11CED018D818E1521F482818230C9
:100C000009F45D010780F085E02D309749F70091E8
:100C1000540210915502060D171D02501040C601D6
:100C20000E94440AF8019183808320E030E0D501DE
:100C3000E0915402F0915502E60DF71D32970190B4
:100C4000F081E02DE20FF31F8D9180832F5F3F4FE6
:100C50002930310569F7E0915402F0915502E60D13
:100C6000F71D32970190F081E02D8C2D875F8283F4
:100C70000894E11CF11C8E149F040CF0A9CF51E0E4
:100C8000E52EF12C49E0C42ED12C6624772432E0E5
:100C9000A32EB12C9AC08481682E772415C0A09110
:100CA0003802B09139020EC0ED91FC91119781810B
:100CB000823029F4858199278E159F0561F3ED0116
:100CC000AF81B885109781F701E010E073C04091C3
:100CD00038025091390268C0DA01ED91FC918181AE
:100CE000843009F05EC0EA018E8199278017910750
:100CF00009F057C08C8199278E159F0509F051C0C6
:100D00009601DF01BF01675F7F4FE0915402F091D0
:100D10005502EA0DFB1D32970190F081E02DE20FA4
:100D2000F31F8D9180832F5F3F4FA617B70769F799
:100D3000E9E0F0E0CE0EDF1EC0913802D09139021A
:100D40002EC08A81853041F58C8199278E159F05AB
:100D500019F58D81992780179107F1F48881998180
:100D60009601DC01BC01695F7F4FE0915402F09174
:100D70005502EA0DFB1D32970190F081E02DE20F44
:100D8000F31F8D9180832F5F3F4FA617B70769F739
:100D900087E090E0C80ED91E0F80D885C02D20971F
:100DA00081F6EA014F8158854115510509F094CF2C
:100DB0000F5F1F4F601671060CF089CF0894E11C7D
:100DC000F11CE2E0F0E0AE0EBF1E8E149F040CF0AA
:100DD00066CFDF91CF911F910F91FF90EF90DF9041
:100DE000CF90BF90AF909F908F907F906F9008951D
:100DF0006F927F928F929F92AF92BF92CF92DF922B
:100E0000EF92FF920F93CF93DF935C013B01490177
:100E1000E0913802F091390216C0A081B18184813D
:100E20009927A816B90661F4868199278615970532
:100E300039F48281843021F4ED018C818F5F8C83C1
:100E40000780F085E02D309741F787E090E00E9421
:100E5000440AFC0187E0808385E0818382820383EA
:100E6000F582E482C682EE24062D2A2D45E067E055
:100E7000CF010E94DC04DF91CF910F91FF90EF90A2
:100E8000DF90CF90BF90AF909F908F907F906F90AA
:100E90000895AF92BF92CF92DF92EF92FF920F939D
:100EA000FC01A114B10401F14230510571F043304D
:100EB000510599F041305105B9F481E080932F023A
:100EC000B0923302A09232020FC081E080933002D0
:100ED000B0923502A092340207C081E080933102C3
:100EE000B0923702A092360220583F4FCF010E94A5
:100EF000F8060F91FF90EF90DF90CF90BF90AF90EA
:100F00000895AF92BF92CF92DF92EF92FF920F932C
:100F1000FC014230510571F04330510599F04130E8
:100F20005105B9F481E08093E200B092E600A0920E
:100F3000E5000FC081E08093E300B092E800A0924A
:100F4000E70007C081E08093E400B092EA00A0923D
:100F5000E900CF010E94F8060F91FF90EF90DF901B
:100F6000CF90BF90AF900895CF92DF92EF920F9302
:100F70001F93CF93DF936C018B01A0913802B09146
:100F80003902C0E0D0E014C02D913C911197F901D5
:100F900085818C1551F4FD018281823031F4F90193
:100FA00084818F5F8483C82FDD27FD01A781B085F1
:100FB000109751F789E090E00E94440AFC0189E013
:100FC000808384E0818302831382148215821682D7
:100FD00017821086EC2E00E02C2D44E069E0CF0152
:100FE0000E94DC04CE01DF91CF911F910F91EF9011
:100FF000DF90CF900895BF92CF92DF92EF92FF9251
:101000000F931F93CF93DF936C017B01142FB22EAC
:10101000A0913802B0913902C0E0D0E014C02D9107
:101020003C911197F90185818C1551F4FD01828164
:10103000823031F4F90184818F5F8483C82FDD27EA
:10104000FD01A781B085109751F789E090E00E94DB
:10105000440AFC0189E0808384E08183E282138278
:1010600014821583B68207831086EC2E00E02C2DA7
:1010700044E069E0CF010E94DC04CE01DF91CF9112
:101080001F910F91FF90EF90DF90CF90BF90089548
:10109000CF92DF92EF920F93C0905302C394C0920D
:1010A0005302DD2489E090E00E94440AFC0189E0BB
:1010B000808389E090E09383828382E0818314823D
:1010C000C582168280EA87838AE18087EE2400E069
:1010D00020E042E069E0CF010E94DC04C6010F91EC
:1010E000EF90DF90CF900895EF92FF920F931F93B0
:1010F000CF93DF938C01FC0101900020E9F7319739
:10110000E81BF90BEE0FFF1FCF0102960E94440A65
:101110007C01BC01F80101900020E9F73197E01B48
:10112000F10BEE0FFF1FEE5FDC01EC9383E0E701B4
:10113000898340E050E0F80101900020E9F7319701
:10114000E01BF10B980108C0D9018D919D01EB01C5
:10115000888319824F5F5F4F6E5F7F4F4E175F0727
:1011600098F3C7010E9421059927DF91CF911F9124
:101170000F91FF90EF900895EF92FF920F931F93BE
:10118000CF93DF938C017B01CA010E9474089C01FC
:10119000E0913802F091390214C0A081B1818281BE
:1011A000843061F4848199278017910739F486810E
:1011B00099278E159F0511F4ED0128870780F0858A
:1011C000E02D309751F7DF91CF911F910F91FF9054
:1011D000EF9008950F931F93CF93DF938C01CB0172
:1011E0000E9474089C01E0913802F09139020FC00E
:1011F000A081B1818281823039F4ED018D819927FE
:101200008017910709F42E830780F085E02D309731
:1012100079F7DF91CF911F910F9108950E94740883
:101220001816190614F48093520208950E94740847
:101230001816190614F48093510208950E94740838
:101240001816190614F48093500208951F9386E02F
:101250000E940D04992786FF03C00E9437030EC029
:1012600082FF03C00E94210209C081FF03C00E94C7
:10127000400204C084FF02C00E948D0287E00E94E9
:101280000D04182F60E087E00E942604612F87E09C
:101290000E9426041F9108950E94B8050E945905D6
:1012A0000E94D20061E080E00E94260480E00E945B
:1012B0000D0480FDFBCF62E081E00E9426046FEF09
:1012C0008FE00E94260460E18FE00E94260460E81F
:1012D00084E00E94260460E480E20E94260468E024
:1012E00083E20E94260469E087E20E9426046FE000
:1012F0008DE00E9426046FE08BE00E94260468E5E2
:1013000089E00E94260466ED87E00E94260462E0E0
:1013100085E00E9426046CEC80E00E94260408957B
:1013200080EC8BB988E98AB986E880BD10BC83E37C
:1013300089B98CB15F99FDCF0895089508950895F6
:101340008A3310F4805301C087556A3310F4605318
:1013500001C067558295807F6F70862B992708950D
:101360000895CF93DF93DC01EC01EC81FD812191A5
:1013700088859985019721F48A819B81E81BF90B67
:10138000ED01FD83EC83998788878D919C9111975E
:10139000019711969C938E93822F9927DF91CF917D
:1013A0000895FC01118210827783668375836483BC
:1013B0005383428353874287518740878FEF8487C7
:1013C0000895CF93DF93DC012D913C911197EC01AF
:1013D0008A819B81281739071CF080E090E01AC0B1
:1013E000ED01EE81FF8161938A859B85019721F450
:1013F0008A819B81E81BF90BED019B878A87FF831C
:10140000EE838D919C911197019611969C938E93EA
:1014100081E090E0DF91CF910895FC01808191817E
:10142000892BE1F3CF010E94B10999270895FC01AE
:1014300080819181892B19F42FEF30E005C0CF0115
:101440000E94B109282F3327C90108958BB7826004
:101450008BBF87E7A0E0B0E0082E0E94640BE0910C
:10146000D900F091DA0009950895AC0120E030E050
:10147000E0EAFFE005C0CF010197F1F72F5F3F4F92
:1014800024173507C4F30895CF93DF93AC01029777
:1014900010F442E050E0A0917602B0917702FD0195
:1014A000C0E0D0E020E030E020C08081918184174E
:1014B000950769F482819381209719F09B838A8331
:1014C00004C09093770280937602CF0132C0481710
:1014D000590738F42115310519F08217930708F4DC
:1014E0009C01EF010280F381E02D3097F1F6211588
:1014F000310589F1C901841B950B049708F4A901F2
:10150000E0E0F0E026C08D919C911197821793073F
:10151000E9F44817590779F4ED018A819B813097E6
:1015200019F09383828304C09093770280937602AC
:10153000CD01029649C0841B950BFD01E80FF91FF0
:101540004193519302978D939C933AC0FD01A281E0
:10155000B3811097C1F68091740290917502892B26
:1015600041F48091DD009091DE00909375028093AC
:1015700074022091DF003091E0002115310541F423
:101580002DB73EB78091DB009091DC00281B390B12
:10159000E0917402F09175022E1B3F0B2417350762
:1015A00088F0CA0102962817390760F0CF01840F2E
:1015B000951F029690937502809374024193519304
:1015C000CF0102C080E090E0DF91CF910895CF93EA
:1015D000DF93009709F44EC0EC0122971B821A8218
:1015E000A0917602B0917702109711F140E050E09F
:1015F00001C0DC01AC17BD0700F1BB83AA83FE016B
:1016000021913191E20FF31FEA17FB0771F42E5F6E
:101610003F4F8D919C911197820F931F99838883DF
:10162000FD01828193819B838A834115510559F481
:10163000D0937702C09376021DC0FD018281938111
:10164000AD010097B1F6FA01D383C28321913191A4
:10165000E20FF31FEC17FD0769F42E5F3F4F8881FF
:101660009981820F931FFA01918380838A819B81E4
:1016700093838283DF91CF91089597FB092E0726EC
:101680000AD077FD04D00CD006D000201AF4709553
:1016900061957F4F0895F6F7909581959F4F089536
:1016A000AA1BBB1B51E107C0AA1FBB1FA617B70788
:1016B00010F0A61BB70B881F991F5A95A9F78095A4
:1016C0009095BC01CD010895E199FECFBFBBAEBBA3
:1016D0000DBA11960FB6F894E29AE19A0FBE0895EA
:1016E000422E53617574657200426C696E6B2044C2
:1016F000656D6F00007374616C6C2068616E64735B
:1017000068616B652000747830206572726F720AB0
:1017100000616C74206576656E740D0A00726573E5
:1017200065740D0A007364330D0A00726573756D7C
:10173000650D0A00656F700D0A00656C73650D0A12
:10174000006E61636B206576656E740D0A007278B9
:10175000206576656E740D0A000070200078020026
:02176000000087
:00000001FF
