:100000000C945C000C94E2000C9479000C94790040
:100010000C9479000C9479000C9479000C9479007C
:100020000C9479000C9479000C9479000C9479006C
:100030000C9479000C9479000C9479000C9479005C
:100040000C9479000C9479000C9479000C9479004C
:100050000C9479000F400F100F040F012D042D0197
:100060002C402C102C042C011C401C101C041C01C6
:100070001B401B101A401A101901184018101804C0
:10008000164016101604160115401510150415011A
:100090001440141014041401134013102D402D109B
:1000A00018011740171017041701121010011E40F5
:1000B0001B01260125041D0111241FBECFE5D8E038
:1000C000DEBFCDBF11E0A0E6B0E0E0E4F6E302C0A1
:1000D00005900D92A630B107D9F712E0A6E0B1E085
:1000E00001C01D92A43DB107E1F70E947B000C9472
:1000F0001F1B0C940000CDE5D8E0DEBFCDBF0E94F1
:10010000450C0E94D60486E897E10E94210583E60B
:100110009CE00E94260587E090E00E942B0589E084
:10012000898384E08A83CE0101960E94BD0980E61E
:1001300090E00E94670A81E790E00E945F0A86E8EB
:1001400090E00E94570A0E9493094C0162E370E01C
:100150000E94390560E070E0C4010E94E2083C01A1
:1001600040E050E0BC01C4010E94640528EDA22ECD
:100170002BE0B22ECC24DD2490E4E92EF12C02E019
:1001800022E030E041E050E0B301C4010E94760873
:1001900085E5A82E8CE0B82E22E030E041E050E06A
:1001A000B301C4010E94AF080E94160178940E9416
:1001B000950AFFCFFC018181813009F008950E94EA
:1001C000640B08951F920F920FB60F9211242F9374
:1001D0003F934F935F936F937F938F939F93AF93CF
:1001E000BF93EF93FF930E946F0AFF91EF91BF912E
:1001F000AF919F918F917F916F915F914F913F91BF
:100200002F910F900FBE0F901F901895AC011816EC
:1002100019065CF420E030E080EA9FE00197F1F7F6
:100220002F5F3F4F24173507B9F7089585B78260D0
:1002300085BF8BB780648BBF88EF81BB82B3886337
:1002400082BB089582B398E1892782BB0000000039
:1002500082B3892782BB83B3992708959FEF94BB0C
:1002600085BB82B398E6892782BB82B3892782BB8C
:10027000000014BA0E9422019927089585BB82B319
:1002800098E2892782BB82B3892782BB08950895AB
:1002900085BB8FEF84BB82B398E6892782BB82B38C
:1002A000892782BB65BB82B398E2892782BB82B370
:1002B000892782BB089587E28093B30285E2809309
:1002C000B20290E29093B4021092B50228E030E0BE
:1002D0003093B7022093B60283E28093C10281E299
:1002E0008093C0029093C2021092C3023093C50261
:1002F0002093C402089508956091CF0281E20E9484
:100300004801089568E08BE20E94480162E188E2BA
:100310000E94480168E08FE20E94480162E18CE29D
:100320000E94480161E08FE20E94480165E083E29B
:100330000E94480108950F931F938C0160E480E2AE
:100340000E944801F8016281605884E00E944801DF
:10035000F80182818093CE021F910F9108950F932F
:100360001F93CF93DF93EC012A853B85121613066A
:100370000CF040C0888599858217930724F568E0C2
:1003800083E20E944801E885F9858A859B85E81704
:10039000F907CCF400E010E08C859D85E80FF91F8B
:1003A000608181E20E944801E885F9853196F987EC
:1003B000E8870F5F1F4F8A859B85083011058CF0F9
:1003C000E817F90724F061E087E20E9448018B8179
:1003D000813059F061E089810E94480181E08B837E
:1003E00009C0E817F907C4F2EBCF65E089810E94E4
:1003F00048011B82DF91CF911F910F910895CF93F8
:10040000DF93CDB7DEB724970FB6F894DEBF0FBEEB
:10041000CDBFDC01FC01228133811092C902109210
:10042000C80281E08093C302832F99278230E9F1CB
:10043000833009F1813009F069C080919E029927CB
:100440009093CB028093CA028EE992E09093CD0202
:100450008093CC02868197818830910509F451C040
:100460008034910509F052C088E090E09093CB026F
:100470008093CA024BC0222381F1E22FFF27EE0FA7
:10048000FF1F8091890290918A02E80FF91F019065
:10049000F081E02DF093CD02E093CC02808199278A
:1004A0009093CB028093CA0231C0FD01868197816F
:1004B0009093CB028093CA02E22FFF27EE0FFF1F1B
:1004C0008091B0029091B102E80FF91F8081918173
:1004D0009093CD028093CC0219C094E0998383E07D
:1004E0008A8389E08B839C8384E090E09093CB02A5
:1004F0008093CA02CE0101969093CD028093CC02E4
:1005000005C080E490E097838683AECF80EC92E0D4
:100510000E94AF0124960FB6F894DEBF0FBECDBF88
:10052000DF91CF910895CF93DF9382E20E942E0155
:10053000C82FDD27C5FF16C068E083E20E9448018E
:10054000C6FF15C02091C8023091C9028091CA022D
:100550009091CB022817390774F480EC92E00E9446
:10056000AF010DC08EE990E00E94470108C08DE800
:1005700090E00E94470161E087E20E944801DF911C
:10058000CF9108958AE00E942E01992780FD11C025
:1005900081FF08C08AE20E942E0180918B02813087
:1005A00059F0089582E30E942E018AE30E942E01F1
:1005B00008950E9493020895E0918E02F0918F02B7
:1005C000099508951F9388E00E942E01182F89EA4B
:1005D00090E00E944701812F992786FD10C084FD7D
:1005E00009C017FD29C083FD2FC086EC90E00E9452
:1005F00047012AC060EC89E00E94480125C060E004
:1006000085E00E94480160E884E00E94480160E0C3
:1006100080E20E94480168E083E20E94480161E0B4
:1006200087E20E94480162E085E00E94480185EB74
:1006300090E00E94470108C060E589E00E944801FF
:100640008DEB90E00E9447011F9108958EE00E947B
:100650002E018DEC90E00E9447010895CF92DF9229
:10066000EF92FF920F931F93CF93DF93CDB7DEB737
:1006700028970FB6F894DEBF0FBECDBF86E20E946A
:100680002E0186FD19C02091CA023091CB028091C3
:10069000C4029091C502821793070CF0A5C0109276
:1006A000CB021092CA0268E083E20E94480161E036
:1006B00087E20E94480198C06E010894C11CD11CB9
:1006C000860169E0E62EF12CEC0EFD1E8091B2024F
:1006D0000E942E01F80181938F01EE15FF05B1F7FD
:1006E00068E087E20E94480168E083E20E944801D6
:1006F00080E20E942E018F77682F80E20E944801DD
:100700002981822F9927807690708032910521F17E
:1007100080349105F1F0892B61F5F60181818630F5
:1007200009F446C0873078F58130D9F0813008F47B
:1007300049C08330B1F0853009F43FC080E20E94A7
:100740002E018058682F80E20E944801F601208126
:1007500008C0C6010E94DA0065E083E20E944801F9
:100760002981222309F040C065E083E20E9448010C
:100770003BC080E20E942E018058682F80E20E94D8
:1007800048012981EECF893071F08A3038F4883001
:10079000A9F6C6010E947C012981E3CF8A3009F3C2
:1007A0008B3061F6D9CFC6010E9482012981D9CF51
:1007B000C6010E94FF012981D4CFC6010E949B017E
:1007C0002981CFCF68E083E20E94480161E081E2A5
:1007D0000E94480160E081E20E94480165E083E2F6
:1007E0000E9448012981BDCF28960FB6F894DEBF3C
:1007F0000FBECDBFDF91CF911F910F91FF90EF9072
:10080000DF90CF900895CF92DF92EF92FF920F93F7
:100810001F93CF93DF93CDB7DEB7C054D0400FB650
:10082000F894DEBF0FBECDBF8CE00E942E01992749
:1008300080FD2FC081FD05C082FD4FC083FF82C0B7
:100840002BC08EE20E942E018DE20E942E01898330
:100850006E010894C11CD11C8601FFE3EF2EF12C20
:10086000EC0CFD1C0F5F1F4F0E942201F8018083DA
:100870000E151F05B9F780917E02813009F454C02E
:1008800068E08FE20E94480161E08FE20E94480127
:1008900059C00E942E0356C08EE30E942E016E01A5
:1008A0000894C11CD11C860171E4E72EF12CEC0EDA
:1008B000FD1E8DE30E942E01F80181938F01EE153C
:1008C000FF05B9F7809180028130E1F5E091810266
:1008D000F0918202C601099535C086E30E942E017F
:1008E00085E30E942E0189836E010894C11CD11CEE
:1008F0008601EFE3EE2EF12CEC0CFD1C0F5F1F4F79
:100900000E942201F80180830E151F05B9F780911E
:100910007F02813081F068E087E30E94480161E056
:1009200087E30E9448010EC0E0918102F0918202AB
:10093000C6010995A5CFE0918302F0918402C6011A
:100940000995E9CFC05CDF4F0FB6F894DEBF0FBE4C
:10095000CDBFDF91CF911F910F91FF90EF90DF906E
:10096000CF900895CF92DF92EF92FF920F931F9353
:10097000CF93DF936C017B018A01141615066CF48A
:10098000C0E0D0E0F701EC0FFD1F6081C6010E94BE
:10099000E90A2196C017D107A9F7DF91CF911F91DE
:1009A0000F91FF90EF90DF90CF90089582E18093B8
:1009B0009E0281E080939F0280E191E09093A102EA
:1009C0008093A0021092A2021092A3021092A4029D
:1009D00088E08093A5021092A7021092A6021092BE
:1009E000A9021092A8021092AB021092AA021092D1
:1009F000AC021092AD021092AE021092AF021092B1
:100A00007E0210927F021092800210928B0210924E
:100A10008C0210928D021092950210929402109204
:100A200088021092870208959093A7028093A602ED
:100A30007093A9026093A8025093AB024093AA025C
:100A400008959093A7028093A60208959093A90217
:100A50008093A80208959093AB028093AA02089510
:100A60008093A20208958093A30208958093A40224
:100A70000895CF93DF939C01E0919402F091950249
:100A80003097F9F077FD1AC07595679505C0078016
:100A9000F085E02D3097A9F0A081B181828182306C
:100AA000B1F7ED018D8199278217930781F7688748
:100AB0000780F085E02D309779F703C06F5F7F4F97
:100AC000E3CFDF91CF910895CF93DF939C01E09125
:100AD0009402F0919502309731F41BC00780F085A5
:100AE000E02D3097B1F0A081B18182818430B1F7DF
:100AF000848199278217930789F78681992786171A
:100B0000970761F7ED014B830780F085E02D309763
:100B100051F7DF91CF910895BF92CF92DF92EF927C
:100B2000FF920F931F93CF93DF936C01162FF42E38
:100B3000B22EC0919402D0919502209711F416C064
:100B4000EC018F8198850097D9F789E090E00E94A9
:100B50000E1AFC0198878F83D182C0821383F282A0
:100B6000B4820583E6821086178212C089E090E085
:100B70000E940E1AFC019093950280939402D182F8
:100B8000C082138310861782F282B4820583E682C4
:100B9000DF91CF911F910F91FF90EF90DF90CF9059
:100BA000BF900895CF92DF92EF92FF921F93CF9361
:100BB000DF936C01C0918702D09188022097E1F009
:100BC000EB81FC81309749F111E001C0FC011F5F0E
:100BD000838194810097D1F7E12EFF24EF0185E016
:100BE00090E00E940E1AFC019C838B83D182C0820C
:100BF00012831482138216C085E090E00E940E1AC0
:100C0000FC019093880280938702D182C082128275
:100C100014821382EE24FF2405C011E091E0E92E36
:100C2000F12CDDCFC701DF91CF911F91FF90EF90A5
:100C3000DF90CF900895EF92FF920F931F93CF9381
:100C4000DF93E0918702F09188020380F481E02D28
:100C5000309709F44DC080E090E001960380F48164
:100C6000E02D3097D1F70196880F991F0E940E1A38
:100C700090938A0280938902E0908702F090880224
:100C8000F701C081D1818281082F1127000F111F28
:100C90008091890290918A02080F191F88819927F3
:100CA0000E940E1AF801918380838881882319F1AC
:100CB00020E030E0F7018281E82FFF27EE0FFF1FD1
:100CC0008091890290918A02E80FF91F0190F081CA
:100CD000E02DE20FF31FDE01A20FB31F8C91808382
:100CE0002F5F3F4F88819927281739071CF303C0CE
:100CF00082E090E0BBCFF701E380F480E114F104DF
:100D000009F0BECFDF91CF911F910F91FF90EF902F
:100D100008952F923F924F925F926F927F928F929F
:100D20009F92AF92BF92CF92DF92EF92FF920F937A
:100D30001F93CF93DF93E0919402F0919502309747
:100D400009F461C100E010E005C00780F085E02DE6
:100D5000309751F082818230C1F70F5F1F4F0780BB
:100D6000F085E02D3097B1F73801660C771CC30190
:100D70000E940E1A9093B1028093B00210161106D1
:100D80000CF049C181E0C82ED12CAA24BB24180143
:100D90000894211C311CE0919402F0919502309747
:100DA00009F42BC12C2DA9E08A2E912C09C0ED014C
:100DB0008D81821799F00780F085E02D3097B9F08A
:100DC000A081B181848199278C159D0581F783814C
:100DD000880E911CED018D81821769F78281823026
:100DE00051F75D010780F085E02D309749F7C40188
:100DF0000091B0021091B10202501040060D171D73
:100E00000E940E1AF80191838083E091B002F09164
:100E1000B102E60DF71D32970190F081E02DD5016A
:100E20008C918083F1E0EF2EF12CE091B002F091F3
:100E3000B102E60DF71D32970190F081E02DEE0D25
:100E4000FF1DD701AA0DBB1D8C9180830894E11C66
:100E5000F11CB9E0EB16F10441F7E091B002F0911A
:100E6000B102E60DF71D32970190F081E02D882D3B
:100E7000875F82830894C11CD11CC214D30409F07B
:100E80008ACFE1E08E2E912C4424552472E0C72EA7
:100E9000D12C2091940230919502F9012115310550
:100EA00031F413C00780F085E02D309771F0A081F8
:100EB000B181ED0189818230A9F78D81992788154B
:100EC000990581F78C81482E55244114510409F469
:100ED00088C001E010E032010894611C711CE90136
:100EE000232B39F474C00F80D885C02D209709F4C6
:100EF0006EC048815981FA0181818430A1F78E81C9
:100F000099278017910779F78C819927881599057A
:100F100051F7970160E070E0E091B002F091B1020A
:100F2000EC0DFD1D32970190F081E02DE20FF31FD3
:100F3000DB01A40FB51F8C9180832F5F3F4F6F5F44
:100F40007F4F6930710541F789E090E0E80EF91EA6
:100F500020919402309195022115310541F4C3CFBF
:100F6000F901278130852115310509F4BCCFF9013C
:100F700082818530A9F7848199278815990581F7A1
:100F8000858199278017910759F7A080B180A70123
:100F900060E070E0E091B002F091B102EC0DFD1D57
:100FA00032970190F081E02DE40FF51FD501A60FD7
:100FB000B71F8C9180834F5F5F4F6F5F7F4F6730AC
:100FC000710541F787E090E0E80EF91EC9CF0F5F89
:100FD0001F4F0615170529F02091940230919502B4
:100FE0007ECF0894811C911C82E090E0C80ED91E2F
:100FF0002814390409F04DCF0EC0B9E08B2E912C86
:1010000089E090E0F5CE80E090E00E940E1A909387
:10101000B1028093B002DF91CF911F910F91FF90A9
:10102000EF90DF90CF90BF90AF909F908F907F9088
:101030006F905F904F903F902F9008956F927F92A6
:101040008F929F92AF92BF92CF92DF92EF92FF92D8
:101050000F93CF93DF933C015B014901E091940230
:10106000F0919502309731F41DC00780F085E02D96
:101070003097C1F0A081B1818481992786159705A9
:10108000A1F7868199278A159B0579F7828184309B
:1010900061F7ED018C818F5F8C830780F085E02DF7
:1010A000309741F787E090E00E940E1AFC0187E03C
:1010B000808385E0818382820383F582E482C68215
:1010C000EE240A2D262D45E067E0CF010E948C0515
:1010D000DF91CF910F91FF90EF90DF90CF90BF9075
:1010E000AF909F908F907F906F900895AF92BF9236
:1010F000CF92DF92EF92FF920F93FC01A114B10403
:1011000009F142305105B9F04330510521F0413029
:101110005105C1F408C081E080938D02B092930222
:10112000A09292020FC081E080938B02B0928F0256
:10113000A0928E0207C081E080938C02B09291024F
:10114000A092900220583F4FCF010E941E080F919D
:10115000FF90EF90DF90CF90BF90AF900895AF9247
:10116000BF92CF92DF92EF92FF920F93FC01423039
:101170005105B1F04330510559F041305105B9F4F2
:1011800081E080937E02B0928202A09281020FC021
:1011900081E080938002B0928602A092850207C00F
:1011A00081E080937F02B0928402A0928302CF01FB
:1011B0000E941E080F91FF90EF90DF90CF90BF909C
:1011C000AF900895AF92BF92CF92DF92EF920F93BC
:1011D0001F93CF93DF935C018B01E0919402F09118
:1011E00095023097F1F0982FCC24DD2405C00780BC
:1011F000F085E02D309799F0A081B181ED018D81CE
:101200009817A9F78281823091F78C818F5F8C8348
:10121000C82EDD240780F085E02D309769F7EC2C8F
:1012200003C0CC24DD24EE2489E090E00E940E1A55
:10123000FC0189E0808384E081830283138214822D
:10124000158216821782108600E02A2D44E069E09C
:10125000CF010E948C05C601DF91CF911F910F91A4
:10126000EF90DF90CF90BF90AF9008958F929F92B4
:10127000AF92BF92CF92DF92EF92FF920F931F93A4
:10128000CF93DF934C017B01B42EA22EE091940208
:10129000F09195023097F1F0982FCC24DD2405C011
:1012A0000780F085E02D309799F0A081B181ED01A4
:1012B0008D819817A9F78281823091F78C818F5F99
:1012C0008C83C82EDD240780F085E02D309769F7E8
:1012D0001C2D03C0CC24DD2410E089E090E00E94A6
:1012E0000E1AFC0189E0808384E08183E28213820C
:1012F0001482B582A68207831086E12E00E0282D95
:1013000044E069E0CF010E948C05C601DF91CF91D6
:101310001F910F91FF90EF90DF90CF90BF90AF9013
:101320009F908F900895EF920F931F931091AF02AB
:101330001F5F1093AF0289E090E00E940E1AFC013B
:1013400089E0808389E090E09383828382E08183D7
:1013500014821583168280EA87838AE18087EE24CF
:1013600000E020E042E069E0CF010E948C05812F7F
:1013700099271F910F91EF900895CF93DF93EC0180
:10138000FC0101900020E9F7E81BF90BCF01880F61
:10139000991F0E940E1AAC01FE0101900020E9F78E
:1013A000EC1BFD0BEE0FFF1FDC01EC9383E0FA0159
:1013B000818320E030E009C0FE01E20FF31F80814D
:1013C0008C93FD0111822F5F3F4F1296FE01019019
:1013D0000020E9F73197EC1BFD0B2E173F0760F358
:1013E000CA010E94D2059927DF91CF910895EF920B
:1013F000FF920F931F93CF93DF937C018B01CA0160
:101400000E94BD099C01E0919402F09195023097F1
:1014100031F41BC00780F085E02D3097B1F0A0813A
:10142000B18182818430B1F7848199278E159F051F
:1014300089F7868199278017910761F7ED01288741
:101440000780F085E02D309751F7DF91CF911F9104
:101450000F91FF90EF9008950F931F93CF93DF9319
:101460008C01CB010E94BD099C01E0919402F09196
:101470009502309731F416C00780F085E02D309743
:1014800089F0A081B18182818230B1F7ED018D8137
:1014900099278017910781F72E830780F085E02D2B
:1014A000309779F7DF91CF911F910F9108950E94A6
:1014B000BD091816190614F48093AE0208950E940F
:1014C000BD091816190614F48093AD0208950E9400
:1014D000BD091816190614F48093AC0208951F93E1
:1014E00086E00E942E01992786FD0CC082FD07C070
:1014F00081FD0BC084FF0BC00E94260308C00E9420
:10150000C20205C00E94030402C00E94E20287E0FA
:101510000E942E01182F60E087E00E944801612F91
:1015200087E00E9448011F9108950E9489060E9449
:101530001B060E945B0161E080E00E94480180E0A0
:101540000E942E0180FDFBCF62E081E00E944801F5
:101550006FEF8FE00E94480160E18FE00E94480138
:1015600060E884E00E94480160E480E20E94480153
:1015700068E083E20E94480169E087E20E94480136
:101580006FE08DE00E9448016FE08BE00E9448010F
:1015900068E589E00E94480166ED87E00E94480105
:1015A00062E085E00E9448016CEC80E00E94480106
:1015B0000895FC01118210827783668375836483AA
:1015C0005383428353874287518740878FEF8487B5
:1015D0000895CF93DF93DC012D913C911197EC019D
:1015E0008A819B8128173907E4F4ED01EE81FF81A0
:1015F00061938A859B85019779F0ED019B878A87A6
:10160000FF83EE838D919C911197019611969C9387
:101610008E9381E090E007C08A819B81E81BF90BE3
:10162000ECCF80E090E0DF91CF910895CF93DF93EE
:10163000DC018D919C911197892BE1F0ED01EC81FA
:10164000FD81219188859985019779F0ED01FD83D0
:10165000EC83998788878D919C91119701971196BA
:101660009C938E93822F992707C08A819B81E81BC8
:10167000F90BECCF8FEF90E0DF91CF910895CF93EE
:10168000DF93DC018D919C911197892BD9F3ED01AA
:10169000EC81FD81219188859985019721F48A81CA
:1016A0009B81E81BF90BED01FD83EC83998788870B
:1016B0008D919C911197019711969C938E93822FF7
:1016C0009927DF91CF9108958FEF20E030E0D90185
:1016D000082E0E94131BD9010E940B1B802D8F3FE7
:1016E000D1F78BB782608BBFE091DA00F091DB001D
:1016F00009950895FA018083618313821282089507
:101700000F931F93CF93DF938C0181349105A0F148
:1017100080910601882309F041C0109208011092BF
:10172000070110930A010093090181E080930601EB
:1017300068E08BE20E94480100E410E0C0E0D0E0E5
:10174000E0910701F0910801EC0FFD1FE45FFE4FEF
:10175000608189E20E9448012196C017D10780F379
:1017600080910B01882399F463E08BE20E94480189
:1017700081E080930B0117C068E08BE20E94480172
:1017800001151105D9F680910B01882369F367E0F3
:101790008BE20E94480110920B0105C068E08BE2C9
:1017A0000E944801CBCFDF91CF911F910F910895F7
:1017B000809106018823F9F02091070130910801FA
:1017C0008091090190910A0128173907A0F4821B22
:1017D000930B205C3F4F3093080120930701813425
:1017E000910528F080E490E00E94800B08950E940B
:1017F000800B1092060108950E94B50E0E94B10D53
:101800000E94B8100895CF93DF93FC01EB01808113
:10181000228133811982813081F0813038F0823029
:1018200099F0AB0161E00E947A0B2CC0232BB1F040
:1018300083E089831B821A8225C0232BC9F083E0B1
:1018400089831B821A821EC021303105A9F0E091E4
:10185000DC00F091DD0083E0818314C0198281E017
:1018600090E09D838C8382E090E09B838A830AC012
:101870000E94FC0B1982E5CF8481882311F4DC9847
:1018800001C0DC9ADF91CF91089510920B01109264
:10189000060110920A01109209011092080110929B
:1018A0000701D49A0E94FC0B0895CF93DF93FC01AB
:1018B000C091DC00D091DD008081888319821B8279
:1018C0001A828081282F3327207F30702033310502
:1018D00009F457C021333105D4F02035310509F41E
:1018E00055C021353105B4F12036310509F444C025
:1018F0002037310591F5BE01CF010E943F0F4A818B
:101900005B819A0181E04C335807A0F044C020313C
:10191000310569F12032310529F1232BF1F4BE01A3
:10192000CF010E94030C4A815B819A0181E04C3314
:10193000580788F54C5F5F4FFE01E40FF51F4450D8
:1019400050408AEA81932F5F3F4F81E02C33380764
:10195000C1F721C020343105A1F0AE0161E00E9441
:101960007A0BE1CFBE01CF010E94B40DDCCFBE01E6
:10197000CF010E94D20CD7CFBE01CF010E94390FF8
:10198000D2CFBE01CF010E94B60ECDCFBE01CF0196
:101990000E94320FC8CFCA0104960E94800BDF91CB
:1019A000CF9108959F92AF92BF92CF92DF92EF9224
:1019B000FF920F931F93CF93DF93EC018B018881EC
:1019C0002A813B81FB011182823109F478C0833185
:1019D00058F0833109F460C08431A9F0A80161E0B6
:1019E00088810E947A0BB1C0803109F45EC08131D8
:1019F000A9F72230310509F48AC083E0F801818318
:101A000013821282A2C0CC80DD80BE8044E0942E7E
:101A10009B2092E0A92EAB2040E050E0C6018770E9
:101A20009070892B11F041E050E07601F694E79434
:101A3000F694E794F694E794E40EF51E992009F0E5
:101A40004AC0AA2009F44DC0C70103968217930724
:101A5000A1F60E941811823011F08A3001F5AA20F7
:101A600009F070C080E090E02B2D2170992009F4DE
:101A70005AC0B801695F7F4FA6010E9401128C8194
:101A8000F80184838D8185838E818683C7010396C7
:101A9000F8019383828359C02230310541F185E0FA
:101AA000F80181831382128250C02130310559F12F
:101AB00083E0FB018183F8011382128246C0232B4D
:101AC00009F09BCF0E941811F801848381E090E017
:101AD000938382833AC0AA2009F0B6CF83E090E0D6
:101AE000B5CF84E0F8018183138212822EC06D810C
:101AF0008C810E946B11882379F0813081F085E020
:101B0000F8018183D8CF8C810E947412D4CF8C814C
:101B10009D810E94A312D6CFF8011182D3CF84E019
:101B2000F8018183C8CFA60160E070E00E94011235
:101B30008C81F80184838D8185838E81868383E007
:101B400090E0A6CFCE0107968FCFDF91CF911F9166
:101B50000F91FF90EF90DF90CF90BF90AF909F904C
:101B600008950E949D1208959F92AF92BF92CF92C6
:101B7000DF92EF92FF920F931F93CF93DF93CDB736
:101B8000DEB722970FB6F894DEBF0FBECDBF8C0133
:101B90007B01FC012081C280D380DA82C982FB01F3
:101BA0001182243268F42232A0F0F2E0CF16D10480
:101BB00009F46DC083E0F701818313821282C0C0F3
:101BC000243291F1A70161E0F80180810E947A0B33
:101BD000B7C0203279F12132A9F7FC014481558147
:101BE000868194E0992E9822682F627020E030E080
:101BF000CA0187709070892B11F021E030E05A0102
:101C0000B694A794B694A794B694A794A20EB31EC4
:101C1000992009F07AC0662309F051C084E0F701E9
:101C20008183138212828CC082E0FB018183138244
:101C3000128286C0FC01A480B580F2E0AF16B10428
:101C400068F395013695279536952795369527950E
:101C50002E5F3F4F40E050E0C50187709070892BA8
:101C600011F041E050E0240F351FC216D30609F0F1
:101C7000A1CFB501C80106960E94F112882309F090
:101C80004FC0F701B582A482D382C28259C0FC0141
:101C9000848195819A8389832232E1F1BE016F5F4D
:101CA0007F4F0E94CB128823D9F589819A81F70151
:101CB0009583848382E090E09383828341C0C50151
:101CC00003968C159D0509F075CF662399F580E084
:101CD00090E0992059F560E070E00E94231388237A
:101CE000F9F4F8018481F7018483F8018581F70113
:101CF0008583F8018681F70186839920F1F483E0DA
:101D000090E0F701938382831BC06623C1F683E0D2
:101D100090E0D7CFBE016F5F7F4F0E94D311C3CF3A
:101D200085E0F7018183138212820AC0B701695FDF
:101D30007F4FD3CFC8010796CCCFC5010396E1CF23
:101D400022960FB6F894DEBF0FBECDBFDF91CF91C4
:101D50001F910F91FF90EF90DF90CF90BF90AF90C9
:101D60009F9008950E949D12089508950F931F93C8
:101D7000CF93DF93CDB7DEB724970FB6F894DEBFCD
:101D80000FBECDBFDC018B018C91FD01228133811F
:101D9000FB011182138212828533C1F08633D0F0A9
:101DA0008833A1F0893350F4863311F1873371F011
:101DB000A80161E08C910E947A0B48C08A3331F00F
:101DC0008A3320F08B3311F0803490F782E0F801F1
:101DD00081833CC08233D1F3833328F08333D1F045
:101DE000843331F7F3CF803351F0813309F7EECFED
:101DF0002130310529F183E0F801818327C0232BAD
:101E0000D1F78FE10E949F13882301F185E0F8014B
:101E100081831CC0232B79F7CE0101960E94AA145E
:101E20008823A1F784E090E0F8019383828389817D
:101E30009A81AB81BC8184839583A683B78306C0D6
:101E4000FD0184810E946B13882301F724960FB64D
:101E5000F894DEBF0FBECDBFDF91CF911F910F91E0
:101E600008950895FB0182E0818313821282089510
:101E70000895FB0182E081831382128208954F92BC
:101E80005F926F927F928F929F92AF92BF92CF920A
:101E9000DF92EF92FF920F931F93CF93DF93CDB713
:101EA000DEB726970FB6F894DEBF0FBECDBF6C012C
:101EB0005B01DC012C91FC0102811381FB01118289
:101EC000233709F44BC0243790F0253709F446C076
:101ED000253718F1263709F4A5C0273709F478C04B
:101EE000A50161E0D6018C910E947A0B2AC12137AD
:101EF000F1F0223730F082E0FB01818313821282FD
:101F000020C1203769F7012B09F40CC183E0FB01E4
:101F10008183F5011382128214C10830110509F47E
:101F2000C4C083E0F5018183138212820AC1012BB0
:101F3000C1F7CE0103960E94CC19882309F0FCC09A
:101F40008B819C81AD81BE81F50184839583A683BD
:101F5000B78384E090E093838283F3C0F6014480EA
:101F60005580C201880F991F880F991F0296081784
:101F70001907B9F6F501138212824114510409F4CC
:101F8000E0C0662477248824992414C0C801B701CE
:101F90000E940F19882309F0B9C00894611C711CB4
:101FA00084E090E0880E991E6414750409F4C9C099
:101FB000D6012C91F401EC0DFD1DE680F780008523
:101FC0001185233719F7C801B7010E944919E2CFDB
:101FD0000630110509F0A5CFFC01048115810C39EB
:101FE000110510F00BE910E0F601C680D780E084FF
:101FF000F1849501265F3F4FA801C701B6010E94F9
:10200000C417882309F098C0F50115830483C6829C
:10201000D782E086F186000F111F0A5F1F4F1383DE
:1020200002838FC0FC0166807780808491848481E4
:102030009581880F991F06960817190709F071CF27
:10204000FB011382128280E00E942B1907301105D8
:1020500008F477C096E0E92EF12C10C082E090E001
:10206000E80EF91EE016F10608F06BC082E090E081
:10207000A0E0B0E0680E791E8A1E9B1EF701EC0DF1
:10208000FD1D44815581C401B3010E94E0188823DD
:1020900029F385E0F501818384E090E093838283D6
:1020A00064827582868297824CC0FC01E480F58050
:1020B000068117816084718482849384FB0113827A
:1020C0001282E614F70408051905D8F520E06E0120
:1020D0000894C11CD11C13C089819A818F5F9F4FC6
:1020E000A9F482E090E0A0E0B0E0E80EF91E0A1F3B
:1020F0001B1F21E0E614F7040805190510F5A601D9
:10210000C801B7010E945B18882331F385E0F5010F
:10211000818384E090E093838283E482F582068366
:1021200017830FC080E00E942B19882309F4F1CE99
:1021300085E0F5018183EDCE85E0F5018183138291
:10214000128226960FB6F894DEBF0FBECDBFDF9188
:10215000CF911F910F91FF90EF90DF90CF90BF90A4
:10216000AF909F908F907F906F905F904F90089569
:102170000E94A41808958FEB87BB89E180934C02DD
:1021800088BB0895882331F080914C028160809350
:102190004C02089580914C028E7F80934C020895EA
:1021A000882331F080914C02806280934C02089524
:1021B00080914C028F7D80934C02089580914C0257
:1021C00088BB089580914C02806888BB08951F9356
:1021D000162F0E94C210812F0E94D0100E94DE1084
:1021E0000E94E21086B39927807490701F91089521
:1021F000882331F080914C02886080934C0205C0A6
:1022000080914C02877F80934C020E94DE100895DB
:10221000882331F080914C02806180934C0205C08C
:1022200080914C028F7E80934C020E94DE100895B4
:102230008091DE0099270895CF92DF92EF92FF926E
:102240000F931F93CF93DF937C016B010297895FFC
:102250009F4F18F081E090E035C080E00E94C210EE
:1022600080E00E94D01087010F5F1F4F19F1C0E07E
:10227000D0E00E94DE100E94E21021960C171D078C
:10228000C1F781E00E94D010C0E0D0E004C02196E8
:102290000C171D0731F00E94DE100E94E210B69B61
:1022A000F6CFF601D183C083EC16FD0648F485E035
:1022B00090E008C081E00E94D010F60111821082E7
:1022C00080E090E0DF91CF911F910F91FF90EF9010
:1022D000DF90CF900895DF92EF92FF920F931F93BC
:1022E000D82EE62E88E0861780F18091DE008031BE
:1022F00018F082E090E02BC080E00E94D010EE2029
:1023000009F1FF2401E0102F1D21812F0E94C2102E
:102310000E94DE100E94E21080E090E0112311F094
:1023200081E090E0E091DE00FF27EE0FFF1FE80F55
:10233000F91FE152FF4F80818093DE00F394000F7C
:10234000FE1409F780E090E002C081E090E01F9168
:102350000F91FF90EF90DF9008951F93182F8091B9
:10236000DE00803118F082E090E01BC0812F0E94D7
:10237000C2100E94DE100E94E21080E090E0112363
:1023800011F081E090E0E091DE00FF27EE0FFF1FEB
:10239000E80FF91FE152FF4F80818093DE0080E05B
:1023A00090E01F9108950F931F93CF93DF938C01BB
:1023B000EB018091DE008C3019F082E090E01CC0CF
:1023C00081E00E94AD1181E00E94AD1180E00E9489
:1023D000AD1180E00E94AD11BE01C8010E941C1128
:1023E000182F81E00E94AD1181E00E94AD1180E0C4
:1023F0000E94AD11812F9927DF91CF911F910F91ED
:1024000008957F928F929F92AF92BF92CF92DF9268
:10241000EF92FF920F931F93CF93DF934C015B01D9
:10242000EA01722E80E00E94C210209709F44EC08B
:10243000FF24F39401E010E0CC24DD24EE2481E0BD
:10244000F81679F18E2D8F210E94D0100C171D07E0
:10245000B1F10E94DE100E94E210B69B1EC0EF2870
:1024600080E8F81651F00C171D0739F0FF0C0F5FCC
:102470001F4FC017D10718F729C0A114B10421F0CC
:10248000F501EC0DFD1DE0820894C11CD11C80E813
:10249000F81661F7FF24F394EACF8F2D8095E82298
:1024A000DFCF8114910479F0F401EC0DFD1DE08083
:1024B0008E2D81700E94D0100C171D0751F6872DAC
:1024C0000E94AD11CACFEE2480E0BECFDF91CF9144
:1024D0001F910F91FF90EF90DF90CF90BF90AF9042
:1024E0009F908F907F9008950E94081108950F93F8
:1024F0001F938C0180E00E940811C8010E94060110
:1025000081E00E94081181E090E00E9406011F9185
:102510000F9108950F931F938C0180E00E94F81093
:10252000C8010E94060181E00E94F81081E090E05D
:102530000E9406011F910F9108950E94BB1080EF29
:102540008093DE0008951F93CF93DF93EC010E94E8
:102550009D121C161D061CF4CE010E948A1281E0F9
:102560000E94C2100E94DE100E94E21011E00E9440
:10257000DE100E94E2101F5F1630C9F78FE08093D3
:10258000DE0080E00E94AD1180E00E94AD11DF917D
:10259000CF911F9108950F931F93CF93DF938C01D9
:1025A000EB018091DE008C3019F082E090E014C0E5
:1025B00081E00E94AD1180E00E94AD1180E00E9498
:1025C000AD11BE01C8010E941C11182F84E190E0DA
:1025D0000E94A312812F9927DF91CF911F910F9114
:1025E00008950F931F93CF93DF938C01EB0162301B
:1025F000710510F18091DE008C3019F082E090E0DE
:102600001DC081E00E94AD1181E00E94AD1180E00B
:102610000E94AD1180E00E94AD1121E0AE01B80131
:10262000C8010E94011281E00E94AD1180E00E9469
:10263000AD1180E090E002C081E090E0DF91CF91A9
:102640001F910F910895EF92FF920F931F93CF93D5
:10265000DF938C017B01EA01452B59F0892B39F07E
:102660008091DE008C3041F082E090E01CC0672B4E
:10267000B9F781E090E017C081E00E94AD1180E0E1
:102680000E94AD1180E00E94AD1121E0AE01B701C2
:10269000C8010E94011281E00E94AD1180E00E94F9
:1026A000AD1180E090E0DF91CF911F910F91FF90ED
:1026B000EF9008958FEF8093FF0008956E7F9F70D5
:1026C0006E537042884E914019F08FEF90E008955C
:1026D00081E090E00895FF920F931F93CF93DF93D3
:1026E000CDB7DEB721970FB6F894DEBF0FBECDBFD2
:1026F000F82E8CE0898365E070E08E010F5F1F4F3C
:10270000C8010E94F112882319F08AE090E00BC002
:10271000F98245E050E0B801C8010E9423138823E4
:10272000A1F780E090E021960FB6F894DEBF0FBECF
:10273000CDBFDF91CF911F910F91FF900895CF935F
:10274000DF93CDB7DEB721970FB6F894DEBF0FBE8B
:10275000CDBF89830E9418118C30E1F465E070E0F0
:10276000CE0101960E94F1128823D1F48981282F8D
:102770003327C90183709070019779F422FD13C04B
:1027800023FD05C024FF12C088E090E011C087E05F
:1027900090E00EC082E090E00BC085E090E008C0C1
:1027A00083E090E005C086E090E002C080E090E029
:1027B00021960FB6F894DEBF0FBECDBFDF91CF914B
:1027C0000895FF920F931F93CF93DF93EC018B013A
:1027D000F42E892BC9F0FF20E1F044E851E0B80164
:1027E000CE010E942313882361F4FF2019F080E0BA
:1027F00090E015C083E00E949F138823C1F39927BE
:102800000EC084E090E00BC0672B29F781E090E0D8
:1028100006C082E00E949F138823F9F29927DF9176
:10282000CF911F910F91FF900895AF92BF92CF92D9
:10283000DF92EF92FF920F931F93CF93DF93CDB769
:10284000DEB725970FB6F894DEBF0FBECDBFA82E1A
:10285000B62E680156954795379527955695479515
:10286000379527952A833B834C835D8381E10E94C2
:102870009F13882311F099275CC0198281E10E947F
:102880009F138823C1F71982AA2009F04FC063E083
:1028900081E00E946B1120E041E050E060E070E0D8
:1028A0008E010F5F1F4FC8010E94011220E04EE110
:1028B00050E060E070E0CE0102960E940112B98201
:1028C00021E044E050E060E070E0C8010E940112A5
:1028D00064E083E00E946B11AA20B9F420E043E099
:1028E00050E0B70180E090E00E94011221E040E258
:1028F00050E060E070E0C6010E94011262E081E0F9
:102900000E946B1180E090E014C020E040E250E0B3
:10291000B60180E090E00E94011221E043E050E027
:10292000B70180E090E00E940112E8CF81E0898346
:10293000AECF25960FB6F894DEBF0FBECDBFDF91A8
:10294000CF911F910F91FF90EF90DF90CF90BF90AC
:10295000AF900895CF93DF93EC0181E00E949F1325
:10296000882391F440E250E0BE0180E090E00E94B4
:102970002313882331F4888180FD08C089E090E02A
:1029800007C084E090E004C0992702C080E090E096
:10299000DF91CF910895FC01E60FF11D808187231F
:1029A00019F0872F9927089580E090E00895372F38
:1029B000FC01E60FF11D222351F09081972B9083AB
:1029C000632F660F442361F0962B90830895972F11
:1029D0009095808198239083632F660F4423A1F7FD
:1029E0006095962390830895CF93DF93CDB7DEB79C
:1029F00022970FB6F894DEBF0FBECDBF242F6330F1
:102A000068F4E62FFF27EE0FFF1FEE54FF4F65918E
:102A100074917A83698340E00E94D71422960FB69E
:102A2000F894DEBF0FBECDBFDF91CF910895CF9355
:102A3000DF93CDB7DEB722970FB6F894DEBF0FBE97
:102A4000CDBF20EB30E0F901459154915A83498381
:102A5000BA010E94CB14992722960FB6F894DEBFD4
:102A60000FBECDBFDF91CF9108958F929F92BF92FD
:102A7000CF92DF92EF92FF920F931F93CF93DF934A
:102A8000CDB7DEB722970FB6F894DEBF0FBECDBF2D
:102A90006C01B62E4E010894811C911C0AEA10E0CC
:102AA000F801659174917A83698320E0B11021E087
:102AB00040E0C6010E94D7140E5F1F4F41E0E42E94
:102AC000F12CF80185919491F4019183808320E0A9
:102AD000BE1021E069817A8140E0C6010E94D714CE
:102AE0000894E11CF11C0E5F1F4FF3E0EF16F10498
:102AF00041F722960FB6F894DEBF0FBECDBFDF912F
:102B0000CF911F910F91FF90EF90DF90CF90BF90EA
:102B10009F908F9008954F925F926F927F928F92C5
:102B20009F92AF92BF92CF92DF92EF92FF920F935C
:102B30001F93CF93DF93CDB7DEB722970FB6F894EC
:102B4000DEBF0FBECDBF3C014A015B012E010894E0
:102B5000411C511C0CE710E061E0C62ED12CE12C89
:102B6000F12CF80185919491F2019183808320E00A
:102B7000D701C60188219921AA21BB210097A1056F
:102B8000B10509F021E069817A8140E0C3010E942A
:102B9000D714CC0CDD1CEE1CFF1C0E5F1F4FF0E0A9
:102BA0000A3A1F07F1F622960FB6F894DEBF0FBE61
:102BB000CDBFDF91CF911F910F91FF90EF90DF90EC
:102BC000CF90BF90AF909F908F907F906F905F90CD
:102BD0004F9008958F929F92AF92BF92CF92DF92C3
:102BE000EF92FF920F931F93CF93DF93CDB7DEB792
:102BF00022970FB6F894DEBF0FBECDBF5C016B010C
:102C00004E010894811C911C0CE510E0E1E0EE2ED1
:102C1000F12CF80185919491F4019183808320E057
:102C2000C7018C219D21892B09F021E069817A81DE
:102C300040E0C5010E94D714EE0CFF1C0E5F1F4F31
:102C4000F0E00C371F0729F722960FB6F894DEBF85
:102C50000FBECDBFDF91CF911F910F91FF90EF90ED
:102C6000DF90CF90BF90AF909F908F900895CF92BC
:102C7000DF92EF92FF920F931F93CF93DF93CDB725
:102C8000DEB722970FB6F894DEBF0FBECDBF7C0132
:102C90006E010894C11CD11C0CE510E0F80185916F
:102CA0009491F6019183808369817A8121E041E0EA
:102CB000C7010E94D7140E5F1F4FF0E00C371F07AB
:102CC00069F722960FB6F894DEBF0FBECDBFDF9135
:102CD000CF911F910F91FF90EF90DF90CF900895CB
:102CE0008F929F92AF92BF92CF92DF92EF92FF921C
:102CF0000F931F93CF93DF93CDB7DEB722970FB615
:102D0000F894DEBF0FBECDBF5C014E010894811C5C
:102D1000911C0CE510E0A1E0EA2EF12CCC24DD247E
:102D200002C0EE0CFF1CF80185919491F40191838F
:102D3000808369817A81C5010E94CB14882311F0B8
:102D4000CE28DF280E5F1F4FF0E00C371F0749F732
:102D5000C60122960FB6F894DEBF0FBECDBFDF913D
:102D6000CF911F910F91FF90EF90DF90CF90BF9088
:102D7000AF909F908F900895CF93DF93CDB7DEB73C
:102D800022970FB6F894DEBF0FBECDBF262F46E5C3
:102D900050E0FA01659174917A83698340E00E9462
:102DA000D71422960FB6F894DEBF0FBECDBFDF91C9
:102DB000CF910895CF93DF93CDB7DEB722970FB6AB
:102DC000F894DEBF0FBECDBF262F44E550E0FA01D8
:102DD000659174917A83698340E00E94D7142296AA
:102DE0000FB6F894DEBF0FBECDBFDF91CF9108952F
:102DF000CF92DF92EF92FF920F931F93CF93DF93C7
:102E0000CDB7DEB722970FB6F894DEBF0FBECDBFA9
:102E10008C016E010894C11CD11C8FEFF8018083D6
:102E200021E030E0F801E20FF31F8FEF80832F5F86
:102E30003F4F21333105B1F740E050E060E070E0F2
:102E4000C8010E948B1561E0C8010E94DA16EE24C9
:102E5000FF24F701E655FF4F85919491F601918388
:102E6000808369817A8121E040E0C8010E94D71403
:102E7000F701EA5AFF4F85919491F601918380837F
:102E800069817A8121E040E0C8010E94D714F701EE
:102E9000EE54FF4F85919491F6019183808369816F
:102EA0007A8121E040E0C8010E94D71482E090E0DE
:102EB000E80EF91E96E0E916F10409F0CACF229651
:102EC0000FB6F894DEBF0FBECDBFDF91CF911F913B
:102ED0000F91FF90EF90DF90CF9008958DE492E0F6
:102EE0000E94171599270895462F682F8DE492E0C8
:102EF0000E94F4140895FF920F931F938A01F22EFB
:102F00006E7FAB01BC018DE492E00E948B15B8018D
:102F10008DE492E00E94EA1560E08DE492E00E9468
:102F2000351560E08DE492E00E94BC164F2D60E004
:102F300070E08DE492E00E94E113882319F083E0B1
:102F400090E01EC063E08DE492E00E94351561E0E0
:102F50008DE492E00E94DA1661E08DE492E00E9436
:102F6000BC168DE492E00E94371641E060E070E00C
:102F70008DE492E00E94E113882309F780E090E05D
:102F80001F910F91FF9008958F929F92AF92BF92E1
:102F9000CF92DF92EF92FF920F931F93CF93DF9325
:102FA0004A01E901452B09F477C02EEFE22E2FEFFD
:102FB000F22E2FEF022F2FEF122FE622F7220823F7
:102FC0001923B801A7018DE492E00E948B158DE4CE
:102FD00092E00E94371660E08DE492E00E94351581
:102FE00060E08DE492E00E94DA1640E060E070E07C
:102FF0008DE492E00E94E113882361F581E0881658
:10300000910459F15E0182E0C82ED12CCDE4D2E0CA
:103010000DC0CE010E947016D5018D939D935D0168
:10302000C814D904D9F00894C11CD11C82E090E0E6
:10303000A0E0B0E0E80EF91E0A1F1B1FB801A701AF
:10304000CE010E948B1541E0BE01CE010E94E1132A
:103050008823F9F283E090E021C05E0163E08DE413
:1030600092E00E94351561E08DE492E00E94DA164C
:1030700061E08DE492E00E94BC1641E06DE472E0F4
:10308000CB010E94E113882329F78DE492E00E948E
:103090007016F5019183808380E090E0DF91CF91FD
:1030A0001F910F91FF90EF90DF90CF90BF90AF9066
:1030B0009F908F9008951F93CF93DF93EA01122F73
:1030C0006E7FAB01BC018DE492E00E948B158DE414
:1030D00092E00E94371660E08DE492E00E94351580
:1030E00060E08DE492E00E94DA16412F60E070E02B
:1030F0008DE492E00E94E1138823B9F463E08DE44B
:1031000092E00E94351561E08DE492E00E94DA16AB
:1031100061E08DE492E00E94BC1641E06DE472E053
:10312000CB010E94E113882319F083E090E008C0EE
:103130008DE492E00E9470169983888380E090E08D
:10314000DF91CF911F9108958DE492E00E94F816CF
:10315000089521E040EF50E060E070E080E090E012
:103160000E947B179927089521E0AC016AEA7AE072
:1031700080E090E00E947B17882319F082E090E0C5
:10318000089580E090E00895282F4AEA50E06AEA26
:103190007AE080E090E00E947B17882319F082E0BB
:1031A00090E0089521E045E550E064E575E080E0B9
:1031B00090E00E947B17882391F780E090E00895CB
:1031C000AF92BF92CF92DF92EF92FF920F931F9335
:1031D0007B018C015A0181E00E94C418C82E80EA4C
:1031E00090E00E94B418D82E8EEF9FEFAFEFBFEFA4
:1031F000E822F9220A231B2321E0A501C801B70117
:103200000E947B17DC28D82A8D2D99271F910F91BA
:10321000FF90EF90DF90CF90BF90AF900895DF9236
:10322000EF92FF920F931F937B018C018AEA90E04B
:103230000E94B418D82E21E040E750E0C801B70141
:103240000E947B17D82A8D2D99271F910F91FF90EF
:10325000EF90DF900895CF93DF93CDB7DEB722973D
:103260000FB6F894DEBF0FBECDBF282FAE014F5F63
:103270005F4F60E070E080E090E00E945B1899276B
:1032800022960FB6F894DEBF0FBECDBFDF91CF916F
:1032900008958F929F92AF92BF92CF92DF92EF925A
:1032A000FF920F931F93CF93DF93CDB7DEB7229793
:1032B0000FB6F894DEBF0FBECDBF5B016C0160E0BE
:1032C00081E00E94741780E00E942B19F82E81E0A3
:1032D0000E94C418E82E80E890E00E94B418082FDD
:1032E00081E00E94C418182F21E040E350E0C6019D
:1032F000B5010E947B17EF28E02AE12AE82A10E0B6
:103300004E010894811C911C06C088729070892B14
:10331000A1F4193219F186E990E00E9406011F5FBD
:1033200021E0A401C601B5010E945B18E82A898149
:103330009A812FEF8F3F920741F70E94A918082F1B
:1033400061E081E00E94741781E00E942B1919321C
:1033500070F40E29082B802F99270BC00E94A91802
:1033600061E081E00E94741781E00E942B1984E0E3
:1033700090E022960FB6F894DEBF0FBECDBFDF916E
:10338000CF911F910F91FF90EF90DF90CF90BF9062
:10339000AF909F908F900895BF92CF92DF92EF925F
:1033A000FF920F931F937C0180E00E942B19B82E8F
:1033B00081E00E94C418182F80E990E00E94B418A0
:1033C000C82EA7014E5F5F4F21E060E070E080E013
:1033D00090E00E945B18D82E21E0A70162E070E027
:1033E00080E090E00E945B18F82E0E94A918082F38
:1033F00081E00E942B191B291C291D291F29102B34
:10340000182B812F99271F910F91FF90EF90DF903C
:10341000CF90BF9008950E94A4180895CF93DF9392
:10342000AC01029710F442E050E0A091D202B091BA
:10343000D302FD01C0E0D0E020E030E020C0808178
:1034400091818417950769F482819381209719F0FF
:103450009B838A8304C09093D3028093D2029F01FE
:1034600032C04817590738F42115310519F0821771
:10347000930708F49C01EF010280F381E02D30975F
:10348000F1F62115310599F1C901841B950B0497BB
:1034900008F4A901E0E0F0E028C08D919C9111971B
:1034A00082179307F9F44817590781F4ED018A81CF
:1034B0009B81309719F09383828304C09093D30249
:1034C0008093D2029D012E5F3F4F4BC0841B950B12
:1034D000FD01E80FF91F4193519302978D939C933F
:1034E0009F013FC0FD01A281B3811097B1F6809189
:1034F000D0029091D102892B41F4809102019091E8
:1035000003019093D1028093D00220910401309165
:1035100005012115310541F42DB73EB78091000119
:1035200090910101281B390BA091D002B091D102DA
:103530002A1B3B0B2417350790F0CA010296281767
:10354000390768F09D012E5F3F4FC901840F951F19
:103550009093D1028093D0024D935C9302C020E0FF
:1035600030E0C901DF91CF910895CF93DF930097A9
:1035700009F44EC0EC0122971B821A82A091D2025C
:10358000B091D302109711F140E050E001C0DC018E
:10359000AC17BD0700F1BB83AA83FE0121913191D5
:1035A000E20FF31FEA17FB0771F48D919C911197BD
:1035B000280F391F2E5F3F4F39832883FD018281F9
:1035C00093819B838A834115510559F4D093D3028B
:1035D000C093D2021DC0FD0182819381AD0100978D
:1035E000B1F6FA01D383C28321913191E20FF31F27
:1035F000EC17FD0769F488819981280F391F2E5F28
:103600003F4FFA01318320838A819B819383828398
:10361000DF91CF910895E199FECFBFBBAEBBE09A99
:1036200011960DB20895E199FECFBFBBAEBB0DBAA6
:1036300011960FB6F894E29AE19A0FBE0895FFCF63
:10364000456D62656464656450726F6A6563747326
:10365000005553422041565233322070726F6772C8
:10366000616D6D6572005A687559756E007374618D
:103670006C6C2068616E647368616B65200074789F
:1036800030206572726F720A00616C742065766515
:103690006E740D0A0072657365740D0A00726573AD
:1036A000756D650D0A00656C73650D0A006E6163CA
:1036B0006B206576656E740D0A0000700C01F002D7
:1036C000050305020103000E0F0C07020106040AA0
:1036D0000D0B0D0A090B080C070C070A090C0FFF4C
:0636E0002000D4020000EE
:00000001FF
