:100000000C942A000C941D010C9447000C9447009A
:100010000C9447000C9447000C9447000C94470044
:100020000C9447000C9447000C9447000C94470034
:100030000C9447000C9441010C9447000C94470029
:100040000C9447000C9447000C9447000C94470014
:100050000C94470011241FBECFE5D8E0DEBFCDBF12
:1000600010E0A0E6B0E0EAE4FAE002C005900D92EC
:10007000AE3EB107D9F711E0AEEEB0E001C01D927F
:10008000AF3EB107E1F70E944A000C9424050C949E
:1000900000000895CFE5D8E0DEBFCDBF44E650E0D4
:1000A0006FE671E08091FD009091FE000E94A50432
:1000B00044E650E061E071E08091F4009091F50039
:1000C0000E94A50482EA90E00E941E0478940E9497
:1000D0006F0163E870E081E790E00E9415040E94E0
:1000E000D3030E944904FFCF8091F2009091F30066
:1000F000019731F41092F3001092F20063E007C010
:1001000081E090E09093F3008093F20067E083E356
:100110000E94040408958091F0009091F1000197ED
:1001200031F41092F1001092F00063E007C081E01A
:1001300090E09093F1008093F00067E08BE20E94E2
:1001400004040895FC0180810E947C0108950F93AE
:100150001F93CF93DF938C0180E690E00E9496017D
:10016000F8018181813241F1823209F446C0803246
:1001700009F057C086E690E00E94960161E087E2B0
:100180000E94040485E20E94EB0385E20E94EB03D7
:1001900085E20E94EB0385E20E94EB0385E20E9468
:1001A000EB0385E20E94EB0385E20E94EB0368E02B
:1001B00083E20E94040431C068E083E20E940404E8
:1001C00060E881E20E94040465E281E20E94040486
:1001D00060E081E20E94040460E081E20E94040485
:1001E00060E081E20E94040460E081E20E94040475
:1001F00068E081E20E9404040EC068E08BE20E9485
:100200000404C6ECD0E0699189E20E940404F0E0A5
:10021000CE3CDF07C1F70E948B0065E083E20E94BD
:100220000404DF91CF911F910F910895FC0181810A
:10023000813011F40E94FA0408951F920F920FB6B4
:100240000F9211242F933F934F935F936F937F935C
:100250008F939F93AF93BF93EF93FF930E942304D9
:10026000FF91EF91BF91AF919F918F917F916F918E
:100270005F914F913F912F910F900FBE0F901F9064
:1002800018951F920F920FB60F9211242F933F9340
:100290004F935F936F937F938F939F93AF93BF938E
:1002A000EF93FF9368E083E30E9404040E948001BF
:1002B000682F81E30E9404040E947400FF91EF9173
:1002C000BF91AF919F918F917F916F915F914F916E
:1002D0003F912F910F900FBE0F901F90189580ECBB
:1002E0008BB988E98AB986E880BD10BC83E389B9F7
:1002F0008CB15F99FDCF08955D9BFECF8CB90895B9
:100300005F9BFECF8CB1992708958A3310F48053F8
:1003100001C087556A3310F4605301C067556F7090
:100320008295807F682B862F99270895FC0104C051
:100330005D9BFECF31968CB980818823C9F70895E3
:10034000982F92959F708F709A3020F45D9BFECF0E
:10035000905D03C05D9BFECF995A9CB98A3020F412
:100360005D9BFECF805D03C05D9BFECF895A8CB93B
:10037000089587E28093D60185E28093D50190E2CB
:100380009093D7011092D80128E030E03093DA0141
:100390002093D90183E28093E20181E28093E1011D
:1003A0009093E3011092E4013093E6012093E5017C
:1003B0000895089568E08BE20E94040463E188E2F6
:1003C0000E94040468E08FE20E94040461E18CE270
:1003D0000E94040461E08FE20E94040468E083E369
:1003E0000E94040461E180E30E94040465E083E26A
:1003F0000E94040408950F931F93CF93DF93EC01A1
:100400002885398512161306DCF58E819F818217A7
:1004100093071CF568E083E20E94040400E010E00A
:100420000FC08A859B85E80FF91F608181E20E94D9
:1004300004048E819F8101969F838E830F5F1F4FDF
:10044000EE81FF8188859985083011051CF4E81735
:10045000F9073CF3E817F90724F061E087E20E940E
:1004600004048B81813031F465E089810E940404A9
:100470001B8206C061E089810E94040481E08B83B5
:10048000DF91CF911F910F910895DC01FC019381C1
:100490001092E8011092E70181E08093E40191302D
:1004A00019F0923059F51BC0E0916D01F0916E0189
:1004B000808199279093EA018093E901F093EC0100
:1004C000E093EB01FD018681978180349105B1F4C1
:1004D00088E090E09093EA018093E9010FC0FD016C
:1004E000868197819093EA018093E9018091D301FD
:1004F0009091D4019093EC018093EB0181EE91E017
:100500000E94FB010895CF93DF9382E20E94EB03E8
:10051000C82FDD27C5FF1AC068E083E20E940404EB
:10052000C6FF10C02091E7013091E8018091E901F8
:100530009091EA01281739072CF481EE91E00E948E
:10054000FB0104C061E087E20E940404DF91CF91C7
:10055000089588E00E94EB0308958AE00E94EB036F
:1005600080FF03C00E94830208958AE20E94EB0389
:1005700082E30E94EB038AE30E94EB0308958EE07E
:100580000E94EB030895AF92BF92CF92DF92EF9259
:10059000FF920F931F93CF93DF93CDB7DEB72897CA
:1005A0000FB6F894DEBF0FBECDBF86E20E94EB030C
:1005B00086FF7EC08E010F5F1F4F580189E0C82E55
:1005C000D12CCC0EDD1E8091D5010E94EB03F801E9
:1005D00081938F017501EC15FD05A9F768E087E2AD
:1005E0000E94040468E083E20E94040480E20E9406
:1005F000EB038F77682F80E20E940404898199279A
:100600009C012076307020323105A9F1203431056B
:10061000C1F1232BF1F58F719070892B31F5F50124
:100620008181863051F0873018F48530C9F409C0D3
:10063000893079F08B30A1F410C0C5010E944502C9
:1006400030C060E480E20E9404046B81605884E062
:1006500026C0C5010E94DA0124C065E083E21FC004
:1006600080ED90E00E94120414C061EE71E0C501BB
:100670000E94490009C061EE71E0C5010E94A70017
:1006800003C0C5010E94160181EE91E00E94FB01AA
:1006900008C080E20E94EB038058682F80E20E942D
:1006A0000404F70180818823D1F465E083E215C05A
:1006B0002091E9013091EA018091E5019091E601F4
:1006C0008217930764F41092EA011092E90168E03E
:1006D00083E20E94040461E087E20E9404042896F9
:1006E0000FB6F894DEBF0FBECDBFDF91CF911F9143
:1006F0000F91FF90EF90DF90CF90BF90AF90089553
:10070000CF92DF92EF92FF920F931F93CF93DF93DD
:10071000CDB7DEB7C054D0400FB6F894DEBF0FBEE1
:10072000CDBF8CE00E94EB03992780FF03C00E949D
:10073000C30229C081FF27C08EE20E94EB038DE235
:100740000E94EB0389838E010F5F1F4F68019FE3B7
:10075000E92EF12CE00EF11E0F5F1F4F0E94DF0308
:10076000F80180830E151F05B9F7E091FF00F091A5
:100770000001C601099568E08FE20E94040461E06F
:100780008FE20E940404C05CDF4F0FB6F894DEBF16
:100790000FBECDBFDF91CF911F910F91FF90EF90D2
:1007A000DF90CF90089585B7826085BF8BB7806456
:1007B0008BBF88EF81BB82B3886382BB089582B30D
:1007C00098E1892782BB0000000082B3892782BBA1
:1007D00083B3992708959FEF94BB85BB82B398E6B6
:1007E000892782BB82B3892782BB000014BA0E948A
:1007F000DF039927089585BB82B398E2892782BBDE
:1008000082B3892782BB089585BB8FEF84BB82B3F7
:1008100098E6892782BB82B3892782BB862F0E94F4
:10082000FB0308950E949601089590936E018093B2
:100830006D017093D4016093D301089590930001EA
:100840008093FF0008951F9386E00E94EB03992791
:1008500086FF03C00E9480030EC082FF03C00E9477
:10086000AD0209C081FF03C00E94A90204C084FF39
:1008700002C00E94BF0287E00E94EB03182F60E0D5
:1008800087E00E940404612F87E00E9404041F9106
:1008900008950E94B90161E080E00E94040480E0B4
:1008A0000E94EB0380FDFBCF62E081E00E94040424
:1008B00060E18FE00E94040460E884E00E94040488
:1008C00060E480E20E94040468E083E20E94040481
:1008D00069E087E20E9404046FE08DE00E94040456
:1008E0006FE08BE00E94040460E589E00E9404044C
:1008F00066ED87E00E94040462E085E00E94040443
:100900006CEC80E00E9404040895CF93DF93DC0137
:10091000EC01EC81FD81219188859985019721F475
:100920008A819B81E81BF90BED01FD83EC8399879C
:1009300088878D919C911197019711969C938E9326
:10094000822F9927DF91CF910895FC0111821082A7
:100950007783668375836483538342835387428797
:10096000518740878FEF84870895CF93DF93DC0111
:100970002D913C911197EC018A819B8128173907B1
:100980001CF080E090E01AC0ED01EE81FF816193E0
:100990008A859B85019721F48A819B81E81BF90B4D
:1009A000ED019B878A87FF83EE838D919C91119740
:1009B000019611969C938E9381E090E0DF91CF9108
:1009C0000895FC0180819181892BE1F3CF010E9480
:1009D000850499270895FC0180819181892B19F460
:1009E0002FEF30E005C0CF010E948504282F332768
:1009F000C90108958FEF20E030E0D901082E0E9450
:100A00001805D9010E941005802D8F3FD1F78BB7B3
:100A100082608BBFE091EB00F091EC0009950895A6
:100A2000E199FECFBFBBAEBBE09A11960DB208951F
:100A3000E199FECFBFBBAEBB0DBA11960FB6F894CD
:0A0A4000E29AE19A0FBE0895FFCF7D
:100A4A00636C61737300736574206C696E650D0A5B
:100A5A000012011001020000088117640C00010055
:100A6A0000000109024800020100A01A090400005E
:100A7A0001020201000524001001042402020524D7
:100A8A000600010524010301070583030800640920
:100A9A00040100020A000000070501020100000724
:100AAA00058102080000A1200000000002000300E6
:100ABA00756E737570706F72746564207374616E8D
:0E0ACA0064617264207265710A0D0000700094
:00000001FF
